:020000040800F2
:10000000F80B002045010008AD400008AF40000893
:10001000B3400008B7400008BB40000800000000E3
:10002000000000000000000000000000BF400008C9
:10003000C140000800000000C3400008C54000089F
:100040005F0100085F0100085F0100085F01000810
:100050005F0100085F0100085F0100085F01000800
:100060005F0100085F0100085F0100085F010008F0
:100070005F0100085F0100085F0100085F010008E0
:100080005F0100085F0100085F0100085F010008D0
:100090005F0100085F0100085F0100085F010008C0
:1000A0005F0100085F0100085F0100085F010008B0
:1000B0005F0100085F0100085F0100085F010008A0
:1000C0005F0100085F0100085F0100085F01000890
:1000D0005F010008412300085F0100085F0100087C
:1000E0005F0100085F0100085F0100085F01000870
:1000F0005F0100085F0100085F0100085F01000860
:100100005F0100085F0100085F0100085F0100084F
:100110005F0100085F0100085F0100085F0100083F
:100120005F0100085F0100085F0100085F0100082F
:10013000DFF80CD005F040F9004800476B4000089C
:10014000F80B00200648804706480047FEE7FEE718
:10015000FEE7FEE7FEE7FEE7FEE7FEE7FEE7FEE777
:1001600047020008310100080CB500200190009002
:100170006C48006840F480306A49086000BF6948F4
:10018000006800F4003000900198401C0190009835
:1001900018B90198B0F5A06FF1D16248006800F479
:1001A000003010B10120009001E000200090009884
:1001B000012843D15C48006840F010005A490860AB
:1001C0000846006820F0030008600846006840F018
:1001D0000200086053484068524948600846406839
:1001E00048600846406840F48060486008464068BF
:1001F00020F47C1048600846406840F4E8104860ED
:100200000846006840F08070086000BF45480068FC
:1002100000F000700028F9D04248406820F0030048
:10022000404948600846406840F00200486000BF0E
:100230003C48406800F00C000828F9D10CBD10B50E
:10024000FFF792FF10BD10B53648006840F001007E
:1002500034490860084640683449084031494860DC
:1002600008460068324908402E4908600846006880
:1002700020F4802008600846406820F4FE004860B2
:100280004FF41F008860FFF7DAFF4FF00060294944
:10029000086010BD10B5002100200022214B5B68D2
:1002A00003F00C0121B1042906D0082928D107E068
:1002B000214B224C236027E01F4B204C236023E07E
:1002C000184B5B6803F47010164B5B6803F48032C4
:1002D000022303EB904022B9194B4343174C236090
:1002E0000DE0104B5B6803F4003323B1144B434320
:1002F000124C236003E0104B4343104C236003E097
:100300000D4B0E4C236000BF00BF064B5B68C3F370
:1003100003130C4CE15C094B1B68CB40074C23607A
:1003200010BD000000100240002002400000FFF855
:10033000FFFFF6FE08ED00E000127A00000000204A
:1003400000093D000400002031490143314A116099
:10035000704770B5002100230F22C47804B32D4CE0
:10036000246804F4E064C4F5E064210AC1F10403E4
:10037000CA40447804FA03F1847814402143090107
:10038000254C0678A155047804F01F050124AC40E3
:1003900005786D11AD0005F1E025C5F8004109E0D3
:1003A000047804F01F050124AC401C4D067876113A
:1003B00045F8264070BD1A4A0A400243154B1B1FE0
:1003C0001A60704739B1134A121D12680243114B6B
:1003D0001B1D1A6006E00F4A121D126882430D4B66
:1003E0001B1D1A607047042808D14FF0E0210969ED
:1003F00041F004014FF0E022116107E04FF0E021ED
:10040000096921F004014FF0E022116170470000FA
:100410000000FA050CED00E000E400E080E100E0FF
:1004200080FFFF1F01460020FE4A106800F03800E0
:10043000084310607047FB49096821F00801F94A38
:10044000116011460968014311607047F549096858
:1004500021F01001F34A116011460968014311604F
:100460007047F148EF494860F04848607047EE48EF
:10047000EC494860ED4848607047EA48006940F040
:100480008000E84908617047E648006940F0800054
:10049000E449086170470420E249C96801F001019C
:1004A00009B101200EE0DF49C96801F0040109B17A
:1004B000022007E0DB49C96801F0100109B10320FF
:1004C00000E00420704700B502460423FFF7E3FF75
:1004D000034603E0FFF7DFFF0346521E012B01D165
:1004E000002AF7D102B90523184600BD30B50446ED
:1004F00004254FF43020FFF7E6FF0546042D17D101
:10050000C848006940F00200C649086108464461D5
:10051000006940F0400008614FF43020FFF7D3FF3E
:100520000546C048006941F6FD710840BD490861B3
:10053000284630BD10B504244FF43020FFF7C3FF28
:100540000446042C16D1B748006940F00400B549B0
:1005500008610846006940F0400008614FF430200F
:10056000FFF7B1FF0446AF48006941F6FB71084050
:10057000AC490861204610BD00B502460423FFF7D0
:100580008AFF034603E0FFF786FF0346521E012B56
:1005900001D1002AF7D102B90523184600BD10B5D4
:1005A00004244FF43020FFF7E7FF0446042C16D153
:1005B0009C48006940F004009A49086108460069B7
:1005C00040F0400008614FF43020FFF7D5FF0446AB
:1005D0009448006941F6FB71084092490861204641
:1005E00010BD00208F49C96901F0020109B1012045
:1005F00000E00020704730B5A5250424FFF7F1FF87
:1006000000B100254FF43020FFF75DFF0446042CB5
:100610003AD18548834988608448886008460069E3
:1006200040F0200008610846006940F04000086181
:100630004FF43020FFF747FF0446042C1BD17948C4
:10064000006941F6DF710840764908610846006993
:1006500040F01000086176480580E002FFF733FFA4
:100660000446052C10D06F48006941F6EF71084030
:100670006C49086108E0052C06D06A48006941F61B
:10068000EF71084067490861204630BD78B50646DD
:100690000C46042500200090E802FFF714FF0546F1
:1006A000042D24D15F48006940F001005D490861D4
:1006B0003480E802FFF707FF0546042D10D1B01C77
:1006C0000090200C00990880E802FFF7FCFE054628
:1006D0005448006941F6FE7108405249086106E03D
:1006E0005048006941F6FE7108404E4908612846AD
:1006F00078BD70B504460D460426F002FFF7E3FE10
:100700000646042E11D14748006940F001004549D2
:1007100008612580F002FFF7D6FE064641480069D1
:1007200041F6FE7108403F490861304670BD70B522
:1007300005460E460424E002FFF7C5FE0446042CDD
:1007400017D13948374988603848886008460069B9
:1007500040F0100008612E80E002FFF7B4FE04466E
:10076000052C06D02F48006941F6EF7108402D494D
:100770000861204670BD2DE9F04304464FF6FF7630
:100780003746B046B1460425E443E6B2C4F3072732
:10079000C4F307484FEA1469E802FFF794FE0546E0
:1007A000042D49D120481F498860204888600846A8
:1007B000006940F010000861FF2E06D01C48083088
:1007C0000680E802FFF77FFE0546042D08D1FF2FC3
:1007D00006D017480A300780E802FFF774FE054686
:1007E000042D0AD1B8F1FF0F07D011480C30A0F842
:1007F0000080E802FFF767FE0546042D0AD1B9F133
:10080000FF0F07D00A480E30A0F80090E802FFF76B
:100810005AFE0546052D0FD00248006941F6EF71DA
:10082000084007E00020024023016745AB89EFCD77
:1008300000F8FF1F664908612846BDE8F08330B51F
:10084000054604244FF43020FFF73DFE0446042CF7
:1008500041D160485E4988605F4888600846006909
:1008600040F0200008610846006940F0400008613F
:100870004FF43020FFF727FE0446042C22D15448C1
:10088000006941F6DF710840514908610846006976
:1008900040F0100008611DB100205049088002E0BE
:1008A000A5204E4908804FF43020FFF70CFE044687
:1008B000052C10D04648006941F6EF7108404449C4
:1008C000086108E0052C06D04148006941F6DF7157
:1008D00008403F490861204630BDF0B505460E4648
:1008E000174604243B483A4988603B488860E00248
:1008F000FFF7E9FD0446042C19D13548006940F0A2
:1009000010003349086147F0F80030432843334969
:10091000891C0880E002FFF7D6FD0446052C06D0AE
:100920002B48006941F6EF710840294908612046CB
:10093000F0BD2748C069800870472548006A7047A5
:1009400000202349096801F0200109B1012000E0DD
:100950000020704729B11E4A126902431C4B1A61DC
:1009600004E01B4A12698243194B1A617047014621
:100970000020012908D1164AD26902F001020AB109
:10098000012008E0002006E0114AD2680A400AB1BE
:10099000012000E0002070470D49C8607047042026
:1009A0000B49C96801F0010109B101200EE00849B5
:1009B000C96801F0040109B1022007E00449C968CF
:1009C00001F0100109B1032000E00420704700008D
:1009D0000020024023016745AB89EFCD00F8FF1FDF
:1009E00010B50446CC48844208D10121042000F00F
:1009F0002DFB0021042000F029FB46E0C74884427B
:100A000008D10121082000F021FB0021082000F07E
:100A10001DFB3AE0C248844208D10121102000F0B9
:100A200015FB0021102000F011FB2EE0BD48844290
:100A300008D10121202000F009FB0021202000F036
:100A400005FB22E0B848844208D10121402000F093
:100A5000FDFA0021402000F0F9FA16E0B348844284
:100A600008D10121802000F0F1FA0021802000F05F
:100A7000EDFA0AE0AE48844207D10121801500F06A
:100A8000E5FA0021A01500F0E1FA10BD10B5012132
:100A9000084600F0DBFA0021012000F0D7FA10BD73
:100AA0002DE9F04102460025002600200023002405
:100AB000002791F803C00CF00F0591F803C00CF06B
:100AC000100CBCF1000F03D091F802C04CEA0505F0
:100AD00091F800C0BCF1000F31D0146800202BE069
:100AE0004FF0010C0CFA00F3B1F800C00CEA030659
:100AF0009E4220D183004FF00F0C0CFA03F7BC4349
:100B000005FA03FC4CEA040491F803C0BCF1280F79
:100B100006D14FF0010C0CFA00FCC2F814C00AE038
:100B200091F803C0BCF1480F05D14FF0010C0CFA4D
:100B300000FCC2F810C0401C0828D1D31460B1F8E2
:100B400000C0BCF1FF0F34DD546800202EE000F13E
:100B5000080C4FF0010808FA0CF3B1F800C00CEAD9
:100B600003069E4221D183004FF00F0C0CFA03F7CD
:100B7000BC4305FA03FC4CEA040491F803C0BCF141
:100B8000280F05D100F1080C08FA0CF8C2F81480FF
:100B900091F803C0BCF1480F07D100F1080C4FF0E9
:100BA000010808FA0CF8C2F81080401C0828CED3BF
:100BB0005460BDE8F0814FF6FF7101800221817021
:100BC0000421C17070470246002093680B400BB1AE
:100BD000012000E0002070470146886880B270471D
:100BE00002460020D3680B400BB1012000E000203A
:100BF00070470146C86880B2704701617047416123
:100C000070470AB1016100E041617047C1607047FF
:100C10004FF480320A438261816182618269826914
:100C2000704702460020434B18684FF68073184007
:100C300040EA021008433F4B186070473E49C861C4
:100C40007047F0B50A46002300240021002500F07B
:100C50000046B6F1004F02D1364EF16901E0354E43
:100C60007168C0F3034583B200F44016B6F5401F27
:100C700008D121F070612F4E766826F070662D4FF6
:100C80007E6012E000F48016B6F5801F06D10326C0
:100C900006FA05F4A14341F0706106E0460D360105
:100CA00003FA06F6B14341F0706122B1460D3601F8
:100CB00003FA06F6314300F00046B6F1004F02D1C8
:100CC0001C4EF16101E01B4E7160F0BD30B5002299
:100CD0008B071C0F0F2303FA04F2164B08338C10FA
:100CE00053F824309343134C08348D1044F82530C6
:100CF00023468C1053F824308C07240F00FA04F498
:100D000023430C4C08348D1044F8253030BD0A497B
:100D1000DC3108607047000000080140000C014011
:100D2000001001400014014000180140001C014067
:100D3000002001400000014000002042DF48006820
:100D400040F00100DD49086008464068DC49084081
:100D5000DA49486008460068DA490840D74908601F
:100D60000846006820F4802008600846406820F4A7
:100D7000FE0048604FF41F0088607047CF49096843
:100D800021F48031CD4A11601146096821F4802197
:100D90001160B0F5803F03D0B0F5802F0ED106E092
:100DA000C649096841F48031C44A116007E0C3496B
:100DB000096841F4A021C14A116000E000BF00BFF2
:100DC000704710B501460022002300204A11012A75
:100DD00002D1BA4C236806E0022A02D1B74C236A3A
:100DE00001E0B64C636A01F01F02012494401C40EC
:100DF0000CB1012000E0002010BD38B500200090AB
:100E00000024002500BF3120FFF7DBFF05460098D6
:100E1000401C00900098B0F5A06F01D0002DF2D0DA
:100E20003120FFF7CEFF08B1012400E00024204666
:100E300038BD01460020A14A106820F0F80040EAC1
:100E4000C10010607047A04908607047024600204A
:100E50009A4B586820F47C1042EA01031843974BE0
:100E60005860704798490866704701460020934AC9
:100E7000506820F003000843506070478F48406876
:100E800000F00C007047014600208C4A506820F0AA
:100E9000F00008435060704701460020874A5068C0
:100EA00020F4E06008435060704701460020834A08
:100EB000506820F4605040EAC1005060704729B18A
:100EC0007E4A527A02437D4B5A7204E07B4A527A40
:100ED00082437A4B5A7270477B49D8310860704719
:100EE00001460020754A506820F440400843506095
:100EF00070470021714A20321170704A82F8201028
:100F0000012802D004280AD104E001216B4A2032D2
:100F1000117005E00521694A2032117000E000BF20
:100F200000BF70476949086070476449096A014316
:100F3000624A11627047654944390860704730B5AC
:100F400000210022002400235C4D6D6805F00C0197
:100F500021B1042905D0082923D105E05C4D0560A5
:100F600022E05B4D05601FE0544D6D6805F4701282
:100F7000524D6D6805F48034022505EB92421CB990
:100F8000544D554305600BE04C4D6D6805F400353C
:100F90001DB1504D5543056002E04D4D5543056070
:100FA00002E04B4D056000BF00BF444D6D6805F089
:100FB000F0010909484D6B5C0568DD4045603F4D17
:100FC0006D6805F4E061090A434D6B5C4568DD40DE
:100FD00085603A4D6D6805F46051C90A3E4D6B5C01
:100FE0004568DD40C560354D6D6805F44041890BAD
:100FF0003A4D6B5CC568B5FBF3F5056130BD29B1B1
:101000002E4A526902432D4B5A6104E02B4A526921
:1010100082432A4B5A61704729B1284A9269024398
:10102000264B9A6104E0254A92698243234B9A61D8
:10103000704729B1214AD2690243204BDA6104E0AA
:101040001E4AD26982431D4BDA61704729B11B4A9F
:10105000D2680243194BDA6004E0184AD26882432E
:10106000164BDA60704729B1144A12690243134BD8
:101070001A6104E0114A12698243104B1A617047E9
:1010800012494039086070470F49C86470470B49DE
:10109000C87170470948406A40F08070074948624B
:1010A000704701460020054A92680A400AB10120B3
:1010B00000E000207047014988727047001002402C
:1010C0000000FFF8FFFFF6FE0000424280044242AB
:1010D00000127A0000093D001400002024000020C6
:1010E00010B50446FE48844208D10121C014FFF720
:1010F000ADFF0021E014FFF7A9FFC4E0B4F1804F79
:1011000008D101210846FFF7AEFF00210120FFF7BB
:10111000AAFFB8E0F348844208D101210220FFF77A
:10112000A2FF00210220FFF79EFFACE0EE488442C0
:1011300008D101210420FFF796FF00210420FFF7CA
:1011400092FFA0E0E948844208D101210820FFF77E
:101150008AFF00210820FFF786FF94E0E4488442DC
:1011600008D101211020FFF77EFF00211020FFF79A
:101170007AFF88E0DF48844208D101212020FFF770
:1011800072FF00212020FFF76EFF7CE0DA488442E6
:1011900008D101214014FFF759FF00216014FFF727
:1011A00055FF70E0D548844209D10121C804FFF7FA
:1011B0004DFF00214FF40020FFF748FF63E0D048C7
:1011C000844209D101210805FFF740FF00214FF4B7
:1011D0008010FFF73BFF56E0CA48844209D1012145
:1011E0004805FFF733FF00214FF40010FFF72EFFF3
:1011F00049E0C548844208D101214020FFF733FF70
:1012000000214020FFF72FFF3DE0C048844208D175
:1012100001218020FFF727FF00218020FFF723FF17
:1012200031E0BB48844208D101218015FFF71BFF44
:101230000021A015FFF717FF25E0B648844209D129
:1012400001210804FFF702FF00214FF48030FFF76F
:10125000FDFE18E0B048844209D101214804FFF79F
:10126000F5FE00214FF40030FFF7F0FE0BE0AB4835
:10127000844208D101218804FFF7E8FE00214FF4E1
:101280008020FFF7E3FE10BD00220288944B9842B5
:101290000ED0994B98420BD0B0F1804F08D0914BB3
:1012A000984205D0904B984202D0904B984204D17E
:1012B0004FF68F731A404B881A438D4B984207D0D4
:1012C0008C4B984204D04FF6FF431A40CB881A4308
:1012D00002808B8883850B880385814B98420BD0D5
:1012E000854B984208D08B4B984205D08A4B984248
:1012F00002D08A4B984201D10B7A03860123838264
:10130000704770B5002400220023058C4FF6FE764E
:1013100035400584028C8388048B4FF68F752C40F2
:10132000B51E2C400D882C43751E2A400D892A437A
:101330004D882A436A4DA8420BD06F4DA84208D071
:10134000744DA84205D0744DA84202D0734DA842F6
:1013500013D14FF6F7752A404D892A434FF6FB7596
:101360002A408D882A434FF6FF652B404FF6FF55E4
:101370002B408D892B43CD892B4383800483CD88DB
:101380008586028470BD70B5002400220023058C80
:101390004FF6EF7635400584028C8388048B48F63F
:1013A000FF752C404FF6FF452C400D884FF6FF7619
:1013B00006EA05252C434FF6DF752A400D8906EA1B
:1013C00005152A434D8806EA05152A43444DA842CF
:1013D00002D0494DA8421DD14FF67F752A404D8954
:1013E0004FF6FF7606EA05152A434FF6BF752A40E9
:1013F0008D8806EA05152A434FF6FF352B404FF23C
:10140000FF752B408D8906EA85052B43CD8906EAB9
:1014100085052B4383800483CD880587028470BDB6
:1014200070B5002400220023058C4FF6FF6635407E
:101430000584028C8388848B4FF68F752C404FF681
:10144000FC752C400D882C434FF6FF552A400D8922
:101450004FF6FF7606EA05252A434D8806EA05255C
:101460002A431F4DA84202D0234DA8421DD14FF25E
:10147000FF752A404D894FF6FF7606EA05252A4377
:101480004FF6FF352A408D8806EA05252A434EF699
:10149000FF752B404DF6FF752B408D8906EA05152B
:1014A0002B43CD8906EA05152B4383808483CD88A1
:1014B0008587028470BD70B5002200230024058C4E
:1014C0004EF6FF7635400584038C8488828B48F67F
:1014D000FF752A404FF6FF452A400D8820E00000A6
:1014E000002C01400004004000080040000C0040B7
:1014F000001000400014004000340140004C014046
:10150000005001400054014000180040001C004001
:1015100000200040004001400044014000480140DC
:101520004FF6FF7606EA05252A434DF6FF752B4058
:101530000D8906EA05352B434D8806EA05352B4310
:10154000FA4DA84202D0FA4DA84208D14BF6FF75D9
:101550002C408D894FF6FF7606EA85152C43848052
:101560008283CD88A0F84050038470BD828B4FF2F7
:10157000FF331A408283828B4FF6FF7303EA012305
:101580001A4382837047F0B50C46154600220021AD
:101590000026078C4EF6FF7C07EA0C070784828B37
:1015A000018C4FF6FF7707EA043640F6FF473A40D2
:1015B0004FF6FF7707EA05273A434FF6FF7707EA2A
:1015C00003373A43D94FB8420ED0D94FB8420BD067
:1015D000B0F1804F08D0D74FB84205D0D64FB842AF
:1015E00002D0D64FB84206D14DF6FF77394046F4C7
:1015F0008057394305E047F6FF57394044F4805798
:10160000394382830184F0BD828B4FF6F3731A4015
:101610008283828B0A4382837047F0B50C4615465D
:10162000002200210026078C4FF6FF6C07EA0C070A
:101630000784828B018C4FF6FF7707EA04264FF66A
:101640000C773A404FF6FF7707EA03172F433A43E8
:10165000B64FB8420ED0B64FB8420BD0B0F1804F63
:1016600008D0B44FB84205D0B34FB84202D0B34F00
:10167000B84206D14FF6FF57394046F480773943D8
:1016800005E04FF2FF57394044F4807739438283B5
:101690000184F0BD028B4FF2FF331A400283028BAC
:1016A0004FF6FF7303EA01231A4302837047F0B534
:1016B0000C461546002200210026078C4FF6EF7CD1
:1016C00007EA0C070784028B018C4FF6FF7707EAC5
:1016D000041640F6FF473A404FF6FF7707EA033714
:1016E0003A434FF6FF7707EA05273A438F4FB84250
:1016F0000ED08F4FB8420BD0B0F1804F08D08D4F35
:10170000B84205D08C4FB84202D08C4FB84206D1B7
:101710004FF6DF77394046F01007394305E04FF6C2
:101720005F77394044F01007394302830184F0BDEC
:10173000028B4FF6F3731A400283028B0A43028333
:101740007047F0B50C46154600220021068C4FF676
:10175000FE773E400684028B018C4FF60C763240B9
:101760007E1C06EA03162E433243704EB0420ED062
:101770006F4EB0420BD0B0F1804F08D06D4EB042EA
:1017800005D06D4EB04202D06C4EB04206D14FF63D
:10179000FD76314044F00106314305E04FF6F57621
:1017A000314044F00106314302830184F0BD70B53D
:1017B00005460C465D4885420ED05D4885420BD0FB
:1017C000B5F1804F08D05B48854205D05A48854224
:1017D00002D05A48854200D100E000BF208850B9AD
:1017E0002389A28861882846FFF7ABFFE188284655
:1017F000FFF79EFF25E0208804280AD12389A288CC
:1018000061882846FFF753FFE1882846FFF742FF2B
:1018100017E0208808280AD12389A28861882846F1
:10182000FFF7FBFEE1882846FFF7EEFE09E023897B
:10183000A28861882846FFF7A6FEE1882846FFF7C0
:1018400095FE70BD2DE9F04105460C4600260127A6
:10185000608808B9022600E00026A088012801D18E
:10186000022700E001272088A0B92389A288618887
:101870002846FFF766FFE1882846FFF759FF2389CE
:101880003A4631462846FFF712FFE1882846FFF71F
:1018900001FF13E02389A28861882846FFF707FF2C
:1018A000E1882846FFF7F6FE23893A463146284666
:1018B000FFF747FFE1882846FFF73AFFBDE8F081D0
:1018C0000A884B881A438B881A43CB881A430B89A2
:1018D0001A434B891A438B891A43A0F84420704756
:1018E0004FF6FF71818000210180C180418001722B
:1018F00070470021018041808180C1800181418148
:101900008181C18170470021018041800121818056
:101910000021C180018170470021018041808180C8
:10192000C18001814181818170470000002C01400C
:10193000003401400004004000080040000C00405A
:1019400021B1028842F00102028004E002884FF6D1
:10195000FE731A400280704731B1B0F8442042F45F
:101960000042A0F8442005E0B0F84420C2F30E0283
:10197000A0F8442070471AB183890B43838102E0A9
:1019800083898B43838170478182704741EA0203D8
:10199000A0F8483070471AB183890B43838102E075
:1019A00083898B438381704701894FF6F872114018
:1019B000018170470A46002101894FF68F73194053
:1019C00011430181704730B504460D462946204633
:1019D000FFF7F0FF208940F00700208130BD2DE99E
:1019E000F04104460D4616461F46602D06D13B4683
:1019F000012231462046FFF75AFE05E03B46012210
:101A000031462046FFF79DFE29462046FFF7D2FFCC
:101A1000208940F007002081BDE8F08130B50C46F8
:101A200000210189C9B24FF6FF7505EA0325154368
:101A300025432943018130BD2DE9F04105460E467D
:101A400017469846002443463A4631462846FFF753
:101A5000E5FF2C894FF6F870044044F007044FF678
:101A60008F70044044F070042C81BDE8F081F0B523
:101A700004460D4616461F463B463246294620463A
:101A8000FFF7CCFF208940F480402081F0BD018524
:101A9000828270470A46002101884FF68F731940F1
:101AA000114301807047F0B50C4615461E460021D3
:101AB000002200230189028B038C4FF6F87739400E
:101AC00021434FF6FC473A4040F201173A434FF6A4
:101AD000DD773B404FF6FF7707EA06172F433B437E
:101AE000018102830384F0BD0A460021018B4FF679
:101AF0008F7319401143018370470A460021018BFF
:101B000048F6FF7319404FF6FF7303EA02231943A7
:101B1000018370470A460021818B4FF68F7319406D
:101B20001143818370470A460021818B48F6FF7379
:101B300019404FF6FF7303EA02231943818370476C
:101B400021B1028842F08002028004E002884FF650
:101B50007F731A400280704721B1828842F00402EC
:101B6000828004E082884FF6FB731A4082807047BF
:101B700021B1828842F00802828004E082884FF618
:101B8000F7731A408280704721B1828842F00102C7
:101B9000828004E082884FF6FE731A40828070478C
:101BA0000A460021018B4FF6F77319401143018358
:101BB00070470A460021018B4FF2FF7319404FF620
:101BC000FF7303EA02231943018370470A46002189
:101BD000818B4FF6F77319401143818370470A4692
:101BE0000021818B4FF2FF7319404FF6FF7303EA18
:101BF00002231943818370470A460021018B4FF667
:101C0000FB7319401143018370470A460021018B81
:101C10004FF6FF3319404FF6FF7303EA02231943CF
:101C2000018370470A460021818B4FF6FB731940F0
:101C30001143818370470A460021818B4FF6FF33A1
:101C400019404FF6FF7303EA02231943818370475B
:101C50000A460021018B4FF67F731940114301831F
:101C600070470A460021018BC1F30E014FF6FF7346
:101C700003EA02231943018370470A460021818B3E
:101C80004FF67F7319401143818370470A46002144
:101C9000818BC1F30E014FF6FF7303EA0223194350
:101CA000818370470A460021018C4FF6FD7319406D
:101CB0001143018470470A460021018C4FF6F773E7
:101CC00019401143018470470A460021018C4FF6E8
:101CD000DF7319404FF6FF7303EA021319430184BF
:101CE00070470A460021018C4FF67F7319404FF66A
:101CF000FF7303EA02131943018470470A46002167
:101D0000018C4FF6FF5319404FF6FF7303EA02238D
:101D10001943018470470A460021018C4FF2FF737A
:101D200019404FF6FF7303EA0223194301847047F9
:101D30000A460021018C4DF6FF7319404FF6FF73E0
:101D400003EA023319430184704730B500230124AC
:101D50008C40A3B2048C9C430484048C02FA01F5E9
:101D6000ADB22C43048430BD30B5002304248C4034
:101D7000A3B2048C9C430484048C02FA01F5ADB236
:101D80002C43048430BD70B503460020002418465F
:101D9000183001258D40ACB21D8CA5431D8409B1BE
:101DA000082909D100EB6100056825F07005056080
:101DB0000568154305600EE00D1FC5F34E05284468
:101DC000056825F4E045056005684FF6FF7606EAEC
:101DD00002263543056070BD21B1028842F002023F
:101DE000028004E002884FF6FD731A4002807047BB
:101DF00021B1028842F00402028004E002884FF61A
:101E0000FB731A400280704721B1828842F0800241
:101E1000828004E082884FF67F731A408280704788
:101E200002884FF6F7731A40028002880A43028044
:101E3000704782884FF68F731A40828082880A43E7
:101E40008280704702894FF6F8731A400281028936
:101E50000A430281704702894FF67F731A4002815C
:101E600002890A43028170478184704781857047E7
:101E7000818670470187704781877047A0F84010BE
:101E8000704702884FF6FF431A40028002880A43D7
:101E9000028070470146888E70470146088F704760
:101EA0000146888F70470146B1F8400070470146EF
:101EB000888C70470146088D704702460020138ABF
:101EC0000B400BB1012000E000207047CA430282A2
:101ED000704730B50246002000230024158A05EA29
:101EE0000103958905EA010413B10CB1012000E05A
:101EF000002030BDCA4302827047000010B504467E
:101F0000FB48844209D101218803FFF79FF8002193
:101F10004FF48040FFF79AF832E0F648844209D146
:101F200001214804FFF79FF800214FF40030FFF72C
:101F30009AF825E0F048844209D101218804FFF78E
:101F400092F800214FF48020FFF78DF818E0EB485D
:101F5000844209D10121C804FFF785F800214FF41C
:101F60000020FFF780F80BE0E548844208D101210A
:101F70000805FFF778F800214FF48010FFF773F899
:101F800010BD2DE9F04786B005460E460024A24656
:101F900000BFA1460027B08900B100BF2F462C8AA0
:101FA0004CF6FF700440F08804432C82AC894EF656
:101FB000F3100440B0883189084371890843044311
:101FC000AC81AC8A4FF6FF400440B0890443AC8238
:101FD00001A8FEF7B4FFC648874202D1DDF810A081
:101FE00001E0DDF80CA0A88900F4004040B10AEB44
:101FF000CA0000EB0A1031684900B0FBF1F807E0B5
:102000000AEBCA0000EB0A1031688900B0FBF1F856
:102010006420B8FBF0F004012009642101FB108961
:10202000A88900F4004040B1322000EBC900B0FBA9
:10203000F1F000F00700044308E0322000EB091043
:102040006421B0FBF1F000F00F0004432C8106B0D6
:10205000BDE8F0874FF41651016000218180C180F6
:1020600001810C21418100218181704710B5024618
:102070000020108A4FF2FF0318400B884C8823433E
:102080008C882343CC8823431843108210BD002141
:10209000018041808180C180704721B1828942F4F2
:1020A0000052828104E082894DF6FF731A408281DA
:1020B0007047F0B50346002400260025002040F6B6
:1020C0006A17B94200D100BF1846C1F3421401F0AB
:1020D0001F06012707FA06F5012C01D10C3004E098
:1020E000022C01D1103000E014301AB107682F43E0
:1020F000076002E00768AF430760F0BD1AB1838A4A
:102100000B43838202E0838A8B4383827047028A77
:102110004FF6F0731A400282028A0A430282704725
:1021200082894FF2FF731A40828182890A43828139
:10213000704721B1828942F00202828104E08289E3
:102140004FF6FD731A4082817047028A4FF6DF73A3
:102150001A400282028A0A430282704721B1028A2F
:1021600042F48042028204E0028A4BF6FF731A4076
:1021700002827047C1F30802828070470146888856
:10218000C0F308007047818941F0010181817047E7
:10219000028BD2B20283028B42EA01220283704791
:1021A000028B02F47F420283028B0A430283704750
:1021B00021B1828A42F02002828204E0828A4FF6B4
:1021C000DF731A408282704721B1828A42F0100286
:1021D000828204E0828A4FF6EF731A40828270474F
:1021E00021B1828A42F00802828204E0828A4FF69C
:1021F000F7731A408282704721B1828942F400420B
:10220000828103E08289C2F30E028281704721B18C
:10221000828A42F40062828204E0828A4FF2FF7373
:102220001A4082827047828A4FF6FB731A4082827C
:10223000828A0A438282704721B1828A42F0020276
:10224000828204E0828A4FF6FD731A4082827047D0
:1022500002460020B1F5007F00D100BF13880B407B
:102260000BB1012000E00020704701F40072B2F5CC
:10227000007F00D100BFCA430280704770B502469C
:10228000002400230025002040F66A16B14200D148
:1022900000BFC1F3421501F01F03012606FA03F344
:1022A000012D02D19689334006E0022D02D1168A13
:1022B000334001E0968A33400C12012606FA04F4FA
:1022C0001688344013B10CB1012000E0002070BD2D
:1022D00010B50022002340F66A14A14200D100BFCD
:1022E0000A1201249440A3B2DC43048010BD000014
:1022F000003801400044004000480040004C0040CD
:102300000050004000BFF749098801F04001002952
:10231000F9D0F449091D0880704710B50246002322
:1023200004E019465B1C505CFFF7ECFFD05C002812
:10233000F7D110BD00B5ECA0FFF7EFFF00BD70476F
:1023400010B540F22551E748FFF798FF002828D044
:10235000E448FFF713FFC4B20D2C0BD10020E34972
:10236000E34A128888540120E24908600020E049CD
:10237000088016E00A2C14D0DD480088802808D197
:10238000FFF7D8FFDCA0FFF7DAFF0020D84908806C
:1023900010BDD74801880088401CD54A1080D3481A
:1023A000445400BFF4E7002108E0002201E0531C80
:1023B0009AB2B2F5006FFADB4B1C99B28142F4DBA2
:1023C00070477CB505460024002668E08DBBD048E8
:1023D00010F81400FF2807D1CD4800EB44004078E6
:1023E000FF2827D1012625E0C94810F814008DF8F0
:1023F0000400C74800EB440040788DF805009DF8C4
:10240000040001220DF1050102F0C3F84FF4C87079
:10241000FFF7C9FF9DF804000122694602F0F9F8B0
:102420009DF805009DF80010884203D04FF0FF3062
:102430007CBD01E0641C32E0B64810F81400FF28AF
:1024400007D1B44800EB44004078FF2826D101268C
:1024500024E0B04810F814008DF80400AD4800EBFB
:10246000440040788DF805009DF8040001220DF12C
:10247000050102F033F94FF4C870FFF794FF9DF89F
:1024800004000122694602F069F99DF805009DF8F3
:102490000010884202D04FF0FF30C9E7641C002EC4
:1024A00094D00020C4E77CB5054600240026002017
:1024B0000090294698A003F007FA32E0944810F8FB
:1024C0001400FF280CD1924800EB44004078FF280C
:1024D00026D10126FF22AF2195A003F0F5F91FE0D8
:1024E0008B4810F814008DF80400894800EB440074
:1024F00040788DF8050035B99DF804000122694641
:1025000002F087F805E09DF804000122694602F018
:1025100025F99DF804109DF800208DA003F0D4F952
:10252000641C002ECAD092A003F0CEF900207CBD1E
:102530007CB5054690480068022805D08FA0FFF7BB
:10254000FEFE4FF0FF307CBD0020019000909349CB
:102550001022486801A902F065FB0446FF2C04DC48
:10256000002C02DB0198007828B18DA0FFF7E7FE70
:102570004FF0FF30E7E7E6B22DB901226946304659
:1025800002F047F804E001226946304602F0E6F81E
:1025900029468EA003F098F99DF80020314691A0BD
:1025A00003F092F993A003F08FF90020CBE7FEB57A
:1025B000064671480068032805D070A0FFF7BFFEEB
:1025C0004FF0FF30FEBD0020029074491022486891
:1025D00002A902F027FB0446FF2C04DC002C02DBDE
:1025E0000298007828B185A0FFF7A9FE4FF0FF30D0
:1025F000E8E76A491022886802A902F013FB054641
:10260000FF2D04DC002D02DB0298007828B186A0A3
:10261000FFF795FE4FF0FF30D4E700200190E7B2BE
:10262000E8B2009056B901226946384601F0B1FF80
:10263000012201A9384601F0ECFF09E001226946B8
:10264000384602F04BF8012201A9384602F086F81C
:102650009DF800009DF8041088420DD131465BA022
:1026600003F032F99DF8042039465EA003F02CF9FE
:1026700060A003F029F902E04FF0FF30A2E700204C
:10268000A0E77449744A0868904201D1002070475D
:102690000120FCE72DE9F041FDF7E3FE6D48FDF771
:1026A00025FF6C4C6C4F39462046FDF7EFFF241D8B
:1026B0006A4D002606E020462968FDF7E7FF241D45
:1026C0002D1D761C202EF6DBFDF7D7FEBDE8F08130
:1026D00010B5FDF7C6FE5F48FDF708FFFDF7CDFE1C
:1026E00010BD0000003801400D0A000074070020F2
:1026F000AC000020A80000205B4552524F525D63A1
:102700006F6D6D616E6420746F6F206C6F6E67000B
:10271000C2060020B0060020223835353620636816
:102720006970696420256422203A200D0A5B00004C
:102730007B226164647265737322203A20256420D1
:102740002C2276616C22203A2025647D0D0A00003F
:102750007B226164647265737322203A20256420B1
:102760002C2276616C22203A2025647D2C0D0A00F3
:102770005D2C200D0A000000AC0600205B45525283
:102780004F525D77726F6E6720666F6D6172742C49
:102790007365652048454C5000000000E0060020AD
:1027A0005B4552524F525D6164647265737320637E
:1027B000616E206F6E6C7920626520612038206226
:1027C000697420484558206E756D210022383535D2
:1027D000362063686970696420256422203A207B72
:1027E00000000000223078257822203A202230781C
:1027F000257822007D2C200D0A0000005B455252F6
:102800004F525D616464726573732063616E206F03
:102810006E6C7920626520612075696E743820487D
:102820004558206E756D21005B4552524F525D76C2
:10283000616C75652063616E206F6E6C79206265D6
:1028400020612075696E743820484558206E756D7A
:102850002100000000DC00085C5B5A00280000201A
:102860002DE9F04F87B0824600200690FB480068B3
:1028700002281AD1F949886802F00BFB07460022AA
:10288000F74B02F086FA05460E46504602F001FB71
:102890002A463346CDE9000102F009FACDE90201EA
:1028A00002F023FBC0B2069019E0EC49086902F07F
:1028B000F0FA0022EA4BCDE9000102F06AFA05467F
:1028C0000E46504602F0E5FA2A463346CDE90201AB
:1028D00002F0EDF9074602F008FBC0B206900024B2
:1028E000DE480068022819D1DC49C86802F0D1FA34
:1028F0000022DB4BCDE9000102F04BFA05460E4603
:10290000504602F0C6FA07462A46334602F0CFF98F
:10291000CDE9020102F0CAFA044618E0CF4948693D
:1029200002F0B7FA0022CE4BCDE9000102F031FAF5
:1029300005460E46504602F0ACFA07462A46334694
:1029400002F0B5F9CDE9020102F0B0FA0446FF2C1D
:1029500000DDFF245146C3A002F0B6FF22469DF8D9
:102960001810C7A002F0B0FF204602F081FA002242
:10297000D04BCDE9020102F00CFA05460022CE4B05
:1029800002F095F9074602F091FA81460020059081
:102990000490B2488069002836D1484601F062FDB3
:1029A0004946C6A002F090FF012206A9002001F0CE
:1029B000F0FD012205A9002001F02BFE3220FFF7D7
:1029C000F2FC012206A9002001F088FE012204A9E0
:1029D000002001F0C3FE9DF818009DF814108842F5
:1029E0000CD19DF818009DF81010884206D1BAA0AD
:1029F000FFF7A5FC002007B0BDE8F08FBFA0FFF7F0
:102A00009EFC4FF0FF30F6E79DF8180002F041FA07
:102A10000022A84BCDE9020102F0BBF907460022D3
:102A2000BF4B02F044F9054602F040FA834658468F
:102A300001F0B0FC484601F015FD4A465946B9A0E0
:102A400002F042FF0020D6E7C349C449002005E058
:102A500051F82020814B43F82020401C0728F7DB49
:102A60007047FEB5FFF70DFE002827D0FFF712FED6
:102A7000FDF7F7FCB948FDF739FDB84C022077495E
:102A8000086066204860642088600F20C8600020CD
:102A9000086164204861002088610D46002606E038
:102AA00020462968FDF7F2FD241D2D1D761C072EFA
:102AB000F6DB6A490879FFF7D3FE23E0FFF7C4FF8E
:102AC00066488069012819D10290012400200190F4
:102AD0000090012202A9204601F05BFD012201A91C
:102AE000204601F096FD012202A9204601F0F6FDE4
:102AF00001226946204601F031FE00BF574908799E
:102B0000FFF7AEFEFEBD10B500244FF4FA70FFF7DC
:102B10004AFC01F0FEFA01F0BBFB91A0FFF70FFCAD
:102B200092A0FFF70CFC01F059FE4FF47A70FFF70A
:102B30003AFC582001F008FD18B995A0FFF7FFFBFB
:102B400002E09AA0FFF7FBFB582001F0A2FD18B9A4
:102B50009EA0FFF7F4FB02E0A3A0FFF7F0FB00BF8D
:102B60000020FFF72EFC04461CB16420FFF71BFC7D
:102B7000F6E700BF0120FFF724FC04461CB16420E7
:102B8000FFF711FCF6E74FF4FA70FFF70CFCFFF7C4
:102B900068FF10BD2DE9F041FDF763FC6F48FDF7BC
:102BA000A5FC6E4D2D4E002400BF06E0284631687E
:102BB000FDF76CFD2D1D361D641C072CF6DB674FE1
:102BC000002408E0254850F8240057F824108842D3
:102BD00000D002E0641C072CF4DB00BF072C02D1FC
:102BE00089A0FFF7ACFBFDF748FCBDE8F08170B5AC
:102BF0004FF0FF358C480068022805D0AFF28440C2
:102C0000FFF79DFB284670BD8849486802F042F8EE
:102C10000446022C07D0032C05D085A0FFF78FFBBC
:102C20004FF0FF30EFE70D480460FFF7B3FF0B49AB
:102C30000879FFF715FE05462846E4E72DE9FC472D
:102C400079480068042807D0AFF2D040FFF777FB3F
:102C50004FF0FF30BDE8FC87F8E000008C06002054
:102C6000000059402273797374656D206272696740
:102C700068746E65737322203A2025642C0D0A0057
:102C8000226272696768746E6573735F32442220D2
:102C90003A2025642C200D0A20226272696768742C
:102CA0006E6573735F334422203A2025642C0D0A2D
:102CB0000000000000E06F4000C0A2402264757474
:102CC000795F336422203A202225642F343039364C
:102CD000222C0D0A00000000326420693263207348
:102CE0006574206272696768746E657373207375AA
:102CF000636365737366756C6C792100326420734D
:102D00006574206932632073657420627269676834
:102D1000746E657373206661696C656421000000E0
:102D20000000B04022647574795F326422203A203A
:102D30002225642F34303936222C0D0A2022647566
:102D400074795F336422203A202225642F3430398D
:102D500036222C0D0A00000000DC000800D8000814
:102D6000696E69742E2E2E0D0A00000070776D209A
:102D7000636F6E66696775726174696F6E206973DF
:102D80002066696E69736865642E0D0A0000000094
:102D900038353536203020686173206265656E20D5
:102DA00064657465637465642E0D0A0038353536C4
:102DB000203020686173206E6F74206265656E201C
:102DC00064657465637465640D0A000038353536D2
:102DD000203120686173206265656E2064657465CA
:102DE000637465642E0D0A0038353536203120684D
:102DF0006173206E6F74206265656E206465746512
:102E0000637465640D0A000057726974652044613B
:102E1000746120746F20666C6173682073756363DE
:102E20006573732E0D0A0000AC060020E00600203A
:102E30005B4552524F525D6D6F6465206D757374C2
:102E40002062652032206F7220332100FD494868DE
:102E500001F020FF824600200090FA49886801A90D
:102E600003F0A7F906460F46F649C868694603F01D
:102E7000A0F904460D46BAF1020F02D0BAF1030FD1
:102E800005D10198007810B90098007830B1EEA013
:102E9000FFF755FA4FF0FF30BDE8FC870022F04BFA
:102EA0003046394602F052F814D300221346304619
:102EB000394602F033F80DD30022EA4B204629466A
:102EC00002F044F806D3002213462046294602F0B9
:102ED00025F805D2E4A0FFF732FA4FF0FF30DBE728
:102EE000BAF1020F16D10022EC4B3046394601F000
:102EF000DEFE804601F0DAFFE94988600022E74BF8
:102F00002046294601F0D3FE804601F0CFFFE44978
:102F1000C86015E00022E14B3046394601F0C7FE9B
:102F2000804601F0C3FFDE4908610022DB4B2046EA
:102F3000294601F0BCFE804601F0B8FFD84948613F
:102F4000FFF728FED6490879FFF78AFCA4E730B5D9
:102F5000A1B0D44D2C46802101A801F026FE00200E
:102F600004E0217801AA1154641C401C8028F8DB7D
:102F700001A9CDA002F0A8FC002021B030BD2DE9B0
:102F8000F04F8DB0CF480068012806D0AFF614008E
:102F9000FFF7D5F90DB0BDE8F08FFFF755FDC0483C
:102FA00040680B90BE4800680A90BD49886801F0EF
:102FB00070FF0022B94BCDE9040101F0EAFECDE932
:102FC0000801B749C86801F064FF0022B34BCDE99E
:102FD000040101F0DEFE82468B46B149086901F02A
:102FE00058FF0022AD4BCDE9040101F0D2FECDE93E
:102FF0000601AB49486901F04CFF0022A74BCDE91F
:10300000040101F0C6FE04460D460A98022815D1B7
:103010000B9801F02DFFCDE90001DDE9082301F057
:1030200046FE0022A84BCDE9020101F0B2FE0022CB
:10303000A64BCDE9040101F03AFE14E00B9801F033
:1030400017FFCDE90001DDE9062301F030FE002283
:103050009D4BCDE9020101F09CFE00229B4BCDE986
:10306000040101F024FE06460F460A98022815D1F5
:103070000B9801F0FDFE52465B46CDE9000101F0E0
:1030800016FE0022904BCDE9020101F082FE0022E3
:103090008F4BCDE9040101F00AFE14E00B9801F01A
:1030A000E7FE22462B46CDE9000101F000FE00229A
:1030B000854BCDE9020101F06CFE0022844BCDE985
:1030C000040101F0F4FD8046894682A0FFF737F93C
:1030D0007348806920B98AA00B9902F0F5FB03E0E0
:1030E00094A00B9902F0F0FB0A9802280BD1CDE9CD
:1030F00000AB02A8A0E8C00302219B48DDE9082339
:1031000002F0E2FB07E08DE8F00303219648DDE9D9
:10311000062302F0D9FB00BF3CE72DE9FF5F6948B9
:103120000068022808D0AFF6AC10FFF708F94FF09E
:10313000FF3004B0BDE8F09F00200390414948688B
:1031400003A903F036F804460D460398007828B129
:1031500086A0FFF7F4F84FF0FF30EAE700225B4B60
:103160002046294601F0F2FE06D3002213462046EF
:10317000294601F0D3FE05D280A0FFF7E0F84FF01A
:10318000FF30D6E70022514B2046294601F001FED0
:10319000804600224C4B01F08AFD064601F086FE77
:1031A00082460020029001903D48806930BB0AF0C1
:1031B000FF00009001226946002001F0EAF9012297
:1031C00002A9002001F025FA01226946002001F041
:1031D00085FA012201A9002001F0C0FA9DF808003B
:1031E000824505D19DF80400824501D10020A0E769
:1031F0006BA0FFF7A4F84FF0FF309AE70022334BA3
:103200002046294601F0C5FD80460022684B01F0AA
:103210004EFD064601F04AFE8346584601F0BAF8D4
:10322000002086E72DE9F84F26480068022807D0DD
:10323000AFF6B820FFF783F84FF0FF30BDE8F88F06
:10324000B8E00000E00600206D6F6465206F72201A
:10325000726174696F20696C6C6567616C00000055
:103260000000F03F00000840726174696F206572D1
:10327000726F722C726174696F5F32643A302E30F3
:10328000307E312E3030202C726174696F5F336470
:103290003A302E30307E332E30300000000059405E
:1032A0008C06002004DC000822424F415244204991
:1032B0004E464F22203A2022257322202C200D0A30
:1032C00000000000AC06002000E06F400000394024
:1032D00000003E40446973706C61792063757272BE
:1032E000656E742073797374656D20636F6E6669A3
:1032F0006775726174696F6E733A0D0A00000000A1
:10330000226272696768746E65737322203A2025A1
:1033100064202C200D0A22326420636F6E74726F59
:103320006C206D6F646522203A2022693263222C62
:103330000D0A0000226272696768746E65737322F9
:10334000203A202564202C200D0A22326420636F4D
:103350006E74726F6C206D6F646522203A2022704B
:10336000776D222C0D0A000054620008637572729A
:10337000656E7420696C6C6567616C006375727250
:10338000656E74206572726F722C63757272656EF1
:10339000743A302E30307E32352E3030000000004E
:1033A000326420736574206661696C656421000075
:1033B0000000B04000200090FB494868694602F0D8
:1033C000F8FE04460D460098007830B1F7A0FEF7ED
:1033D000B6FF4FF0FF30BDE8F88F0022F84B2046D3
:1033E000294601F0B3FD06D30022134620462946A4
:1033F00001F094FD05D2F3A0FEF7A1FF4FF0FF30DE
:10340000E9E70022EE4B2046294601F0C2FC0646C1
:103410000022F54B01F04BFC804601F047FD82464F
:10342000504601F01FF80020D5E72DE9F04F87B096
:10343000EE480068022808D0AFF6C040FEF77FFFD4
:103440004FF0FF3007B0BDE8F08FD749486801F072
:1034500021FC04463CB1012C05D0E5A002F034FA71
:103460004FF0FF30EEE70020069005904FF0010985
:103470000490EA488461FFF78DFB002C2CD10520D5
:103480000490012204A9484601F083F8012206A90C
:10349000484601F0BEF8012204A9484601F01EF991
:1034A000012205A9484601F059F99DF810009DF840
:1034B000181088420AD19DF810009DF81410884217
:1034C00004D1D7A0FEF73BFF0020BBE7DBA0FEF74F
:1034D00036FF4FF0FF30B5E701200490012204A928
:1034E000484601F056F8012206A9484601F091F835
:1034F000012204A9484601F0F1F8012205A9484635
:1035000001F02CF99DF810009DF81810884259D14F
:103510009DF810009DF81410884253D14FF0000B15
:10352000BE480068022819D1BC49886801F0B1FC86
:1035300007460022C94B01F02CFCCDE90201B74936
:10354000486801F0A6FCCDE90001DDE9022301F0A5
:10355000AEFB054601F0AAFC834619E0AF490869B5
:1035600001F097FC07460022BC4B01F012FC054617
:103570000E46AA49486801F08CFC2A463346CDE93C
:10358000000101F094FBCDE9020101F08FFC8346BC
:10359000B3A0FEF7D4FE584601F06AFC0022B74BF8
:1035A000CDE9020101F0F5FB07460022B44B01F022
:1035B0007EFB054601F07AFC8246504600F0EAFEAA
:1035C00000203FE7AFA0FEF7BAFE4FF0FF3039E72B
:1035D0002DE9F04185480068032807D0AFF6646004
:1035E000FEF7ADFE4FF0FF30BDE8F0816E49486850
:1035F00001F050FB04466C49886801F04BFB05461E
:10360000022C07D0032C05D0A6A0FEF798FE4FF0A1
:10361000FF30E9E7284601F02BFC0646002213465E
:1036200001F07CFC02D3B5F5805F05DDA1A0FEF7BB
:1036300086FE4FF0FF30D7E7022C03D1284600F07A
:10364000A9FE02E0284600F00DFF0020CCE77047FD
:1036500070477047704710B5FFF73AF8FFF753FA15
:1036600010BD10B500209C490860604908608021A9
:103670009A4801F09AFA10BD10B504461CB998A0FA
:1036800002F022F902E09DA002F01EF910BD70B513
:10369000002492499FA002F017F91421424801F03A
:1036A00084FAA2A18D4801F09BFA05460AE03E4843
:1036B00040F82450641C4D4804609CA1002001F097
:1036C0008FFA0546002DF2D1374904220868AFF67B
:1036D0003C7101F075FA18B901207F490860F8E1E2
:1036E00031490422086892A101F06AFA18B902204F
:1036F00079490860EDE12C49042208688EA101F0A7
:103700005FFA18B9032074490860E2E126490722EC
:1037100008688BA101F054FA18B904206E490860BA
:10372000D7E121490822086887A101F049FA18B9B0
:10373000052069490860CCE11B490F22086885A172
:1037400001F03EFA18B9062063490860C1E1164944
:103750000B22086883A101F033FA18B907205E49EB
:103760000860B6E110490822086881A101F028FA32
:1037700018B9082058490860ABE10B490D220868C8
:103780007EA101F01DFA18B90D2053490860A0E18F
:103790000549082208687DA101F012FA18B90C2029
:1037A0004D49086095E1F7E0E0060020637572720C
:1037B000656E7420696C6C6567616C0D0A000000B1
:1037C00000003E4063757272656E74206572726FA0
:1037D000722C63757272656E743A302E30307E339F
:1037E000302E30300D0A000000C0A240AC06002090
:1037F0005B4552524F525D6D6F64652073686F7503
:103800006C6420626520302869326329206F722041
:10381000312870776D292E0D0A0000008C060020DB
:103820007573652069326320746F20636F6E7472E4
:103830006F6C20383535362E0D0A00007365742004
:1038400069326320746F20636F6E74726F6C2038FE
:10385000353536206661696C2E0D0A00000059402E
:103860007573652070776D20746F20636F6E74724E
:103870006F6C20383535362E0D0A000000E06F40A1
:103880000000B0407365742070776D20746F206302
:103890006F6E74726F6C2038353536206661696CD6
:1038A0002E0D0A006D6F646520696C6C6567616C34
:1038B0000000000064757479206572726F722C6468
:1038C0007574792063616E206F6E6C79206265205B
:1038D000307E343039360000A806002074070020FE
:1038E00022726573756C7422203A202273756363AB
:1038F00065737322207D0D0A00000000227265733B
:10390000756C7422203A20226661696C22207D0D3C
:103910000A0000000D0A7B2022434D4422203A2059
:1039200022257322202C200D0A0000002000000018
:10393000494E464F0000000044554D500000000025
:103940004932435245414400493243575249544554
:1039500000000000424C5345544252494748544EDF
:1039600045535300424C534554524154494F530020
:10397000424C5357495443480000000053455432C9
:10398000444354524C4D4F4445000000424C534573
:103990005450574D00000000F7490D220868F7A168
:1039A00001F00EF918B90920F849086091E0F249D0
:1039B0000E220868F6A101F003F918B90A20F349AC
:1039C000086086E0EC490E220868F5A101F0F8F8DD
:1039D00018B90B20ED4908607BE0E749062208682A
:1039E000F3A101F0EDF818B90E20E849086070E085
:1039F000E14906220868F0A101F0E2F818B91020A8
:103A0000E249086065E0DC4905220868ECA101F0A4
:103A1000D7F818B91220DD4908605AE0D6490622C5
:103A20000868E9A101F0CCF818B90F20D74908605F
:103A30004FE0D14906220868E5A101F0C1F818B9A4
:103A40001120D249086044E0CB4905220868E2A170
:103A500001F0B6F818B91320CC49086039E0C6491E
:103A600008220868DEA101F0ABF818B91420C74994
:103A700008602EE0C0490B220868DCA101F0A0F824
:103A800018B91520C149086023E0BB490A2208681B
:103A9000D9A101F095F818B91620BC49086018E0C2
:103AA000B5490A220868D7A101F08AF818B9172089
:103AB000B64908600DE0B0490E220868D4A101F0B3
:103AC0007FF818B91820B149086002E0FF20AF491B
:103AD000086070BD2DE9FC414FF0FF35AB48006830
:103AE00019287AD2DFE800F0F70D23172C3E597A17
:103AF00050838B949DA6AFF6D6F5F4F3F2F1F0EF78
:103B0000EE00C749C7A001F0DFFEFFF7AAFD0020C5
:103B1000FFF7B2FDA6E20020FEF7C5FC0120FEF78C
:103B2000C2FCFFF79EFD0020FFF7A6FD9AE2FFF71B
:103B30000EFA0546FFF795FD2846FFF79DFD91E239
:103B40000020FEF7F5FC04460120FEF7F1FC0443DB
:103B500014B1BAA0FEF7F3FBFFF783FD2046FFF791
:103B60008BFD7FE20020FEF722FD04460120FEF7D8
:103B70001EFD044314B1B7A0FEF7E1FBFFF771FD92
:103B80002046FFF779FD6DE2FFF731F80546FFF7B4
:103B900068FD2846FFF770FD64E27749486801F048
:103BA00079F80446FF2C01DC002C08DAAFA0FEF700
:103BB000C6FB4FF0FF352846FFF75EFD52E2E0B24C
:103BC000FEF74EFE0546B4484460FEF7E3FFFFF7FC
:103BD00048FD2846FFF750FD44E242E2FFF72EF889
:103BE0000546FFF73EFD2846FFF746FD3AE2FFF7A0
:103BF000C6F9FFF736FD0020FFF73EFD32E2FFF782
:103C00008CFA0546FFF72DFD2846FFF735FD29E222
:103C1000FFF708FB0546FFF724FD2846FFF72CFDBC
:103C200020E2FFF7D5FC0546FFF71BFD2846FFF70E
:103C300023FD17E2FFF7F9FB0546FFF712FD2846C3
:103C4000FFF71AFD0EE20020019000904A49102271
:103C5000486801A900F0E6FF044647491022886839
:103C6000694600F0DFFF07460198007818B18BA085
:103C7000FEF765FBF6E10098007818B193A0FEF717
:103C80005EFBEFE126463760FFF7EBFC0020FFF715
:103C9000F3FCE7E1002001900090374910224868CA
:103CA00001A900F0BFFF0646334910228868694623
:103CB00000F0B8FF04460198007868B18EA0FEF7C6
:103CC0003EFBCFE1C4E1BBE1B2E1A9E1A0E182E1C9
:103CD00016E063E13FE0C3E10098007820B9002CD2
:103CE00002DBB4F5803F03DB8FA0FEF728FBB9E1D0
:103CF00037463C80FFF7B5FC0020FFF7BDFCB1E183
:103D00000020019000901C491022486801A900F091
:103D100089FF0646184910228868694600F082FF2C
:103D200004460198007818B18A48FEF708FB99E12B
:103D30000098007818B9002C01DBFF2C03DD86A069
:103D4000FEF7FDFA8EE137463C70FFF78AFC002053
:103D5000FFF792FC86E10020019007491022486895
:103D600001A900F05FFF04460198007818B14BA04C
:103D7000FEF7E5FA76E105E1E0060020424C534506
:103D80005454494E4753474554000000A8060020AC
:103D9000424C534554324443555252454E54000010
:103DA000424C534554334443555252454E540000FF
:103DB000504F4B4533320000504F4B4531360000D9
:103DC000504F4B45380000005045454B3332000002
:103DD0005045454B313600005045454B38000000FA
:103DE0004750494F52454144000000004750494F59
:103DF0005245414450494E004750494F5345545055
:103E0000494E00004750494F434C5250494E000024
:103E1000424C464143544F52595245534554000079
:103E2000AE00002022436F6D6D616E647322203AF4
:103E3000200D0A25732C0D0A00000000436F6D6DE4
:103E4000616E642049324352454144206661696C89
:103E50002E000000436F6D6D616E64204932435740
:103E600052495445206661696C2E00005B455252F0
:103E70004F525D6272696768746E65737320766114
:103E80006C75652073686F756C6420626520307E88
:103E90003235352E0D0A00008C0600205B4552524B
:103EA0004F525D616464726573732063616E206F4D
:103EB0006E6C792062652061203332206269742043
:103EC000484558206E756D21000000005B45525238
:103ED0004F525D646174612063616E206F6E6C7916
:103EE0002062652061203332206269742048455881
:103EF000206E756D210000005B4552524F525D618E
:103F00006464726573732063616E206F6E6C7920D8
:103F1000626520612031362062697420484558204E
:103F20006E756D21000000005B4552524F525D647A
:103F30006174612063616E206F6E6C792062652010
:103F4000612031362062697420484558206E756DB5
:103F500021000000A02700085B4552524F525D64CB
:103F60006174612063616E206F6E6C7920626520E0
:103F70006120382062697420484558206E756D2193
:103F800000000000264621463FA0326801F09CFC5C
:103F9000FFF767FB0020FFF76FFB63E00020019055
:103FA00040491022486801A900F03CFE04460198EF
:103FB000007820B1AFF21C10FEF7C1F952E026469E
:103FC0003288214630A001F07FFCFFF74AFB002039
:103FD000FFF752FB46E0002001903249102248686A
:103FE00001A900F01FFE04460198007820B1AFF24D
:103FF0005410FEF7A4F935E026463278214622A077
:1040000001F062FCFFF72DFB0020FFF735FB29E0F4
:10401000FFF71DFBFFF725FB0020FFF72DFB21E03D
:10402000FFF716FBFFF71DFB0020FFF725FB19E04C
:10403000FFF70FFBFFF715FB0020FFF71DFB11E05B
:10404000FFF708FBFFF70DFB0020FFF715FB09E06A
:10405000FFF701FBFFF705FB0020FFF70DFB01E079
:1040600000E000BF00BFBDE8FC81FEF74CFD09E0A9
:104070000D48006830B1FFF70AFBFFF72BFD002069
:1040800009490860F4E70000616464726573733A7B
:10409000307825782C20646174613A307825780D69
:1040A0000A000000E0060020A8000020704700BFC2
:1040B000FEE700BFFEE700BFFEE700BFFEE7704778
:1040C00070477047704710B540F225510648FEF71B
:1040D000D5F838B10448FEF751F8C4B22146024879
:1040E000FEF748F810BD00000038014008B54FF455
:1040F000A060FCF729F925208DF8000001208DF83B
:1041000001008DF802008DF803006846FCF721F9E4
:1041100008BD00B585B001210420FCF77DFF012119
:104120008803FCF779FF4FF40070ADF810001820F9
:104130008DF8130003208DF8120004A95248FCF7F3
:10414000AFFC4FF48060ADF8100004208DF8130030
:1041500004A94D48FCF7A4FC4FF4E1300090002086
:10416000ADF80400ADF80600ADF80800ADF80C009D
:104170000C20ADF80A0069464448FDF702FFFFF73E
:10418000B5FF012240F225514048FDF792FF012181
:104190003E48FDF782FF05B000BD70B504460D46F0
:1041A00029462046FDF7E6FF00BF80212046FEF7A6
:1041B0004FF80028F9D070BD2DE9F04107460D46B3
:1041C0001646002405E0295D3846FFF7E6FF601C2F
:1041D000C4B2B442F7DB00BF40213846FEF738F8DE
:1041E0000028F9D0BDE8F08170B506460C460025E0
:1041F00000BF615D3046FFF7D0FF6D1C605D002899
:10420000F7D100BF40213046FEF722F80028F9D050
:1042100070BD2DE9F04105460C46260AE7B231464D
:104220002846FDF7A7FF00BF80212846FEF710F8BB
:104230000028F9D039462846FDF79CFF00BF8021B1
:104240002846FEF705F80028F9D0BDE8F08170B5E2
:1042500004460D46E1B20D48FDF78CFF00BF8021FA
:104260000A48FDF7F5FF0028F9D0204670BD10B5CB
:10427000044600BF20210548FDF7EAFF0028F9D0D9
:104280000248FDF77BFF10BD0008014000380140E7
:1042900008B501210820FCF7BFFE4FF46040ADF8DF
:1042A000000018208DF8030003208DF802006946F5
:1042B000A148FCF7F5FB0121C802FCF7ADFE012186
:1042C0000420FCF7A9FE4FF40060ADF800001820B0
:1042D0008DF8030003208DF8020069469748FCF72B
:1042E000DFFB0121C802FCF797FE01210820FCF743
:1042F00093FE8020ADF8000010208DF8030001200F
:104300008DF8020069468C48FCF7CAFB80218A4878
:10431000FCF773FC01210820FCF77EFE4020ADF87D
:10432000000010208DF8030001208DF8020069467E
:104330008148FCF7B5FB40217F48FCF75EFC01217A
:104340000420FCF769FE8020ADF8000010208DF8F5
:10435000030001208DF8020069467848FCF7A0FBB5
:1043600080217648FCF749FC01210420FCF754FE2B
:104370004020ADF8000010208DF8030001208DF8DA
:10438000020069466D48FCF78BFB40216B48FCF747
:1043900034FC08BD70B588B005466948006844F231
:1043A000A241B0FBF1F0461E701E6843C0F30F340B
:1043B0000020ADF81400ADF81600B0B2ADF818004A
:1043C0000020ADF81A008DF81C0005A95D48FCF727
:1043D0005BFF7020ADF804000120ADF8060004205A
:1043E000ADF80800ADF80A400220ADF80C0000203E
:1043F000ADF80E004FF48070ADF810000020ADF85D
:10440000120001A94F48FCF77CFF7020ADF80400B2
:104410000020ADF806000420ADF80800ADF80A4011
:104420000020ADF80C000820ADF80E004001ADF8FA
:1044300010000020ADF8120001A94248FCF7A3FFCC
:1044400008214048FDF7ACFB08213E48FDF7B1FBD1
:1044500001213C48FDF774FA01213A48FDF77CFA46
:1044600008B070BD70B588B005463548006844F2A4
:10447000A241B0FBF1F0461E0020ADF81400ADF8EB
:104480001600B0B2ADF818000020ADF81A008DF893
:104490001C0005A92B48FCF7F7FE7020ADF80400BE
:1044A0000120ADF806000420ADF808000220ADF8A8
:1044B0000C000020ADF80E004FF48070ADF8100035
:1044C0000020ADF81200701E6843C0F30F34ADF841
:1044D0000A4001A91B48FCF7A3FF7020ADF80400B7
:1044E0000120ADF806000020ADF808000220ADF86C
:1044F0000C000020ADF80E004FF48070ADF81000F5
:104500000020ADF81200ADF80A4001A90D48FCF7F3
:10451000D2FF08210B48FDF759FB08210948FDF798
:104520005EFB01210748FDF70BFA01210548FDF765
:1045300013FA08B070BD0000000C014000080140F3
:1045400000000020002C014070B5054600F079F90C
:10455000284600F0F8F900F0D6F908B1012400E08F
:10456000002400F0BBF900F088F9204670BD10B5BA
:10457000002407E0601C84B242F21070844201DB28
:10458000012010BD5820FFF7DFFF0028F2D100BF47
:10459000F7E72DE9F04104460D461746002629E0CD
:1045A00036B1E11704EB5171C910A4EBC101A9B9EF
:1045B00000F063F9FFF7DBFF00B126E000F041F9FE
:1045C000582000F0C0F900F09EF900B11DE020462F
:1045D00000F0B9F900F097F900B116E0287800F082
:1045E000B2F900F090F900B10FE06D1C601CC4B28C
:1045F000701C86B2BE42D3DB00F03FF9FFF7B7FF75
:1046000000B102E00120BDE8F08100F036F90020A1
:10461000F9E72DE9F04107460C461546FFF7A7FFDD
:1046200000B130E000F00DF9582000F08CF900F0F6
:104630006AF900B127E0384600F085F900F063F927
:1046400000B120E000F0FDF8592000F07CF900F006
:104650005AF900B117E000260DE000F0A4F920702F
:10466000681EB04202D100F039F901E000F01AF9F9
:10467000641C701C86B2AE42EFDB00BF00F0FDF898
:104680000120BDE8F08100F029F900F0F6F80020E3
:10469000F7E770B5054600F0A9F9284600F028FABA
:1046A00000F006FA08B1012400E0002400F0EBF964
:1046B00000F0B8F9204670BD10B5002407E0601C7A
:1046C00084B242F21070844201DB012010BD5820F8
:1046D000FFF7DFFF0028F2D100BFF7E72DE9F04137
:1046E00004460D461746002629E036B1E11704EBD3
:1046F0005171C910A4EBC101A9B900F093F9FFF7FA
:10470000DBFF00B126E000F071F9582000F0F0F96D
:1047100000F0CEF900B11DE0204600F0E9F900F00C
:10472000C7F900B116E0287800F0E2F900F0C0F90E
:1047300000B10FE06D1C601CC4B2701C86B2BE429A
:10474000D3DB00F06FF9FFF7B7FF00B102E0012003
:10475000BDE8F08100F066F90020F9E72DE9F041AD
:1047600007460C461546FFF7A7FF00B130E000F002
:104770003DF9582000F0BCF900F09AF900B127E0AB
:10478000384600F0B5F900F093F900B120E000F0F0
:104790002DF9592000F0ACF900F08AF900B117E0CA
:1047A00000260DE000F0D4F92070681EB04202D15E
:1047B00000F069F901E000F04AF9641C701C86B24F
:1047C000AE42EFDB00BF00F02DF90120BDE8F08123
:1047D00000F059F900F026F90020F7E708B50121AB
:1047E0000820FCF719FC4FF48070ADF8000014208D
:1047F0008DF8030003208DF802006946E648FCF7B7
:104800004FF94FF40070ADF800006946E248FCF73C
:1048100047F94FF40060ADF800006946DE48FCF748
:104820003FF94FF48060ADF800006946DA48FCF7C4
:1048300037F908BD002001E0411CC8B21428FBDB99
:10484000704710B54FF40071D348FCF7D6F94FF418
:104850008071D148FCF7D1F9FFF7ECFF4FF40071FC
:10486000CD48FCF7CCF9FFF7E5FF4FF48071CA485B
:10487000FCF7C5F9FFF7DEFF10BD10B54FF400716E
:10488000C548FCF7BCF94FF48071C348FCF7B5F993
:10489000FFF7D0FF4FF40071BF48FCF7AEF9FFF708
:1048A000C9FF10BD10B54FF40071BB48FCF7A7F964
:1048B0004FF48071B848FCF7A0F9FFF7BBFF4FF445
:1048C0008071B548FCF79BF9FFF7B4FF4FF4007116
:1048D000B148FCF792F9FFF7ADFF10BD10B54FF4EA
:1048E0000071AD48FCF789F94FF48071AA48FCF7D4
:1048F00084F9FFF79FFF4FF48071A748FCF77FF919
:10490000FFF798FF10BD10B54FF40071A248FCF7F7
:1049100074F94FF48071A048FCF76FF9FFF78AFF34
:104920004FF400719C48FCF74EF9012801D1012495
:1049300000E000244FF480719748FCF760F9FFF71E
:1049400079FF204610BD70B50446002528E004F02C
:10495000800028B14FF400718F48FCF74EF904E055
:104960004FF400718C48FCF74AF9FFF763FF4FF4EE
:1049700080718948FCF741F9FFF75CFF4FF48071C3
:104980008548FCF73CF9FFF755FF072D04D14FF49C
:1049900000718148FCF731F96006040E681CC5B24D
:1049A000082DD4DB70BD70B5002400251AE0600628
:1049B000040E4FF480717848FCF71FF9FFF73AFFB7
:1049C0004FF400717448FCF7FEF8012801D1601C17
:1049D000C4B24FF480717048FCF711F9FFF72AFF59
:1049E000681CC5B2082DE2DB204670BD10B54FF43F
:1049F00000616948FCF701F94FF480616648FCF7F3
:104A0000FCF8FFF717FF4FF400616348FCF7F7F875
:104A1000FFF710FF4FF480615F48FCF7F0F8FFF7F5
:104A200009FF10BD10B54FF400615B48FCF7E7F8D3
:104A30004FF480615848FCF7E0F8FFF7FBFE4FF4B5
:104A400000615548FCF7D9F8FFF7F4FE10BD10B52A
:104A50004FF400615048FCF7D2F84FF480614E48A3
:104A6000FCF7CBF8FFF7E6FE4FF480614A48FCF70D
:104A7000C6F8FFF7DFFE4FF400614748FCF7BDF8CA
:104A8000FFF7D8FE10BD10B54FF400614248FCF7A7
:104A9000B4F84FF480614048FCF7AFF8FFF7CAFE66
:104AA0004FF480613C48FCF7AAF8FFF7C3FE10BD45
:104AB00010B54FF400613848FCF79FF84FF480615F
:104AC0003548FCF79AF8FFF7B5FE4FF4006132481D
:104AD000FCF779F8012801D1012400E000244FF40B
:104AE00080612D48FCF78BF8FFF7A4FE204610BD2F
:104AF00070B50446002528E004F0800028B14FF48A
:104B000000612548FCF779F804E04FF40061224881
:104B1000FCF775F8FFF78EFE4FF480611E48FCF736
:104B20006CF8FFF787FE4FF480611B48FCF767F8CD
:104B3000FFF780FE072D04D14FF400611648FCF703
:104B40005CF86006040E681CC5B2082DD4DB70BD8D
:104B500070B5002400251AE06006040E4FF4806151
:104B60000D48FCF74AF8FFF765FE4FF400610A486C
:104B7000FCF729F8012801D1601CC4B24FF4806110
:104B80000548FCF73CF8FFF755FE681CC5B2082D38
:104B9000E2DB204670BD0000000C0140D2B201E013
:104BA00000F8012B491EFBD270470022F6E710B532
:104BB00013460A4604461946FFF7F0FF204610BD8B
:104BC00030B505460020034600E05B1C934205D249
:104BD000EC5CC85C201A01D1002CF6D130BD00007D
:104BE00070B50F4D00B92868002412E00A4602E0B3
:104BF0009E4203D0521C1378002BF9D1DAB2224323
:104C000005D02BB124B1002100F8011B04E00446BB
:104C1000401C0678002EE9D12860204670BD0000B7
:104C2000D40600202DE9F04791460F468046044601
:104C3000002614F8015B2DB100F0F8F90068405D22
:104C4000C007F6D12B2D02D02D2D18D0641E4A4658
:104C50003946204600F0F7F927B13968A14201D161
:104C6000C7F8008071054FF002040BD540420028C0
:104C700003DD00F039FE0460A007BDE8F08746F4CC
:104C80008066E4E70028F8DA00F02EFE04606FF09A
:104C90000040F2E770B5064600F026FE04680546BF
:104CA0000A2200213046FFF7BDFF2C6070BD2DE9C0
:104CB000FE4F81EA030404F0004421F00041009417
:104CC0004FF0000B23F0004350EA01045ED052EA9B
:104CD00003045BD0C3F30A54C1F30A552C44A4F275
:104CE000F3340194A0FB0254C1F3130141F4801189
:104CF000C3F3130343F4801301FB024400FB034E90
:104D0000840A970A44EA815447EA8357A4FB076858
:104D100002958D0A05FB07854FEA932C04FB0C5482
:104D20002705029D4FEA065847EA1637B5EB0805F6
:104D30006EEB070C870E920E47EA811742EA831248
:104D4000A7FB0201B6EB0B0164EB00042B0D43EA59
:104D50000C335E1844EB1C50DA465146E7FB020167
:104D6000C5F313044FEA0B3343EA14534FEA0432FA
:104D7000019C43EA0603A4F10C040294009CCDE9D3
:104D800000B400F00CFA03B0BDE8F08F002001463B
:104D9000F9E72DE9F04D81EA030404F0004B21F01E
:104DA000004514464FF0000A23F0004150EA050286
:104DB00020D054EA01021DD0C5F30A570246C5F3BC
:104DC0001303C1F31300C1F30A5640F4801543F4F2
:104DD0008013A7EB0608101BD64608F2FD3873EBCC
:104DE000050002D308F1010801E092185B41B8F117
:104DF000000F03DA00200146BDE8F08D00204FF4DB
:104E00008011064684460EE0171B73EB050705D399
:104E1000121B63EB050306434CEA010C49084FEAF9
:104E2000300092185B4150EA0107EDD152EA0300CD
:104E300012D082EA040083EA0501084305D0101B62
:104E4000AB4106D20122002306E000224FF00043CE
:104E500002E06FF0010253101AEB06004CEB085110
:104E600010EB0A0041EB0B01BDE8F04D00F088B9F2
:104E70000EB5C10F80EAE0700844CA07002140F275
:104E800033438DE80E000A460B4600F088F903B064
:104E900000BD0EB540F2334102910021CDE9001171
:104EA0000A460B4600F07BF903B000BD70B5C1F3B4
:104EB0000A5201F000450024C1F3130140F2FF3310
:104EC00041F480119A4201DA002070BD40F2334370
:104ED0009A42A2F2334203DC524200F096F800E01C
:104EE00090402C43F1D0404270BDC1F30A5210B53E
:104EF000C1F3130140F2FF3341F480119A4201DA09
:104F0000002010BD40F233439A42A2F2334203DC48
:104F1000524200F07AF810BD904010BD30B5041E2A
:104F200071F1000404DB4FF00044404264EB0101E6
:104F3000141E73F1000405DB1C464FF0004352427F
:104F400063EB04038B4208BF824230BD30B5041EC0
:104F500071F1000404DB4FF00044404264EB0101B6
:104F6000141E73F1000405DB1C464FF0004352424F
:104F700063EB0403994208BF904230BD30B50B4645
:104F8000014600202022012409E021FA02F59D4279
:104F900005D303FA02F5491B04FA02F52844151E4D
:104FA000A2F10102F1DC30BD2DE9F05F05460020E1
:104FB00092469B4688460646814640241BE028468A
:104FC00041464746224600F020F853465A46C01A4A
:104FD000914110D311461846224600F0FFF92D1AD0
:104FE00067EB01084F4622460120002100F0F6F948
:104FF00017EB00094E41201EA4F10104DFDC4846F6
:1050000031462A464346BDE8F09F202A04DB203A79
:1050100021FA02F00021704721FA02F3D040C2F1D8
:10502000200291400843194670470000004870472D
:105030005062000810B50446FFF7F8FF0068005DF5
:1050400000F0010010BD2DE9F05F824600780027D6
:1050500015468B460AF10104B946302801D09DB1AE
:1050600013E014F8010B0127782803D0582801D049
:1050700045B10AE00DB1102D07D10027102514F815
:10508000010B02E0082500E00A250026B0460EE0EC
:1050900005FB080005FB06F1012701EB10461FFA8E
:1050A00080F8B6F5803F00D3B94614F8010B2946C5
:1050B00000F0B5F90028EBDABBF1000F05D00FB115
:1050C000641E00E05446CBF80040B9F1000F06D052
:1050D00000F00AFC02210160C81EBDE8F09F48EA0A
:1050E0000640FAE70FB4002300B589B00CA900917F
:1050F0000B996FF00042CB601E4B06931E4B07933B
:105100000423CDE901321D4A089202466B46002075
:1051100000F014FA09B05DF814FB70B586B00646CD
:105120004FF0FF300091CDE90101002015460C46FB
:1051300004903246694604A8FFF7D4FF034604985A
:10514000211825B108B10A4600E022462A6000284D
:105150000DD0002B02DD0098884208D0081B009477
:10516000CDE901043246694604A8FFF7BBFF06B04B
:1051700070BD0000755700089357000835500008AF
:1051800010B5141E73F1000408DA401C41F100014F
:1051900092185B411A4301D120F0010010BD2DE9A6
:1051A000F04D92469B4611B1B1FA81F202E0B0FA9D
:1051B00080F22032904600F011F904460F4640EA92
:1051C0000A0041EA0B0153465A46084313D01146E0
:1051D00053EA010019D0C8F140025046FFF715FF0D
:1051E00005460E4650465946424600F0F7F8084339
:1051F00005D0012004E020463946BDE8F08D0020AE
:10520000054346EAE0762C4337430A986305E40AEF
:10521000A0EB08000022FD0A44EA47540A3002D5F8
:1052200000200146E9E7010510196941DDE908455B
:1052300000196941BDE8F04DA2E72DE9FE4F804617
:1052400081EA0300C00F0C46009021F0004123F0DA
:105250000045B8EB0200A94105D2404621469046E0
:105260001C460B46024623F00040104347D0270D52
:10527000C7F30A00C3F30A510290401A0190402874
:105280006BDAC3F3130040F4801B0098924620B100
:105290000023D2EB030A63EB0B0B01985946C0F1D4
:1052A0004002504600F09AF806460D4650465946D0
:1052B000019A00F0A2F810EB08006141002487EA8F
:1052C000115284EAE7731A4340D0009A62B3019AFC
:1052D000012A4FEA075215DC001B61EB02014FF077
:1052E000004202EA0752CDE90042001C41F580115C
:1052F00032462B46FFF753FF03B0BDE8F08F404620
:105300002146F9E7001B61EB0201001C41F5801307
:1053100000185B412018A2F5001747EB030140EA93
:10532000D570B6196D4111E06D084FEA360645EAB1
:10533000C0754FEA0752001B61EB0201001C41F5EA
:10534000801149084FEA30000019514132462B467E
:1053500003B0BDE8F04FFFF713BF009801224000F3
:105360000023D0EB020263EBE073009821464FEA82
:10537000E074B8EB000061EB0401E9E783F000435F
:105380005BE781F0004158E7C1F30A52C1F3130112
:1053900040F2FF3341F480119A4202DA00200146C4
:1053A000704740F233439A42A2F2334202DC524247
:1053B000FFF72BBE00F012B8064C074D06E0E06880
:1053C00040F0010394E8070098471034AC42F6D34C
:1053D000FAF7B2FEBC620008DC620008202A04DB97
:1053E000203A00FA02F1002070479140C2F12003F8
:1053F00020FA03F3194390407047202A06DBCB17AD
:10540000203A41FA02F043EAE07306E041FA02F37F
:10541000D040C2F1200291400843194670473A2813
:1054200000D2303820F02002412A01D3A2F1370007
:10543000884201D34FF0FF30704700002DE9FF4F45
:10544000087881B09946FF2805D0491C2D2804D042
:105450000024002308E000230BE00124F9E703EB1C
:10546000830300EB4303491C0878FF28F7D104B1FC
:105470005B4200200090147801462D2C01D02B2C8B
:1054800004D1521C2D2C12D0002400940025167833
:10549000FF2E0ED00A24A0FB04C801FB04810027C4
:1054A00000FB0711521C16EB0C006941EFE70124C9
:1054B000EBE7994450EA01020ED00024AA4D26469B
:1054C000DFF8A88200F076F982468B46B9F1000039
:1054D00009DAC9F100071BE001980021C0E90011B9
:1054E00005B0BDE8F08F074612E0F80707D0224666
:1054F0002B4630464146FFF7DAFB064688462246F1
:105500002B4610461946FFF7D2FB04460D467F1086
:10551000002FEAD1B9F1000F3246434650465946B2
:1055200002DAFFF736FC01E0FFF7C1FB009A0AB18F
:1055300081F00041019AC2E90001D1E72DE9FF4F56
:105540001F468DB0D7E901464FF0FF382E20454663
:105550004FF000090B90B9696D1C0E988847396AA5
:10556000824688470028F6D1BAF1FF3F0AD024F4DA
:10557000D064002E11DDBAF12B0F08D0BAF12D0F37
:105580000BD102E0404611B0ABE744F48064B96946
:105590006D1C0E9888478246761E6946600501D5C7
:1055A0002D2000E02B208DF8000001F1010B0DF102
:1055B000200809E0B9696D1C0E98884782460F984B
:1055C00044F40074761E0560002E02DDBAF1300F3F
:1055D000F0D00B998A453ED144F0800406E00F9943
:1055E000681CA9F1010944F400740860B9696D1CD4
:1055F000761E0E98884782463028F0D02BE00B9913
:105600008A4505D1200603D444F08004761E18E0B4
:10561000504600F02FFA08B30DF11301761E44F442
:1056200000748B4508D2AAF130000BF8010B20065C
:1056300007D5A9F1010003E0200602D409F1010019
:105640008146A00502D50F99681C0860B9696D1CD8
:105650000E9888478246002ED1DC53E0002E51DDA3
:10566000BAF1650F02D0BAF1450F4BD1A00549D56B
:10567000B9696D1C24F44074761E0E9888478246E2
:10568000002E0CDD2B2804D0BAF12D0F07D144F4E5
:105690008074B9696D1C0E9888478246761EE005B5
:1056A00001D52D2100E02B2108F8011BCDF82C801D
:1056B00021E00DF12901761E44F4007488450CD2D6
:1056C000AAF1300010F0FF0088F8000002D10B9919
:1056D000884509D908F1010806E0E00501D524480C
:1056E00001E042F20F708146B9696D1C0E9888473F
:1056F00082460F980560002E04DD504600F0BAF98E
:105700000028D6D1F9690E988847FF208BF8000051
:1057100088F800000020069007904B466A4608A9CA
:1057200006A8FFF78BFEA00502D46FF001002AE760
:1057300014F0240F0AD0E00714D1DDE9061238680E
:10574000031D3B600068C0E900120BE0DDE90601C3
:1057500000F03CF80146E00704D13868021D3A60C9
:105760000068016028460EE7000024400000F03F7A
:10577000F1D8FFFF426842B1016811F8013B23B143
:10578000521EC0E90012184670470121C160881EF0
:10579000704742685AB1C368016843B983688B4255
:1057A00005D0491E521CC0E90012002070474FF07E
:1057B000FF3070470EB540F2334202920022CDE92D
:1057C00000221346FFF7EBFC03B000BD01F00043DD
:1057D00030B421F0004150EA010206D00A0DA2F5D2
:1057E0006072C1F31301002A02DC30BC0020704754
:1057F000440F44EAC104C100E01830BC00EBC250C1
:10580000AFF300800029A8BF7047401C490008BFC3
:1058100020F00100704710B4B0FA80FC00FA0CF0E0
:1058200050EA010404BF10BC704749B1CCF1200418
:1058300021FA04F411FA0CF118BF012121430843A5
:10584000A3EB0C01CB1D4FEA00614FEA102042BFD1
:10585000002010BC704700EBC35010440029A4BFC7
:1058600010BC7047401C490008BF20F0010010BC6C
:10587000704770B58C1810F8015B15F0070301D163
:1058800010F8013B2A1106D110F8012B03E010F8A3
:10589000016B01F8016B5B1EF9D12B0705D40023C6
:1058A000521E0DD401F8013BFAE710F8013BCB1A68
:1058B000921C03E013F8015B01F8015B521EF9D55D
:1058C000A142D8D3002070BD0FB4054B10B503A979
:1058D000044A029800F0D6F810BC5DF814FB0000F2
:1058E0004F420008D806002000487047DC06002020
:1058F00002E008C8121F08C1002AFAD17047704799
:10590000002001E001C1121F002AFBD170470000F6
:105910002DE9FF5FDDE90220010DDDF838B002431B
:1059200018D044F61050A1F2FF3141430D140F98E6
:10593000012820D0A5EB0B00401C5FEA000A4FF0C5
:105940000004474EDFF81C91A046504616D5CAF118
:10595000000728E00F98012443A2012808D0002165
:1059600000980F9BC0E90021C0E90243BDE8FF9FFA
:105970006FEA0B01F4E7CBF10000DEE7074612E027
:10598000F80707D02246334640464946FFF78FF9CD
:10599000804689462246334610461946FFF787F966
:1059A00004460E467F10002FEAD1DDE90201BAF16C
:1059B000000F42464B4602DAFFF779F901E0FFF7A4
:1059C000E8F904460E460022284BFFF7BFFA03D839
:1059D0004FF0FF30014607E00022254B20463146BC
:1059E000FFF72BFCFFF7D0FC102409E0002C0ADBAA
:1059F0000A220023FFF7D8FA019B30321A55641EA1
:105A000050EA0102F2D1641C019AC4F1110314445A
:105A10000F9A012A03D0012208430DD10AE008435E
:105A200004D000204FF0110B0F9080E7A3EB0B0583
:105A30006D1E0DE05B4504DD4FF0000205F1010530
:105A400004E003DA4FF00002A5F10105002AECD0D2
:105A500000980F99C0E90231C0E9004586E70000CF
:105A6000000024400000F03F300000000000F04340
:105A70000000E03F30380A2801D2012070470020A2
:105A8000704700002DE9FF4F95B09B4689460646BA
:105A900000250FE2252877D100242746F84A012166
:105AA000059400E0044316F8013F203B01FA03F09F
:105AB0001042F7D130782A2811D06FF02F033078B8
:105AC000A0F13002092A16D8059A44F0020402EB2C
:105AD000820203EB42021044761C0590EFE759F86E
