:020000040800F2
:100000007013002045010008AD4A0008AF4A0008FF
:10001000B34A0008B74A0008BB4A000800000000C5
:10002000000000000000000000000000BF4A0008BF
:10003000C14A000800000000C34A0008C54A000881
:100040005F0100085F0100085F0100085F01000810
:100050005F0100085F0100085F0100085F01000800
:100060005F0100085F0100085F0100085F010008F0
:100070005F0100085F0100085F0100085F010008E0
:100080005F0100085F0100085F0100085F010008D0
:100090005F0100085F0100085F0100085F010008C0
:1000A0005F0100085F0100085F0100085F010008B0
:1000B0005F0100085F0100085F0100085F010008A0
:1000C0005F0100085F0100085F0100085F01000890
:1000D0005F010008512300085F0100085F0100086C
:1000E0005F0100085F0100085F0100085F01000870
:1000F0005F0100085F0100085F0100085F01000860
:100100005F0100085F0100085F0100085F0100084F
:100110005F0100085F0100085F0100085F0100083F
:100120005F0100085F0100085F0100085F0100082F
:10013000DFF80CD005F060FE00480047DB480008FF
:10014000701300200648804706480047FEE7FEE798
:10015000FEE7FEE7FEE7FEE7FEE7FEE7FEE7FEE777
:1001600047020008310100080CB500200190009002
:100170006C48006840F480306A49086000BF6948F4
:10018000006800F4003000900198401C0190009835
:1001900018B90198B0F5A06FF1D16248006800F479
:1001A000003010B10120009001E000200090009884
:1001B000012843D15C48006840F010005A490860AB
:1001C0000846006820F0030008600846006840F018
:1001D0000200086053484068524948600846406839
:1001E00048600846406840F48060486008464068BF
:1001F00020F47C1048600846406840F4E8104860ED
:100200000846006840F08070086000BF45480068FC
:1002100000F000700028F9D04248406820F0030048
:10022000404948600846406840F00200486000BF0E
:100230003C48406800F00C000828F9D10CBD10B50E
:10024000FFF792FF10BD10B53648006840F001007E
:1002500034490860084640683449084031494860DC
:1002600008460068324908402E4908600846006880
:1002700020F4802008600846406820F4FE004860B2
:100280004FF41F008860FFF7DAFF4FF00060294944
:10029000086010BD10B5002100200022214B5B68D2
:1002A00003F00C0121B1042906D0082928D107E068
:1002B000214B224C236027E01F4B204C236023E07E
:1002C000184B5B6803F47010164B5B6803F48032C4
:1002D000022303EB904022B9194B4343174C236090
:1002E0000DE0104B5B6803F4003323B1144B434320
:1002F000124C236003E0104B4343104C236003E097
:100300000D4B0E4C236000BF00BF064B5B68C3F370
:1003100003130C4CE15C094B1B68CB40074C23607A
:1003200010BD000000100240002002400000FFF855
:10033000FFFFF6FE08ED00E000127A00000000204A
:1003400000093D000400002031490143314A116099
:10035000704770B5002100230F22C47804B32D4CE0
:10036000246804F4E064C4F5E064210AC1F10403E4
:10037000CA40447804FA03F1847814402143090107
:10038000254C0678A155047804F01F050124AC40E3
:1003900005786D11AD0005F1E025C5F8004109E0D3
:1003A000047804F01F050124AC401C4D067876113A
:1003B00045F8264070BD1A4A0A400243154B1B1FE0
:1003C0001A60704739B1134A121D12680243114B6B
:1003D0001B1D1A6006E00F4A121D126882430D4B66
:1003E0001B1D1A607047042808D14FF0E0210969ED
:1003F00041F004014FF0E022116107E04FF0E021ED
:10040000096921F004014FF0E022116170470000FA
:100410000000FA050CED00E000E400E080E100E0FF
:1004200080FFFF1F01460020FE4A106800F03800E0
:10043000084310607047FB49096821F00801F94A38
:10044000116011460968014311607047F549096858
:1004500021F01001F34A116011460968014311604F
:100460007047F148EF494860F04848607047EE48EF
:10047000EC494860ED4848607047EA48006940F040
:100480008000E84908617047E648006940F0800054
:10049000E449086170470420E249C96801F001019C
:1004A00009B101200EE0DF49C96801F0040109B17A
:1004B000022007E0DB49C96801F0100109B10320FF
:1004C00000E00420704700B502460423FFF7E3FF75
:1004D000034603E0FFF7DFFF0346521E012B01D165
:1004E000002AF7D102B90523184600BD30B50446ED
:1004F00004254FF43020FFF7E6FF0546042D17D101
:10050000C848006940F00200C649086108464461D5
:10051000006940F0400008614FF43020FFF7D3FF3E
:100520000546C048006941F6FD710840BD490861B3
:10053000284630BD10B504244FF43020FFF7C3FF28
:100540000446042C16D1B748006940F00400B549B0
:1005500008610846006940F0400008614FF430200F
:10056000FFF7B1FF0446AF48006941F6FB71084050
:10057000AC490861204610BD00B502460423FFF7D0
:100580008AFF034603E0FFF786FF0346521E012B56
:1005900001D1002AF7D102B90523184600BD10B5D4
:1005A00004244FF43020FFF7E7FF0446042C16D153
:1005B0009C48006940F004009A49086108460069B7
:1005C00040F0400008614FF43020FFF7D5FF0446AB
:1005D0009448006941F6FB71084092490861204641
:1005E00010BD00208F49C96901F0020109B1012045
:1005F00000E00020704730B5A5250424FFF7F1FF87
:1006000000B100254FF43020FFF75DFF0446042CB5
:100610003AD18548834988608448886008460069E3
:1006200040F0200008610846006940F04000086181
:100630004FF43020FFF747FF0446042C1BD17948C4
:10064000006941F6DF710840764908610846006993
:1006500040F01000086176480580E002FFF733FFA4
:100660000446052C10D06F48006941F6EF71084030
:100670006C49086108E0052C06D06A48006941F61B
:10068000EF71084067490861204630BD78B50646DD
:100690000C46042500200090E802FFF714FF0546F1
:1006A000042D24D15F48006940F001005D490861D4
:1006B0003480E802FFF707FF0546042D10D1B01C77
:1006C0000090200C00990880E802FFF7FCFE054628
:1006D0005448006941F6FE7108405249086106E03D
:1006E0005048006941F6FE7108404E4908612846AD
:1006F00078BD70B504460D460426F002FFF7E3FE10
:100700000646042E11D14748006940F001004549D2
:1007100008612580F002FFF7D6FE064641480069D1
:1007200041F6FE7108403F490861304670BD70B522
:1007300005460E460424E002FFF7C5FE0446042CDD
:1007400017D13948374988603848886008460069B9
:1007500040F0100008612E80E002FFF7B4FE04466E
:10076000052C06D02F48006941F6EF7108402D494D
:100770000861204670BD2DE9F04304464FF6FF7630
:100780003746B046B1460425E443E6B2C4F3072732
:10079000C4F307484FEA1469E802FFF794FE0546E0
:1007A000042D49D120481F498860204888600846A8
:1007B000006940F010000861FF2E06D01C48083088
:1007C0000680E802FFF77FFE0546042D08D1FF2FC3
:1007D00006D017480A300780E802FFF774FE054686
:1007E000042D0AD1B8F1FF0F07D011480C30A0F842
:1007F0000080E802FFF767FE0546042D0AD1B9F133
:10080000FF0F07D00A480E30A0F80090E802FFF76B
:100810005AFE0546052D0FD00248006941F6EF71DA
:10082000084007E00020024023016745AB89EFCD77
:1008300000F8FF1F664908612846BDE8F08330B51F
:10084000054604244FF43020FFF73DFE0446042CF7
:1008500041D160485E4988605F4888600846006909
:1008600040F0200008610846006940F0400008613F
:100870004FF43020FFF727FE0446042C22D15448C1
:10088000006941F6DF710840514908610846006976
:1008900040F0100008611DB100205049088002E0BE
:1008A000A5204E4908804FF43020FFF70CFE044687
:1008B000052C10D04648006941F6EF7108404449C4
:1008C000086108E0052C06D04148006941F6DF7157
:1008D00008403F490861204630BDF0B505460E4648
:1008E000174604243B483A4988603B488860E00248
:1008F000FFF7E9FD0446042C19D13548006940F0A2
:1009000010003349086147F0F80030432843334969
:10091000891C0880E002FFF7D6FD0446052C06D0AE
:100920002B48006941F6EF710840294908612046CB
:10093000F0BD2748C069800870472548006A7047A5
:1009400000202349096801F0200109B1012000E0DD
:100950000020704729B11E4A126902431C4B1A61DC
:1009600004E01B4A12698243194B1A617047014621
:100970000020012908D1164AD26902F001020AB109
:10098000012008E0002006E0114AD2680A400AB1BE
:10099000012000E0002070470D49C8607047042026
:1009A0000B49C96801F0010109B101200EE00849B5
:1009B000C96801F0040109B1022007E00449C968CF
:1009C00001F0100109B1032000E00420704700008D
:1009D0000020024023016745AB89EFCD00F8FF1FDF
:1009E00010B50446CC48844208D10121042000F00F
:1009F0002DFB0021042000F029FB46E0C74884427B
:100A000008D10121082000F021FB0021082000F07E
:100A10001DFB3AE0C248844208D10121102000F0B9
:100A200015FB0021102000F011FB2EE0BD48844290
:100A300008D10121202000F009FB0021202000F036
:100A400005FB22E0B848844208D10121402000F093
:100A5000FDFA0021402000F0F9FA16E0B348844284
:100A600008D10121802000F0F1FA0021802000F05F
:100A7000EDFA0AE0AE48844207D10121801500F06A
:100A8000E5FA0021A01500F0E1FA10BD10B5012132
:100A9000084600F0DBFA0021012000F0D7FA10BD73
:100AA0002DE9F04102460025002600200023002405
:100AB000002791F803C00CF00F0591F803C00CF06B
:100AC000100CBCF1000F03D091F802C04CEA0505F0
:100AD00091F800C0BCF1000F31D0146800202BE069
:100AE0004FF0010C0CFA00F3B1F800C00CEA030659
:100AF0009E4220D183004FF00F0C0CFA03F7BC4349
:100B000005FA03FC4CEA040491F803C0BCF1280F79
:100B100006D14FF0010C0CFA00FCC2F814C00AE038
:100B200091F803C0BCF1480F05D14FF0010C0CFA4D
:100B300000FCC2F810C0401C0828D1D31460B1F8E2
:100B400000C0BCF1FF0F34DD546800202EE000F13E
:100B5000080C4FF0010808FA0CF3B1F800C00CEAD9
:100B600003069E4221D183004FF00F0C0CFA03F7CD
:100B7000BC4305FA03FC4CEA040491F803C0BCF141
:100B8000280F05D100F1080C08FA0CF8C2F81480FF
:100B900091F803C0BCF1480F07D100F1080C4FF0E9
:100BA000010808FA0CF8C2F81080401C0828CED3BF
:100BB0005460BDE8F0814FF6FF7101800221817021
:100BC0000421C17070470246002093680B400BB1AE
:100BD000012000E0002070470146886880B270471D
:100BE00002460020D3680B400BB1012000E000203A
:100BF00070470146C86880B2704701617047416123
:100C000070470AB1016100E041617047C1607047FF
:100C10004FF480320A438261816182618269826914
:100C2000704702460020434B18684FF68073184007
:100C300040EA021008433F4B186070473E49C861C4
:100C40007047F0B50A46002300240021002500F07B
:100C50000046B6F1004F02D1364EF16901E0354E43
:100C60007168C0F3034583B200F44016B6F5401F27
:100C700008D121F070612F4E766826F070662D4FF6
:100C80007E6012E000F48016B6F5801F06D10326C0
:100C900006FA05F4A14341F0706106E0460D360105
:100CA00003FA06F6B14341F0706122B1460D3601F8
:100CB00003FA06F6314300F00046B6F1004F02D1C8
:100CC0001C4EF16101E01B4E7160F0BD30B5002299
:100CD0008B071C0F0F2303FA04F2164B08338C10FA
:100CE00053F824309343134C08348D1044F82530C6
:100CF00023468C1053F824308C07240F00FA04F498
:100D000023430C4C08348D1044F8253030BD0A497B
:100D1000DC3108607047000000080140000C014011
:100D2000001001400014014000180140001C014067
:100D3000002001400000014000002042DF48006820
:100D400040F00100DD49086008464068DC49084081
:100D5000DA49486008460068DA490840D74908601F
:100D60000846006820F4802008600846406820F4A7
:100D7000FE0048604FF41F0088607047CF49096843
:100D800021F48031CD4A11601146096821F4802197
:100D90001160B0F5803F03D0B0F5802F0ED106E092
:100DA000C649096841F48031C44A116007E0C3496B
:100DB000096841F4A021C14A116000E000BF00BFF2
:100DC000704710B501460022002300204A11012A75
:100DD00002D1BA4C236806E0022A02D1B74C236A3A
:100DE00001E0B64C636A01F01F02012494401C40EC
:100DF0000CB1012000E0002010BD38B500200090AB
:100E00000024002500BF3120FFF7DBFF05460098D6
:100E1000401C00900098B0F5A06F01D0002DF2D0DA
:100E20003120FFF7CEFF08B1012400E00024204666
:100E300038BD01460020A14A106820F0F80040EAC1
:100E4000C10010607047A04908607047024600204A
:100E50009A4B586820F47C1042EA01031843974BE0
:100E60005860704798490866704701460020934AC9
:100E7000506820F003000843506070478F48406876
:100E800000F00C007047014600208C4A506820F0AA
:100E9000F00008435060704701460020874A5068C0
:100EA00020F4E06008435060704701460020834A08
:100EB000506820F4605040EAC1005060704729B18A
:100EC0007E4A527A02437D4B5A7204E07B4A527A40
:100ED00082437A4B5A7270477B49D8310860704719
:100EE00001460020754A506820F440400843506095
:100EF00070470021714A20321170704A82F8201028
:100F0000012802D004280AD104E001216B4A2032D2
:100F1000117005E00521694A2032117000E000BF20
:100F200000BF70476949086070476449096A014316
:100F3000624A11627047654944390860704730B5AC
:100F400000210022002400235C4D6D6805F00C0197
:100F500021B1042905D0082923D105E05C4D0560A5
:100F600022E05B4D05601FE0544D6D6805F4701282
:100F7000524D6D6805F48034022505EB92421CB990
:100F8000544D554305600BE04C4D6D6805F400353C
:100F90001DB1504D5543056002E04D4D5543056070
:100FA00002E04B4D056000BF00BF444D6D6805F089
:100FB000F0010909484D6B5C0568DD4045603F4D17
:100FC0006D6805F4E061090A434D6B5C4568DD40DE
:100FD00085603A4D6D6805F46051C90A3E4D6B5C01
:100FE0004568DD40C560354D6D6805F44041890BAD
:100FF0003A4D6B5CC568B5FBF3F5056130BD29B1B1
:101000002E4A526902432D4B5A6104E02B4A526921
:1010100082432A4B5A61704729B1284A9269024398
:10102000264B9A6104E0254A92698243234B9A61D8
:10103000704729B1214AD2690243204BDA6104E0AA
:101040001E4AD26982431D4BDA61704729B11B4A9F
:10105000D2680243194BDA6004E0184AD26882432E
:10106000164BDA60704729B1144A12690243134BD8
:101070001A6104E0114A12698243104B1A617047E9
:1010800012494039086070470F49C86470470B49DE
:10109000C87170470948406A40F08070074948624B
:1010A000704701460020054A92680A400AB10120B3
:1010B00000E000207047014988727047001002402C
:1010C0000000FFF8FFFFF6FE0000424280044242AB
:1010D00000127A0000093D001400002024000020C6
:1010E00010B50446FE48844208D10121C014FFF720
:1010F000ADFF0021E014FFF7A9FFC4E0B4F1804F79
:1011000008D101210846FFF7AEFF00210120FFF7BB
:10111000AAFFB8E0F348844208D101210220FFF77A
:10112000A2FF00210220FFF79EFFACE0EE488442C0
:1011300008D101210420FFF796FF00210420FFF7CA
:1011400092FFA0E0E948844208D101210820FFF77E
:101150008AFF00210820FFF786FF94E0E4488442DC
:1011600008D101211020FFF77EFF00211020FFF79A
:101170007AFF88E0DF48844208D101212020FFF770
:1011800072FF00212020FFF76EFF7CE0DA488442E6
:1011900008D101214014FFF759FF00216014FFF727
:1011A00055FF70E0D548844209D10121C804FFF7FA
:1011B0004DFF00214FF40020FFF748FF63E0D048C7
:1011C000844209D101210805FFF740FF00214FF4B7
:1011D0008010FFF73BFF56E0CA48844209D1012145
:1011E0004805FFF733FF00214FF40010FFF72EFFF3
:1011F00049E0C548844208D101214020FFF733FF70
:1012000000214020FFF72FFF3DE0C048844208D175
:1012100001218020FFF727FF00218020FFF723FF17
:1012200031E0BB48844208D101218015FFF71BFF44
:101230000021A015FFF717FF25E0B648844209D129
:1012400001210804FFF702FF00214FF48030FFF76F
:10125000FDFE18E0B048844209D101214804FFF79F
:10126000F5FE00214FF40030FFF7F0FE0BE0AB4835
:10127000844208D101218804FFF7E8FE00214FF4E1
:101280008020FFF7E3FE10BD00220288944B9842B5
:101290000ED0994B98420BD0B0F1804F08D0914BB3
:1012A000984205D0904B984202D0904B984204D17E
:1012B0004FF68F731A404B881A438D4B984207D0D4
:1012C0008C4B984204D04FF6FF431A40CB881A4308
:1012D00002808B8883850B880385814B98420BD0D5
:1012E000854B984208D08B4B984205D08A4B984248
:1012F00002D08A4B984201D10B7A03860123838264
:10130000704770B5002400220023058C4FF6FE764E
:1013100035400584028C8388048B4FF68F752C40F2
:10132000B51E2C400D882C43751E2A400D892A437A
:101330004D882A436A4DA8420BD06F4DA84208D071
:10134000744DA84205D0744DA84202D0734DA842F6
:1013500013D14FF6F7752A404D892A434FF6FB7596
:101360002A408D882A434FF6FF652B404FF6FF55E4
:101370002B408D892B43CD892B4383800483CD88DB
:101380008586028470BD70B5002400220023058C80
:101390004FF6EF7635400584028C8388048B48F63F
:1013A000FF752C404FF6FF452C400D884FF6FF7619
:1013B00006EA05252C434FF6DF752A400D8906EA1B
:1013C00005152A434D8806EA05152A43444DA842CF
:1013D00002D0494DA8421DD14FF67F752A404D8954
:1013E0004FF6FF7606EA05152A434FF6BF752A40E9
:1013F0008D8806EA05152A434FF6FF352B404FF23C
:10140000FF752B408D8906EA85052B43CD8906EAB9
:1014100085052B4383800483CD880587028470BDB6
:1014200070B5002400220023058C4FF6FF6635407E
:101430000584028C8388848B4FF68F752C404FF681
:10144000FC752C400D882C434FF6FF552A400D8922
:101450004FF6FF7606EA05252A434D8806EA05255C
:101460002A431F4DA84202D0234DA8421DD14FF25E
:10147000FF752A404D894FF6FF7606EA05252A4377
:101480004FF6FF352A408D8806EA05252A434EF699
:10149000FF752B404DF6FF752B408D8906EA05152B
:1014A0002B43CD8906EA05152B4383808483CD88A1
:1014B0008587028470BD70B5002200230024058C4E
:1014C0004EF6FF7635400584038C8488828B48F67F
:1014D000FF752A404FF6FF452A400D8820E00000A6
:1014E000002C01400004004000080040000C0040B7
:1014F000001000400014004000340140004C014046
:10150000005001400054014000180040001C004001
:1015100000200040004001400044014000480140DC
:101520004FF6FF7606EA05252A434DF6FF752B4058
:101530000D8906EA05352B434D8806EA05352B4310
:10154000FA4DA84202D0FA4DA84208D14BF6FF75D9
:101550002C408D894FF6FF7606EA85152C43848052
:101560008283CD88A0F84050038470BD828B4FF2F7
:10157000FF331A408283828B4FF6FF7303EA012305
:101580001A4382837047F0B50C46154600220021AD
:101590000026078C4EF6FF7C07EA0C070784828B37
:1015A000018C4FF6FF7707EA043640F6FF473A40D2
:1015B0004FF6FF7707EA05273A434FF6FF7707EA2A
:1015C00003373A43D94FB8420ED0D94FB8420BD067
:1015D000B0F1804F08D0D74FB84205D0D64FB842AF
:1015E00002D0D64FB84206D14DF6FF77394046F4C7
:1015F0008057394305E047F6FF57394044F4805798
:10160000394382830184F0BD828B4FF6F3731A4015
:101610008283828B0A4382837047F0B50C4615465D
:10162000002200210026078C4FF6FF6C07EA0C070A
:101630000784828B018C4FF6FF7707EA04264FF66A
:101640000C773A404FF6FF7707EA03172F433A43E8
:10165000B64FB8420ED0B64FB8420BD0B0F1804F63
:1016600008D0B44FB84205D0B34FB84202D0B34F00
:10167000B84206D14FF6FF57394046F480773943D8
:1016800005E04FF2FF57394044F4807739438283B5
:101690000184F0BD028B4FF2FF331A400283028BAC
:1016A0004FF6FF7303EA01231A4302837047F0B534
:1016B0000C461546002200210026078C4FF6EF7CD1
:1016C00007EA0C070784028B018C4FF6FF7707EAC5
:1016D000041640F6FF473A404FF6FF7707EA033714
:1016E0003A434FF6FF7707EA05273A438F4FB84250
:1016F0000ED08F4FB8420BD0B0F1804F08D08D4F35
:10170000B84205D08C4FB84202D08C4FB84206D1B7
:101710004FF6DF77394046F01007394305E04FF6C2
:101720005F77394044F01007394302830184F0BDEC
:10173000028B4FF6F3731A400283028B0A43028333
:101740007047F0B50C46154600220021068C4FF676
:10175000FE773E400684028B018C4FF60C763240B9
:101760007E1C06EA03162E433243704EB0420ED062
:101770006F4EB0420BD0B0F1804F08D06D4EB042EA
:1017800005D06D4EB04202D06C4EB04206D14FF63D
:10179000FD76314044F00106314305E04FF6F57621
:1017A000314044F00106314302830184F0BD70B53D
:1017B00005460C465D4885420ED05D4885420BD0FB
:1017C000B5F1804F08D05B48854205D05A48854224
:1017D00002D05A48854200D100E000BF208850B9AD
:1017E0002389A28861882846FFF7ABFFE188284655
:1017F000FFF79EFF25E0208804280AD12389A288CC
:1018000061882846FFF753FFE1882846FFF742FF2B
:1018100017E0208808280AD12389A28861882846F1
:10182000FFF7FBFEE1882846FFF7EEFE09E023897B
:10183000A28861882846FFF7A6FEE1882846FFF7C0
:1018400095FE70BD2DE9F04105460C4600260127A6
:10185000608808B9022600E00026A088012801D18E
:10186000022700E001272088A0B92389A288618887
:101870002846FFF766FFE1882846FFF759FF2389CE
:101880003A4631462846FFF712FFE1882846FFF71F
:1018900001FF13E02389A28861882846FFF707FF2C
:1018A000E1882846FFF7F6FE23893A463146284666
:1018B000FFF747FFE1882846FFF73AFFBDE8F081D0
:1018C0000A884B881A438B881A43CB881A430B89A2
:1018D0001A434B891A438B891A43A0F84420704756
:1018E0004FF6FF71818000210180C180418001722B
:1018F00070470021018041808180C1800181418148
:101900008181C18170470021018041800121818056
:101910000021C180018170470021018041808180C8
:10192000C18001814181818170470000002C01400C
:10193000003401400004004000080040000C00405A
:1019400021B1028842F00102028004E002884FF6D1
:10195000FE731A400280704731B1B0F8442042F45F
:101960000042A0F8442005E0B0F84420C2F30E0283
:10197000A0F8442070471AB183890B43838102E0A9
:1019800083898B43838170478182704741EA0203D8
:10199000A0F8483070471AB183890B43838102E075
:1019A00083898B438381704701894FF6F872114018
:1019B000018170470A46002101894FF68F73194053
:1019C00011430181704730B504460D462946204633
:1019D000FFF7F0FF208940F00700208130BD2DE99E
:1019E000F04104460D4616461F46602D06D13B4683
:1019F000012231462046FFF75AFE05E03B46012210
:101A000031462046FFF79DFE29462046FFF7D2FFCC
:101A1000208940F007002081BDE8F08130B50C46F8
:101A200000210189C9B24FF6FF7505EA0325154368
:101A300025432943018130BD2DE9F04105460E467D
:101A400017469846002443463A4631462846FFF753
:101A5000E5FF2C894FF6F870044044F007044FF678
:101A60008F70044044F070042C81BDE8F081F0B523
:101A700004460D4616461F463B463246294620463A
:101A8000FFF7CCFF208940F480402081F0BD018524
:101A9000828270470A46002101884FF68F731940F1
:101AA000114301807047F0B50C4615461E460021D3
:101AB000002200230189028B038C4FF6F87739400E
:101AC00021434FF6FC473A4040F201173A434FF6A4
:101AD000DD773B404FF6FF7707EA06172F433B437E
:101AE000018102830384F0BD0A460021018B4FF679
:101AF0008F7319401143018370470A460021018BFF
:101B000048F6FF7319404FF6FF7303EA02231943A7
:101B1000018370470A460021818B4FF68F7319406D
:101B20001143818370470A460021818B48F6FF7379
:101B300019404FF6FF7303EA02231943818370476C
:101B400021B1028842F08002028004E002884FF650
:101B50007F731A400280704721B1828842F00402EC
:101B6000828004E082884FF6FB731A4082807047BF
:101B700021B1828842F00802828004E082884FF618
:101B8000F7731A408280704721B1828842F00102C7
:101B9000828004E082884FF6FE731A40828070478C
:101BA0000A460021018B4FF6F77319401143018358
:101BB00070470A460021018B4FF2FF7319404FF620
:101BC000FF7303EA02231943018370470A46002189
:101BD000818B4FF6F77319401143818370470A4692
:101BE0000021818B4FF2FF7319404FF6FF7303EA18
:101BF00002231943818370470A460021018B4FF667
:101C0000FB7319401143018370470A460021018B81
:101C10004FF6FF3319404FF6FF7303EA02231943CF
:101C2000018370470A460021818B4FF6FB731940F0
:101C30001143818370470A460021818B4FF6FF33A1
:101C400019404FF6FF7303EA02231943818370475B
:101C50000A460021018B4FF67F731940114301831F
:101C600070470A460021018BC1F30E014FF6FF7346
:101C700003EA02231943018370470A460021818B3E
:101C80004FF67F7319401143818370470A46002144
:101C9000818BC1F30E014FF6FF7303EA0223194350
:101CA000818370470A460021018C4FF6FD7319406D
:101CB0001143018470470A460021018C4FF6F773E7
:101CC00019401143018470470A460021018C4FF6E8
:101CD000DF7319404FF6FF7303EA021319430184BF
:101CE00070470A460021018C4FF67F7319404FF66A
:101CF000FF7303EA02131943018470470A46002167
:101D0000018C4FF6FF5319404FF6FF7303EA02238D
:101D10001943018470470A460021018C4FF2FF737A
:101D200019404FF6FF7303EA0223194301847047F9
:101D30000A460021018C4DF6FF7319404FF6FF73E0
:101D400003EA023319430184704730B500230124AC
:101D50008C40A3B2048C9C430484048C02FA01F5E9
:101D6000ADB22C43048430BD30B5002304248C4034
:101D7000A3B2048C9C430484048C02FA01F5ADB236
:101D80002C43048430BD70B503460020002418465F
:101D9000183001258D40ACB21D8CA5431D8409B1BE
:101DA000082909D100EB6100056825F07005056080
:101DB0000568154305600EE00D1FC5F34E05284468
:101DC000056825F4E045056005684FF6FF7606EAEC
:101DD00002263543056070BD21B1028842F002023F
:101DE000028004E002884FF6FD731A4002807047BB
:101DF00021B1028842F00402028004E002884FF61A
:101E0000FB731A400280704721B1828842F0800241
:101E1000828004E082884FF67F731A408280704788
:101E200002884FF6F7731A40028002880A43028044
:101E3000704782884FF68F731A40828082880A43E7
:101E40008280704702894FF6F8731A400281028936
:101E50000A430281704702894FF67F731A4002815C
:101E600002890A43028170478184704781857047E7
:101E7000818670470187704781877047A0F84010BE
:101E8000704702884FF6FF431A40028002880A43D7
:101E9000028070470146888E70470146088F704760
:101EA0000146888F70470146B1F8400070470146EF
:101EB000888C70470146088D704702460020138ABF
:101EC0000B400BB1012000E000207047CA430282A2
:101ED000704730B50246002000230024158A05EA29
:101EE0000103958905EA010413B10CB1012000E05A
:101EF000002030BDCA4302827047000010B504467E
:101F0000FB48844209D101218803FFF79FF8002193
:101F10004FF48040FFF79AF832E0F648844209D146
:101F200001214804FFF79FF800214FF40030FFF72C
:101F30009AF825E0F048844209D101218804FFF78E
:101F400092F800214FF48020FFF78DF818E0EB485D
:101F5000844209D10121C804FFF785F800214FF41C
:101F60000020FFF780F80BE0E548844208D101210A
:101F70000805FFF778F800214FF48010FFF773F899
:101F800010BD2DE9F04786B005460E460024A24656
:101F900000BFA1460027B08900B100BF2F462C8AA0
:101FA0004CF6FF700440F08804432C82AC894EF656
:101FB000F3100440B0883189084371890843044311
:101FC000AC81AC8A4FF6FF400440B0890443AC8238
:101FD00001A8FEF7B4FFC648874202D1DDF810A081
:101FE00001E0DDF80CA0A88900F4004040B10AEB44
:101FF000CA0000EB0A1031684900B0FBF1F807E0B5
:102000000AEBCA0000EB0A1031688900B0FBF1F856
:102010006420B8FBF0F004012009642101FB108961
:10202000A88900F4004040B1322000EBC900B0FBA9
:10203000F1F000F00700044308E0322000EB091043
:102040006421B0FBF1F000F00F0004432C8106B0D6
:10205000BDE8F0874FF41651016000218180C180F6
:1020600001810C21418100218181704710B5024618
:102070000020108A4FF2FF0318400B884C8823433E
:102080008C882343CC8823431843108210BD002141
:10209000018041808180C180704721B1828942F4F2
:1020A0000052828104E082894DF6FF731A408281DA
:1020B0007047F0B50346002400260025002040F6B6
:1020C0006A17B94200D100BF1846C1F3421401F0AB
:1020D0001F06012707FA06F5012C01D10C3004E098
:1020E000022C01D1103000E014301AB107682F43E0
:1020F000076002E00768AF430760F0BD1AB1838A4A
:102100000B43838202E0838A8B4383827047028A77
:102110004FF6F0731A400282028A0A430282704725
:1021200082894FF2FF731A40828182890A43828139
:10213000704721B1828942F00202828104E08289E3
:102140004FF6FD731A4082817047028A4FF6DF73A3
:102150001A400282028A0A430282704721B1028A2F
:1021600042F48042028204E0028A4BF6FF731A4076
:1021700002827047C1F30802828070470146888856
:10218000C0F308007047818941F0010181817047E7
:10219000028BD2B20283028B42EA01220283704791
:1021A000028B02F47F420283028B0A430283704750
:1021B00021B1828A42F02002828204E0828A4FF6B4
:1021C000DF731A408282704721B1828A42F0100286
:1021D000828204E0828A4FF6EF731A40828270474F
:1021E00021B1828A42F00802828204E0828A4FF69C
:1021F000F7731A408282704721B1828942F400420B
:10220000828103E08289C2F30E028281704721B18C
:10221000828A42F40062828204E0828A4FF2FF7373
:102220001A4082827047828A4FF6FB731A4082827C
:10223000828A0A438282704721B1828A42F0020276
:10224000828204E0828A4FF6FD731A4082827047D0
:1022500002460020B1F5007F00D100BF13880B407B
:102260000BB1012000E00020704701F40072B2F5CC
:10227000007F00D100BFCA430280704770B502469C
:10228000002400230025002040F66A16B14200D148
:1022900000BFC1F3421501F01F03012606FA03F344
:1022A000012D02D19689334006E0022D02D1168A13
:1022B000334001E0968A33400C12012606FA04F4FA
:1022C0001688344013B10CB1012000E0002070BD2D
:1022D00010B50022002340F66A14A14200D100BFCD
:1022E0000A1201249440A3B2DC43048010BD000014
:1022F000003801400044004000480040004C0040CD
:102300000050004000BFF949098801F04001002950
:10231000F9D0F649091D0880704710B50246002320
:1023200004E019465B1C505CFFF7ECFFD05C002812
:10233000F7D110BD00B5EEA0FFF7EFFF00BD10B55F
:1023400004462046FFF7E9FFE9A0FFF7E6FF10BDCE
:1023500010B540F22551E548FFF790FF70B3E34810
:10236000FFF70CFFC4B2E348006800B110BD0D2CAC
:102370000BD10020E049E14A128888540120DD4950
:1023800008600020DD49088018E00A2C16D0DB48E0
:10239000008880280ADBFFF7CDFF0120D5490860BF
:1023A000D74908600020D5490880DFE7D348018875
:1023B0000088401CD14A1080CF48445400BFD5E764
:1023C0000246002100BF0DE001EBC100CD4B13F828
:1023D0002000904205D101EBC10003EB8000406872
:1023E0007047491C1529EFD3FF20F9E70246002169
:1023F00000BF0DE001EBC100C24B13F8200090427A
:1024000005D101EBC10003EB800080787047491CC7
:102410001529EFD3FF20F9E770B50024BA484168C9
:10242000BAA003F071FFB848406828B9BD480068F9
:102430001A2801D1162070BD002421E004EBC4004D
:10244000B04901EB800000F10805AF494868294612
:1024500003F0C9F898B904EBC400AA4B03EB800061
:1024600000F1080204EBC40013F82010AEA003F042
:102470004BFF04EBC400A34911F82000DBE7641C08
:10248000152CDBD3FF20D6E70246002100BF0DE06C
:1024900001EBC1009B4B13F82000904205D101EBEA
:1024A000C10003EB800040787047491C1529EFD329
:1024B0000020F9E72DE9F04107460C46154628466D
:1024C00005EBD071C1F34F05FDF7CBFF3520FEF7CB
:1024D00063FA3846FEF70AF80AE014F8016B14F8BC
:1024E000011B46EA012631463846FEF702F9BF1CB9
:1024F0002800A5F101018DB2EFD1FDF7BEFFBDE8C7
:10250000F08110B503E010F8013B01F8013B130026
:10251000A2F10104A2B2F6D110BD8C498C4A086820
:10252000904201D1002070470120FCE710B5FFF771
:10253000F4FFD0B187A003F0E7FE4FF400728E499C
:102540008E48FFF7B7FF4FF420728D498D48FFF793
:10255000B1FF4FF4007288498B48FFF7ABFF4FF48F
:10256000207287498948FFF7A5FF10BD002108E0C8
:10257000002201E0531C9AB2B2F5006FFADB4B1C4B
:1025800099B28142F4DB70477CB5054600240026F1
:1025900029467FA003F0B8FE86E0002D42D1814895
:1025A00010F81400FF2807D17E4800EB4400407863
:1025B000FF2835D1012633E07A4810F814008DF851
:1025C0000400784800EB440040788DF805009DF841
:1025D000040001220DF1050102F0DBFC4FF4C8708C
:1025E000FFF7C4FF9DF804000122694602F011FDC7
:1025F0009DF805009DF80010884207D19DF8041051
:102600009DF8002068A003F07FFE09E09DF804100B
:102610009DF8002071A003F077FE4FF0FF307CBDE5
:10262000641C41E0784810F81400FF2807D1764870
:1026300000EB44004078FF2835D1012633E0724892
:1026400010F814008DF804006F4800EB4400407847
:102650008DF805009DF8040001220DF1050102F03E
:102660003DFD4FF4C870FFF781FF9DF80400012283
:10267000694602F073FD9DF805009DF80010884240
:1026800007D19DF804109DF8002047A003F03CFE00
:1026900009E09DF804109DF8002050A003F034FEDE
:1026A0004FF0FF30BBE7641C002E3FF476AF0020F4
:1026B000B5E710B555480068012805D1544955A023
:1026C00003F022FE002010BD58A003F01DFE4FF0C5
:1026D000FF30F8E77CB50546002400260020009076
:1026E000294659A003F010FEEDE00000003801403B
:1026F0000D0A0000A8000020EC0E0020B000002011
:10270000AC000020580B0020580E00205B6465626E
:1027100075675D675F746F6B656E735B315D3A25DE
:10272000730A0A00AC0600205B64656275675D721F
:10273000657475726E20636F6E665F6B65793A259E
:10274000642C20703A25730A0A00000000DC00089F
:102750005C5B5A005B64656275675D666C6173689B
:10276000206E65772C20777269746520666C6173C2
:10277000682E0A0A00000000D806002000E80008C1
:10278000D808002000EC000800E0000800E4000881
:102790005B64656275675D6368697069643A256446
:1027A0000D0A0A00C60600205B64656275675D61FC
:1027B0006464726573733A307825782C2076616C86
:1027C00075653A307825782C73657420737563636A
:1027D00065737366756C6C790D0A0A005B646562DB
:1027E00075675D616464726573733A307825782C1F
:1027F0002076616C75653A307825782C7365742085
:102800006661696C0D0A0A00B4060020B00600205B
:10281000B200002022436F6D6D616E647322203A16
:10282000200D0A25732C0D0A00000000224552528B
:102830004F52223A202257726F6E67466F726D6157
:1028400074222C0D0A0000002238353536206368CA
:102850006970696420256422203A200D0A5B00001B
:10286000FB4810F81400FF280CD1F94800EB440095
:102870004078FF2826D10126FF22AF21F5A003F0E2
:1028800043FD1FE0F24810F814008DF80400F048F2
:1028900000EB440040788DF8050035B99DF8040040
:1028A0000122694602F0B5FB05E09DF80400012213
:1028B000694602F053FC9DF804109DF80020EDA03D
:1028C00003F022FD641C002ECAD0F2A003F01CFD10
:1028D00000207CBD7CB50546F0480068022802D087
:1028E0004FF0FF307CBD002001900090EC49102299
:1028F000486801A902F0B6FE0446FF2C04DC002C57
:1029000002DB0198007828B1E6A0FFF718FD6FF010
:102910000100E7E7E6B22DB901226946304602F030
:1029200078FB04E001226946304602F017FC294694
:10293000E7A003F0E9FC9DF800203146EAA003F08F
:10294000E3FCEDA003F0E0FC0020CBE7FEB506467B
:10295000D2480068032806D0AFF23010FFF7EFFC32
:102960004FF0FF30FEBD00200290CD491022486894
:1029700002A902F077FE0446FF2C04DC002C02DBE7
:102980000298007828B1DEA0FFF7D9FC6FF00100B3
:10299000E8E7C3491022886802A902F063FE0546F1
:1029A000FF2D04DC002D02DB0298007828B1DFA0A7
:1029B000FFF7C5FC6FF00100D4E700200190E7B2FB
:1029C000E8B2009056B901226946384602F0E1FAB1
:1029D000012201A9384602F01CFB09E001226946E8
:1029E000384602F07BFB012201A9384602F0B6FB13
:1029F0009DF800009DF8041088420DD13146B4A026
:102A000003F082FC9DF804203946B7A003F07CFC5B
:102A1000B9A003F079FC02E06FF00200A2E7002009
:102A2000A0E72DE9F041FDF71CFDCB48FDF75EFD69
:102A3000C94CCA4F39462046FDF728FE241DC84D13
:102A4000002606E020462968FDF720FE241D2D1DE6
:102A5000761C202EF6DBFDF710FDBDE8F08110B5E9
:102A6000FDF7FFFCBC48FDF741FDFDF706FD10BD7D
:102A70002DE9F04F87B0824600200690B9480068E3
:102A800002281AD1B749886802F023FF07460022BE
:102A9000B54B02F09EFE05460E46504602F019FF69
:102AA0002A463346CDE9000102F021FECDE90201BC
:102AB00002F03BFFC0B2069019E0AA49086902F093
:102AC00008FF0022A84BCDE9000102F082FE054676
:102AD0000E46504602F0FDFE2A463346CDE902017D
:102AE00002F005FE074602F020FFC0B20690002467
:102AF0009C480068022819D19A49C86802F0E9FE8A
:102B00000022994BCDE9000102F063FE05460E4616
:102B1000504602F0DEFE07462A46334602F0E7FD45
:102B2000CDE9020102F0E2FE044618E08D49486951
:102B300002F0CFFE00228C4BCDE9000102F049FEED
:102B400005460E46504602F0C4FE07462A46334666
:102B500002F0CDFDCDE9020102F0C8FE0446FF2CD3
:102B600000DDFF24514681A003F0CEFB22469DF8F4
:102B7000181085A003F0C8FB204602F099FE002241
:102B80008E4BCDE9020102F024FE054600228C4B5B
:102B900002F0ADFD074602F0A9FE81460020059037
:102BA000049070488069002836D1484602F05AF9EE
:102BB000494684A003F0A8FB012206A9002002F0E8
:102BC000E8F9012205A9002002F023FA3220FFF7DC
:102BD000CDFC012206A9002002F080FA012204A9FE
:102BE000002002F0BBFA9DF818009DF814108842EE
:102BF0000CD19DF818009DF81010884206D178A0DD
:102C0000FFF79DFB002007B0BDE8F08F7DA0FFF728
:102C100096FB4FF0FF30F6E79DF8180002F059FEE2
:102C20000022664BCDE9020102F0D3FD07460022E7
:102C30007D4B02F05CFD054602F058FE8346584687
:102C400002F0A8F8484602F00DF94A465946EDE070
:102C5000C60600207B226164647265737322203A89
:102C6000202564202C2276616C22203A2025647D68
:102C70000D0A00007B226164647265737322203A3E
:102C8000202564202C2276616C22203A2025647D48
:102C90002C0D0A005D2C200D0A000000B00600205B
:102CA000580E00205B4552524F525D61646472655C
:102CB00073732063616E206F6E6C79206265206192
:102CC00020382062697420484558206E756D2100B7
:102CD000223835353620636869706964202564229E
:102CE000203A207B00000000223078257822203A0C
:102CF00020223078257822007D2C200D0A0000004B
:102D00005B4552524F525D61646472657373206318
:102D1000616E206F6E6C7920626520612075696E2E
:102D2000743820484558206E756D21005B4552521D
:102D30004F525D76616C75652063616E206F6E6CBD
:102D40007920626520612075696E74382048455885
:102D5000206E756D2100000000DC00085C5B5A00ED
:102D6000280000209006002000005940227379734B
:102D700074656D206272696768746E657373222072
:102D80003A2025642C0D0A00226272696768746E0D
:102D90006573735F324422203A2025642C200D0A8B
:102DA00020226272696768746E6573735F334422B0
:102DB000203A2025642C0D0A0000000000E06F403E
:102DC00000C0A24022647574795F336422203A20E7
:102DD0002225642F34303936222C0D0A00000000E1
:102DE0003264206932632073657420627269676897
:102DF000746E657373207375636365737366756C46
:102E00006C79210032642073657420693263207309
:102E10006574206272696768746E65737320666199
:102E2000696C6564210000000000B040E4A003F07C
:102E30006BFA0020E7E6EF49EF49002005E051F882
:102E40002020EE4B43F82020401C0728F7DB70477A
:102E5000FEB5FFF762FB002827D0FFF7E2FDFDF784
:102E600000FBE548FDF742FBE34C0220E349086024
:102E700066204860642088600F20C86000200861D8
:102E800064204861002088610D46002606E0204647
:102E90002968FDF7FBFB241D2D1D761C072EF6DB94
:102EA000D6490879FFF7E4FD3DE0FFF7C4FFD348BA
:102EB0008069012833D10290012400200190009004
:102EC000012202A9204602F064F8012201A920464D
:102ED00002F09FF89DF808009DF80410884203D185
:102EE000C7A003F011FA02E0D0A003F00DFA01220E
:102EF00002A9204602F0F2F801226946204602F0BB
:102F00002DF99DF808009DF80010884203D1D3A048
:102F100003F0FAF902E0DCA003F0F6F900BFB749CC
:102F20000879FFF7A5FDFEBD10B500244FF4FA7037
:102F3000FFF71CFB01F0EDFD01F0AAFEDEA003F09F
:102F4000E3F9E2A003F0E0F902F048F9FFF7EEFA46
:102F50004FF47A70FFF70AFB582001F0F5FF18B91B
:102F6000E5A003F0D1F902E0ECA003F0CDF9582080
:102F700002F08FF818B9F3A003F0C6F902E0FAA046
:102F800003F0C2F94FF4FA70FFF7F0FAFFF760FFB1
:102F900010BD2DE9F041FDF764FA9748FDF7A6FA58
:102FA000954D964E002400BF06E028463168FDF797
:102FB0006DFB2D1D361D641C072CF6DB8E4F002487
:102FC00008E08E4850F8240057F82410884200D0BA
:102FD00002E0641C072CF4DB00BF072C02D1ECA03C
:102FE000FFF7ADF9FDF749FABDE8F08170B54FF094
:102FF000FF35EF480068022809D0AFF2D070FFF724
:103000009EF9AFF2D87003F07FF9284670BDE94908
:10301000486802F05FFB0446022C0AD0032C08D05B
:10302000E5A0FFF78CF9EBA003F06EF94FF0FF304D
:10303000ECE772480460FFF7ACFF70490879FFF7CE
:1030400017FD05462846E1E72DE9FC47D84800680A
:10305000042807D0AFF62C0003F056F94FF0FF30EC
:10306000BDE8FC87D349486802F034FB8246002063
:103070000090D049886801A903F0BBFD06460F46C1
:10308000CC49C868694603F0B4FD04460D46BAF160
:10309000020F02D0BAF1030F05D10198007810B9E0
:1030A0000098007840B1D2A0FFF749F9C9A003F019
:1030B0002BF94FF0FF30D3E7BE4901228868D2A137
:1030C00002F09FFA60B1002213463046394602F002
:1030D00045FC05D1BFA003F017F94FF0FF30BFE763
:1030E000B4490122C868C8A102F08BFA60B100227D
:1030F00013462046294602F031FC05D1B5A003F065
:1031000003F94FF0FF30ABE70022C04B30463946A1
:1031100002F03CFC14D3002213463046394602F03C
:103120001DFC0DD30022BA4B2046294602F02EFC8E
:1031300006D3002213462046294602F00FFC08D28F
:10314000B4A0FFF7FCF8A3A003F0DEF84FF0FF30C7
:1031500086E7BAF1020F16D10022BB4B3046394642
:1031600002F0C5FA804602F0C1FB244988600022C3
:10317000B54B2046294602F0BAFA804602F0B6FB6B
:103180001E49C86015E00022AF4B3046394602F0B8
:10319000AEFA804602F0AAFB184908610022AA4B49
:1031A0002046294602F0A3FA804602F09FFB13490D
:1031B0004861FFF7EEFE11490879FFF759FC4FE728
:1031C00022647574795F326422203A202225642FAC
:1031D00034303936222C0D0A2022647574795F331D
:1031E0006422203A202225642F34303936222C0DD7
:1031F0000A00000000DC000800D80008900600204B
:103200005B64656275675D7573652070776D2074AA
:103210006F20636F6E74726F6C20383535362063A3
:1032200068697020302E0D0A0A0000005B64656238
:1032300075675D7365742070776D20746F20636FA0
:103240006E74726F6C203835353620636869702073
:1032500030206661696C2E0D0A0A00005B646562AD
:1032600075675D7573652070776D20746F20636F6F
:103270006E74726F6C203835353620636869702043
:10328000312E0D0A0A0000005B64656275675D738C
:1032900065742070776D20746F20636F6E74726F29
:1032A0006C203835353620636869702031206661BE
:1032B000696C2E0D0A0A00005B64656275675D69C2
:1032C0006E69742E2E2E0D0A0A0000005B64656282
:1032D00075675D70776D20636F6E66696775726183
:1032E00074696F6E2069732066696E6973686564BE
:1032F0002E0D0A0A000000005B64656275675D3888
:10330000353536203020686173206265656E206433
:10331000657465637465642E0D0A0A005B646562FA
:1033200075675D38353536203020686173206E6FE3
:1033300074206265656E2064657465637465640DF0
:103340000A0A00005B64656275675D3835353620B2
:103350003120686173206265656E20646574656301
:103360007465642E0D0A0A005B64656275675D38DA
:10337000353536203120686173206E6F74206265A8
:10338000656E2064657465637465640D0A0A0000E7
:103390005772697465204461746120746F20666C93
:1033A00061736820737563636573732E0D0A000083
:1033B000B0060020580E00205B4552524F525D6D02
:1033C0006F6465206D7573742062652032206F72A2
:1033D00020332100224552524F52223A2022566178
:1033E0006C75654572726F72222C0D0A0000000028
:1033F0006D6F6465206F7220726174696F20696CF3
:103400006C6567616C000000300000000000F03F58
:1034100000000840726174696F206572726F722CCF
:10342000726174696F5F32643A302E30307E312EB3
:103430003030202C726174696F5F33643A302E3003
:10344000307E332E303000000000594030B5A1B03E
:10345000FD480068012807D0AFF6304002F054FF65
:103460004FF0FF3021B030BDF84D2C46802101A82F
:1034700002F09BF8002004E0217801AA1154641C9A
:10348000401C8028F8DB01A9F1A002F03DFF0020DC
:10349000E8E72DE9F04F8DB0EB480068012808D02F
:1034A000AFF6784002F030FF4FF0FF300DB0BDE8CE
:1034B000F08FFFF7C0FCED4840680B90EB480068C8
:1034C0000A90EA49886802F004FA0022E84BCDE944
:1034D000040102F07EF9CDE90801E449C86802F070
:1034E000F8F90022E24BCDE9040102F072F98246BC
:1034F0008B46DE49086902F0ECF90022DC4BCDE98D
:10350000040102F066F9CDE90601D849486902F0E4
:10351000E0F90022D64BCDE9040102F05AF9044645
:103520000D460A98022815D10B9802F0C1F9CDE991
:103530000001DDE9082302F0DAF80022CD4BCDE9E5
:10354000020102F046F90022CB4BCDE9040102F062
:10355000CEF814E00B9802F0ABF9CDE90001DDE9FB
:10356000062302F0C4F80022C24BCDE9020102F0AA
:1035700030F90022C04BCDE9040102F0B8F806464C
:103580000F460A98022815D10B9802F091F952467D
:103590005B46CDE9000102F0AAF80022B54BCDE967
:1035A000020102F016F90022B44BCDE9040102F049
:1035B0009EF814E00B9802F07BF922462B46CDE9E9
:1035C000000102F094F80022AA4BCDE9020102F0BA
:1035D00000F90022A94BCDE9040102F088F88046E9
:1035E0008946A7A0FEF7ABFEA048806920B9AFA02E
:1035F0000B9902F089FE03E0B9A00B9902F084FE5A
:103600000A9802280BD1CDE900AB02A8A0E8C003BC
:103610000221C048DDE9082302F076FE07E08DE8CC
:10362000F0030321BB48DDE9062302F06DFE002014
:103630003CE72DE9FF5F8448006802280CD0AFF614
:103640001460FEF77CFEAFF61C6002F05DFE4FF0EA
:10365000FF3004B0BDE8F09F00200390AE494868F9
:1036600003A903F0C6FA04460D460398007848B152
:10367000AAA0FEF764FEAFF2A42002F045FE4FF0D0
:10368000FF30E6E700227C4B2046294602F07EF917
:1036900006D3002213462046294602F05FF909D2DC
:1036A000A2A0FEF74CFEAFF2D42002F02DFE4FF0A8
:1036B000FF30CEE70022704B2046294602F089F801
:1036C000804600226B4B02F012F8064602F00EF91B
:1036D00082460020029001906448806930BB0AF065
:1036E000FF00009001226946002001F052FC0122F7
:1036F00002A9002001F08DFC01226946002001F0A2
:10370000EDFC012201A9002001F028FD9DF8080030
:10371000824505D19DF80400824501D1002098E73B
:103720008BA0FEF70CFE4FF0FF3092E70022524BC9
:103730002046294602F04DF880460022884B01F0D1
:10374000D6FF064602F0D2F88346584601F022FB27
:1037500000207EE72DE9F84F3B48006802280BD097
:10376000AFF63870FEF7EBFDAFF6407002F0CCFD1F
:103770004FF0FF30BDE8F88F0020009066494868A0
:10378000694603F036FA04460D460098007848B1C1
:1037900074A0FEF7D4FDAFF2C43002F0B5FD4FF0D7
:1037A000FF30E7E70022354B2046294602F0EEF8CD
:1037B00006D3002213462046294602F0CFF809D24C
:1037C0006DA0FEF7BCFDAFF2F43002F09DFD4FF0AE
:1037D000FF30CFE70022294B2046294601F0F9FFB0
:1037E000064600226D4B01F082FF804602F07EF813
:1037F0008246504601F036FB0020BBE72DE9F04F32
:1038000087B01148006802280CD0AFF6E070FEF7D0
:1038100096FDAFF6E87002F077FD4FF0FF3007B08D
:10382000BDE8F08F3C49486801F054FF04463A492E
:1038300001224868AFF2304101F0E3FE18B114B93B
:10384000AFF27040ACE0B0E0B006002004DC00084D
:1038500022424F41524420494E464F22203A2022D4
:10386000257322202C200D0A000000009006002065
:103870000000594000E06F400000394000003E4029
:10388000446973706C61792063757272656E74201F
:1038900073797374656D20636F6E666967757261A5
:1038A00074696F6E733A0D0A00000000226272693B
:1038B0006768746E65737322203A202564202C207B
:1038C0000D0A22326420636F6E74726F6C206D6F0C
:1038D000646522203A2022693263222C0D0A0000FE
:1038E000226272696768746E65737322203A2025BC
:1038F00064202C200D0A22326420636F6E74726F74
:103900006C206D6F646522203A202270776D222C26
:103910000D0A0000946C0008580E00206375727246
:10392000656E7420696C6C6567616C00637572729A
:10393000656E74206572726F722C63757272656E3B
:10394000743A302E30307E32352E30300000000098
:10395000326420736574206661696C6564210000BF
:103960000000B04063757272656E7420696C6C659E
:1039700067616C0D0A00000063757272656E7420D9
:103980006572726F722C63757272656E743A302E46
:1039900030307E33302E30300D0A000000C0A2409F
:1039A00002F0B2FC4FF0FF3039E75CB1012C09D0D6
:1039B000F9A0FEF7C4FCAFF2E45002F0A5FC4FF012
:1039C000FF302CE70020069005904FF0010904908D
:1039D000FB488461FFF7DDFA002C2CD10520049010
:1039E000012204A9484601F0D4FA012206A948465A
:1039F00001F00FFB012204A9484601F06FFB0122F0
:103A000005A9484601F0AAFB9DF810009DF8181082
:103A100088420AD19DF810009DF81410884204D104
:103A2000E8A0FEF78CFC0020F9E6EDA0FEF787FC8D
:103A30004FF0FF30F3E601200490012204A948462C
:103A400001F0A7FA012206A9484601F0E2FA012294
:103A500004A9484601F042FB012205A9484601F0AD
:103A60007DFB9DF810009DF81810884259D19DF8F3
:103A700010009DF81410884253D14FF0000BD0482D
:103A80000068022819D1CE49886801F022FF074654
:103A90000022DB4B01F09DFECDE90201C8494868D8
:103AA00001F017FFCDE90001DDE9022301F01FFE5F
:103AB000054601F01BFF834619E0C149086901F082
:103AC00008FF07460022CE4B01F083FE05460E4656
:103AD000BB49486801F0FDFE2A463346CDE90001A6
:103AE00001F005FECDE9020101F000FF8346C5A00B
:103AF000FEF725FC584601F0DBFE0022C84BCDE95D
:103B0000020101F066FE07460022C64B01F0EFFD00
:103B1000054601F0EBFE8246504601F03BF90020DD
:103B20007DE6C1A0FEF70BFC4FF0FF3077E670B5E5
:103B3000C5480068032808D0C448FEF700FCC34805
:103B400002F0E2FB4FF0FF3070BDC149486801F060
:103B5000C1FD0546BE49886801F0BCFD0446022D42
:103B60000BD0032D09D0BBA0FEF7E9FBAFF29C7090
:103B700002F0CAFB4FF0FF30E6E7012109B104B9BA
:103B800000E000210A46B2498868AFF2847101F072
:103B900038FD30B1AFF2C47002F0B6FB4FF0FF3029
:103BA000D2E7002C02DBB4F5805F09DDADA0FEF7A3
:103BB000C6FBAFF2E07002F0A7FB4FF0FF30C3E7A7
:103BC000022D03D1204601F0E5F802E0204601F085
:103BD00049F90020B8E7704770477047704770B5E3
:103BE000A8B000250026202120A801F0DEFC8021BD
:103BF000684601F0DAFCFEF70FFC054692480068C3
:103C000002280CD090480068012808D08F48FEF7A1
:103C100096FB8E4802F078FB701E28B070BDFF2D19
:103C200002D14FF0FF30F8E7162D3CD1002400BF41
:103C300035E004EBC401944A12F82100FEF724FC9D
:103C4000B0B104EBC400904901EB800046688022CB
:103C500069463046FEF755FC04EBC4008A4A02EB85
:103C6000800000F108016A4688A002F04DFB15E0D3
:103C700004EBC400844901EB80004668202220A99F
:103C80003046FEF73EFC04EBC4007F4A02EB8000A6
:103C900000F1080120AA7DA002F036FB641C152C5F
:103CA000C7D30020B9E7E8B2FEF7EEFBA8B1E8B24F
:103CB000FEF786FB06463246294678A002F024FB32
:103CC000802269463046FEF71CFC61486A4641681E
:103CD0006EA002F019FB00209FE7E8B2FEF770FB30
:103CE0000646324629466DA002F00EFB202220A98E
:103CF0003046FEF706FC564820AA416863A002F051
:103D000003FB002089E770B54F480068032808D0FE
:103D10004E48FEF714FB4D4802F0F6FA4FF0FF3024
:103D200070BDFEF779FB0546FF2D02D14FF0FF3045
:103D3000F6E72846FEF75AFBC4B24549886801F009
:103D40004BFC802802D94FF0FF30E9E72846FEF708
:103D50009BFBF8B1594800EBC4164FF420720146A2
:103D60005748FEF7CEFB554901EBC410802101F006
:103D70001CFC374880228168304601F021FC4FF45A
:103D800020724E494E48FEF795FB29464DA002F0A1
:103D9000BBFACBE0AAE000005B4552524F525D6D8A
:103DA0006F64652073686F756C64206265203028CD
:103DB00069326329206F7220312870776D292E00B7
:103DC000900600207573652069326320746F20634C
:103DD0006F6E74726F6C20383535362E0D0A000008
:103DE0007365742069326320746F20636F6E747220
:103DF0006F6C2038353536206661696C2E0D0A00EF
:103E0000000059407573652070776D20746F2063D2
:103E10006F6E74726F6C20383535362E0D0A0000C7
:103E200000E06F400000B0407365742070776D2033
:103E3000746F20636F6E74726F6C20383535362066
:103E40006661696C2E0D0A00B00600202C2800085F
:103E5000580E00206D6F646520696C6C6567616C3D
:103E60000000000064757479206572726F722C64B2
:103E70007574792063616E206F6E6C7920626520A5
:103E8000307E343039360000580B00202225732252
:103E90003A20222573222C0A000000005B64656230
:103EA00075675D636F6E665F69643A25782C206183
:103EB0006464726573733A25780A0A00D808002092
:103EC00000E400085B64656275675D77726974651C
:103ED00020636F6E665F69643A256420746F2043C7
:103EE0004F4E465F50414745320A0000ED4800EB17
:103EF00044164FF400720146EB48FEF702FBE94915
:103F000001EB4410202101F050FBE8482022816899
:103F1000304601F055FB4FF40072E249E248FEF7EB
:103F2000C9FA2946E2A002F0EFF900BF0020F7E647
:103F300010B54FF42072E849E848FEF7E2FA4FF472
:103F40002072E549E648FEF7B5FAE6A002F0DCF992
:103F50004FF40072D349EF48FEF7D3FA4FF40072E2
:103F6000D049D148FEF7A6FAEBA002F0CDF9FEF752
:103F700076FDFEF7D9FF10BD10B50020F2490860AC
:103F8000F24908608021F24801F00FFB10BD10B526
:103F900004461CB9EFA002F0B7F902E0F4A002F069
:103FA000B3F910BD70B50024E949F7A002F0ACF9EF
:103FB0001421BE4801F0F9FAF9A1E54801F030FBFF
:103FC00005460FE0B94840F8245050F82410F5A0F9
:103FD00002F09AF9641CDD480460F1A1002001F0B0
:103FE0001FFB0546002DEDD1B0490868F2A101F094
:103FF000FAFA18B90120D4490860FCE0AB49086816
:10400000EFA101F0F0FA18B90220CF490860F2E000
:10401000A6490868ECA101F0E6FA18B90320CA49DC
:104020000860E8E0A1490868E9A101F0DCFA18B9E4
:104030000420C5490860DEE09C490868E6A101F05B
:10404000D2FA18B90520C0490860D4E09749086839
:10405000E4A101F0C8FA18B90620BB490860CAE01B
:1040600092490868E3A101F0BEFA18B90720B649E1
:104070000860C0E08D490868E1A101F0B4FA18B900
:104080000820B1490860B6E088490868DFA101F05E
:10409000AAFA18B90D20AC490860ACE08349086859
:1040A000DEA101F0A0FA18B90C20A7490860A2E02F
:1040B0007E490868DCA101F096FA18B90920A249E6
:1040C000086098E079490868DBA101F08CFA18B91A
:1040D0000A209D4908608EE074490868DAA101F061
:1040E00082FA18B90B209849086084E06F49086883
:1040F000D9A101F078FA18B90E20934908607AE046
:104100006A490868D6A101F06EFA18B910208E49E4
:10411000086070E065490868D3A101F064FA18B935
:1041200012208949086066E060490868D0A101F062
:104130005AFA18B90F20844908605CE05B490868A6
:10414000CDA101F050FA18B911207F49086052E062
:1041500056490868CAA101F046FA18B913207A49ED
:10416000086048E051490868C7A101F03CFA18B955
:104170001420754908603EE04C490868C5A101F06B
:1041800032FA18B915207049086034E047490868C8
:10419000C3A101F028FA18B916206B4908602AE07B
:1041A00042490868C1A101F01EFA18B917206649F2
:1041B000086020E03D490868BFA101F014FA18B971
:1041C00018206149086016E038490868BEA101F06E
:1041D0000AFA18B919205C4908600CE033490868EC
:1041E000BEA101F000FA18B91A205749086002E090
:1041F000FF205549086070BD2DE9FC414FF0FF35A7
:10420000514800681B2833D2DFE800F04B0E4A17F4
:10421000494847464544434241403F3E3D3C3B3A86
:104220003938373635343300FEF743FA0546FFF7A1
:10423000A3FE2846FFF7ABFE4CE344480068012884
:104240000AD0AB4802F060F84FF0FF35FFF794FE5C
:104250002846FFF79CFE3DE30020FEF73BFA0120D5
:10426000FEF738FAFFF788FE0020FFF790FE31E3F3
:1042700029E308E3FEE20FE3F4E2EBE2E2E2D9E253
:10428000BCE258E29EE226E280E2F9E1EFE1E5E1FC
:10429000DBE1D1E1C7E168E1BCE16FE14CE132E192
:1042A00028E10FE3D806002000E00008580E0020A7
:1042B0005B64656275675D777269746520636F6EB4
:1042C000665F69643A256420746F20434F4E465FF1
:1042D00050414745310A0000D808002000EC000892
:1042E00000E400085B64656275675D7772697465F8
:1042F00020434F4E465F44454641554C545F504124
:1043000047453220746F20434F4E465F504147452A
:10431000320A000000E800085B64656275675D773B
:104320007269746520434F4E465F44454641554C83
:10433000545F504147453120746F20434F4E465FD4
:1043400050414745310A0000AC060020B00600206D
:10435000EC0E002022726573756C7422203A2022C4
:104360007375636365737322207D0D0A000000007E
:1043700022726573756C7422203A20226661696C22
:1043800022207D0D0A0000000D0A7B2022434D44AF
:1043900022203A2022257322202C200D0A00000022
:1043A000200000005B64656275675D434D44204BEF
:1043B00045593A2573090A0048454C500000000051
:1043C000494E464F0000000044554D50000000008B
:1043D00049324352454144004932435752495445BA
:1043E00000000000424C5345544252494748544E45
:1043F00045535300424C534554524154494F530086
:10440000424C53574954434800000000534554322E
:10441000444354524C4D4F4445000000424C5345D8
:104420005450574D00000000424C53455454494EDF
:104430004753474554000000424C534554324443CF
:10444000555252454E540000424C53455433444358
:10445000555252454E540000504F4B4533320000E8
:10446000504F4B4531360000504F4B45380000004F
:104470005045454B333200005045454B3136000026
:104480005045454B380000004750494F5245414484
:10449000000000004750494F5245414450494E00EA
:1044A0004750494F53455450494E00004750494FDB
:1044B000434C5250494E0000424C464143544F52E7
:1044C0005952455345540000736574446973706CC8
:1044D0006179436F6E666967000000006765744428
:1044E0006973706C6179436F6E66696700000000E4
:1044F0002C280008FEF7AAFF0546FFF73DFD2846D9
:10450000FFF745FDE6E10020FEF7E4F9044601204F
:10451000FEF7E0F90443601C18B9F64801F0F4FE18
:1045200004E0A01C10B9F44801F0EEFEFFF724FDF2
:104530002046FFF72CFDCDE10020FEF707FA0446E8
:104540000120FEF703FA0443601C18B9E94801F0A2
:10455000DBFE04E0A01C10B9E74801F0D5FEFFF730
:104560000BFD2046FFF713FDB4E1FEF73FFD0546C6
:10457000FFF702FD2846FFF70AFDABE1DF49486877
:1045800001F0A8F80446DE48006802280AD0D9489D
:1045900001F0BAFE4FF0FF352846FFF7F8FCFFF7B1
:1045A000EBFC97E1D549486801F016F80646D34977
:1045B00032464868D3A101F024F858B154B9CE4826
:1045C00001F0A2FE4FF0FF352846FFF7E0FCFFF7B1
:1045D000D3FC7FE1FF2C01DC002C0DDACAA0FDF733
:1045E000AEFEC54801F090FE4FF0FF352846FFF7BC
:1045F000CEFCFFF7C1FC6DE1E0B2FEF739FA0546EB
:10460000CC484460FEF7C5FCFFF7B6FC2846FFF730
:10461000BEFC5FE1FEF718FD0546FFF7ADFC28463E
:10462000FFF7B5FC56E1FEF734FF0546FFF7A4FCA3
:104630002846FFF7ACFC4DE1FEF7FBFF0546FFF710
:104640009BFC2846FFF7A3FC44E1FFF783F80546EF
:10465000FFF792FC2846FFF79AFC3BE1FFF767FA69
:104660000546FFF789FC2846FFF791FC32E1FFF78A
:10467000C5F80546FFF780FC2846FFF788FC29E1CE
:104680000020019000909D491022486801A900F087
:10469000E9FF0446994910228868694600F0E2FF64
:1046A00007460198007828B1A3A0FDF748FEFFF760
:1046B00063FC0FE10098007828B1ABA0FDF73FFE46
:1046C000FFF75AFC06E126463760FFF755FC00204D
:1046D000FFF75DFCFEE0002001900090874910226A
:1046E000486801A900F0BEFF064684491022886888
:1046F000694600F0B7FF04460198007828B1A5A0EC
:10470000FDF71DFEFFF738FCE4E00098007820B9C3
:10471000002C02DBB4F5803F05DBAAA0FDF70FFEFD
:10472000FFF72AFCD6E037463C80FFF725FC002047
:10473000FFF72DFCCEE00020019000906F49102281
:10474000486801A900F08EFF06466C49102288686F
:10475000694600F087FF04460198007818B1A44824
:10476000FDF7EDFDB6E00098007818B9002C01DBEC
:10477000FF2C03DD9FA0FDF7E2FDABE037463C7068
:10478000FFF7FAFB0020FFF702FCA3E000200190F6
:104790005A491022486801A900F064FF04460198B4
:1047A000007818B164A0FDF7CAFD93E026462146C3
:1047B0009BA0326801F0A8FDFFF7DEFB0020FFF7A9
:1047C000E6FB87E0002001904C491022486801A9CF
:1047D00000F048FF04460198007818B156A0FDF794
:1047E000AEFD77E02646328821468DA001F08CFD93
:1047F000FFF7C2FB0020FFF7CAFB6BE0002001902F
:104800003E491022486801A900F02CFF0446019897
:10481000007818B148A0FDF792FD5BE0264632789B
:1048200021467FA001F070FDFFF7A6FB0020FFF7F7
:10483000AEFB4FE0FFF7CFF9FFF79EFB0020FFF73D
:10484000A6FB47E0FFF7C8F9FFF796FB0020FFF74C
:104850009EFB3FE0FFF7C1F9FFF78EFB0020FFF75B
:1048600096FB37E0FFF7BAF9FFF786FB0020FFF76A
:104870008EFB2FE0FFF747FA0546FFF77DFB284642
:10488000FFF785FB26E0FFF7AAF90546FFF774FB63
:104890002846FFF77CFB1DE019480068012809D075
:1048A000144801F031FD4FF0FF30FFF770FBFFF7C8
:1048B00063FB0FE0FFF73CFB0020FFF768FBFFF70F
:1048C0005BFB07E006E05DA001F01EFD0120FFF7A5
:1048D0005EFB00BF00BFBDE8FC81FEF725FBD2E018
:1048E0005E48006818B15E48006808B1BAE0CAE0E6
:1048F000C2E000002C280008D4330008580E002025
:10490000B0060020300000005B4552524F525D62FD
:1049100072696768746E6573732076616C75652063
:1049200073686F756C6420626520307E3235352E79
:104930000D0A0000900600205B4552524F525D6107
:104940006464726573732063616E206F6E6C79208E
:104950006265206120333220626974204845582006
:104960006E756D21000000005B4552524F525D6430
:104970006174612063616E206F6E6C7920626520C6
:10498000612033322062697420484558206E756D6D
:10499000210000005B4552524F525D6164647265B4
:1049A00073732063616E206F6E6C79206265206185
:1049B0002031362062697420484558206E756D217B
:1049C000000000005B4552524F525D6461746120EB
:1049D00063616E206F6E6C792062652061203136D4
:1049E0002062697420484558206E756D21000000D2
:1049F000A42C00085B4552524F525D6461746120E3
:104A000063616E206F6E6C792062652061203820B2
:104A100062697420484558206E756D2100000000C1
:104A2000616464726573733A307825782C20646110
:104A300074613A307825780D0A0000002245525200
:104A40004F52223A2022556E6B6E6F776E436F6D18
:104A50006D616E64222C0D0A00000000A800002089
:104A6000AC00002008A001F04FFC6420FDF77EFDA3
:104A700000200C49086003E0FFF794FAFFF7BCFB45
:104A80000020094908602BE77B224552524F5222F1
:104A90003A2022436F6D6D616E64546F6F4C6F6E80
:104AA00067227D00AC000020A8000020704700BFF6
:104AB000FEE700BFFEE700BFFEE700BFFEE770476E
:104AC00070477047704710B540F225510648FDF712
:104AD000D5FB38B10448FDF751FBC4B2214602486A
:104AE000FDF748FB10BD00000038014008B54FF449
:104AF000A060FBF729FC25208DF8000001208DF82F
:104B000001008DF802008DF803006846FBF721FCD8
:104B100008BD00B585B001210420FCF77DFA012114
:104B20008803FCF779FA4FF40070ADF810001820F4
:104B30008DF8130003208DF8120004A95248FBF7EA
:104B4000AFFF4FF48060ADF8100004208DF8130023
:104B500004A94D48FBF7A4FF4FF4E130009000207A
:104B6000ADF80400ADF80600ADF80800ADF80C0093
:104B70000C20ADF80A0069464448FDF702FAFFF739
:104B8000B5FF012240F225514048FDF792FA01217C
:104B90003E48FDF782FA05B000BD70B504460D46EB
:104BA00029462046FDF7E6FA00BF80212046FDF7A2
:104BB0004FFB0028F9D070BD2DE9F04107460D46A6
:104BC0001646002405E0295D3846FFF7E6FF601C25
:104BD000C4B2B442F7DB00BF40213846FDF738FBD2
:104BE0000028F9D0BDE8F08170B506460C460025D6
:104BF00000BF615D3046FFF7D0FF6D1C605D00288F
:104C0000F7D100BF40213046FDF722FB0028F9D044
:104C100070BD2DE9F04105460C46260AE7B2314643
:104C20002846FDF7A7FA00BF80212846FDF710FBB4
:104C30000028F9D039462846FDF79CFA00BF8021AC
:104C40002846FDF705FB0028F9D0BDE8F08170B5D6
:104C500004460D46E1B20D48FDF78CFA00BF8021F5
:104C60000A48FDF7F5FA0028F9D0204670BD10B5C6
:104C7000044600BF20210548FDF7EAFA0028F9D0D4
:104C80000248FDF77BFA10BD0008014000380140E2
:104C900008B501210820FCF7BFF94FF46040ADF8DA
:104CA000000018208DF8030003208DF802006946EB
:104CB000A148FBF7F5FE0121C802FCF7ADF901217F
:104CC0000420FCF7A9F94FF40060ADF800001820AB
:104CD0008DF8030003208DF8020069469748FBF722
:104CE000DFFE0121C802FCF797F901210820FCF73B
:104CF00093F98020ADF8000010208DF8030001200A
:104D00008DF8020069468C48FBF7CAFE80218A486C
:104D1000FBF773FF01210820FCF77EF94020ADF876
:104D2000000010208DF8030001208DF80200694674
:104D30008148FBF7B5FE40217F48FBF75EFF01216C
:104D40000420FCF769F98020ADF8000010208DF8F0
:104D5000030001208DF8020069467848FBF7A0FEA9
:104D600080217648FBF749FF01210420FCF754F924
:104D70004020ADF8000010208DF8030001208DF8D0
:104D8000020069466D48FBF78BFE40216B48FBF73C
:104D900034FF08BD70B588B005466948006844F224
:104DA000A241B0FBF1F0461E701E6843C0F30F3401
:104DB0000020ADF81400ADF81600B0B2ADF8180040
:104DC0000020ADF81A008DF81C0005A95D48FCF71D
:104DD0005BFA7020ADF804000120ADF80600042055
:104DE000ADF80800ADF80A400220ADF80C00002034
:104DF000ADF80E004FF48070ADF810000020ADF853
:104E0000120001A94F48FCF77CFA7020ADF80400AD
:104E10000020ADF806000420ADF80800ADF80A4007
:104E20000020ADF80C000820ADF80E004001ADF8F0
:104E300010000020ADF8120001A94248FCF7A3FAC7
:104E400008214048FCF7ACFE08213E48FCF7B1FEC3
:104E500001213C48FCF774FD01213A48FCF77CFD38
:104E600008B070BD70B588B005463548006844F29A
:104E7000A241B0FBF1F0461E0020ADF81400ADF8E1
:104E80001600B0B2ADF818000020ADF81A008DF889
:104E90001C0005A92B48FCF7F7F97020ADF80400B9
:104EA0000120ADF806000420ADF808000220ADF89E
:104EB0000C000020ADF80E004FF48070ADF810002B
:104EC0000020ADF81200701E6843C0F30F34ADF837
:104ED0000A4001A91B48FCF7A3FA7020ADF80400B2
:104EE0000120ADF806000020ADF808000220ADF862
:104EF0000C000020ADF80E004FF48070ADF81000EB
:104F00000020ADF81200ADF80A4001A90D48FCF7E9
:104F1000D2FA08210B48FCF759FE08210948FCF792
:104F20005EFE01210748FCF70BFD01210548FCF757
:104F300013FD08B070BD0000000C014000080140E6
:104F400000000020002C014070B5054600F079F902
:104F5000284600F0F8F900F0D6F908B1012400E085
:104F6000002400F0BBF900F088F9204670BD10B5B0
:104F7000002407E0601C84B242F21070844201DB1E
:104F8000012010BD5820FFF7DFFF0028F2D100BF3D
:104F9000F7E72DE9F04104460D461746002629E0C3
:104FA00036B1E11704EB5171C910A4EBC101A9B9E5
:104FB00000F063F9FFF7DBFF00B126E000F041F9F4
:104FC000582000F0C0F900F09EF900B11DE0204625
:104FD00000F0B9F900F097F900B116E0287800F078
:104FE000B2F900F090F900B10FE06D1C601CC4B282
:104FF000701C86B2BE42D3DB00F03FF9FFF7B7FF6B
:1050000000B102E00120BDE8F08100F036F9002097
:10501000F9E72DE9F04107460C461546FFF7A7FFD3
:1050200000B130E000F00DF9582000F08CF900F0EC
:105030006AF900B127E0384600F085F900F063F91D
:1050400000B120E000F0FDF8592000F07CF900F0FC
:105050005AF900B117E000260DE000F0A4F9207025
:10506000681EB04202D100F039F901E000F01AF9EF
:10507000641C701C86B2AE42EFDB00BF00F0FDF88E
:105080000120BDE8F08100F029F900F0F6F80020D9
:10509000F7E770B5054600F0A9F9284600F028FAB0
:1050A00000F006FA08B1012400E0002400F0EBF95A
:1050B00000F0B8F9204670BD10B5002407E0601C70
:1050C00084B242F21070844201DB012010BD5820EE
:1050D000FFF7DFFF0028F2D100BFF7E72DE9F0412D
:1050E00004460D461746002629E036B1E11704EBC9
:1050F0005171C910A4EBC101A9B900F093F9FFF7F0
:10510000DBFF00B126E000F071F9582000F0F0F963
:1051100000F0CEF900B11DE0204600F0E9F900F002
:10512000C7F900B116E0287800F0E2F900F0C0F904
:1051300000B10FE06D1C601CC4B2701C86B2BE4290
:10514000D3DB00F06FF9FFF7B7FF00B102E00120F9
:10515000BDE8F08100F066F90020F9E72DE9F041A3
:1051600007460C461546FFF7A7FF00B130E000F0F8
:105170003DF9582000F0BCF900F09AF900B127E0A1
:10518000384600F0B5F900F093F900B120E000F0E6
:105190002DF9592000F0ACF900F08AF900B117E0C0
:1051A00000260DE000F0D4F92070681EB04202D154
:1051B00000F069F901E000F04AF9641C701C86B245
:1051C000AE42EFDB00BF00F02DF90120BDE8F08119
:1051D00000F059F900F026F90020F7E708B50121A1
:1051E0000820FBF719FF4FF48070ADF80000142081
:1051F0008DF8030003208DF802006946E648FBF7AE
:105200004FFC4FF40070ADF800006946E248FBF730
:1052100047FC4FF40060ADF800006946DE48FBF73C
:105220003FFC4FF48060ADF800006946DA48FBF7B8
:1052300037FC08BD002001E0411CC8B21428FBDB8C
:10524000704710B54FF40071D348FBF7D6FC4FF40C
:105250008071D148FBF7D1FCFFF7ECFF4FF40071F0
:10526000CD48FBF7CCFCFFF7E5FF4FF48071CA484F
:10527000FBF7C5FCFFF7DEFF10BD10B54FF4007162
:10528000C548FBF7BCFC4FF48071C348FBF7B5FC85
:10529000FFF7D0FF4FF40071BF48FBF7AEFCFFF7FC
:1052A000C9FF10BD10B54FF40071BB48FBF7A7FC58
:1052B0004FF48071B848FBF7A0FCFFF7BBFF4FF439
:1052C0008071B548FBF79BFCFFF7B4FF4FF400710A
:1052D000B148FBF792FCFFF7ADFF10BD10B54FF4DE
:1052E0000071AD48FBF789FC4FF48071AA48FBF7C9
:1052F00084FCFFF79FFF4FF48071A748FBF77FFC0A
:10530000FFF798FF10BD10B54FF40071A248FBF7EE
:1053100074FC4FF48071A048FBF76FFCFFF78AFF25
:105320004FF400719C48FBF74EFC012801D1012489
:1053300000E000244FF480719748FBF760FCFFF712
:1053400079FF204610BD70B50446002528E004F022
:10535000800028B14FF400718F48FBF74EFC04E049
:105360004FF400718C48FBF74AFCFFF763FF4FF4E2
:1053700080718948FBF741FCFFF75CFF4FF48071B7
:105380008548FBF73CFCFFF755FF072D04D14FF490
:1053900000718148FBF731FC6006040E681CC5B241
:1053A000082DD4DB70BD70B5002400251AE060061E
:1053B000040E4FF480717848FBF71FFCFFF73AFFAB
:1053C0004FF400717448FBF7FEFB012801D1601C0B
:1053D000C4B24FF480717048FBF711FCFFF72AFF4D
:1053E000681CC5B2082DE2DB204670BD10B54FF435
:1053F00000616948FBF701FC4FF480616648FBF7E8
:10540000FCFBFFF717FF4FF400616348FBF7F7FB66
:10541000FFF710FF4FF480615F48FBF7F0FBFFF7E9
:1054200009FF10BD10B54FF400615B48FBF7E7FBC7
:105430004FF480615848FBF7E0FBFFF7FBFE4FF4A9
:1054400000615548FBF7D9FBFFF7F4FE10BD10B51E
:105450004FF400615048FBF7D2FB4FF480614E4897
:10546000FBF7CBFBFFF7E6FE4FF480614A48FBF702
:10547000C6FBFFF7DFFE4FF400614748FBF7BDFBBB
:10548000FFF7D8FE10BD10B54FF400614248FBF79E
:10549000B4FB4FF480614048FBF7AFFBFFF7CAFE57
:1054A0004FF480613C48FBF7AAFBFFF7C3FE10BD39
:1054B00010B54FF400613848FBF79FFB4FF4806153
:1054C0003548FBF79AFBFFF7B5FE4FF40061324811
:1054D000FBF779FB012801D1012400E000244FF4FF
:1054E00080612D48FBF78BFBFFF7A4FE204610BD23
:1054F00070B50446002528E004F0800028B14FF480
:1055000000612548FBF779FB04E04FF40061224875
:10551000FBF775FBFFF78EFE4FF480611E48FBF72B
:105520006CFBFFF787FE4FF480611B48FBF767FBBE
:10553000FFF780FE072D04D14FF400611648FBF7FA
:105540005CFB6006040E681CC5B2082DD4DB70BD80
:1055500070B5002400251AE06006040E4FF4806147
:105560000D48FBF74AFBFFF765FE4FF400610A4860
:10557000FBF729FB012801D1601CC4B24FF4806104
:105580000548FBF73CFBFFF755FE681CC5B2082D2C
:10559000E2DB204670BD0000000C0140D2B201E009
:1055A00000F8012B491EFBD270470022F6E710B528
:1055B00013460A4604461946FFF7F0FF204610BD81
:1055C00010B5044604E00B7800F8013B03B1491C18
:1055D000521EF8D2204610BD421C10F8011B0029B3
:1055E000FBD1801A704710B5002200E0521C835C8A
:1055F0008C5CA34201D1002BF8D1D8B2E1B2401AA1
:1056000010BD30B505460020034600E05B1C934208
:1056100005D2EC5CC85C201A01D1002CF6D130BD5B
:1056200070B50F4D00B92868002412E00A4602E068
:105630009E4203D0521C1378002BF9D1DAB22243D8
:1056400005D02BB124B1002100F8011B04E0044671
:10565000401C0678002EE9D12860204670BD00006D
:105660004C0E00202DE9F04791460F468046044637
:10567000002614F8015B2DB100F0F8F90068405DD8
:10568000C007F6D12B2D02D02D2D18D0641E4A460E
:105690003946204600F0F7F927B13968A14201D117
:1056A000C7F8008071054FF002040BD54042002876
:1056B00003DD00F039FE0460A007BDE8F08746F482
:1056C0008066E4E70028F8DA00F02EFE04606FF050
:1056D0000040F2E770B5064600F026FE0468054675
:1056E0000A2200213046FFF7BDFF2C6070BD2DE976
:1056F000FE4F81EA030404F0004421F000410094CD
:105700004FF0000B23F0004350EA01045ED052EA50
:1057100003045BD0C3F30A54C1F30A552C44A4F22A
:10572000F3340194A0FB0254C1F3130141F480113E
:10573000C3F3130343F4801301FB024400FB034E45
:10574000840A970A44EA815447EA8357A4FB07680E
:1057500002958D0A05FB07854FEA932C04FB0C5438
:105760002705029D4FEA065847EA1637B5EB0805AC
:105770006EEB070C870E920E47EA811742EA8312FE
:10578000A7FB0201B6EB0B0164EB00042B0D43EA0F
:105790000C335E1844EB1C50DA465146E7FB02011D
:1057A000C5F313044FEA0B3343EA14534FEA0432B0
:1057B000019C43EA0603A4F10C040294009CCDE989
:1057C00000B400F00CFA03B0BDE8F08F00200146F1
:1057D000F9E72DE9F04D81EA030404F0004B21F0D4
:1057E000004514464FF0000A23F0004150EA05023C
:1057F00020D054EA01021DD0C5F30A570246C5F372
:105800001303C1F31300C1F30A5640F4801543F4A7
:105810008013A7EB0608101BD64608F2FD3873EB81
:10582000050002D308F1010801E092185B41B8F1CC
:10583000000F03DA00200146BDE8F08D00204FF490
:105840008011064684460EE0171B73EB050705D34F
:10585000121B63EB050306434CEA010C49084FEAAF
:10586000300092185B4150EA0107EDD152EA030083
:1058700012D082EA040083EA0501084305D0101B18
:10588000AB4106D20122002306E000224FF0004384
:1058900002E06FF0010253101AEB06004CEB0851C6
:1058A00010EB0A0041EB0B01BDE8F04D00F088B9A8
:1058B0000EB5C10F80EAE0700844CA07002140F22B
:1058C00033438DE80E000A460B4600F088F903B01A
:1058D00000BD0EB540F2334102910021CDE9001127
:1058E0000A460B4600F07BF903B000BD70B5C1F36A
:1058F0000A5201F000450024C1F3130140F2FF33C6
:1059000041F480119A4201DA002070BD40F2334325
:105910009A42A2F2334203DC524200F096F800E0D1
:1059200090402C43F1D0404270BDC1F30A5210B5F3
:10593000C1F3130140F2FF3341F480119A4201DABE
:10594000002010BD40F233439A42A2F2334203DCFE
:10595000524200F07AF810BD904010BD30B5041EE0
:1059600071F1000404DB4FF00044404264EB01019C
:10597000141E73F1000405DB1C464FF00043524235
:1059800063EB04038B4208BF824230BD30B5041E76
:1059900071F1000404DB4FF00044404264EB01016C
:1059A000141E73F1000405DB1C464FF00043524205
:1059B00063EB0403994208BF904230BD30B50B46FB
:1059C000014600202022012409E021FA02F59D422F
:1059D00005D303FA02F5491B04FA02F52844151E03
:1059E000A2F10102F1DC30BD2DE9F05F0546002097
:1059F00092469B4688460646814640241BE0284640
:105A000041464746224600F020F853465A46C01AFF
:105A1000914110D311461846224600F0FFF92D1A85
:105A200067EB01084F4622460120002100F0F6F9FD
:105A300017EB00094E41201EA4F10104DFDC4846AB
:105A400031462A464346BDE8F09F202A04DB203A2F
:105A500021FA02F00021704721FA02F3D040C2F18E
:105A600020029140084319467047000000487047E3
:105A7000906C000810B50446FFF7F8FF0068005D61
:105A800000F0010010BD2DE9F05F8246007800278C
:105A900015468B460AF10104B946302801D09DB164
:105AA00013E014F8010B0127782803D0582801D0FF
:105AB00045B10AE00DB1102D07D10027102514F8CB
:105AC000010B02E0082500E00A250026B0460EE0A2
:105AD00005FB080005FB06F1012701EB10461FFA44
