:020000040800F2
:100000008809002045010008C5380008C7380008E5
:10001000CB380008CF380008D338000800000000B3
:10002000000000000000000000000000D7380008B9
:10003000D938000800000000DB380008DD3800086F
:100040005F0100085F0100085F0100085F01000810
:100050005F0100085F0100085F0100085F01000800
:100060005F0100085F0100085F0100085F010008F0
:100070005F0100085F0100085F0100085F010008E0
:100080005F0100085F0100085F0100085F010008D0
:100090005F0100085F0100085F0100085F010008C0
:1000A0005F0100085F0100085F0100085F010008B0
:1000B0005F0100085F0100085F0100085F010008A0
:1000C0005F0100085F0100085F0100085F01000890
:1000D0005F010008612500085F0100085F0100085A
:1000E0005F0100085F0100085F0100085F01000870
:1000F0005F0100085F0100085F0100085F01000860
:100100005F0100085F0100085F0100085F0100084F
:100110005F0100085F0100085F0100085F0100083F
:100120005F0100085F0100085F0100085F0100082F
:10013000DFF80CD004F00EFB004800470D37000834
:10014000880900200648804706480047FEE7FEE78A
:10015000FEE7FEE7FEE7FEE7FEE7FEE7FEE7FEE777
:1001600047020008310100080CB500200190009002
:100170006C48006840F480306A49086000BF6948F4
:10018000006800F4003000900198401C0190009835
:1001900018B90198B0F5A06FF1D16248006800F479
:1001A000003010B10120009001E000200090009884
:1001B000012843D15C48006840F010005A490860AB
:1001C0000846006820F0030008600846006840F018
:1001D0000200086053484068524948600846406839
:1001E00048600846406840F48060486008464068BF
:1001F00020F47C1048600846406840F4E8104860ED
:100200000846006840F08070086000BF45480068FC
:1002100000F000700028F9D04248406820F0030048
:10022000404948600846406840F00200486000BF0E
:100230003C48406800F00C000828F9D10CBD10B50E
:10024000FFF792FF10BD10B53648006840F001007E
:1002500034490860084640683449084031494860DC
:1002600008460068324908402E4908600846006880
:1002700020F4802008600846406820F4FE004860B2
:100280004FF41F008860FFF7DAFF4FF00060294944
:10029000086010BD10B5002100200022214B5B68D2
:1002A00003F00C0121B1042906D0082928D107E068
:1002B000214B224C236027E01F4B204C236023E07E
:1002C000184B5B6803F47010164B5B6803F48032C4
:1002D000022303EB904022B9194B4343174C236090
:1002E0000DE0104B5B6803F4003323B1144B434320
:1002F000124C236003E0104B4343104C236003E097
:100300000D4B0E4C236000BF00BF064B5B68C3F370
:1003100003130C4CE15C094B1B68CB40074C23607A
:1003200010BD000000100240002002400000FFF855
:10033000FFFFF6FE08ED00E000127A00000000204A
:1003400000093D000400002031490143314A116099
:10035000704770B5002100230F22C47804B32D4CE0
:10036000246804F4E064C4F5E064210AC1F10403E4
:10037000CA40447804FA03F1847814402143090107
:10038000254C0678A155047804F01F050124AC40E3
:1003900005786D11AD0005F1E025C5F8004109E0D3
:1003A000047804F01F050124AC401C4D067876113A
:1003B00045F8264070BD1A4A0A400243154B1B1FE0
:1003C0001A60704739B1134A121D12680243114B6B
:1003D0001B1D1A6006E00F4A121D126882430D4B66
:1003E0001B1D1A607047042808D14FF0E0210969ED
:1003F00041F004014FF0E022116107E04FF0E021ED
:10040000096921F004014FF0E022116170470000FA
:100410000000FA050CED00E000E400E080E100E0FF
:1004200080FFFF1F01460020FE4A106800F03800E0
:10043000084310607047FB49096821F00801F94A38
:10044000116011460968014311607047F549096858
:1004500021F01001F34A116011460968014311604F
:100460007047F148EF494860F04848607047EE48EF
:10047000EC494860ED4848607047EA48006940F040
:100480008000E84908617047E648006940F0800054
:10049000E449086170470420E249C96801F001019C
:1004A00009B101200EE0DF49C96801F0040109B17A
:1004B000022007E0DB49C96801F0100109B10320FF
:1004C00000E00420704700B502460423FFF7E3FF75
:1004D000034603E0FFF7DFFF0346521E012B01D165
:1004E000002AF7D102B90523184600BD30B50446ED
:1004F00004254FF43020FFF7E6FF0546042D17D101
:10050000C848006940F00200C649086108464461D5
:10051000006940F0400008614FF43020FFF7D3FF3E
:100520000546C048006941F6FD710840BD490861B3
:10053000284630BD10B504244FF43020FFF7C3FF28
:100540000446042C16D1B748006940F00400B549B0
:1005500008610846006940F0400008614FF430200F
:10056000FFF7B1FF0446AF48006941F6FB71084050
:10057000AC490861204610BD00B502460423FFF7D0
:100580008AFF034603E0FFF786FF0346521E012B56
:1005900001D1002AF7D102B90523184600BD10B5D4
:1005A00004244FF43020FFF7E7FF0446042C16D153
:1005B0009C48006940F004009A49086108460069B7
:1005C00040F0400008614FF43020FFF7D5FF0446AB
:1005D0009448006941F6FB71084092490861204641
:1005E00010BD00208F49C96901F0020109B1012045
:1005F00000E00020704730B5A5250424FFF7F1FF87
:1006000000B100254FF43020FFF75DFF0446042CB5
:100610003AD18548834988608448886008460069E3
:1006200040F0200008610846006940F04000086181
:100630004FF43020FFF747FF0446042C1BD17948C4
:10064000006941F6DF710840764908610846006993
:1006500040F01000086176480580E002FFF733FFA4
:100660000446052C10D06F48006941F6EF71084030
:100670006C49086108E0052C06D06A48006941F61B
:10068000EF71084067490861204630BD78B50646DD
:100690000C46042500200090E802FFF714FF0546F1
:1006A000042D24D15F48006940F001005D490861D4
:1006B0003480E802FFF707FF0546042D10D1B01C77
:1006C0000090200C00990880E802FFF7FCFE054628
:1006D0005448006941F6FE7108405249086106E03D
:1006E0005048006941F6FE7108404E4908612846AD
:1006F00078BD70B504460D460426F002FFF7E3FE10
:100700000646042E11D14748006940F001004549D2
:1007100008612580F002FFF7D6FE064641480069D1
:1007200041F6FE7108403F490861304670BD70B522
:1007300005460E460424E002FFF7C5FE0446042CDD
:1007400017D13948374988603848886008460069B9
:1007500040F0100008612E80E002FFF7B4FE04466E
:10076000052C06D02F48006941F6EF7108402D494D
:100770000861204670BD2DE9F04304464FF6FF7630
:100780003746B046B1460425E443E6B2C4F3072732
:10079000C4F307484FEA1469E802FFF794FE0546E0
:1007A000042D49D120481F498860204888600846A8
:1007B000006940F010000861FF2E06D01C48083088
:1007C0000680E802FFF77FFE0546042D08D1FF2FC3
:1007D00006D017480A300780E802FFF774FE054686
:1007E000042D0AD1B8F1FF0F07D011480C30A0F842
:1007F0000080E802FFF767FE0546042D0AD1B9F133
:10080000FF0F07D00A480E30A0F80090E802FFF76B
:100810005AFE0546052D0FD00248006941F6EF71DA
:10082000084007E00020024023016745AB89EFCD77
:1008300000F8FF1F664908612846BDE8F08330B51F
:10084000054604244FF43020FFF73DFE0446042CF7
:1008500041D160485E4988605F4888600846006909
:1008600040F0200008610846006940F0400008613F
:100870004FF43020FFF727FE0446042C22D15448C1
:10088000006941F6DF710840514908610846006976
:1008900040F0100008611DB100205049088002E0BE
:1008A000A5204E4908804FF43020FFF70CFE044687
:1008B000052C10D04648006941F6EF7108404449C4
:1008C000086108E0052C06D04148006941F6DF7157
:1008D00008403F490861204630BDF0B505460E4648
:1008E000174604243B483A4988603B488860E00248
:1008F000FFF7E9FD0446042C19D13548006940F0A2
:1009000010003349086147F0F80030432843334969
:10091000891C0880E002FFF7D6FD0446052C06D0AE
:100920002B48006941F6EF710840294908612046CB
:10093000F0BD2748C069800870472548006A7047A5
:1009400000202349096801F0200109B1012000E0DD
:100950000020704729B11E4A126902431C4B1A61DC
:1009600004E01B4A12698243194B1A617047014621
:100970000020012908D1164AD26902F001020AB109
:10098000012008E0002006E0114AD2680A400AB1BE
:10099000012000E0002070470D49C8607047042026
:1009A0000B49C96801F0010109B101200EE00849B5
:1009B000C96801F0040109B1022007E00449C968CF
:1009C00001F0100109B1032000E00420704700008D
:1009D0000020024023016745AB89EFCD00F8FF1FDF
:1009E00010B50446CC48844208D10121042000F00F
:1009F0002DFB0021042000F029FB46E0C74884427B
:100A000008D10121082000F021FB0021082000F07E
:100A10001DFB3AE0C248844208D10121102000F0B9
:100A200015FB0021102000F011FB2EE0BD48844290
:100A300008D10121202000F009FB0021202000F036
:100A400005FB22E0B848844208D10121402000F093
:100A5000FDFA0021402000F0F9FA16E0B348844284
:100A600008D10121802000F0F1FA0021802000F05F
:100A7000EDFA0AE0AE48844207D10121801500F06A
:100A8000E5FA0021A01500F0E1FA10BD10B5012132
:100A9000084600F0DBFA0021012000F0D7FA10BD73
:100AA0002DE9F04102460025002600200023002405
:100AB000002791F803C00CF00F0591F803C00CF06B
:100AC000100CBCF1000F03D091F802C04CEA0505F0
:100AD00091F800C0BCF1000F31D0146800202BE069
:100AE0004FF0010C0CFA00F3B1F800C00CEA030659
:100AF0009E4220D183004FF00F0C0CFA03F7BC4349
:100B000005FA03FC4CEA040491F803C0BCF1280F79
:100B100006D14FF0010C0CFA00FCC2F814C00AE038
:100B200091F803C0BCF1480F05D14FF0010C0CFA4D
:100B300000FCC2F810C0401C0828D1D31460B1F8E2
:100B400000C0BCF1FF0F34DD546800202EE000F13E
:100B5000080C4FF0010808FA0CF3B1F800C00CEAD9
:100B600003069E4221D183004FF00F0C0CFA03F7CD
:100B7000BC4305FA03FC4CEA040491F803C0BCF141
:100B8000280F05D100F1080C08FA0CF8C2F81480FF
:100B900091F803C0BCF1480F07D100F1080C4FF0E9
:100BA000010808FA0CF8C2F81080401C0828CED3BF
:100BB0005460BDE8F0814FF6FF7101800221817021
:100BC0000421C17070470246002093680B400BB1AE
:100BD000012000E0002070470146886880B270471D
:100BE00002460020D3680B400BB1012000E000203A
:100BF00070470146C86880B2704701617047416123
:100C000070470AB1016100E041617047C1607047FF
:100C10004FF480320A438261816182618269826914
:100C2000704702460020434B18684FF68073184007
:100C300040EA021008433F4B186070473E49C861C4
:100C40007047F0B50A46002300240021002500F07B
:100C50000046B6F1004F02D1364EF16901E0354E43
:100C60007168C0F3034583B200F44016B6F5401F27
:100C700008D121F070612F4E766826F070662D4FF6
:100C80007E6012E000F48016B6F5801F06D10326C0
:100C900006FA05F4A14341F0706106E0460D360105
:100CA00003FA06F6B14341F0706122B1460D3601F8
:100CB00003FA06F6314300F00046B6F1004F02D1C8
:100CC0001C4EF16101E01B4E7160F0BD30B5002299
:100CD0008B071C0F0F2303FA04F2164B08338C10FA
:100CE00053F824309343134C08348D1044F82530C6
:100CF00023468C1053F824308C07240F00FA04F498
:100D000023430C4C08348D1044F8253030BD0A497B
:100D1000DC3108607047000000080140000C014011
:100D2000001001400014014000180140001C014067
:100D3000002001400000014000002042DF48006820
:100D400040F00100DD49086008464068DC49084081
:100D5000DA49486008460068DA490840D74908601F
:100D60000846006820F4802008600846406820F4A7
:100D7000FE0048604FF41F0088607047CF49096843
:100D800021F48031CD4A11601146096821F4802197
:100D90001160B0F5803F03D0B0F5802F0ED106E092
:100DA000C649096841F48031C44A116007E0C3496B
:100DB000096841F4A021C14A116000E000BF00BFF2
:100DC000704710B501460022002300204A11012A75
:100DD00002D1BA4C236806E0022A02D1B74C236A3A
:100DE00001E0B64C636A01F01F02012494401C40EC
:100DF0000CB1012000E0002010BD38B500200090AB
:100E00000024002500BF3120FFF7DBFF05460098D6
:100E1000401C00900098B0F5A06F01D0002DF2D0DA
:100E20003120FFF7CEFF08B1012400E00024204666
:100E300038BD01460020A14A106820F0F80040EAC1
:100E4000C10010607047A04908607047024600204A
:100E50009A4B586820F47C1042EA01031843974BE0
:100E60005860704798490866704701460020934AC9
:100E7000506820F003000843506070478F48406876
:100E800000F00C007047014600208C4A506820F0AA
:100E9000F00008435060704701460020874A5068C0
:100EA00020F4E06008435060704701460020834A08
:100EB000506820F4605040EAC1005060704729B18A
:100EC0007E4A527A02437D4B5A7204E07B4A527A40
:100ED00082437A4B5A7270477B49D8310860704719
:100EE00001460020754A506820F440400843506095
:100EF00070470021714A20321170704A82F8201028
:100F0000012802D004280AD104E001216B4A2032D2
:100F1000117005E00521694A2032117000E000BF20
:100F200000BF70476949086070476449096A014316
:100F3000624A11627047654944390860704730B5AC
:100F400000210022002400235C4D6D6805F00C0197
:100F500021B1042905D0082923D105E05C4D0560A5
:100F600022E05B4D05601FE0544D6D6805F4701282
:100F7000524D6D6805F48034022505EB92421CB990
:100F8000544D554305600BE04C4D6D6805F400353C
:100F90001DB1504D5543056002E04D4D5543056070
:100FA00002E04B4D056000BF00BF444D6D6805F089
:100FB000F0010909484D6B5C0568DD4045603F4D17
:100FC0006D6805F4E061090A434D6B5C4568DD40DE
:100FD00085603A4D6D6805F46051C90A3E4D6B5C01
:100FE0004568DD40C560354D6D6805F44041890BAD
:100FF0003A4D6B5CC568B5FBF3F5056130BD29B1B1
:101000002E4A526902432D4B5A6104E02B4A526921
:1010100082432A4B5A61704729B1284A9269024398
:10102000264B9A6104E0254A92698243234B9A61D8
:10103000704729B1214AD2690243204BDA6104E0AA
:101040001E4AD26982431D4BDA61704729B11B4A9F
:10105000D2680243194BDA6004E0184AD26882432E
:10106000164BDA60704729B1144A12690243134BD8
:101070001A6104E0114A12698243104B1A617047E9
:1010800012494039086070470F49C86470470B49DE
:10109000C87170470948406A40F08070074948624B
:1010A000704701460020054A92680A400AB10120B3
:1010B00000E000207047014988727047001002402C
:1010C0000000FFF8FFFFF6FE0000424280044242AB
:1010D00000127A0000093D001400002024000020C6
:1010E00010B50446FE48844208D10121C014FFF720
:1010F000ADFF0021E014FFF7A9FFC4E0B4F1804F79
:1011000008D101210846FFF7AEFF00210120FFF7BB
:10111000AAFFB8E0F348844208D101210220FFF77A
:10112000A2FF00210220FFF79EFFACE0EE488442C0
:1011300008D101210420FFF796FF00210420FFF7CA
:1011400092FFA0E0E948844208D101210820FFF77E
:101150008AFF00210820FFF786FF94E0E4488442DC
:1011600008D101211020FFF77EFF00211020FFF79A
:101170007AFF88E0DF48844208D101212020FFF770
:1011800072FF00212020FFF76EFF7CE0DA488442E6
:1011900008D101214014FFF759FF00216014FFF727
:1011A00055FF70E0D548844209D10121C804FFF7FA
:1011B0004DFF00214FF40020FFF748FF63E0D048C7
:1011C000844209D101210805FFF740FF00214FF4B7
:1011D0008010FFF73BFF56E0CA48844209D1012145
:1011E0004805FFF733FF00214FF40010FFF72EFFF3
:1011F00049E0C548844208D101214020FFF733FF70
:1012000000214020FFF72FFF3DE0C048844208D175
:1012100001218020FFF727FF00218020FFF723FF17
:1012200031E0BB48844208D101218015FFF71BFF44
:101230000021A015FFF717FF25E0B648844209D129
:1012400001210804FFF702FF00214FF48030FFF76F
:10125000FDFE18E0B048844209D101214804FFF79F
:10126000F5FE00214FF40030FFF7F0FE0BE0AB4835
:10127000844208D101218804FFF7E8FE00214FF4E1
:101280008020FFF7E3FE10BD00220288944B9842B5
:101290000ED0994B98420BD0B0F1804F08D0914BB3
:1012A000984205D0904B984202D0904B984204D17E
:1012B0004FF68F731A404B881A438D4B984207D0D4
:1012C0008C4B984204D04FF6FF431A40CB881A4308
:1012D00002808B8883850B880385814B98420BD0D5
:1012E000854B984208D08B4B984205D08A4B984248
:1012F00002D08A4B984201D10B7A03860123838264
:10130000704770B5002400220023058C4FF6FE764E
:1013100035400584028C8388048B4FF68F752C40F2
:10132000B51E2C400D882C43751E2A400D892A437A
:101330004D882A436A4DA8420BD06F4DA84208D071
:10134000744DA84205D0744DA84202D0734DA842F6
:1013500013D14FF6F7752A404D892A434FF6FB7596
:101360002A408D882A434FF6FF652B404FF6FF55E4
:101370002B408D892B43CD892B4383800483CD88DB
:101380008586028470BD70B5002400220023058C80
:101390004FF6EF7635400584028C8388048B48F63F
:1013A000FF752C404FF6FF452C400D884FF6FF7619
:1013B00006EA05252C434FF6DF752A400D8906EA1B
:1013C00005152A434D8806EA05152A43444DA842CF
:1013D00002D0494DA8421DD14FF67F752A404D8954
:1013E0004FF6FF7606EA05152A434FF6BF752A40E9
:1013F0008D8806EA05152A434FF6FF352B404FF23C
:10140000FF752B408D8906EA85052B43CD8906EAB9
:1014100085052B4383800483CD880587028470BDB6
:1014200070B5002400220023058C4FF6FF6635407E
:101430000584028C8388848B4FF68F752C404FF681
:10144000FC752C400D882C434FF6FF552A400D8922
:101450004FF6FF7606EA05252A434D8806EA05255C
:101460002A431F4DA84202D0234DA8421DD14FF25E
:10147000FF752A404D894FF6FF7606EA05252A4377
:101480004FF6FF352A408D8806EA05252A434EF699
:10149000FF752B404DF6FF752B408D8906EA05152B
:1014A0002B43CD8906EA05152B4383808483CD88A1
:1014B0008587028470BD70B5002200230024058C4E
:1014C0004EF6FF7635400584038C8488828B48F67F
:1014D000FF752A404FF6FF452A400D8820E00000A6
:1014E000002C01400004004000080040000C0040B7
:1014F000001000400014004000340140004C014046
:10150000005001400054014000180040001C004001
:1015100000200040004001400044014000480140DC
:101520004FF6FF7606EA05252A434DF6FF752B4058
:101530000D8906EA05352B434D8806EA05352B4310
:10154000FA4DA84202D0FA4DA84208D14BF6FF75D9
:101550002C408D894FF6FF7606EA85152C43848052
:101560008283CD88A0F84050038470BD828B4FF2F7
:10157000FF331A408283828B4FF6FF7303EA012305
:101580001A4382837047F0B50C46154600220021AD
:101590000026078C4EF6FF7C07EA0C070784828B37
:1015A000018C4FF6FF7707EA043640F6FF473A40D2
:1015B0004FF6FF7707EA05273A434FF6FF7707EA2A
:1015C00003373A43D94FB8420ED0D94FB8420BD067
:1015D000B0F1804F08D0D74FB84205D0D64FB842AF
:1015E00002D0D64FB84206D14DF6FF77394046F4C7
:1015F0008057394305E047F6FF57394044F4805798
:10160000394382830184F0BD828B4FF6F3731A4015
:101610008283828B0A4382837047F0B50C4615465D
:10162000002200210026078C4FF6FF6C07EA0C070A
:101630000784828B018C4FF6FF7707EA04264FF66A
:101640000C773A404FF6FF7707EA03172F433A43E8
:10165000B64FB8420ED0B64FB8420BD0B0F1804F63
:1016600008D0B44FB84205D0B34FB84202D0B34F00
:10167000B84206D14FF6FF57394046F480773943D8
:1016800005E04FF2FF57394044F4807739438283B5
:101690000184F0BD028B4FF2FF331A400283028BAC
:1016A0004FF6FF7303EA01231A4302837047F0B534
:1016B0000C461546002200210026078C4FF6EF7CD1
:1016C00007EA0C070784028B018C4FF6FF7707EAC5
:1016D000041640F6FF473A404FF6FF7707EA033714
:1016E0003A434FF6FF7707EA05273A438F4FB84250
:1016F0000ED08F4FB8420BD0B0F1804F08D08D4F35
:10170000B84205D08C4FB84202D08C4FB84206D1B7
:101710004FF6DF77394046F01007394305E04FF6C2
:101720005F77394044F01007394302830184F0BDEC
:10173000028B4FF6F3731A400283028B0A43028333
:101740007047F0B50C46154600220021068C4FF676
:10175000FE773E400684028B018C4FF60C763240B9
:101760007E1C06EA03162E433243704EB0420ED062
:101770006F4EB0420BD0B0F1804F08D06D4EB042EA
:1017800005D06D4EB04202D06C4EB04206D14FF63D
:10179000FD76314044F00106314305E04FF6F57621
:1017A000314044F00106314302830184F0BD70B53D
:1017B00005460C465D4885420ED05D4885420BD0FB
:1017C000B5F1804F08D05B48854205D05A48854224
:1017D00002D05A48854200D100E000BF208850B9AD
:1017E0002389A28861882846FFF7ABFFE188284655
:1017F000FFF79EFF25E0208804280AD12389A288CC
:1018000061882846FFF753FFE1882846FFF742FF2B
:1018100017E0208808280AD12389A28861882846F1
:10182000FFF7FBFEE1882846FFF7EEFE09E023897B
:10183000A28861882846FFF7A6FEE1882846FFF7C0
:1018400095FE70BD2DE9F04105460C4600260127A6
:10185000608808B9022600E00026A088012801D18E
:10186000022700E001272088A0B92389A288618887
:101870002846FFF766FFE1882846FFF759FF2389CE
:101880003A4631462846FFF712FFE1882846FFF71F
:1018900001FF13E02389A28861882846FFF707FF2C
:1018A000E1882846FFF7F6FE23893A463146284666
:1018B000FFF747FFE1882846FFF73AFFBDE8F081D0
:1018C0000A884B881A438B881A43CB881A430B89A2
:1018D0001A434B891A438B891A43A0F84420704756
:1018E0004FF6FF71818000210180C180418001722B
:1018F00070470021018041808180C1800181418148
:101900008181C18170470021018041800121818056
:101910000021C180018170470021018041808180C8
:10192000C18001814181818170470000002C01400C
:10193000003401400004004000080040000C00405A
:1019400021B1028842F00102028004E002884FF6D1
:10195000FE731A400280704731B1B0F8442042F45F
:101960000042A0F8442005E0B0F84420C2F30E0283
:10197000A0F8442070471AB183890B43838102E0A9
:1019800083898B43838170478182704741EA0203D8
:10199000A0F8483070471AB183890B43838102E075
:1019A00083898B438381704701894FF6F872114018
:1019B000018170470A46002101894FF68F73194053
:1019C00011430181704730B504460D462946204633
:1019D000FFF7F0FF208940F00700208130BD2DE99E
:1019E000F04104460D4616461F46602D06D13B4683
:1019F000012231462046FFF75AFE05E03B46012210
:101A000031462046FFF79DFE29462046FFF7D2FFCC
:101A1000208940F007002081BDE8F08130B50C46F8
:101A200000210189C9B24FF6FF7505EA0325154368
:101A300025432943018130BD2DE9F04105460E467D
:101A400017469846002443463A4631462846FFF753
:101A5000E5FF2C894FF6F870044044F007044FF678
:101A60008F70044044F070042C81BDE8F081F0B523
:101A700004460D4616461F463B463246294620463A
:101A8000FFF7CCFF208940F480402081F0BD018524
:101A9000828270470A46002101884FF68F731940F1
:101AA000114301807047F0B50C4615461E460021D3
:101AB000002200230189028B038C4FF6F87739400E
:101AC00021434FF6FC473A4040F201173A434FF6A4
:101AD000DD773B404FF6FF7707EA06172F433B437E
:101AE000018102830384F0BD0A460021018B4FF679
:101AF0008F7319401143018370470A460021018BFF
:101B000048F6FF7319404FF6FF7303EA02231943A7
:101B1000018370470A460021818B4FF68F7319406D
:101B20001143818370470A460021818B48F6FF7379
:101B300019404FF6FF7303EA02231943818370476C
:101B400021B1028842F08002028004E002884FF650
:101B50007F731A400280704721B1828842F00402EC
:101B6000828004E082884FF6FB731A4082807047BF
:101B700021B1828842F00802828004E082884FF618
:101B8000F7731A408280704721B1828842F00102C7
:101B9000828004E082884FF6FE731A40828070478C
:101BA0000A460021018B4FF6F77319401143018358
:101BB00070470A460021018B4FF2FF7319404FF620
:101BC000FF7303EA02231943018370470A46002189
:101BD000818B4FF6F77319401143818370470A4692
:101BE0000021818B4FF2FF7319404FF6FF7303EA18
:101BF00002231943818370470A460021018B4FF667
:101C0000FB7319401143018370470A460021018B81
:101C10004FF6FF3319404FF6FF7303EA02231943CF
:101C2000018370470A460021818B4FF6FB731940F0
:101C30001143818370470A460021818B4FF6FF33A1
:101C400019404FF6FF7303EA02231943818370475B
:101C50000A460021018B4FF67F731940114301831F
:101C600070470A460021018BC1F30E014FF6FF7346
:101C700003EA02231943018370470A460021818B3E
:101C80004FF67F7319401143818370470A46002144
:101C9000818BC1F30E014FF6FF7303EA0223194350
:101CA000818370470A460021018C4FF6FD7319406D
:101CB0001143018470470A460021018C4FF6F773E7
:101CC00019401143018470470A460021018C4FF6E8
:101CD000DF7319404FF6FF7303EA021319430184BF
:101CE00070470A460021018C4FF67F7319404FF66A
:101CF000FF7303EA02131943018470470A46002167
:101D0000018C4FF6FF5319404FF6FF7303EA02238D
:101D10001943018470470A460021018C4FF2FF737A
:101D200019404FF6FF7303EA0223194301847047F9
:101D30000A460021018C4DF6FF7319404FF6FF73E0
:101D400003EA023319430184704730B500230124AC
:101D50008C40A3B2048C9C430484048C02FA01F5E9
:101D6000ADB22C43048430BD30B5002304248C4034
:101D7000A3B2048C9C430484048C02FA01F5ADB236
:101D80002C43048430BD70B503460020002418465F
:101D9000183001258D40ACB21D8CA5431D8409B1BE
:101DA000082909D100EB6100056825F07005056080
:101DB0000568154305600EE00D1FC5F34E05284468
:101DC000056825F4E045056005684FF6FF7606EAEC
:101DD00002263543056070BD21B1028842F002023F
:101DE000028004E002884FF6FD731A4002807047BB
:101DF00021B1028842F00402028004E002884FF61A
:101E0000FB731A400280704721B1828842F0800241
:101E1000828004E082884FF67F731A408280704788
:101E200002884FF6F7731A40028002880A43028044
:101E3000704782884FF68F731A40828082880A43E7
:101E40008280704702894FF6F8731A400281028936
:101E50000A430281704702894FF67F731A4002815C
:101E600002890A43028170478184704781857047E7
:101E7000818670470187704781877047A0F84010BE
:101E8000704702884FF6FF431A40028002880A43D7
:101E9000028070470146888E70470146088F704760
:101EA0000146888F70470146B1F8400070470146EF
:101EB000888C70470146088D704702460020138ABF
:101EC0000B400BB1012000E000207047CA430282A2
:101ED000704730B50246002000230024158A05EA29
:101EE0000103958905EA010413B10CB1012000E05A
:101EF000002030BDCA4302827047000010B504467E
:101F0000FB48844209D101218803FFF79FF8002193
:101F10004FF48040FFF79AF832E0F648844209D146
:101F200001214804FFF79FF800214FF40030FFF72C
:101F30009AF825E0F048844209D101218804FFF78E
:101F400092F800214FF48020FFF78DF818E0EB485D
:101F5000844209D10121C804FFF785F800214FF41C
:101F60000020FFF780F80BE0E548844208D101210A
:101F70000805FFF778F800214FF48010FFF773F899
:101F800010BD2DE9F04786B005460E460024A24656
:101F900000BFA1460027B08900B100BF2F462C8AA0
:101FA0004CF6FF700440F08804432C82AC894EF656
:101FB000F3100440B0883189084371890843044311
:101FC000AC81AC8A4FF6FF400440B0890443AC8238
:101FD00001A8FEF7B4FFC648874202D1DDF810A081
:101FE00001E0DDF80CA0A88900F4004040B10AEB44
:101FF000CA0000EB0A1031684900B0FBF1F807E0B5
:102000000AEBCA0000EB0A1031688900B0FBF1F856
:102010006420B8FBF0F004012009642101FB108961
:10202000A88900F4004040B1322000EBC900B0FBA9
:10203000F1F000F00700044308E0322000EB091043
:102040006421B0FBF1F000F00F0004432C8106B0D6
:10205000BDE8F0874FF41651016000218180C180F6
:1020600001810C21418100218181704710B5024618
:102070000020108A4FF2FF0318400B884C8823433E
:102080008C882343CC8823431843108210BD002141
:10209000018041808180C180704721B1828942F4F2
:1020A0000052828104E082894DF6FF731A408281DA
:1020B0007047F0B50346002400260025002040F6B6
:1020C0006A17B94200D100BF1846C1F3421401F0AB
:1020D0001F06012707FA06F5012C01D10C3004E098
:1020E000022C01D1103000E014301AB107682F43E0
:1020F000076002E00768AF430760F0BD1AB1838A4A
:102100000B43838202E0838A8B4383827047028A77
:102110004FF6F0731A400282028A0A430282704725
:1021200082894FF2FF731A40828182890A43828139
:10213000704721B1828942F00202828104E08289E3
:102140004FF6FD731A4082817047028A4FF6DF73A3
:102150001A400282028A0A430282704721B1028A2F
:1021600042F48042028204E0028A4BF6FF731A4076
:1021700002827047C1F30802828070470146888856
:10218000C0F308007047818941F0010181817047E7
:10219000028BD2B20283028B42EA01220283704791
:1021A000028B02F47F420283028B0A430283704750
:1021B00021B1828A42F02002828204E0828A4FF6B4
:1021C000DF731A408282704721B1828A42F0100286
:1021D000828204E0828A4FF6EF731A40828270474F
:1021E00021B1828A42F00802828204E0828A4FF69C
:1021F000F7731A408282704721B1828942F400420B
:10220000828103E08289C2F30E028281704721B18C
:10221000828A42F40062828204E0828A4FF2FF7373
:102220001A4082827047828A4FF6FB731A4082827C
:10223000828A0A438282704721B1828A42F0020276
:10224000828204E0828A4FF6FD731A4082827047D0
:1022500002460020B1F5007F00D100BF13880B407B
:102260000BB1012000E00020704701F40072B2F5CC
:10227000007F00D100BFCA430280704770B502469C
:10228000002400230025002040F66A16B14200D148
:1022900000BFC1F3421501F01F03012606FA03F344
:1022A000012D02D19689334006E0022D02D1168A13
:1022B000334001E0968A33400C12012606FA04F4FA
:1022C0001688344013B10CB1012000E0002070BD2D
:1022D00010B50022002340F66A14A14200D100BFCD
:1022E0000A1201249440A3B2DC43048010BD000014
:1022F000003801400044004000480040004C0040CD
:102300000050004000BFF649098801F04001002953
:10231000F9D0F349091D0880704710B50246002323
:1023200004E019465B1C505CFFF7ECFFD05C002812
:10233000F7D110BD00B5EBA0FFF7EFFF00BD10B562
:1023400004462046FFF7E9FFE6A0FFF7E6FF10BDD1
:1023500070B50024E449E5A002F084FC1421E648AD
:1023600001F0F1FDE5A1E04801F008FE05460AE0B4
:10237000E14840F82450641CE1480460DFA10020DB
:1023800001F0FCFD0546002DF2D1DB49042208686E
:10239000DCA101F0E3FD18B90120DC490860DEE0B2
:1023A000D54904220868DAA101F0D8FD18B9022045
:1023B000D6490860D3E0D04904220868D6A101F0CC
:1023C000CDFD18B90320D1490860C8E0CA490722E9
:1023D0000868D3A101F0C2FD18B90420CB490860F8
:1023E000BDE0C54908220868CFA101F0B7FD18B9C2
:1023F0000520C6490860B2E0BF490F220868CDA198
:1024000001F0ACFD18B90620C0490860A7E0BA4940
:102410000B220868CBA101F0A1FD18B90720BB4928
:1024200008609CE0B44908220868C9A101F096FD43
:1024300018B90820B549086091E0AF490D22086835
:10244000C6A101F08BFD18B90920B049086086E0EB
:10245000A9490E220868C5A101F080FD18B90A201B
:10246000AA4908607BE0A4490E220868C3A101F0D4
:1024700075FD18B90B20A549086070E09E49062239
:102480000868C2A101F06AFD18B90D209F490860D3
:1024900065E0994906220868BEA101F05FFD18B900
:1024A0000F209A4908605AE0934905220868BBA1A9
:1024B00001F054FD18B91120944908604FE08E498D
:1024C00006220868B7A101F049FD18B90E208F490E
:1024D000086044E0884906220868B4A101F03EFD86
:1024E00018B910208949086039E083490522086835
:1024F000B0A101F033FD18B91220844908602EE024
:102500007D4908220868ADA101F028FD18B9132003
:102510007E49086023E078490B220868AAA101F0EF
:102520001DFD18B914207949086018E072490A2283
:102530000868A8A101F012FD18B9152073490860B8
:102540000DE06D490A220868A5A101F007FD18B940
:1025500016206E49086002E0FF206C49086070BDDB
:1025600010B540F225515E48FFF788FE002828D0BC
:102570005B48FFF703FEC4B20D2C0BD100205A4973
:102580009A4A128888540120994908600020974986
:10259000088016E00A2C14D094480088802808D1BE
:1025A000FFF7C8FE93A0FFF7CAFE00208F490880FE
:1025B00010BD8E4801880088401C8C4A10804A4813
:1025C000445400BFF4E7002108E0002201E0531C5E
:1025D0009AB2B2F5006FFADB4B1C99B28142F4DB80
:1025E00070477CB50024002541E0884810F81400AD
:1025F000FF2807D1854800EB44004078FF2835D1FB
:10260000012533E0814810F814008DF804007F485C
:1026100000EB440040788DF805009DF8040001228D
:102620000DF1050101F00DFB4FF47A70FFF7CBFFC0
:102630009DF804000122694601F043FB9DF8050066
:102640009DF80010884207D19DF804109DF80020E5
:102650006FA002F007FB09E09DF804109DF8002030
:102660006BA002F0FFFA4FF0FF307CBD641C002D20
:10267000BBD00020F9E77CB50024002500200090A5
:102680006EA002F0EFFA72A002F0ECFA25E05F48CB
:1026900010F81400FF2807D15C4800EB4400407894
:1026A000FF2819D1012517E0584810F814008DF8BB
:1026B0000400564800EB440040788DF805009DF872
:1026C00004000122694601F0FCFA9DF804109DF80F
:1026D000002066A002F0C6FA641C002DD7D07CBD95
:1026E000003801400D0A000004050020434D443A23
:1026F00025730D0A00000000700400202000000077
:102700004C04002048454C500000000048040020C4
:10271000494E464F0000000044554D500000000057
:102720004932435245414400493243575249544586
:1027300000000000424C5345544252494748544E11
:1027400045535300424C534554524154494F530052
:10275000424C53574954434800000000424C5345F3
:102760005454494E4753474554000000424C53458A
:1027700054324443555252454E540000424C534546
:1027800054334443555252454E540000504F4B452C
:1027900033320000504F4B4531360000504F4B450F
:1027A000380000005045454B333200005045454B42
:1027B000313600005045454B380000004750494F26
:1027C00052454144000000004750494F52454144A2
:1027D00050494E004750494F53455450494E000010
:1027E0004750494F434C5250494E00002C000020A6
:1027F000280000205B4552524F525D636F6D6D6142
:102800006E6420746F6F206C6F6E67005004002040
:10281000616464726573733A307825782C20766130
:102820006C75653A307825782C7365742073756300
:102830006365737366756C6C790D0A0044756D7011
:102840002038353536207265673A0D0A00000000E1
:102850006164647265737320202020202020202072
:102860002076616C75650D0A000000003078252D1A
:102870003135783078252D35780D0A00F749F84A3A
:102880000868904201D1002070470120FCE770B534
:10289000FDF7E7FDF148FDF729FEF04CF04D294624
:1028A0002046FDF7F3FEFDF7E8FD70BD2DE9F0478A
:1028B00086B0044600200590EA48006802281AD134
:1028C000E849886801F0B3FC07460022E64B01F0B6
:1028D0002EFC05460E46204601F0A9FC2A4633464A
:1028E000CDE9000101F0B1FBCDE9020101F0CBFC23
:1028F000C0B2059019E0DB49C86801F098FC0022DD
:10290000D94BCDE9000101F012FC05460E462046E8
:1029100001F08DFC2A463346CDE9020101F095FB1A
:10292000074601F0B0FCC0B20590002004909DF86D
:102930001410CEA002F096F9012205A9002001F0A2
:1029400080F9012204A9002001F0BBF99DF81000D4
:10295000844203D1CAA0FFF7F2FC02E0CEA0FFF749
:10296000EEFC4FF00009BF480068022819D1BD49AC
:10297000086901F05CFC0022BB4BCDE9000101F0CD
:10298000D6FB05460E46204601F051FC07462A4676
:10299000334601F05AFBCDE9020101F055FC8146B6
:1029A00018E0B049486901F042FC0022AE4BCDE985
:1029B000000101F0BCFB05460E46204601F037FC45
:1029C00007462A46334601F040FBCDE9020101F0FB
:1029D0003BFC8146484601F019FC0022B24BCDE990
:1029E000020101F0A4FB05460022B04B01F02DFBD3
:1029F000074601F029FC824651464FF4006001F081
:102A000084F806B0BDE8F0879449A949002005E0A4
:102A100051F82020934B43F82020401C0628F7DB78
:102A2000704770B5FFF72AFFC0B1FFF730FFFDF721
:102A300018FD9F48FDF75AFD9D4C8A4D002606E083
:102A400020462968FDF722FE241D2D1D761C062E2A
:102A5000F6DB84490879FFF729FF05E0FFF7D4FF8B
:102A600080490879FFF722FF70BD10B5002400F0FF
:102A70005CFF01F0A8F88FA002F0F4F890A196484E
:102A800000F0BDFF01F05EF94FF4FA60FFF79BFD27
:102A9000582001F0B1F818B990A002F0E3F802E074
:102AA00095A002F0DFF84FF4FA60FFF78CFDFFF716
:102AB00098FD044614B198A002F0D4F8FFF7B1FFD6
:102AC00010BD7CB59B480068022805D09AA0FFF78E
:102AD00036FC4FF0FF307CBD0020019000909E49F5
:102AE0001022486801A901F06BFA0446FF2C04DCAF
:102AF000002C02DB0198007828B198A0FFF71FFC9A
:102B00004FF0FF30E7E7E5B201226946284601F0C1
:102B1000D8F8AFF2C42002F0A5F89DF800202946AD
:102B2000AFF2B82002F09EF80020D4E7FEB581484D
:102B30000068032805D080A0FFF701FC4FF0FF30AC
:102B4000FEBD0020029084491022486802A901F0CD
:102B500037FA0446FF2C04DC002C02DB02980078D4
:102B600028B189A0FFF7EBFB4FF0FF30E8E77A4987
:102B70001022886802A901F023FA0546FF2D04DC23
:102B8000002D02DB0298007828B18AA0FFF7D7FB5E
:102B90004FF0FF30D4E700200190E6B2E8B2009099
:102BA00001226946304601F04CF8012201A9304665
:102BB00001F087F89DF800009DF8041088420ED1BE
:102BC00087A002F04FF8AFF2783002F04BF89DF892
:102BD00004203146AFF26C3002F044F805E088A0E2
:102BE00002F040F84FF0FF30AAE70020A8E72DE9F7
:102BF000F041FDF736FC2E48FDF778FC2C4D194EC0
:102C0000002400BF06E028463168FDF73FFD2D1D7A
:102C1000361D641C062CF6DB254F002408E0114805
:102C200050F8240057F82410884200D002E0641CB9
:102C3000062CF4DB00BF062C02D178A002F012F8BB
:102C4000FDF71BFCBDE8F08110B53A48006802288A
:102C500003D039A0FFF773FB10BDEFE000CC0008F4
:102C60005C5B5A0030040020000059400D0A62727B
:102C7000696768746E6573733A25640D0A00000015
:102C8000326420736574207375636365737366754E
:102C90006C6C79210000000032642073657420663A
:102CA00061696C656421000000E06F4000009040A5
:102CB00000C80008696E69742E2E2E0D0A000000EF
:102CC00070776D206973206F6E2C20663D3137352B
:102CD0003730687A0D0A0000003801403835353643
:102CE00020686173206265656E2064657465637435
:102CF00065642E0D0A000000383535362068617392
:102D0000206E6F74206265656E20646574656374FF
:102D100065640D0A000000005B4552524F525D3859
:102D200035353620696E6974206661696C2E0D0A2E
:102D3000000000004C0400205B4552524F525D776A
:102D4000726F6E6720666F6D6172742C736565209B
:102D500048454C5000000000700400205B45525272
:102D60004F525D616464726573732063616E206F9E
:102D70006E6C792062652061203820626974204879
:102D80004558206E756D21005B4552524F525D6172
:102D90006464726573732063616E206F6E6C79205A
:102DA000626520612075696E743820484558206E30
:102DB000756D21005B4552524F525D76616C7565B1
:102DC0002063616E206F6E6C7920626520612075D2
:102DD000696E743820484558206E756D21000000DA
:102DE0007772697465207375636365737366756C58
:102DF0006C792C726573756C743A0D0A00000000D2
:102E000054686520726573756C74206973206E6FE9
:102E10007420636F72726563742100000D0A57722B
:102E2000697465204461746120746F20666C6173FD
:102E30006820737563636573732E0000FC494868EE
:102E400001F0F6F80446022C05D0032C03D0F9A0BB
:102E5000FFF775FA10BDFE480460FFF7C8FEFC4995
:102E60000879FFF723FD00BFF4E72DE9FC47F94897
:102E70000068042805D0AFF24010FFF760FABDE803
:102E8000FC87EB49486801F0D3F8824600200090A7
:102E9000E749886801A902F05AFB06460F46E44953
:102EA000C868694602F053FB04460D46BAF1020FAA
:102EB00002D0BAF1030F05D10198007810B900983B
:102EC000007818B1E4A0FFF73AFAD8E70022E84BFF
:102ED0003046394601F008FA14D300221346304632
:102EE000394601F0E9F90DD30022E24B204629468C
:102EF00001F0FAF906D3002213462046294601F0D4
:102F0000DBF903D2DCA0FFF71AFAB8E7BAF1020F37
:102F100016D10022E54B3046394601F096F880463E
:102F200001F092F9CA4988600022E04B2046294608
:102F300001F08BF8804601F087F9C549C86015E0BB
:102F40000022DA4B3046394601F07FF8804601F026
:102F50007BF9BF4908610022D44B2046294601F085
:102F600074F8804601F070F9B9494861FFF73FFEF7
:102F7000B7490879FFF79AFC00BF80E72DE9F04FC9
:102F80008DB0B4480068012806D0AFF25420FFF796
:102F9000D6F90DB0BDE8F08FFFF736FD00200C909C
:102FA000AB49886801F043F90022C04BCDE9060126
:102FB00001F0BDF8CDE90A01A549C86801F037F96B
:102FC0000022BA4BCDE9060101F0B1F880468946EE
:102FD0009F49086901F02BF90022B44BCDE90601A5
:102FE00001F0A5F8CDE908019949486901F01FF9F8
:102FF0000022AE4BCDE9060101F099F882468B46DE
:103000009349886801F013F9CDE902010C9801F0A9
:10301000FDF8CDE90001DDE9022301F088F8002286
:10302000A34BCDE9040101F082F80022A14BCDE9C8
:10303000060101F00AF804460D468549C86801F00A
:10304000F6F8CDE902010C9801F0E0F8CDE90001B5
:10305000DDE9022301F06BF80022954BCDE9040174
:1030600001F065F80022944BCDE9060100F0EDFF78
:1030700006460F4691A001F0F5FD9BA00C9901F0CA
:10308000F1FD9EA001F0EEFDABA001F0EBFD70485C
:10309000006802280DD199A001F0E4FDCDE9008976
:1030A00002A9F0C10221B3A0DDE90A2301F0DAFD93
:1030B0000CE092A001F0D6FDCDE900AB02A9F0C171
:1030C0000321ACA0DDE9082301F0CCFDB4A001F0A0
:1030D000C9FD00BF5DE72DE9FE4F5E48006802288C
:1030E00005D0AFF2AC30FFF72AF9BDE8FE8F002023
:1030F00002904F49486802A902F029FA04460D4699
:103100000298007818B1B6A0FFF719F9EDE7002290
:10311000684B2046294601F0E7F806D30022134603
:103120002046294601F0C8F803D2B1A0FFF707F9FD
:10313000DBE700225F4B2046294600F0F8FF0646F9
:1031400000225B4B00F081FF804601F07DF8824653
:10315000002001900AF0FF00009001226946002043
:1031600000F06FFD012201A9002000F0AAFD9DF8EA
:103170000400824505D19DF80410A64801F072FDB7
:1031800003E0AFF2EC40FFF7DAF800BFADE72DE95E
:10319000FE4F30480068022805D0AFF26440FFF7C8
:1031A000CEF8BDE8FE8F002002902149486802A9B0
:1031B00002F0CDF904460D460298007810B188A0BF
:1031C000FFF7BDF800223C4B2046294601F08CF861
:1031D00006D3002213462046294601F06DF802D29C
:1031E00083A0FFF7ACF80022334B2046294600F0BD
:1031F0009EFF074600222E4B00F027FF824601F07B
:1032000023F80646304601F001F807460022284B15
:1032100000F08DFF824600227F4B00F016FFCDE9C3
:10322000000101F011F8814649464FF40060F5E0D5
:10323000700400205B4552524F525D6D6F646520F3
:103240006D7573742062652032206F722033210007
:10325000300400204C0400206D6F6465206F7220E4
:10326000726174696F20696C6C6567616C00000045
:103270000000F03F00000840726174696F206572C1
:10328000726F722C726174696F5F32643A302E30E3
:10329000307E312E3030202C726174696F5F336460
:1032A0003A302E30307E332E30300000000059404E
:1032B00000E06F400000394000002C40446973700A
:1032C0006C61792063757272656E742073797374A2
:1032D000656D20636F6E66696775726174696F6E84
:1032E000733A0D0A000000006272696768746E65C7
:1032F00073733A2025640D0A000000002B2D2D2D3C
:103300002D2D2D2B2D2D2D2D2D2D2D2D2D2D2B2DF1
:103310002D2D2D2D2D2D2D2D2D2B2D2D2D2D2D2DDF
:103320002D2D2D2D2D2D2B2D2D2D2D2D2D2D2D2DCF
:103330002D2D2D2B0D0A00007C206D6F6465207CE7
:103340002032445F726174696F207C2033445F7265
:103350006174696F207C2032445F63757272656EA0
:1033600074207C2033445F63757272656E74207CB8
:103370000D0A00007C252D36647C252D31302E323F
:10338000667C252D31302E32667C252D31322E3251
:10339000667C252D31322E32667C0D0A000000003D
:1033A0002B2D2D2D2D2D2D2B2D2D2D2D2D2D2D2D51
:1033B0002D2D2B2D2D2D2D2D2D2D2D2D2D2B2D2D41
:1033C0002D2D2D2D2D2D2D2D2D2D2B2D2D2D2D2D2F
:1033D0002D2D2D2D2D2D2D2B0D0A0D0A0000000059
:1033E00063757272656E7420696C6C6567616C00E0
:1033F00063757272656E74206572726F722C63757C
:103400007272656E743A302E30307E32352E303026
:1034100000000000F05500080000904000F075FB2F
:1034200000BFBEE62DE9F041BF480068022805D084
:10343000AFF2FC60FEF783FFBDE8F081BB4948684E
:1034400000F0F6FD0546B949886800F0F1FD044634
:10345000022D05D0032D03D0B5A0FEF770FFEBE7DA
:10346000204600F0D3FE06460022134600F024FF5B
:1034700002D3B4F5806F03DDB1A0FEF760FFDBE798
:1034800021464FF4006000F040FB00BFD4E710B5C8
:103490000020B4490860A44908608021B24800F0C7
:1034A00052FD10BD7CB5AF480068172875D2DFE823
:1034B00000F0FA0C74131822313C2C41464B505545
:1034C000CC7AE5A3F9F8F7F6F500A849A8A001F031
:1034D000C9FBFFF7DCFF17E1FFF7CDF8FFF7D7FFD8
:1034E00012E1FFF7EEFA044614B1A8A001F0BAFB0E
:1034F000FFF7CDFF08E1FFF719FB044614B1A9A0BF
:1035000001F0B0FBFFF7C3FFFEE0FFF79DFBFFF705
:10351000BEFFF9E08549486800F08AFDC4B2204644
:10352000FFF7C4F9FFF7B3FFEEE0FFF79EFCFFF7EC
:10353000AEFFE9E0FFF722FDFFF7A9FFE4E0FFF7A8
:10354000CAFDFFF7A4FFDFE0FFF721FEFFF79FFFB3
:10355000DAE0FFF767FFFFF79AFFD5E00020019060
:10356000009072491022486801A900F029FD054623
:103570006E4910228868694600F022FD06460198CF
:10358000007818B18EA0FEF7DAFEBDE00098007852
:1035900020B197A0FEF7D3FEB6E0B4E02C4626603B
:1035A000FFF775FFB0E00020019000905F49102206
:1035B000486801A900F004FD05465C4910228868AE
:1035C000694600F0FDFC04460198007818B193A00C
:1035D000FEF7B5FE98E00098007820B9002C02DBD9
:1035E000B4F5803F03DB99A0FEF7A9FE8CE02E46E0
:1035F0003480FFF74CFF87E00020019000904B499A
:103600001022486801A900F0DBFC0546474910225A
:103610008868694600F0D4FC04460198007820B11F
:10362000AFF6C800FEF78BFE6EE00098007818B980
:10363000002C01DBFF2C03DD8FA0FEF780FE63E092
:103640002E463470FFF723FF5EE0002001903749DB
:103650001022486801A900F0B3FC044601980078E4
:1036600018B157A0FEF76BFE4EE0254621468DA00F
:103670002A6801F0F7FAFFF70AFF45E00020019001
:103680002A491022486801A900F09AFC04460198D2
:10369000007848B14AA0FEF752FE35E02FE02BE05B
:1036A00027E023E009E02DE025462A8821467DA079
:1036B00001F0D8FAFFF7EBFE26E0002001901B494D
:1036C0001022486801A900F07BFC044601980078AC
:1036D00018B13BA0FEF733FE16E025462A782146B6
:1036E00070A001F0BFFAFFF7D2FE0DE0FFF7CFFEAA
:1036F0000AE0FFF7CCFE07E0FFF7C9FE04E0FFF7A2
:10370000C6FE01E000E000BF00BF7CBDFFF7ADF9E1
:1037100009E06B48006830B1FEF71AFEFFF7C2FE01
:10372000002067490860F4E74C0400207004002082
:103730006D6F646520696C6C6567616C00000000EA
:1037400064757479206572726F722C647574792057
:1037500063616E206F6E6C7920626520307E31303F
:103760003234000048040020040500202E00002010
:103770000D0A53686F7720416C6C20436F6D6D614B
:103780006E64733A0D0A25730D0A0000436F6D6D68
:10379000616E642049324352454144206661696C40
:1037A0002E0D0A00436F6D6D616E642049324357E0
:1037B00052495445206661696C2E0D0A00000000D4
:1037C0005B4552524F525D6164647265737320634E
:1037D000616E206F6E6C792062652061203332202B
:1037E00062697420484558206E756D210000000004
:1037F0005B4552524F525D646174612063616E207B
:103800006F6E6C79206265206120333220626974AA
:1038100020484558206E756D210000005B455252CE
:103820004F525D616464726573732063616E206FD3
:103830006E6C7920626520612031362062697420C7
:10384000484558206E756D21000000005B455252BE
:103850004F525D646174612063616E206F6E6C799C
:103860002062652061203136206269742048455805
:10387000206E756D210000005B4552524F525D6411
:103880006174612063616E206F6E6C7920626520C7
:103890006120382062697420484558206E756D217A
:1038A00000000000616464726573733A30782578B3
:1038B0002C20646174613A307825780D0A0000008C
:1038C00028000020704700BFFEE700BFFEE700BFF2
:1038D000FEE700BFFEE7704770477047704710B5BE
:1038E00040F225510648FEF7C9FC38B10448FEF7FE
:1038F00045FCC4B221460248FEF73CFC10BD000066
:103900000038014008B54FF4A060FCF71DFD2520EC
:103910008DF8000001208DF801008DF802008DF86F
:1039200003006846FCF715FD08BD00B585B0012110
:103930000420FDF771FB01218803FDF76DFB4FF4B7
:103940000070ADF8100018208DF8130003208DF8DA
:10395000120004A95248FDF7A3F84FF48060ADF8B7
:10396000100004208DF8130004A94D48FDF798F8C5
:103970004C4800900020ADF80400ADF80600ADF80A
:103980000800ADF80C000C20ADF80A006946464866
:10399000FEF7F7FAFFF7B6FF012240F22551424841
:1039A000FEF787FB01214048FEF777FB05B000BD1D
:1039B00070B504460D4629462046FEF7DBFB00BFE6
:1039C00080212046FEF744FC0028F9D070BD2DE987
:1039D000F04107460D461646002405E0295D3846AD
:1039E000FFF7E6FF601CC4B2B442F7DB00BF402122
:1039F0003846FEF72DFC0028F9D0BDE8F08170B5FF
:103A000006460C46002500BF615D3046FFF7D0FF3B
:103A10006D1C605D0028F7D100BF40213046FEF7E5
:103A200017FC0028F9D070BD2DE9F04105460C4681
:103A3000260AE7B231462846FEF79CFB00BF8021EC
:103A40002846FEF705FC0028F9D039462846FEF73F
:103A500091FB00BF80212846FEF7FAFB0028F9D031
:103A6000BDE8F08170B504460D46E1B20E48FEF7A0
:103A700081FB00BF80210C48FEF7EAFB0028F9D04B
:103A8000204670BD10B5044600BF20210648FEF751
:103A9000DFFB0028F9D00448FEF770FB10BD0000E2
:103AA0000008014074B701000038014008B5012149
:103AB0000820FDF7B1FA4FF42040ADF800001820BF
:103AC0008DF8030003208DF8020069464248FCF798
:103AD000E7FF0121C802FDF79FFA01210820FDF749
:103AE0009BFA4FF48040ADF8000010208DF80300E1
:103AF00001208DF8020069463748FCF7D1FF4FF4EA
:103B000080413548FDF779F808BD2DE9F04188B0CE
:103B100006460F463148006844F2A241B0FBF1F07E
:103B2000441E601E7043C0F30F3529462CA001F0DF
:103B300099F80020ADF81400ADF81600A0B2ADF869
:103B400018000020ADF81A008DF81C0005A92948BE
:103B5000FDF79AFB7020ADF804000120ADF80600D7
:103B60000420ADF80800ADF80A500220ADF80C00B2
:103B70000020ADF80E004FF48070ADF8100000206A
:103B8000ADF8120001A91B48FDF7BBFB082119483D
:103B9000FEF706F8601E7843C0F30F38ADF80A80D0
:103BA00001A91448FDF73CFC08211248FEF70EF865
:103BB00001211048FDF7C4FE01210E48FDF7CCFE9F
:103BC00008B0BDE8F08110B5FFF770FF4FF4006159
:103BD0000846FFF79AFF10BD000C014000000020CE
:103BE0004368616E6E656C3150756C73653A25641F
:103BF0000A000000002C014070B5054600F0C5F831
:103C0000284600F044F900F022F908B1012400E050
:103C1000002400F007F900F0D4F8204670BD10B57C
:103C2000002407E0601C84B242F21070844201DB81
:103C3000012010BD5820FFF7DFFF0028F2D100BFA0
:103C4000F7E72DE9F04104460D461746002629E026
:103C500036B1E11704EB5171C910A4EBC101A9B948
:103C600000F0AFF8FFF7DBFF00B126E000F08DF8C1
:103C7000582000F00CF900F0EAF800B11DE02046F1
:103C800000F005F900F0E3F800B116E0287800F044
:103C9000FEF800F0DCF800B10FE06D1C601CC4B24F
:103CA000701C86B2BE42D3DB00F08BF8FFF7B7FF83
:103CB00000B102E00120BDE8F08100F082F80020B0
:103CC000F9E72DE9F04107460C461546FFF7A7FF37
:103CD00000B130E000F059F8582000F0D8F800F0BA
:103CE000B6F800B127E0384600F0D1F800F0AFF8A0
:103CF00000B120E000F049F8592000F0C8F800F0C9
:103D0000A6F800B117E000260DE000F0F0F82070F2
:103D1000681EB04202D100F085F801E000F066F8BC
:103D2000641C701C86B2AE42EFDB00BF00F049F8A5
:103D30000120BDE8F08100F075F800F042F80020A5
:103D4000F7E7000008B501210820FDF765F94FF4F9
:103D50008070ADF8000014208DF8030003208DF86A
:103D6000020069467348FCF79BFE4FF40070ADF803
:103D7000000069466F48FCF793FE08BD002001E093
:103D8000411CC8B21428FBDB704710B54FF400711A
:103D90006848FCF732FF4FF480716648FCF72DFF4E
:103DA000FFF7ECFF4FF400716248FCF728FFFFF7C4
:103DB000E5FF4FF480715F48FCF721FFFFF7DEFF5E
:103DC00010BD10B54FF400715A48FCF718FF4FF4BE
:103DD00080715848FCF711FFFFF7D0FF4FF40071D6
:103DE0005448FCF70AFFFFF7C9FF10BD10B54FF4A8
:103DF00000715048FCF703FF4FF480714D48FCF709
:103E0000FCFEFFF7BBFF4FF480714A48FCF7F7FE5A
:103E1000FFF7B4FF4FF400714648FCF7EEFEFFF7E2
:103E2000ADFF10BD10B54FF400714248FCF7E5FE40
:103E30004FF480713F48FCF7E0FEFFF79FFF4FF41F
:103E400080713C48FCF7DBFEFFF798FF10BD10B512
:103E50004FF400713748FCF7D0FE4FF480713548BD
:103E6000FCF7CBFEFFF78AFF4FF400713148FCF7F7
:103E7000AAFE012801D1012400E000244FF4807142
:103E80002C48FCF7BCFEFFF779FF204610BD70B54B
:103E90000446002528E004F0800028B14FF40071AA
:103EA0002448FCF7AAFE04E04FF400712148FCF717
:103EB000A6FEFFF763FF4FF480711E48FCF79DFEDE
:103EC000FFF75CFF4FF480711A48FCF798FEFFF78C
:103ED00055FF072D04D14FF400711648FCF78DFEF5
:103EE0006006040E681CC5B2082DD4DB70BD70B529
:103EF000002400251AE06006040E4FF480710D487E
:103F0000FCF77BFEFFF73AFF4FF400710948FCF71E
:103F10005AFE012801D1601CC4B24FF480710548DB
:103F2000FCF76DFEFFF72AFF681CC5B2082DE2DB27
:103F3000204670BD000C0140D2B201E000F8012B18
:103F4000491EFBD270470022F6E710B513460A4619
:103F500004461946FFF7F0FF204610BD30B5054670
:103F60000020034600E05B1C934205D2EC5CC85C79
:103F7000201A01D1002CF6D130BD000070B50F4DD4
:103F800000B92868002412E00A4602E09E4203D0ED
:103F9000521C1378002BF9D1DAB2224305D02BB191
:103FA00024B1002100F8011B04E00446401C0678FF
:103FB000002EE9D12860204670BD00006404002076
:103FC0002DE9F04791460F4680460446002614F836
:103FD000015B2DB100F0F8F90068405DC007F6D133
:103FE0002B2D02D02D2D18D0641E4A46394620466E
:103FF00000F0F7F927B13968A14201D1C7F8008074
:1040000071054FF002040BD54042002803DD00F09B
:1040100039FE0460A007BDE8F08746F48066E4E757
:104020000028F8DA00F02EFE04606FF00040F2E79E
:1040300070B5064600F026FE046805460A220021F7
:104040003046FFF7BDFF2C6070BD2DE9FE4F81EAC1
:10405000030404F0004421F0004100944FF0000BF1
:1040600023F0004350EA01045ED052EA03045BD01F
:10407000C3F30A54C1F30A552C44A4F2F334019457
:10408000A0FB0254C1F3130141F48011C3F31303E5
:1040900043F4801301FB024400FB034E840A970A99
:1040A00044EA815447EA8357A4FB076802958D0AC6
:1040B00005FB07854FEA932C04FB0C542705029D52
:1040C0004FEA065847EA1637B5EB08056EEB070CC2
:1040D000870E920E47EA811742EA8312A7FB02017C
:1040E000B6EB0B0164EB00042B0D43EA0C335E18B6
:1040F00044EB1C50DA465146E7FB0201C5F31304BA
:104100004FEA0B3343EA14534FEA0432019C43EA6B
:104110000603A4F10C040294009CCDE900B400F065
:104120000CFA03B0BDE8F08F00200146F9E72DE955
:10413000F04D81EA030404F0004B21F000451446E1
:104140004FF0000A23F0004150EA050220D054EA63
:1041500001021DD0C5F30A570246C5F31303C1F38C
:104160001300C1F30A5640F4801543F48013A7EB03
:104170000608101BD64608F2FD3873EB050002D383
:1041800008F1010801E092185B41B8F1000F03DA71
:1041900000200146BDE8F08D00204FF48011064656
:1041A00084460EE0171B73EB050705D3121B63EB68
:1041B000050306434CEA010C49084FEA3000921807
:1041C0005B4150EA0107EDD152EA030012D082EAC6
:1041D000040083EA0501084305D0101BAB4106D259
:1041E0000122002306E000224FF0004302E06FF0BE
:1041F000010253101AEB06004CEB085110EB0A00B9
:1042000041EB0B01BDE8F04D00F088B90EB5C10FD0
:1042100080EAE0700844CA07002140F233438DE889
:104220000E000A460B4600F088F903B000BD0EB53B
:1042300040F2334102910021CDE900110A460B46BC
:1042400000F07BF903B000BD70B5C1F30A5201F074
:1042500000450024C1F3130140F2FF3341F4801103
:104260009A4201DA002070BD40F233439A42A2F232
:10427000334203DC524200F096F800E090402C43B9
:10428000F1D0404270BDC1F30A5210B5C1F3130121
:1042900040F2FF3341F480119A4201DA002010BD50
:1042A00040F233439A42A2F2334203DC524200F01E
:1042B0007AF810BD904010BD30B5041E71F10004B5
:1042C00004DB4FF00044404264EB0101141E73F123
:1042D000000405DB1C464FF00043524263EB04032D
:1042E0008B4208BF824230BD30B5041E71F100041C
:1042F00004DB4FF00044404264EB0101141E73F1F3
:10430000000405DB1C464FF00043524263EB0403FC
:10431000994208BF904230BD30B50B46014600209F
:104320002022012409E021FA02F59D4205D303FA77
:1043300002F5491B04FA02F52844151EA2F10102F8
:10434000F1DC30BD2DE9F05F0546002092469B462A
:1043500088460646814640241BE02846414647469B
:10436000224600F020F853465A46C01A914110D315
:1043700011461846224600F0FFF92D1A67EB010896
:104380004F4622460120002100F0F6F917EB000904
:104390004E41201EA4F10104DFDC484631462A4686
:1043A0004346BDE8F09F202A04DB203A21FA02F0C0
:1043B0000021704721FA02F3D040C2F1200291405F
:1043C000084319467047000000487047EC55000844
:1043D00010B50446FFF7F8FF0068005D00F001002B
:1043E00010BD2DE9F05F82460078002715468B4608
:1043F0000AF10104B946302801D09DB113E014F848
:10440000010B0127782803D0582801D045B10AE0D4
:104410000DB1102D07D10027102514F8010B02E073
:10442000082500E00A250026B0460EE005FB08003E
:1044300005FB06F1012701EB10461FFA80F8B6F5DF
:10444000803F00D3B94614F8010B294600F0B5F9B6
:104450000028EBDABBF1000F05D00FB1641E00E0BD
:104460005446CBF80040B9F1000F06D000F00AFC2A
:1044700002210160C81EBDE8F09F48EA0640FAE745
:104480000FB4002300B589B00CA900910B996FF00F
:104490000042CB601E4B06931E4B07930423CDE9CD
:1044A00001321D4A089202466B46002000F014FAC1
:1044B00009B05DF814FB70B586B006464FF0FF30CA
:1044C0000091CDE90101002015460C4604903246CA
:1044D000694604A8FFF7D4FF03460498211825B1C4
:1044E00008B10A4600E022462A6000280DD0002BC1
:1044F00002DD0098884208D0081B0094CDE9010431
:104500003246694604A8FFF7BBFF06B070BD000045
:10451000114B00082F4B0008D143000810B5141EA2
:1045200073F1000408DA401C41F1000192185B416C
:104530001A4301D120F0010010BD2DE9F04D924643
:104540009B4611B1B1FA81F202E0B0FA80F220325A
:10455000904600F011F904460F4640EA0A0041EA8D
:104560000B0153465A46084313D0114653EA010043
:1045700019D0C8F140025046FFF715FF05460E4618
:1045800050465946424600F0F7F8084305D001204E
:1045900004E020463946BDE8F08D0020054346EA98
:1045A000E0762C4337430A986305E40AA0EB080041
:1045B0000022FD0A44EA47540A3002D50020014691
:1045C000E9E7010510196941DDE90845001969416C
:1045D000BDE8F04DA2E72DE9FE4F804681EA0300D9
:1045E000C00F0C46009021F0004123F00045B8EBCD
:1045F0000200A94105D24046214690461C460B4682
:10460000024623F00040104347D0270DC7F30A00AD
:10461000C3F30A510290401A019040286BDAC3F3A9
:10462000130040F4801B0098924620B10023D2EB87
:10463000030A63EB0B0B01985946C0F14002504648
:1046400000F09AF806460D4650465946019A00F089
:10465000A2F810EB08006141002487EA115284EAB5
:10466000E7731A4340D0009A62B3019A012A4FEAD5
:10467000075215DC001B61EB02014FF0004202EA19
:104680000752CDE90042001C41F5801132462B460D
:10469000FFF753FF03B0BDE8F08F40462146F9E72E
:1046A000001B61EB0201001C41F5801300185B4107
:1046B0002018A2F5001747EB030140EAD570B619A0
:1046C0006D4111E06D084FEA360645EAC0754FEAC4
:1046D0000752001B61EB0201001C41F580114908E3
:1046E0004FEA30000019514132462B4603B0BDE875
:1046F000F04FFFF713BF0098012240000023D0EBDA
:10470000020263EBE073009821464FEAE074B8EBD5
:10471000000061EB0401E9E783F000435BE781F00F
:10472000004158E7C1F30A52C1F3130140F2FF33CD
:1047300041F480119A4202DA00200146704740F2AB
:1047400033439A42A2F2334202DC5242FFF72BBEBD
:1047500000F012B8064C074D06E0E06840F0010397
:1047600094E8070098471034AC42F6D3FBF7E4FC1A
:104770003C5600085C560008202A04DB203A00FA68
:1047800002F1002070479140C2F1200320FA03F3A8
:10479000194390407047202A06DBCB17203A41FA94
:1047A00002F043EAE07306E041FA02F3D040C2F1BE
:1047B000200291400843194670473A2800D2303809
:1047C00020F02002412A01D3A2F13700884201D310
:1047D0004FF0FF30704700002DE9FF4F087881B09F
:1047E0009946FF2805D0491C2D2804D00024002319
:1047F00008E000230BE00124F9E703EB830300EB5F
:104800004303491C0878FF28F7D104B15B4200201C
:104810000090147801462D2C01D02B2C04D1521C71
:104820002D2C12D00024009400251678FF2E0ED0D7
:104830000A24A0FB04C801FB0481002700FB071128
:10484000521C16EB0C006941EFE70124EBE7994499
:1048500050EA01020ED00024AA4D2646DFF8A882B5
:1048600000F076F982468B46B9F1000009DAC9F109
:1048700000071BE001980021C0E9001105B0BDE868
:10488000F08F074612E0F80707D022462B46304645
:104890004146FFF7DAFB0646884622462B4610467D
:1048A0001946FFF7D2FB04460D467F10002FEAD1D0
:1048B000B9F1000F324643465046594602DAFFF737
:1048C00036FC01E0FFF7C1FB009A0AB181F000411C
:1048D000019AC2E90001D1E72DE9FF4F1F468DB0D3
:1048E000D7E901464FF0FF382E2045464FF000092A
:1048F0000B90B9696D1C0E988847396A82468847C3
:104900000028F6D1BAF1FF3F0AD024F4D064002E7B
:1049100011DDBAF12B0F08D0BAF12D0F0BD102E047
:10492000404611B0ABE744F48064B9696D1C0E9841
:1049300088478246761E6946600501D52D2000E035
:104940002B208DF8000001F1010B0DF1200809E08A
:10495000B9696D1C0E98884782460F9844F400741C
:10496000761E0560002E02DDBAF1300FF0D00B99F3
:104970008A453ED144F0800406E00F99681CA9F1F5
:10498000010944F400740860B9696D1C761E0E9824
:10499000884782463028F0D02BE00B998A4505D114
:1049A000200603D444F08004761E18E0504600F040
:1049B0002FFA08B30DF11301761E44F400748B45F1
:1049C00008D2AAF130000BF8010B200607D5A9F197
:1049D000010003E0200602D409F101008146A00590
:1049E00002D50F99681C0860B9696D1C0E9888473C
:1049F0008246002ED1DC53E0002E51DDBAF1650F66
:104A000002D0BAF1450F4BD1A00549D5B9696D1C4B
:104A100024F44074761E0E9888478246002E0CDDE2
:104A20002B2804D0BAF12D0F07D144F48074B96952
:104A30006D1C0E9888478246761EE00501D52D2113
:104A400000E02B2108F8011BCDF82C8021E00DF1AE
:104A50002901761E44F4007488450CD2AAF1300076
:104A600010F0FF0088F8000002D10B99884509D9A1
:104A700008F1010806E0E00501D5244801E042F212
:104A80000F708146B9696D1C0E98884782460F9851
:104A90000560002E04DD504600F0BAF90028D6D19A
:104AA000F9690E988847FF208BF8000088F800000D
:104AB0000020069007904B466A4608A906A8FFF713
:104AC0008BFEA00502D46FF001002AE714F0240F3A
:104AD0000AD0E00714D1DDE906123868031D3B60F7
:104AE0000068C0E900120BE0DDE9060100F03CF8C7
:104AF0000146E00704D13868021D3A600068016091
:104B000028460EE7000024400000F03FF1D8FFFFE8
:104B1000426842B1016811F8013B23B1521EC0E95D
:104B20000012184670470121C160881E7047426814
:104B30005AB1C368016843B983688B4205D0491EE6
:104B4000521CC0E90012002070474FF0FF30704740
:104B50000EB540F2334202920022CDE90022134604
:104B6000FFF7EBFC03B000BD01F0004330B421F0CF
:104B7000004150EA010206D00A0DA2F56072C1F3AD
:104B80001301002A02DC30BC00207047440F44EAC5
:104B9000C104C100E01830BC00EBC250AFF300808C
:104BA0000029A8BF7047401C490008BF20F0010041
:104BB000704710B4B0FA80FC00FA0CF050EA01041F
:104BC00004BF10BC704749B1CCF1200421FA04F4B1
:104BD00011FA0CF118BF012121430843A3EB0C018A
:104BE000CB1D4FEA00614FEA102042BF002010BCED
:104BF000704700EBC35010440029A4BF10BC70479D
:104C0000401C490008BF20F0010010BC704770B57F
:104C10008C1810F8015B15F0070301D110F8013B67
:104C20002A1106D110F8012B03E010F8016B01F8EE
:104C3000016B5B1EF9D12B0705D40023521E0DD446
:104C400001F8013BFAE710F8013BCB1A921C03E094
:104C500013F8015B01F8015B521EF9D5A142D8D3CC
:104C6000002070BD0FB4054B10B503A9044A02988B
:104C700000F0D6F810BC5DF814FB0000653A00089F
:104C800068040020004870476C04002002E008C857
:104C9000121F08C1002AFAD170477047002001E0B6
:104CA00001C1121F002AFBD1704700002DE9FF5FF0
:104CB000DDE90220010DDDF838B0024318D044F6DA
:104CC0001050A1F2FF3141430D140F98012820D05C
:104CD000A5EB0B00401C5FEA000A4FF00004474EB2
:104CE000DFF81C91A046504616D5CAF1000728E00F
:104CF0000F98012443A2012808D0002100980F9B9F
:104D0000C0E90021C0E90243BDE8FF9F6FEA0B0143
:104D1000F4E7CBF10000DEE7074612E0F80707D022
:104D20002246334640464946FFF78FF9804689467A
:104D30002246334610461946FFF787F904460E46C9
:104D40007F10002FEAD1DDE90201BAF1000F4246DF
:104D50004B4602DAFFF779F901E0FFF7E8F904467C
:104D60000E460022284BFFF7BFFA03D84FF0FF3062
:104D7000014607E00022254B20463146FFF72BFC79
:104D8000FFF7D0FC102409E0002C0ADB0A220023E4
:104D9000FFF7D8FA019B30321A55641E50EA01021F
:104DA000F2D1641C019AC4F1110314440F9A012A30
:104DB00003D0012208430DD10AE0084304D00020AB
:104DC0004FF0110B0F9080E7A3EB0B056D1E0DE06C
:104DD0005B4504DD4FF0000205F1010504E003DA54
:104DE0004FF00002A5F10105002AECD000980F99C0
:104DF000C0E90231C0E9004586E700000000244018
:104E00000000F03F300000000000F0430000E03FF1
:104E100030380A2801D20120704700207047000076
:104E20002DE9FF4F95B09B468946064600250FE2C7
:104E3000252877D100242746F84A0121059400E06F
:104E4000044316F8013F203B01FA03F01042F7D16A
:104E500030782A2811D06FF02F033078A0F130027B
:104E6000092A16D8059A44F0020402EB820203EBE9
:104E700042021044761C0590EFE759F8042B059286
:104E8000002A03DA504244F40054059044F002042E
:104E9000761C30782E2816D116F8010F44F0040441
:104EA0002A280DD06FF02F023078A0F13003092BA3
:104EB00009D807EB870302EB4303C718761CF3E717
:104EC00059F8047B761C30786C280FD006DC4C280F
:104ED00017D068280DD06A2814D104E0742810D0A7
:104EE0007A280FD10DE044F400140AE044F4801451
:104EF00001E044F440147278824202D104F5801437
:104F0000761C761C307866280BD013DC582877D0B6
:104F100009DC002875D04528F6D04628F4D047286B
:104F20001AD19DE118E0632835D0642879D065282E
:104F300012D195E1702873D008DC6728F1D0692878
:104F40006FD06E280DD06F2806D1B5E073282CD015
:104F5000752875D0782874D05A46179990476D1CDB
:104F600075E1C4F30250022809D003280DD0D9F806
:104F7000001004280DD00D6009F1040967E1D9F88B
:104F80000010EA17C1E90052F6E7D9F800100D80C9
:104F9000F2E70D70F0E719F8041B8DF800100020FF
:104FA0008DF80100EA46012003E059F804AB4FF008
:104FB000FF3061074FF0000102D40DE008F101015C
:104FC0008846B9420FDA8045F8DB1AF80810002944
:104FD000F4D108E008F1010188468142FADB1AF8B1
:104FE00008100029F6D105985B46A0EB080721467A
:104FF0003846179A00F094FA284400EB080507E0B9
:105000004DE029E10DE01AF8010B5A461799904737
:10501000B8F10108F7D25B4621463846179A13E1EA
:1050200042E00A220092C4F302524FF0000A022A20
:1050300008D059F804CB032A4FEAEC710AD00DE0EE
:1050400029E02AE009F1070121F00702F2E802C194
:10505000914609E00FFA8CFC4FEAEC71042A03D167
:105060004FFA8CFC4FEAEC71002907DA0A4600215E
:10507000DCF1000C61EB02012D2202E0220504D5D7
:105080002B228DF80420012203E0E20701D0202228
:10509000F7E7904659E00A2102E010220DE01021C6
:1050A0004FF0000A00910BE010224FF0000A44F08C
:1050B00004040827009203E008224FF0000A00923F
:1050C000C4F30252022A05D059F804CB0021032A66
:1050D00008D009E009F1070121F00702F2E802C156
:1050E000914605E01FFA8CFC042A01D10CF0FF0C5C
:1050F0004FF00008220728D5702806D0009B83F0C7
:10510000100353EA0A0305D00EE040228DF8042074
:10511000012208E05CEA010206D030228DF804206A
:105120008DF8050002229046009B83F0080353EAA5
:105130000A030AD15CEA010201D1620705D53022D7
:105140008DF804204FF001087F1E582804D034A0A9
:1051500003900EA802900DE036A0F9E75346604692
:10516000009AFFF7EFF884460398825C0298401E8D
:10517000029002705CEA0100F0D1029806A9081AB8
:1051800000F1200A600702D524F4803400E00127F2
:10519000574502DDA7EB0A0000E0002000EB0A0102
:1051A000009005984144401A0590E00306D45B4600
:1051B0002146179A059800F0B3F90544002706E048
:1051C00001A85A46C05D179990476D1C7F1C474542
:1051D000F6DBE0030CD55B462146179A059800F0F4
:1051E0009FF9054404E030205A46179990476D1CFA
:1051F0000099481E00900029F5DC08E00298029909
:105200005A460078491C0291179990476D1CBAF1D3
:105210000001AAF1010AF1DC65E1000009280100A2
:10522000303132333435363738396162636465661C
:1052300000000000303132333435363738394142DE
:10524000434445460000000000F058F90544761C30
:10525000307800287FF4ECAD19B02846BDE8F08F17
:10526000620700D4062709F1070222F0070CFCE8C8
:105270000223E14603F000485FEA080C02D00FF277
:10528000702C0DE05FEA045C02D50FF2682C07E099
:105290005FEAC47C02D00FF2602C01E0AFF2700C28
:1052A0004FF0FF3823F00043CDF850C065280CD0F4
:1052B00006DC452809D046281DD047283DD13DE0D1
:1052C000662818D067287ED138E00021112F01DB35
:1052D000112000E0781CCDE9000106A90EA8FFF717
:1052E000E5FCDDE90F010E9A03910021009207F120
:1052F000010A04914DE04FF000400097CDE9011004
:1053000006A90EA8FFF7D2FCDDE90F0203920E9B5F
:1053100011990022DDF80CA00093049211B9791CB8
:1053200000EB010AB7EB0A0004D4C0F1FF3007F12B
:10533000010A0490AAEB0700019044E0012F00DA73
:1053400001270021112F01DD112000E03846CDE9B1
:10535000000106A90EA8FFF7A9FCDDE90F010E9ACE
:105360000391002104910092BA4621070CD40399BD
:10537000514500DA8A46BAF1010F05DD009AAAF11B
:105380000101515C302908D0B84202DA10F1040F53
:1053900006DA0121CDE9011015E0AAF10101E9E7E2
:1053A000002805DC049901440491AAEB000102E005
:1053B000411C514500DD8A460499401A401C019069
:1053C0004FF000400290200704D40198504501DBC3
:1053D000CDF8048000208DF84F0002980DF14F07A2
:1053E000B0F1004F25D02B200E9002984FF002080C
:1053F00000280CDA404202902D200E9007E00A218E
:105400000298FEF789FF3031029007F8011DB8F1CC
:105410000001A8F10108F2DC02980028EFD1791E02
:105420000E980870307800F0200040F0450007F832
:10543000020D12A8C01B00F107081498007800B1F3
:10544000012000EB0A01019801EBE071059841444D
:10545000401A401E0590E00306D45B462146179A89
:10546000059800F05DF805441498007818B15A4684
:10547000179990476D1CE00324D55B462146179A87
:10548000059800F04DF805441CE00498002807DB5F
:10549000DDE90301884203DD0098405C179901E0D3
:1054A000179930205A469047049805F10105401C91
:1054B00004900198401E019004D12E205A4617995D
:1054C00090476D1CBAF10001AAF1010ADDDC05E08C
:1054D00017F8010B5A46179990476D1CB8F1000157
:1054E000A8F10108F4DC5B462146179A0598ABE663
:1054F0002D0000002B000000200000002DE9F041ED
:10550000044600251E461746880404D405E03946A3
:105510002020B0476D1C641EF9D52846BDE8F081F7
:105520002DE9F041044600251E469046C80301D5EA
:10553000302700E02027880404D505E0414638469E
:10554000B0476D1C641EF9D52846BDE8F08100B552
:1055500083B00A460021CDE9001101466846FEF7F6
:10556000AAFFDDE9000103B000BD0040404040401B
:105570004040404041414141414040404040404026
:10558000404040404040404040404005020202024E
:105590000202020202020202020202202020202055
:1055A000202020202002020202020202909090900D
:1055B00090901010101010101010101010101010EB
:1055C000101010101010020202020202888888884F
:1055D000888808080808080808080808080808084B
:1055E0000808080808080202020240006B5500087B
:1055F00032642073657420737563636573736675B5
:105600006C6C792120546869732073657474696EB9
:10561000672069732074656D706F726172792E20D6
:105620004E6F772074656D70206272696768746E62
:105630006573732069732025640D0A005C560008A9
:1056400000000020700400000E4C000838580008CC
:1056500070040020180500009C4C00081184A24A28
:1056600004680901020304060708090C69106502B1
:10567000040608A82348454C50202D2D204469736A
:10568000706C617920616C6C20636F6D6D616E640C
:10569000730D0A494E464F1E4817426F61726420CF
:1056A000496E666F726D6174696F6E0D0A44554D77
:1056B000411812756D70203835353620726567696E
:1056C000737465723FC81632435245414420203CF2
:1056D00075696E74385F616464723E2001193B7DA8
:1056E000526561643B380A207769746820693263C7
:1056F0003FCE57524954453F590D2F76616C756521
:105700003E3F0E125772697465401810424C534563
:10571000544252494748544E4553538738114272B8
:10572000696768746E65737320302D323535405863
:105730000C64656661756C74203130323418145213
:105740004154494F53203C4D6F64652032206F72A5
:105750002033B73A3C17180B5F324420302E3030DC
:105760002D310589165A33162A331639472E5749D3
:10577000544348E2B94759623C50574D1B695D5844
:105780000C3C44757479206379636C655E2A30073C
:105790006A2530180A324443555252454E54343922
:1057A000201B3235066B6D4120EA3320BB3134209B
:1057B000281A54494E47534745540D0A504F4B45FC
:1057C0003332203C416464726573737B1C61746185
:1057D0002829190B153136191A3858091019AC45F2
:1057E000454B4B4912A9444912A93D180C0D0A47D3
:1057F00050494F5245414420019E3C706F727414D1
:105800005C50494E1419075B696E1A19C0291909B1
:10581000111A0C11434C521A01FF012F720232640B
:105820009A0F0C81E013A17FA066163FA9A09E22CB
:08583000A22BA6470105FFFFB2
:0400000508000131BD
:00000001FF
