:020000040800F2
:10000000780B002045010008F5430008F74300087D
:10001000FB430008FF430008034400080000000001
:10002000000000000000000000000000074400087D
:1000300009440008000000000B4400080D440008BB
:100040005F0100085F0100085F0100085F01000810
:100050005F0100085F0100085F0100085F01000800
:100060005F0100085F0100085F0100085F010008F0
:100070005F0100085F0100085F0100085F010008E0
:100080005F0100085F0100085F0100085F010008D0
:100090005F0100085F0100085F0100085F010008C0
:1000A0005F0100085F0100085F0100085F010008B0
:1000B0005F0100085F0100085F0100085F010008A0
:1000C0005F0100085F0100085F0100085F01000890
:1000D0005F010008412300085F0100085F0100087C
:1000E0005F0100085F0100085F0100085F01000870
:1000F0005F0100085F0100085F0100085F01000860
:100100005F0100085F0100085F0100085F0100084F
:100110005F0100085F0100085F0100085F0100083F
:100120005F0100085F0100085F0100085F0100082F
:10013000DFF80CD005F0EAFA004800477B430008DE
:10014000780B00200648804706480047FEE7FEE798
:10015000FEE7FEE7FEE7FEE7FEE7FEE7FEE7FEE777
:1001600047020008310100080CB500200190009002
:100170006C48006840F480306A49086000BF6948F4
:10018000006800F4003000900198401C0190009835
:1001900018B90198B0F5A06FF1D16248006800F479
:1001A000003010B10120009001E000200090009884
:1001B000012843D15C48006840F010005A490860AB
:1001C0000846006820F0030008600846006840F018
:1001D0000200086053484068524948600846406839
:1001E00048600846406840F48060486008464068BF
:1001F00020F47C1048600846406840F4E8104860ED
:100200000846006840F08070086000BF45480068FC
:1002100000F000700028F9D04248406820F0030048
:10022000404948600846406840F00200486000BF0E
:100230003C48406800F00C000828F9D10CBD10B50E
:10024000FFF792FF10BD10B53648006840F001007E
:1002500034490860084640683449084031494860DC
:1002600008460068324908402E4908600846006880
:1002700020F4802008600846406820F4FE004860B2
:100280004FF41F008860FFF7DAFF4FF00060294944
:10029000086010BD10B5002100200022214B5B68D2
:1002A00003F00C0121B1042906D0082928D107E068
:1002B000214B224C236027E01F4B204C236023E07E
:1002C000184B5B6803F47010164B5B6803F48032C4
:1002D000022303EB904022B9194B4343174C236090
:1002E0000DE0104B5B6803F4003323B1144B434320
:1002F000124C236003E0104B4343104C236003E097
:100300000D4B0E4C236000BF00BF064B5B68C3F370
:1003100003130C4CE15C094B1B68CB40074C23607A
:1003200010BD000000100240002002400000FFF855
:10033000FFFFF6FE08ED00E000127A00000000204A
:1003400000093D000400002031490143314A116099
:10035000704770B5002100230F22C47804B32D4CE0
:10036000246804F4E064C4F5E064210AC1F10403E4
:10037000CA40447804FA03F1847814402143090107
:10038000254C0678A155047804F01F050124AC40E3
:1003900005786D11AD0005F1E025C5F8004109E0D3
:1003A000047804F01F050124AC401C4D067876113A
:1003B00045F8264070BD1A4A0A400243154B1B1FE0
:1003C0001A60704739B1134A121D12680243114B6B
:1003D0001B1D1A6006E00F4A121D126882430D4B66
:1003E0001B1D1A607047042808D14FF0E0210969ED
:1003F00041F004014FF0E022116107E04FF0E021ED
:10040000096921F004014FF0E022116170470000FA
:100410000000FA050CED00E000E400E080E100E0FF
:1004200080FFFF1F01460020FE4A106800F03800E0
:10043000084310607047FB49096821F00801F94A38
:10044000116011460968014311607047F549096858
:1004500021F01001F34A116011460968014311604F
:100460007047F148EF494860F04848607047EE48EF
:10047000EC494860ED4848607047EA48006940F040
:100480008000E84908617047E648006940F0800054
:10049000E449086170470420E249C96801F001019C
:1004A00009B101200EE0DF49C96801F0040109B17A
:1004B000022007E0DB49C96801F0100109B10320FF
:1004C00000E00420704700B502460423FFF7E3FF75
:1004D000034603E0FFF7DFFF0346521E012B01D165
:1004E000002AF7D102B90523184600BD30B50446ED
:1004F00004254FF43020FFF7E6FF0546042D17D101
:10050000C848006940F00200C649086108464461D5
:10051000006940F0400008614FF43020FFF7D3FF3E
:100520000546C048006941F6FD710840BD490861B3
:10053000284630BD10B504244FF43020FFF7C3FF28
:100540000446042C16D1B748006940F00400B549B0
:1005500008610846006940F0400008614FF430200F
:10056000FFF7B1FF0446AF48006941F6FB71084050
:10057000AC490861204610BD00B502460423FFF7D0
:100580008AFF034603E0FFF786FF0346521E012B56
:1005900001D1002AF7D102B90523184600BD10B5D4
:1005A00004244FF43020FFF7E7FF0446042C16D153
:1005B0009C48006940F004009A49086108460069B7
:1005C00040F0400008614FF43020FFF7D5FF0446AB
:1005D0009448006941F6FB71084092490861204641
:1005E00010BD00208F49C96901F0020109B1012045
:1005F00000E00020704730B5A5250424FFF7F1FF87
:1006000000B100254FF43020FFF75DFF0446042CB5
:100610003AD18548834988608448886008460069E3
:1006200040F0200008610846006940F04000086181
:100630004FF43020FFF747FF0446042C1BD17948C4
:10064000006941F6DF710840764908610846006993
:1006500040F01000086176480580E002FFF733FFA4
:100660000446052C10D06F48006941F6EF71084030
:100670006C49086108E0052C06D06A48006941F61B
:10068000EF71084067490861204630BD78B50646DD
:100690000C46042500200090E802FFF714FF0546F1
:1006A000042D24D15F48006940F001005D490861D4
:1006B0003480E802FFF707FF0546042D10D1B01C77
:1006C0000090200C00990880E802FFF7FCFE054628
:1006D0005448006941F6FE7108405249086106E03D
:1006E0005048006941F6FE7108404E4908612846AD
:1006F00078BD70B504460D460426F002FFF7E3FE10
:100700000646042E11D14748006940F001004549D2
:1007100008612580F002FFF7D6FE064641480069D1
:1007200041F6FE7108403F490861304670BD70B522
:1007300005460E460424E002FFF7C5FE0446042CDD
:1007400017D13948374988603848886008460069B9
:1007500040F0100008612E80E002FFF7B4FE04466E
:10076000052C06D02F48006941F6EF7108402D494D
:100770000861204670BD2DE9F04304464FF6FF7630
:100780003746B046B1460425E443E6B2C4F3072732
:10079000C4F307484FEA1469E802FFF794FE0546E0
:1007A000042D49D120481F498860204888600846A8
:1007B000006940F010000861FF2E06D01C48083088
:1007C0000680E802FFF77FFE0546042D08D1FF2FC3
:1007D00006D017480A300780E802FFF774FE054686
:1007E000042D0AD1B8F1FF0F07D011480C30A0F842
:1007F0000080E802FFF767FE0546042D0AD1B9F133
:10080000FF0F07D00A480E30A0F80090E802FFF76B
:100810005AFE0546052D0FD00248006941F6EF71DA
:10082000084007E00020024023016745AB89EFCD77
:1008300000F8FF1F664908612846BDE8F08330B51F
:10084000054604244FF43020FFF73DFE0446042CF7
:1008500041D160485E4988605F4888600846006909
:1008600040F0200008610846006940F0400008613F
:100870004FF43020FFF727FE0446042C22D15448C1
:10088000006941F6DF710840514908610846006976
:1008900040F0100008611DB100205049088002E0BE
:1008A000A5204E4908804FF43020FFF70CFE044687
:1008B000052C10D04648006941F6EF7108404449C4
:1008C000086108E0052C06D04148006941F6DF7157
:1008D00008403F490861204630BDF0B505460E4648
:1008E000174604243B483A4988603B488860E00248
:1008F000FFF7E9FD0446042C19D13548006940F0A2
:1009000010003349086147F0F80030432843334969
:10091000891C0880E002FFF7D6FD0446052C06D0AE
:100920002B48006941F6EF710840294908612046CB
:10093000F0BD2748C069800870472548006A7047A5
:1009400000202349096801F0200109B1012000E0DD
:100950000020704729B11E4A126902431C4B1A61DC
:1009600004E01B4A12698243194B1A617047014621
:100970000020012908D1164AD26902F001020AB109
:10098000012008E0002006E0114AD2680A400AB1BE
:10099000012000E0002070470D49C8607047042026
:1009A0000B49C96801F0010109B101200EE00849B5
:1009B000C96801F0040109B1022007E00449C968CF
:1009C00001F0100109B1032000E00420704700008D
:1009D0000020024023016745AB89EFCD00F8FF1FDF
:1009E00010B50446CC48844208D10121042000F00F
:1009F0002DFB0021042000F029FB46E0C74884427B
:100A000008D10121082000F021FB0021082000F07E
:100A10001DFB3AE0C248844208D10121102000F0B9
:100A200015FB0021102000F011FB2EE0BD48844290
:100A300008D10121202000F009FB0021202000F036
:100A400005FB22E0B848844208D10121402000F093
:100A5000FDFA0021402000F0F9FA16E0B348844284
:100A600008D10121802000F0F1FA0021802000F05F
:100A7000EDFA0AE0AE48844207D10121801500F06A
:100A8000E5FA0021A01500F0E1FA10BD10B5012132
:100A9000084600F0DBFA0021012000F0D7FA10BD73
:100AA0002DE9F04102460025002600200023002405
:100AB000002791F803C00CF00F0591F803C00CF06B
:100AC000100CBCF1000F03D091F802C04CEA0505F0
:100AD00091F800C0BCF1000F31D0146800202BE069
:100AE0004FF0010C0CFA00F3B1F800C00CEA030659
:100AF0009E4220D183004FF00F0C0CFA03F7BC4349
:100B000005FA03FC4CEA040491F803C0BCF1280F79
:100B100006D14FF0010C0CFA00FCC2F814C00AE038
:100B200091F803C0BCF1480F05D14FF0010C0CFA4D
:100B300000FCC2F810C0401C0828D1D31460B1F8E2
:100B400000C0BCF1FF0F34DD546800202EE000F13E
:100B5000080C4FF0010808FA0CF3B1F800C00CEAD9
:100B600003069E4221D183004FF00F0C0CFA03F7CD
:100B7000BC4305FA03FC4CEA040491F803C0BCF141
:100B8000280F05D100F1080C08FA0CF8C2F81480FF
:100B900091F803C0BCF1480F07D100F1080C4FF0E9
:100BA000010808FA0CF8C2F81080401C0828CED3BF
:100BB0005460BDE8F0814FF6FF7101800221817021
:100BC0000421C17070470246002093680B400BB1AE
:100BD000012000E0002070470146886880B270471D
:100BE00002460020D3680B400BB1012000E000203A
:100BF00070470146C86880B2704701617047416123
:100C000070470AB1016100E041617047C1607047FF
:100C10004FF480320A438261816182618269826914
:100C2000704702460020434B18684FF68073184007
:100C300040EA021008433F4B186070473E49C861C4
:100C40007047F0B50A46002300240021002500F07B
:100C50000046B6F1004F02D1364EF16901E0354E43
:100C60007168C0F3034583B200F44016B6F5401F27
:100C700008D121F070612F4E766826F070662D4FF6
:100C80007E6012E000F48016B6F5801F06D10326C0
:100C900006FA05F4A14341F0706106E0460D360105
:100CA00003FA06F6B14341F0706122B1460D3601F8
:100CB00003FA06F6314300F00046B6F1004F02D1C8
:100CC0001C4EF16101E01B4E7160F0BD30B5002299
:100CD0008B071C0F0F2303FA04F2164B08338C10FA
:100CE00053F824309343134C08348D1044F82530C6
:100CF00023468C1053F824308C07240F00FA04F498
:100D000023430C4C08348D1044F8253030BD0A497B
:100D1000DC3108607047000000080140000C014011
:100D2000001001400014014000180140001C014067
:100D3000002001400000014000002042DF48006820
:100D400040F00100DD49086008464068DC49084081
:100D5000DA49486008460068DA490840D74908601F
:100D60000846006820F4802008600846406820F4A7
:100D7000FE0048604FF41F0088607047CF49096843
:100D800021F48031CD4A11601146096821F4802197
:100D90001160B0F5803F03D0B0F5802F0ED106E092
:100DA000C649096841F48031C44A116007E0C3496B
:100DB000096841F4A021C14A116000E000BF00BFF2
:100DC000704710B501460022002300204A11012A75
:100DD00002D1BA4C236806E0022A02D1B74C236A3A
:100DE00001E0B64C636A01F01F02012494401C40EC
:100DF0000CB1012000E0002010BD38B500200090AB
:100E00000024002500BF3120FFF7DBFF05460098D6
:100E1000401C00900098B0F5A06F01D0002DF2D0DA
:100E20003120FFF7CEFF08B1012400E00024204666
:100E300038BD01460020A14A106820F0F80040EAC1
:100E4000C10010607047A04908607047024600204A
:100E50009A4B586820F47C1042EA01031843974BE0
:100E60005860704798490866704701460020934AC9
:100E7000506820F003000843506070478F48406876
:100E800000F00C007047014600208C4A506820F0AA
:100E9000F00008435060704701460020874A5068C0
:100EA00020F4E06008435060704701460020834A08
:100EB000506820F4605040EAC1005060704729B18A
:100EC0007E4A527A02437D4B5A7204E07B4A527A40
:100ED00082437A4B5A7270477B49D8310860704719
:100EE00001460020754A506820F440400843506095
:100EF00070470021714A20321170704A82F8201028
:100F0000012802D004280AD104E001216B4A2032D2
:100F1000117005E00521694A2032117000E000BF20
:100F200000BF70476949086070476449096A014316
:100F3000624A11627047654944390860704730B5AC
:100F400000210022002400235C4D6D6805F00C0197
:100F500021B1042905D0082923D105E05C4D0560A5
:100F600022E05B4D05601FE0544D6D6805F4701282
:100F7000524D6D6805F48034022505EB92421CB990
:100F8000544D554305600BE04C4D6D6805F400353C
:100F90001DB1504D5543056002E04D4D5543056070
:100FA00002E04B4D056000BF00BF444D6D6805F089
:100FB000F0010909484D6B5C0568DD4045603F4D17
:100FC0006D6805F4E061090A434D6B5C4568DD40DE
:100FD00085603A4D6D6805F46051C90A3E4D6B5C01
:100FE0004568DD40C560354D6D6805F44041890BAD
:100FF0003A4D6B5CC568B5FBF3F5056130BD29B1B1
:101000002E4A526902432D4B5A6104E02B4A526921
:1010100082432A4B5A61704729B1284A9269024398
:10102000264B9A6104E0254A92698243234B9A61D8
:10103000704729B1214AD2690243204BDA6104E0AA
:101040001E4AD26982431D4BDA61704729B11B4A9F
:10105000D2680243194BDA6004E0184AD26882432E
:10106000164BDA60704729B1144A12690243134BD8
:101070001A6104E0114A12698243104B1A617047E9
:1010800012494039086070470F49C86470470B49DE
:10109000C87170470948406A40F08070074948624B
:1010A000704701460020054A92680A400AB10120B3
:1010B00000E000207047014988727047001002402C
:1010C0000000FFF8FFFFF6FE0000424280044242AB
:1010D00000127A0000093D001400002024000020C6
:1010E00010B50446FE48844208D10121C014FFF720
:1010F000ADFF0021E014FFF7A9FFC4E0B4F1804F79
:1011000008D101210846FFF7AEFF00210120FFF7BB
:10111000AAFFB8E0F348844208D101210220FFF77A
:10112000A2FF00210220FFF79EFFACE0EE488442C0
:1011300008D101210420FFF796FF00210420FFF7CA
:1011400092FFA0E0E948844208D101210820FFF77E
:101150008AFF00210820FFF786FF94E0E4488442DC
:1011600008D101211020FFF77EFF00211020FFF79A
:101170007AFF88E0DF48844208D101212020FFF770
:1011800072FF00212020FFF76EFF7CE0DA488442E6
:1011900008D101214014FFF759FF00216014FFF727
:1011A00055FF70E0D548844209D10121C804FFF7FA
:1011B0004DFF00214FF40020FFF748FF63E0D048C7
:1011C000844209D101210805FFF740FF00214FF4B7
:1011D0008010FFF73BFF56E0CA48844209D1012145
:1011E0004805FFF733FF00214FF40010FFF72EFFF3
:1011F00049E0C548844208D101214020FFF733FF70
:1012000000214020FFF72FFF3DE0C048844208D175
:1012100001218020FFF727FF00218020FFF723FF17
:1012200031E0BB48844208D101218015FFF71BFF44
:101230000021A015FFF717FF25E0B648844209D129
:1012400001210804FFF702FF00214FF48030FFF76F
:10125000FDFE18E0B048844209D101214804FFF79F
:10126000F5FE00214FF40030FFF7F0FE0BE0AB4835
:10127000844208D101218804FFF7E8FE00214FF4E1
:101280008020FFF7E3FE10BD00220288944B9842B5
:101290000ED0994B98420BD0B0F1804F08D0914BB3
:1012A000984205D0904B984202D0904B984204D17E
:1012B0004FF68F731A404B881A438D4B984207D0D4
:1012C0008C4B984204D04FF6FF431A40CB881A4308
:1012D00002808B8883850B880385814B98420BD0D5
:1012E000854B984208D08B4B984205D08A4B984248
:1012F00002D08A4B984201D10B7A03860123838264
:10130000704770B5002400220023058C4FF6FE764E
:1013100035400584028C8388048B4FF68F752C40F2
:10132000B51E2C400D882C43751E2A400D892A437A
:101330004D882A436A4DA8420BD06F4DA84208D071
:10134000744DA84205D0744DA84202D0734DA842F6
:1013500013D14FF6F7752A404D892A434FF6FB7596
:101360002A408D882A434FF6FF652B404FF6FF55E4
:101370002B408D892B43CD892B4383800483CD88DB
:101380008586028470BD70B5002400220023058C80
:101390004FF6EF7635400584028C8388048B48F63F
:1013A000FF752C404FF6FF452C400D884FF6FF7619
:1013B00006EA05252C434FF6DF752A400D8906EA1B
:1013C00005152A434D8806EA05152A43444DA842CF
:1013D00002D0494DA8421DD14FF67F752A404D8954
:1013E0004FF6FF7606EA05152A434FF6BF752A40E9
:1013F0008D8806EA05152A434FF6FF352B404FF23C
:10140000FF752B408D8906EA85052B43CD8906EAB9
:1014100085052B4383800483CD880587028470BDB6
:1014200070B5002400220023058C4FF6FF6635407E
:101430000584028C8388848B4FF68F752C404FF681
:10144000FC752C400D882C434FF6FF552A400D8922
:101450004FF6FF7606EA05252A434D8806EA05255C
:101460002A431F4DA84202D0234DA8421DD14FF25E
:10147000FF752A404D894FF6FF7606EA05252A4377
:101480004FF6FF352A408D8806EA05252A434EF699
:10149000FF752B404DF6FF752B408D8906EA05152B
:1014A0002B43CD8906EA05152B4383808483CD88A1
:1014B0008587028470BD70B5002200230024058C4E
:1014C0004EF6FF7635400584038C8488828B48F67F
:1014D000FF752A404FF6FF452A400D8820E00000A6
:1014E000002C01400004004000080040000C0040B7
:1014F000001000400014004000340140004C014046
:10150000005001400054014000180040001C004001
:1015100000200040004001400044014000480140DC
:101520004FF6FF7606EA05252A434DF6FF752B4058
:101530000D8906EA05352B434D8806EA05352B4310
:10154000FA4DA84202D0FA4DA84208D14BF6FF75D9
:101550002C408D894FF6FF7606EA85152C43848052
:101560008283CD88A0F84050038470BD828B4FF2F7
:10157000FF331A408283828B4FF6FF7303EA012305
:101580001A4382837047F0B50C46154600220021AD
:101590000026078C4EF6FF7C07EA0C070784828B37
:1015A000018C4FF6FF7707EA043640F6FF473A40D2
:1015B0004FF6FF7707EA05273A434FF6FF7707EA2A
:1015C00003373A43D94FB8420ED0D94FB8420BD067
:1015D000B0F1804F08D0D74FB84205D0D64FB842AF
:1015E00002D0D64FB84206D14DF6FF77394046F4C7
:1015F0008057394305E047F6FF57394044F4805798
:10160000394382830184F0BD828B4FF6F3731A4015
:101610008283828B0A4382837047F0B50C4615465D
:10162000002200210026078C4FF6FF6C07EA0C070A
:101630000784828B018C4FF6FF7707EA04264FF66A
:101640000C773A404FF6FF7707EA03172F433A43E8
:10165000B64FB8420ED0B64FB8420BD0B0F1804F63
:1016600008D0B44FB84205D0B34FB84202D0B34F00
:10167000B84206D14FF6FF57394046F480773943D8
:1016800005E04FF2FF57394044F4807739438283B5
:101690000184F0BD028B4FF2FF331A400283028BAC
:1016A0004FF6FF7303EA01231A4302837047F0B534
:1016B0000C461546002200210026078C4FF6EF7CD1
:1016C00007EA0C070784028B018C4FF6FF7707EAC5
:1016D000041640F6FF473A404FF6FF7707EA033714
:1016E0003A434FF6FF7707EA05273A438F4FB84250
:1016F0000ED08F4FB8420BD0B0F1804F08D08D4F35
:10170000B84205D08C4FB84202D08C4FB84206D1B7
:101710004FF6DF77394046F01007394305E04FF6C2
:101720005F77394044F01007394302830184F0BDEC
:10173000028B4FF6F3731A400283028B0A43028333
:101740007047F0B50C46154600220021068C4FF676
:10175000FE773E400684028B018C4FF60C763240B9
:101760007E1C06EA03162E433243704EB0420ED062
:101770006F4EB0420BD0B0F1804F08D06D4EB042EA
:1017800005D06D4EB04202D06C4EB04206D14FF63D
:10179000FD76314044F00106314305E04FF6F57621
:1017A000314044F00106314302830184F0BD70B53D
:1017B00005460C465D4885420ED05D4885420BD0FB
:1017C000B5F1804F08D05B48854205D05A48854224
:1017D00002D05A48854200D100E000BF208850B9AD
:1017E0002389A28861882846FFF7ABFFE188284655
:1017F000FFF79EFF25E0208804280AD12389A288CC
:1018000061882846FFF753FFE1882846FFF742FF2B
:1018100017E0208808280AD12389A28861882846F1
:10182000FFF7FBFEE1882846FFF7EEFE09E023897B
:10183000A28861882846FFF7A6FEE1882846FFF7C0
:1018400095FE70BD2DE9F04105460C4600260127A6
:10185000608808B9022600E00026A088012801D18E
:10186000022700E001272088A0B92389A288618887
:101870002846FFF766FFE1882846FFF759FF2389CE
:101880003A4631462846FFF712FFE1882846FFF71F
:1018900001FF13E02389A28861882846FFF707FF2C
:1018A000E1882846FFF7F6FE23893A463146284666
:1018B000FFF747FFE1882846FFF73AFFBDE8F081D0
:1018C0000A884B881A438B881A43CB881A430B89A2
:1018D0001A434B891A438B891A43A0F84420704756
:1018E0004FF6FF71818000210180C180418001722B
:1018F00070470021018041808180C1800181418148
:101900008181C18170470021018041800121818056
:101910000021C180018170470021018041808180C8
:10192000C18001814181818170470000002C01400C
:10193000003401400004004000080040000C00405A
:1019400021B1028842F00102028004E002884FF6D1
:10195000FE731A400280704731B1B0F8442042F45F
:101960000042A0F8442005E0B0F84420C2F30E0283
:10197000A0F8442070471AB183890B43838102E0A9
:1019800083898B43838170478182704741EA0203D8
:10199000A0F8483070471AB183890B43838102E075
:1019A00083898B438381704701894FF6F872114018
:1019B000018170470A46002101894FF68F73194053
:1019C00011430181704730B504460D462946204633
:1019D000FFF7F0FF208940F00700208130BD2DE99E
:1019E000F04104460D4616461F46602D06D13B4683
:1019F000012231462046FFF75AFE05E03B46012210
:101A000031462046FFF79DFE29462046FFF7D2FFCC
:101A1000208940F007002081BDE8F08130B50C46F8
:101A200000210189C9B24FF6FF7505EA0325154368
:101A300025432943018130BD2DE9F04105460E467D
:101A400017469846002443463A4631462846FFF753
:101A5000E5FF2C894FF6F870044044F007044FF678
:101A60008F70044044F070042C81BDE8F081F0B523
:101A700004460D4616461F463B463246294620463A
:101A8000FFF7CCFF208940F480402081F0BD018524
:101A9000828270470A46002101884FF68F731940F1
:101AA000114301807047F0B50C4615461E460021D3
:101AB000002200230189028B038C4FF6F87739400E
:101AC00021434FF6FC473A4040F201173A434FF6A4
:101AD000DD773B404FF6FF7707EA06172F433B437E
:101AE000018102830384F0BD0A460021018B4FF679
:101AF0008F7319401143018370470A460021018BFF
:101B000048F6FF7319404FF6FF7303EA02231943A7
:101B1000018370470A460021818B4FF68F7319406D
:101B20001143818370470A460021818B48F6FF7379
:101B300019404FF6FF7303EA02231943818370476C
:101B400021B1028842F08002028004E002884FF650
:101B50007F731A400280704721B1828842F00402EC
:101B6000828004E082884FF6FB731A4082807047BF
:101B700021B1828842F00802828004E082884FF618
:101B8000F7731A408280704721B1828842F00102C7
:101B9000828004E082884FF6FE731A40828070478C
:101BA0000A460021018B4FF6F77319401143018358
:101BB00070470A460021018B4FF2FF7319404FF620
:101BC000FF7303EA02231943018370470A46002189
:101BD000818B4FF6F77319401143818370470A4692
:101BE0000021818B4FF2FF7319404FF6FF7303EA18
:101BF00002231943818370470A460021018B4FF667
:101C0000FB7319401143018370470A460021018B81
:101C10004FF6FF3319404FF6FF7303EA02231943CF
:101C2000018370470A460021818B4FF6FB731940F0
:101C30001143818370470A460021818B4FF6FF33A1
:101C400019404FF6FF7303EA02231943818370475B
:101C50000A460021018B4FF67F731940114301831F
:101C600070470A460021018BC1F30E014FF6FF7346
:101C700003EA02231943018370470A460021818B3E
:101C80004FF67F7319401143818370470A46002144
:101C9000818BC1F30E014FF6FF7303EA0223194350
:101CA000818370470A460021018C4FF6FD7319406D
:101CB0001143018470470A460021018C4FF6F773E7
:101CC00019401143018470470A460021018C4FF6E8
:101CD000DF7319404FF6FF7303EA021319430184BF
:101CE00070470A460021018C4FF67F7319404FF66A
:101CF000FF7303EA02131943018470470A46002167
:101D0000018C4FF6FF5319404FF6FF7303EA02238D
:101D10001943018470470A460021018C4FF2FF737A
:101D200019404FF6FF7303EA0223194301847047F9
:101D30000A460021018C4DF6FF7319404FF6FF73E0
:101D400003EA023319430184704730B500230124AC
:101D50008C40A3B2048C9C430484048C02FA01F5E9
:101D6000ADB22C43048430BD30B5002304248C4034
:101D7000A3B2048C9C430484048C02FA01F5ADB236
:101D80002C43048430BD70B503460020002418465F
:101D9000183001258D40ACB21D8CA5431D8409B1BE
:101DA000082909D100EB6100056825F07005056080
:101DB0000568154305600EE00D1FC5F34E05284468
:101DC000056825F4E045056005684FF6FF7606EAEC
:101DD00002263543056070BD21B1028842F002023F
:101DE000028004E002884FF6FD731A4002807047BB
:101DF00021B1028842F00402028004E002884FF61A
:101E0000FB731A400280704721B1828842F0800241
:101E1000828004E082884FF67F731A408280704788
:101E200002884FF6F7731A40028002880A43028044
:101E3000704782884FF68F731A40828082880A43E7
:101E40008280704702894FF6F8731A400281028936
:101E50000A430281704702894FF67F731A4002815C
:101E600002890A43028170478184704781857047E7
:101E7000818670470187704781877047A0F84010BE
:101E8000704702884FF6FF431A40028002880A43D7
:101E9000028070470146888E70470146088F704760
:101EA0000146888F70470146B1F8400070470146EF
:101EB000888C70470146088D704702460020138ABF
:101EC0000B400BB1012000E000207047CA430282A2
:101ED000704730B50246002000230024158A05EA29
:101EE0000103958905EA010413B10CB1012000E05A
:101EF000002030BDCA4302827047000010B504467E
:101F0000FB48844209D101218803FFF79FF8002193
:101F10004FF48040FFF79AF832E0F648844209D146
:101F200001214804FFF79FF800214FF40030FFF72C
:101F30009AF825E0F048844209D101218804FFF78E
:101F400092F800214FF48020FFF78DF818E0EB485D
:101F5000844209D10121C804FFF785F800214FF41C
:101F60000020FFF780F80BE0E548844208D101210A
:101F70000805FFF778F800214FF48010FFF773F899
:101F800010BD2DE9F04786B005460E460024A24656
:101F900000BFA1460027B08900B100BF2F462C8AA0
:101FA0004CF6FF700440F08804432C82AC894EF656
:101FB000F3100440B0883189084371890843044311
:101FC000AC81AC8A4FF6FF400440B0890443AC8238
:101FD00001A8FEF7B4FFC648874202D1DDF810A081
:101FE00001E0DDF80CA0A88900F4004040B10AEB44
:101FF000CA0000EB0A1031684900B0FBF1F807E0B5
:102000000AEBCA0000EB0A1031688900B0FBF1F856
:102010006420B8FBF0F004012009642101FB108961
:10202000A88900F4004040B1322000EBC900B0FBA9
:10203000F1F000F00700044308E0322000EB091043
:102040006421B0FBF1F000F00F0004432C8106B0D6
:10205000BDE8F0874FF41651016000218180C180F6
:1020600001810C21418100218181704710B5024618
:102070000020108A4FF2FF0318400B884C8823433E
:102080008C882343CC8823431843108210BD002141
:10209000018041808180C180704721B1828942F4F2
:1020A0000052828104E082894DF6FF731A408281DA
:1020B0007047F0B50346002400260025002040F6B6
:1020C0006A17B94200D100BF1846C1F3421401F0AB
:1020D0001F06012707FA06F5012C01D10C3004E098
:1020E000022C01D1103000E014301AB107682F43E0
:1020F000076002E00768AF430760F0BD1AB1838A4A
:102100000B43838202E0838A8B4383827047028A77
:102110004FF6F0731A400282028A0A430282704725
:1021200082894FF2FF731A40828182890A43828139
:10213000704721B1828942F00202828104E08289E3
:102140004FF6FD731A4082817047028A4FF6DF73A3
:102150001A400282028A0A430282704721B1028A2F
:1021600042F48042028204E0028A4BF6FF731A4076
:1021700002827047C1F30802828070470146888856
:10218000C0F308007047818941F0010181817047E7
:10219000028BD2B20283028B42EA01220283704791
:1021A000028B02F47F420283028B0A430283704750
:1021B00021B1828A42F02002828204E0828A4FF6B4
:1021C000DF731A408282704721B1828A42F0100286
:1021D000828204E0828A4FF6EF731A40828270474F
:1021E00021B1828A42F00802828204E0828A4FF69C
:1021F000F7731A408282704721B1828942F400420B
:10220000828103E08289C2F30E028281704721B18C
:10221000828A42F40062828204E0828A4FF2FF7373
:102220001A4082827047828A4FF6FB731A4082827C
:10223000828A0A438282704721B1828A42F0020276
:10224000828204E0828A4FF6FD731A4082827047D0
:1022500002460020B1F5007F00D100BF13880B407B
:102260000BB1012000E00020704701F40072B2F5CC
:10227000007F00D100BFCA430280704770B502469C
:10228000002400230025002040F66A16B14200D148
:1022900000BFC1F3421501F01F03012606FA03F344
:1022A000012D02D19689334006E0022D02D1168A13
:1022B000334001E0968A33400C12012606FA04F4FA
:1022C0001688344013B10CB1012000E0002070BD2D
:1022D00010B50022002340F66A14A14200D100BFCD
:1022E0000A1201249440A3B2DC43048010BD000014
:1022F000003801400044004000480040004C0040CD
:102300000050004000BFFC49098801F0400100294D
:10231000F9D0F949091D0880704710B5024600231D
:1023200004E019465B1C505CFFF7ECFFD05C002812
:10233000F7D110BD00B5F1A0FFF7EFFF00BD70476A
:1023400010B540F22551EC48FFF798FF70B3EA480A
:10235000FFF714FFC4B2EA48006800B110BD0D2CAD
:102360000BD10020E749E84A128888540120E4494B
:1023700008600020E449088018E00A2C16D0E248E2
:10238000008840280ADBFFF7D5FF0120DC49086000
:10239000DE4908600020DC490880DFE7DA48018870
:1023A0000088401CD84A1080D648445400BFD5E766
:1023B000002108E0002201E0531C9AB2B2F5006F40
:1023C000FADB4B1C99B28142F4DB70477CB50546C1
:1023D0000024002668E08DBBCD4810F81400FF28CB
:1023E00007D1CB4800EB44004078FF2827D10126D5
:1023F00025E0C74810F814008DF80400C44800EB2D
:10240000440040788DF805009DF8040001220DF18C
:10241000050102F062FA4FF4C870FFF7C9FF9DF89A
:1024200004000122694602F098FA9DF805009DF823
:102430000010884203D04FF0FF307CBD01E0641CE7
:1024400032E0B44810F81400FF2807D1B14800EB7F
:1024500044004078FF2826D1012624E0AD4810F83A
:1024600014008DF80400AB4800EB440040788DF870
:1024700005009DF8040001220DF1050102F0D2FAD9
:102480004FF4C870FFF794FF9DF8040001226946DD
:1024900002F008FB9DF805009DF80010884202D06C
:1024A0004FF0FF30C9E7641C002E94D00020C4E731
:1024B00010B599480068012805D1984998A003F003
:1024C000ADFB002010BD9CA003F0A8FB4FF0FF3037
:1024D000F8E77CB505460024002600200090294638
:1024E0009CA003F09BFB32E0894810F81400FF2801
:1024F0000CD1874800EB44004078FF2826D1012604
:10250000FF22AF2199A003F089FB1FE0804810F85B
:1025100014008DF804007E4800EB440040788DF8EC
:10252000050035B99DF804000122694602F015FA4C
:1025300005E09DF804000122694602F0B3FA9DF817
:1025400004109DF8002091A003F068FB641C002E8D
:10255000CAD096A003F062FB00207CBD7CB5054686
:102560006D480068022802D04FF0FF307CBD00208B
:10257000019000908F491022486801A902F0FCFCEC
:102580000446FF2C04DC002C02DB0198007828B103
:1025900089A0FFF7D4FE6FF00100E7E7E6B22DB99E
:1025A00001226946304602F0D8F904E0012269466A
:1025B000304602F077FA29468AA003F02FFB9DF8F7
:1025C000002031468DA003F029FB90A003F026FBEC
:1025D0000020CBE7FEB506464F480068032805D02B
:1025E00055A0FFF7ACFE4FF0FF30FEBD002002907B
:1025F00070491022486802A902F0BEFC0446FF2C74
:1026000004DC002C02DB0298007828B181A0FFF7DF
:1026100096FE6FF00100E8E766491022886802A97B
:1026200002F0AAFC0546FF2D04DC002D02DB029817
:10263000007828B182A0FFF782FE6FF00100D4E796
:1026400000200190E7B2E8B2009056B90122694635
:10265000384602F042F9012201A9384602F07DF91C
:1026600009E001226946384602F0DCF9012201A99D
:10267000384602F017FA9DF800009DF804108842D1
:102680000DD1314657A003F0C9FA9DF80420394610
:102690005AA003F0C3FA5DA003F0C0FA02E06FF0A5
:1026A0000200A2E70020A0E77049714A0868904242
:1026B00001D1002070470120FCE72DE9F041FDF732
:1026C000D0FE6A48FDF712FF684C694F3946204634
:1026D000FDF7DCFF241D674D002606E02046296833
:1026E000FDF7D4FF241D2D1D761C202EF6DBFDF7F3
:1026F000C4FEBDE8F0810000003801400D0A000072
:10270000A800002038070020B0000020AC00002006
:10271000C6060020B4060020B0060020B20000204B
:1027200022436F6D6D616E647322203A200D0A257D
:10273000732C0D0A00000000224552524F52223ADB
:10274000202257726F6E67466F726D6174222C0D76
:102750000A000000223835353620636869706964E4
:1027600020256422203A200D0A5B00007B22616450
:10277000647265737322203A202564202C227661CE
:102780006C22203A2025647D0D0A00007B226164C2
:10279000647265737322203A202564202C227661AE
:1027A0006C22203A2025647D2C0D0A005D2C200D22
:1027B0000A000000E40600205B4552524F525D6162
:1027C0006464726573732063616E206F6E6C792030
:1027D0006265206120382062697420484558206E67
:1027E000756D21002238353536206368697069645B
:1027F00020256422203A207B00000000223078252A
:102800007822203A20223078257822007D2C200D55
:102810000A0000005B4552524F525D61646472656C
:1028200073732063616E206F6E6C79206265206126
:102830002075696E743820484558206E756D2100EA
:102840005B4552524F525D76616C75652063616ED7
:10285000206F6E6C7920626520612075696E743816
:1028600020484558206E756D2100000000DC0008EE
:102870005C5B5A002800002010B5FDF7F2FDF4481B
:10288000FDF734FEFDF7F9FD10BD2DE9F04F87B0DF
:10289000824600200690EF48006802281AD1ED49D0
:1028A000886802F0A0FC07460022EB4B02F01BFCFC
:1028B00005460E46504602F096FC2A463346CDE9C0
:1028C000000102F09EFBCDE9020102F0B8FCC0B2AB
:1028D000069019E0DF49086902F085FC0022DE4B12
:1028E000CDE9000102F0FFFB05460E46504602F01E
:1028F0007AFC2A463346CDE9020102F082FB074604
:1029000002F09DFCC0B206900024D2480068022864
:1029100019D1D049C86802F066FC0022CE4BCDE93F
:10292000000102F0E0FB05460E46504602F05BFC5B
:1029300007462A46334602F064FBCDE9020102F065
:102940005FFC044618E0C349486902F04CFC0022D1
:10295000C14BCDE9000102F0C6FB05460E465046CC
:1029600002F041FC07462A46334602F04AFBCDE915
:10297000020102F045FC0446FF2C00DDFF24514615
:10298000B6A003F04BF922469DF81810BAA003F048
:1029900045F9204602F016FC0022C44BCDE90201A5
:1029A00002F0A1FB05460022C14B02F02AFB0746BC
:1029B00002F026FC8146002005900490A54880691D
:1029C000002836D1484601F0F1FE4946B9A003F08F
:1029D00025F9012206A9002001F07FFF012205A9A7
:1029E000002001F0BAFF3220FFF7E2FC012206A925
:1029F000002002F017F8012204A9002002F052F88A
:102A00009DF818009DF8141088420CD19DF818000C
:102A10009DF81010884206D1ADA0FFF790FC002071
:102A200007B0BDE8F08FB3A0FFF789FC4FF0FF308F
:102A3000F6E79DF8180002F0D6FB00229B4BCDE98B
:102A4000020102F050FB07460022B34B02F0D9FA14
:102A5000054602F0D5FB8346584601F03FFE484646
:102A600001F0A4FE4A465946ACA003F0D7F8002076
:102A7000D6E77749B649002005E051F82020754B8C
:102A800043F82020401C0728F7DB7047FEB5FFF70E
:102A90000BFE002827D0FFF710FEFDF7E2FCAC4844
:102AA000FDF724FDAA4C02206A49086066204860B0
:102AB000642088600F20C86000200861642048619D
:102AC000002088610D46002606E020462968FDF7B3
:102AD000DDFD241D2D1D761C072EF6DB5D490879D2
:102AE000FFF7D3FE23E0FFF7C4FF5A4880690128AF
:102AF00019D102900124002001900090012202A926
:102B0000204601F0EAFE012201A9204601F025FF3E
:102B1000012202A9204601F085FF012269462046D4
:102B200001F0C0FF00BF4B490879FFF7AEFEFEBDC4
:102B300010B500244FF4FA70FFF73AFC01F08DFC59
:102B400001F04AFD83A0FFF7FAFB85A0FFF7F7FB32
:102B500001F0E8FF4FF47A70FFF72AFC582001F0EB
:102B600097FE18B987A0FFF7EAFB02E08CA0FFF7F9
:102B7000E6FB582001F031FF18B991A0FFF7DFFB09
:102B800002E096A0FFF7DBFB00BF0020FFF71EFC72
:102B900004461CB16420FFF70BFCF6E700BF0120E0
:102BA000FFF714FC04461CB16420FFF701FCF6E7B4
:102BB0004FF4FA70FFF7FCFBFFF768FF10BD2DE93B
:102BC000F041FDF74EFC6248FDF790FC604D214E50
:102BD000002400BF06E028463168FDF757FD2D1D93
:102BE000361D641C072CF6DB594F002408E01948F9
:102BF00050F8240057F82410884200D002E0641CEA
:102C0000072CF4DB00BF072C02D17CA0FFF797FB59
:102C1000FDF733FCBDE8F08170B54FF0FF357F481C
:102C20000068022809D0AFF2F040FFF788FBAFF24E
:102C3000F84002F0F3FF284670BD7949486802F079
:102C4000D3F90446022C02D0032C00D0EAE0F2E0D3
:102C500000DC0008900600200000594022737973C0
:102C600074656D206272696768746E657373222083
:102C70003A2025642C0D0A00226272696768746E1E
:102C80006573735F324422203A2025642C200D0A9C
:102C900020226272696768746E6573735F334422C1
:102CA000203A2025642C0D0A0000000000E06F404F
:102CB00000C0A24022647574795F336422203A20F8
:102CC0002225642F34303936222C0D0A00000000F2
:102CD00032642069326320736574206272696768A8
:102CE000746E657373207375636365737366756C57
:102CF0006C7921003264207365742069326320731B
:102D00006574206272696768746E657373206661AA
:102D1000696C6564210000000000B0402264757495
:102D2000795F326422203A202225642F34303936EC
:102D3000222C0D0A2022647574795F336422203AB4
:102D4000202225642F34303936222C0D0A00000051
:102D500000D80008696E69742E2E2E0D0A0000003E
:102D600070776D20636F6E66696775726174696FE5
:102D70006E2069732066696E69736865642E0D0A3A
:102D8000000000003835353620302068617320623D
:102D900065656E2064657465637465642E0D0A0054
:102DA00038353536203020686173206E6F742062AC
:102DB00065656E2064657465637465640D0A000062
:102DC00038353536203120686173206265656E20A4
:102DD00064657465637465642E0D0A003835353694
:102DE000203120686173206E6F74206265656E20EB
:102DF00064657465637465640D0A000057726974D4
:102E000065204461746120746F20666C6173682072
:102E1000737563636573732E0D0A0000B00600209E
:102E2000E4060020F1A0FFF78AFAF7A002F0F6FE10
:102E30004FF0FF3000E7FB480460FFF7C0FEF949A0
:102E40000879FFF722FD05462846F5E62DE9FC47FF
:102E5000F5480068042807D0AFF2247002F0DEFEC7
:102E60004FF0FF30BDE8FC87F049486802F0BCF83D
:102E7000824600200090ED49886801A903F043FBD9
:102E800006460F46E949C868694603F03CFB04461C
:102E90000D46BAF1020F02D0BAF1030F05D1019825
:102EA000007810B90098007840B1E1A0FFF747FA28
:102EB000D5A002F0B3FE4FF0FF30D3E7DB4901228B
:102EC0008868E1A102F027F860B10022134630467D
:102ED000394602F0CDF905D1CBA002F09FFE4FF0AC
:102EE000FF30BFE7D1490122C868D7A102F013F82B
:102EF00060B1002213462046294602F0B9F905D1F7
:102F0000C1A002F08BFE4FF0FF30ABE70022CF4BA9
:102F10003046394602F0C4F914D300221346304635
:102F2000394602F0A5F90DD30022C94B20462946A7
:102F300002F0B6F906D3002213462046294602F0D5
:102F400097F908D2C3A0FFF7FAF9AFA002F066FE26
:102F50004FF0FF3086E7BAF1020F16D10022CA4BBC
:102F60003046394602F04DF8804602F049F9AD4945
:102F700088600022C44B2046294602F042F8804671
:102F800002F03EF9A749C86015E00022BE4B30466A
:102F9000394602F036F8804602F032F9A14908615C
:102FA0000022B94B2046294602F02BF8804602F059
:102FB00027F99C494861FFF702FE9A490879FFF713
:102FC00064FC4FE730B5A1B097480068012807D0EE
:102FD000AFF69C0002F022FE4FF0FF3021B030BD72
:102FE000AA4D2C46802101A801F083FF002004E0B7
:102FF000217801AA1154641C401C8028F8DB01A927
:10300000A3A002F00BFE0020E8E72DE9F04F8DB001
:1030100085480068012808D0AFF6E40002F0FEFD04
:103020004FF0FF300DB0BDE8F08FFFF722FD7D4877
:1030300040680B907B4800680A907A49886802F0E3
:10304000D2F80022904BCDE9040102F04CF8CDE912
:1030500008017449C86802F0C6F800228A4BCDE91D
:10306000040102F040F882468B466E49086902F07E
:10307000BAF80022844BCDE9040102F034F8CDE91E
:1030800006016849486902F0AEF800227E4BCDE99E
:10309000040102F028F804460D460A98022815D1CA
:1030A0000B9802F08FF8CDE90001DDE9082301F06B
:1030B000A8FF00227D4BCDE9020102F014F80022A6
:1030C0007B4BCDE9040101F09CFF14E00B9802F06A
:1030D00079F8CDE90001DDE9062301F092FF002235
:1030E000724BCDE9020101F0FEFF0022704BCDE9E9
:1030F000040101F086FF06460F460A98022815D102
:103100000B9802F05FF852465B46CDE9000101F0F2
:1031100078FF0022654BCDE9020101F0E4FF0022B7
:10312000644BCDE9040101F06CFF14E00B9802F050
:1031300049F822462B46CDE9000101F062FF00224A
:103140005A4BCDE9020101F0CEFF0022594BCDE9E7
:10315000040101F056FF8046894657A0FFF7EFF8BB
:103160003048806920B95FA00B9902F057FD03E059
:1031700069A00B9902F052FD0A9802280BD1CDE903
:1031800000AB02A8A0E8C00302217048DDE90823D3
:1031900002F044FD07E08DE8F00303216B48DDE910
:1031A000062302F03BFD00203CE72DE9FF5F1E48AF
:1031B000006802280CD0AFF68020FFF7C0F8AFF609
:1031C000882002F02BFD4FF0FF3004B0BDE8F09FE7
:1031D000002003901549486803A903F094F90446B8
:1031E0000D460398007800B1B2E0BBE05B45525257
:1031F0004F525D6D6F6465206D757374206265203C
:1032000032206F7220332100224552524F52223A0F
:10321000202256616C75654572726F72222C0D0A00
:103220000000000090060020B0060020E406002008
:103230006D6F6465206F7220726174696F20696CB4
:103240006C6567616C000000300000000000F03F1A
:1032500000000840726174696F206572726F722C91
:10326000726174696F5F32643A302E30307E312E75
:103270003030202C726174696F5F33643A302E30C5
:10328000307E332E303000000000594004DC00084E
:1032900022424F41524420494E464F22203A20229A
:1032A000257322202C200D0A0000000000E06F4052
:1032B0000000394000003E40446973706C61792021
:1032C00063757272656E742073797374656D2063B3
:1032D0006F6E66696775726174696F6E733A0D0A15
:1032E00000000000226272696768746E6573732261
:1032F000203A202564202C200D0A22326420636F9E
:103300006E74726F6C206D6F646522203A202269A2
:103310003263222C0D0A0000226272696768746EA3
:1033200065737322203A202564202C200D0A223256
:103330006420636F6E74726F6C206D6F6465222001
:103340003A202270776D222C0D0A0000A865000833
:10335000F6A0FEF7F4FFAFF2501002F05FFC4FF062
:10336000FF3032E70022F54B2046294601F098FF56
:1033700006D3002213462046294601F079FF09D2E0
:10338000EFA0FEF7DCFFAFF2801002F047FC4FF039
:10339000FF301AE70022E94B2046294601F0A3FE40
:1033A00080460022EF4B01F02CFE064601F028FF7C
:1033B0008246002002900190EB48806930BB0AF001
:1033C000FF00009001226946002001F086FA0122E8
:1033D00002A9002001F0C1FA01226946002001F093
:1033E00021FB012201A9002001F05CFB9DF80800EF
:1033F000824505D19DF80400824501D10020E4E614
:10340000DAA0FEF79CFF4FF0FF30DEE60022CB4B48
:103410002046294601F067FE80460022D74B01F086
:10342000F0FD064601F0ECFE8346584601F056F9E1
:103430000020CAE62DE9F84FD148006802280BD0D9
:10344000AFF60C50FEF77BFFAFF6145002F0E6FB30
:103450004FF0FF30BDE8F88F00200090C949486860
:10346000694603F050F804460D460098007848B1CC
:10347000C5A0FEF764FFAFF2702002F0CFFB4FF063
:10348000FF30E7E70022C54B2046294601F008FF40
:1034900006D3002213462046294601F0E9FE09D250
:1034A000BFA0FEF74CFFAFF2A02002F0B7FB4FF039
:1034B000FF30CFE70022B94B2046294601F013FE2A
:1034C00006460022BF4B01F09CFD804601F098FEAD
:1034D0008246504601F06AF90020BBE72DE9F04F23
:1034E00087B0A748006802280CD0AFF6B450FEF7AA
:1034F00026FFAFF6BC5002F091FB4FF0FF3007B053
:10350000BDE8F08F9F49486801F06EFD04469D4973
:1035100001224868AFF2D02101F0FDFC38B134B986
:10352000AFF21C3002F07AFB4FF0FF30E7E75CB1FE
:10353000012C09D0A4A0FEF702FFAFF2343002F054
:103540006DFB4FF0FF30DAE70020069005904FF05A
:103550000109049084488461FFF731FB002C2CD1D1
:1035600005200490012204A9484601F0B6F9012281
:1035700006A9484601F0F1F9012204A9484601F0E4
:1035800051FA012205A9484601F08CFA9DF8100075
:103590009DF8181088420AD19DF810009DF814106B
:1035A000884204D192A0FEF7CAFE0020A7E797A0A8
:1035B000FEF7C5FE4FF0FF30A1E701200490012285
:1035C00004A9484601F089F9012206A9484601F0FC
:1035D000C4F9012204A9484601F024FA012205A9F0
:1035E000484601F05FFA9DF810009DF818108842D7
:1035F00059D19DF810009DF81410884253D14FF016
:10360000000B59480068022819D15749886801F011
:10361000EAFD07460022854B01F065FDCDE9020178
:103620005149486801F0DFFDCDE90001DDE90223E1
:1036300001F0E7FC054601F0E3FD834619E04A4945
:10364000086901F0D0FD07460022784B01F04BFDE0
:1036500005460E464449486801F0C5FD2A463346F2
:10366000CDE9000101F0CDFCCDE9020101F0C8FD7A
:1036700083466FA0FEF763FE584601F0A3FD0022CB
:10368000384BCDE9020101F02EFD074600223B4BED
:1036900001F0B7FC054601F0B3FD8246504601F04B
:1036A0001DF800202BE769A0FEF749FE4FF0FF3020
:1036B00025E770B53248006803280AD0AFF6887055
:1036C000FEF73DFEAFF6907002F0A8FA4FF0FF3023
:1036D00070BD2C49486801F087FC05462949886877
:1036E00001F082FC0446022D0BD0032D09D05FA00F
:1036F000FEF725FEAFF2F04002F090FA4FF0FF30F7
:10370000E6E7012109B104B900E000210A461D499C
:103710008868AFF2CC4101F0FEFB30B1AFF2185037
:1037200002F07CFA4FF0FF30D2E7A7E063757272C7
:10373000656E7420696C6C6567616C0000003940CF
:1037400063757272656E74206572726F722C637528
:103750007272656E743A302E30307E32352E3030D3
:103760000000000000E06F409006002032642073EB
:103770006574206661696C65642100000000B040DA
:10378000B0060020E406002063757272656E742036
:10379000696C6C6567616C0D0A00000000003E40BA
:1037A00063757272656E74206572726F722C6375C8
:1037B0007272656E743A302E30307E33302E303077
:1037C0000D0A000000C0A2405B4552524F525D6D91
:1037D0006F64652073686F756C64206265203028A3
:1037E00069326329206F7220312870776D292E008D
:1037F0007573652069326320746F20636F6E747215
:103800006F6C20383535362E0D0A00007365742034
:1038100069326320746F20636F6E74726F6C20382E
:10382000353536206661696C2E0D0A00000059405E
:103830007573652070776D20746F20636F6E74727E
:103840006F6C20383535362E0D0A000073657420F4
:1038500070776D20746F20636F6E74726F6C203898
:10386000353536206661696C2E0D0A006D6F646512
:1038700020696C6C6567616C00000000002C02DB45
:10388000B4F5805F09DDFBA0FEF759FDAFF288605B
:1038900002F0C4F94FF0FF301AE7022D03D12046A1
:1038A00000F01CFF02E0204600F080FF00200FE740
:1038B000704770477047704710B5FEF7DDFFFFF7A0
:1038C00037F910BD10B50020F3490860F3490860CE
:1038D0004021F34801F00DFB10BD10B504461CB9A2
:1038E000F0A002F09BF902E0F5A002F097F910BDFC
:1038F00070B50024EA49F8A002F090F91421FC48C0
:1039000001F0F7FAFBA1E64801F014FB05460AE0D6
:10391000F74840F82450641CE0480460F5A10020FA
:1039200001F008FB0546002DF2D1F149086801F0CD
:10393000EBFA0546EE492A460868EFA101F0EBFADA
:1039400018B90120D449086072E1E949086801F01A
:10395000DBFA0546E6492A460868E9A101F0DBFAE8
:1039600018B90220CC49086062E1E149086801F019
:10397000CBFA0546DE492A460868E3A101F0CBFAF6
:1039800018B90320C449086052E1D949086801F018
:10399000BBFA0546D6492A460868DDA101F0BBFA04
:1039A00018B90420BC49086042E1D149086801F017
:1039B000ABFA0546CE492A460868D7A101F0ABFA12
:1039C00018B90520B449086032E1C949086801F016
:1039D0009BFA0546C6492A460868D2A101F09BFA1F
:1039E00018B90620AC49086022E1C149086801F015
:1039F0008BFA0546BE492A460868CEA101F08BFA2B
:103A000018B90720A449086012E1B949086801F013
:103A10007BFA0546B6492A460868C9A101F07BFA37
:103A200018B908209C49086002E1B149086801F012
:103A30006BFA0546AE492A460868C4A101F06BFA44
:103A400018B90D2094490860F2E0A949086801F00E
:103A50005BFA0546A6492A460868C0A101F05BFA50
:103A600018B90C208C490860E2E0A149086801F00F
:103A70004BFA05469E492A460868BBA101F04BFA5D
:103A800018B9092084490860D2E09949086801F012
:103A90003BFA054696492A460868B7A101F03BFA69
:103AA00018B90A207C490860C2E09149086801F011
:103AB0002BFA05468E492A460868B3A101F02BFA75
:103AC00018B90B2074490860B2E08949086801F010
:103AD0001BFA054686492A460868AFA101F01BFA81
:103AE00018B90E206C490860A2E08149086801F00D
:103AF0000BFA05467E492A460868A9A101F00BFA8F
:103B000018B910206449086092E07949086801F00A
:103B1000FBF9054676492A460868A3A101F0FBF99E
:103B200018B912205C49086082E07149086801F008
:103B3000EBF905466E492A4608689DA101F0EBF9AC
:103B400018B90F205449086072E06949086801F00B
:103B5000DBF9054666492A46086897A101F0DBF9BA
:103B600018B911204C49086062E06149086801F009
:103B7000CBF905465E492A46086891A101F0CBF9C8
:103B800018B913204449086052E05949086801F007
:103B9000BBF9054656492A4608688BA101F0BBF9D6
:103BA00018B914203C49086042E05149086801F006
:103BB000ABF905464E492A46086886A101F0ABF9E3
:103BC00018B915203449086032E04949086801F005
:103BD0009BF9054646492A46086881A101F09BF9F0
:103BE00018B916202C49086022E04149086801F004
:103BF0008BF905463E492A4608687CA101F08BF9FD
:103C000018B917202449086012E03949086801F002
:103C10007BF9054636492A46086877A101F07BF909
:103C200018B918201C49086002E0FF201A490860F2
:103C300070BD2DE9FC414FF0FF3517480068192889
:103C400017D2DFE800F0F80DF7F9F5F4F3F2F1F030
:103C5000EFEEEDECEBEAE9E8E7E6E5E4E3E2E100CC
:103C6000FEF726FC0546FFF72DFE2846FFF735FE3A
:103C700080E378E364757479206572726F722C64E6
:103C80007574792063616E206F6E6C792062652097
:103C9000307E343039360000AC060020B0060020FB
:103CA0003807002022726573756C7422203A202236
:103CB0007375636365737322207D0D0A0000000035
:103CC00022726573756C7422203A20226661696CD9
:103CD00022207D0D0A0000000D0A7B2022434D4466
:103CE00022203A2022257322202C200D0A000000D9
:103CF000E40600202000000048454C500000000071
:103D0000494E464F0000000044554D500000000051
:103D10004932435245414400493243575249544580
:103D200000000000424C5345544252494748544E0B
:103D300045535300424C534554524154494F53004C
:103D4000424C5357495443480000000053455432F5
:103D5000444354524C4D4F4445000000424C53459F
:103D60005450574D00000000424C53455454494EA6
:103D70004753474554000000424C53455432444396
:103D8000555252454E540000424C5345543344431F
:103D9000555252454E540000504F4B4533320000AF
:103DA000504F4B4531360000504F4B453800000016
:103DB0005045454B333200005045454B31360000ED
:103DC0005045454B380000004750494F524541444B
:103DD000000000004750494F5245414450494E00B1
:103DE0004750494F53455450494E00004750494FA2
:103DF000434C5250494E0000424C464143544F52AE
:103E00005952455345540000F7E1EEE1E5E1DCE1AC
:103E1000D3E1B6E151E198E11FE17AE1F2E0E8E0B7
:103E2000DEE0D4E0CAE0C0E05EE0B5E065E041E09D
:103E300026E001E01BE095E2F748006801280AD07F
:103E4000F64801F0EBFE4FF0FF35FFF73BFD28464B
:103E5000FFF743FD8EE20020FEF73BFB0120FEF75B
:103E600038FBFFF72FFD0020FFF737FD82E2FFF759
:103E7000A9F80546FFF726FD2846FFF72EFD79E253
:103E80000020FEF76BFB04460120FEF767FB0443AE
:103E9000601C18B9E14801F0C1FE05E0A01C18B98A
:103EA000AFF69C4001F0BAFEFFF70CFD2046FFF78D
:103EB00014FD5FE20020FEF78DFB04460120FEF7B3
:103EC00089FB0443601C18B9D44801F0A7FE05E043
:103ED000A01C18B9AFF6D04001F0A0FEFFF7F2FC2D
:103EE0002046FFF7FAFC45E2FEF796FE0546FFF78F
:103EF000E9FC2846FFF7F1FC3CE2C949486801F0BB
:103F000073F80446C448006802280AD0C34801F088
:103F100085FE4FF0FF352846FFF7DFFCFFF7D2FCA8
:103F200028E2BF49486800F0EFFF0646BC49324628
:103F30004868AFF6EC4100F0EEFF60B15CB9AFF657
:103F4000385001F06BFE4FF0FF352846FFF7C5FCF7
:103F5000FFF7B8FC0EE2FF2C01DC002C0EDAB1A05A
:103F6000FEF7EDF9AFF6605001F058FE4FF0FF3567
:103F70002846FFF7B2FCFFF7A5FCFBE1E0B2FEF735
:103F800084FC0546B2484460FEF719FEFFF79AFC30
:103F90002846FFF7A2FCEDE1FEF758FF0546FFF7C4
:103FA00091FC2846FFF799FCE4E1FFF72EF805465F
:103FB000FFF788FC2846FFF790FCDBE1FFF7F5F8F8
:103FC0000546FFF77FFC2846FFF787FCD2E1FFF7A5
:103FD00031FA0546FFF776FC2846FFF77EFCC9E17B
:103FE000FFF767FB0546FFF76DFC2846FFF775FCFA
:103FF000C0E1FFF773FA0546FFF764FC2846FFF7B8
:104000006CFCB7E1002001900090854910224868BF
:1040100001A900F0B1FF0446814910228868694671
:1040200000F0AAFF07460198007828B189A0FEF7A2
:1040300086F9FFF747FC9DE10098007828B191A030
:10404000FEF77DF9FFF73EFC94E126463760FFF767
:1040500039FC0020FFF741FC8CE10020019000902A
:104060006F491022486801A900F086FF06466C4996
:1040700010228868694600F07FFF044601980078A6
:1040800028B18BA0FEF75BF9FFF71CFC72E10098EA
:10409000007820B9002C02DBB4F5803F05DB90A04E
:1040A000FEF74DF9FFF70EFC64E137463C80FFF761
:1040B00009FC0020FFF711FC5CE10020019000905A
:1040C00057491022486801A900F056FF0646544996
:1040D00010228868694600F04FFF04460198007876
:1040E00020B14E488030FEF72AF943E1009800786D
:1040F00018B9002C01DBFF2C03DD84A0FEF71FF9AB
:1041000038E137463C70FFF7DDFB0020FFF7E5FBA9
:1041100030E10020019042491022486801A900F0D6
:104120002BFF04460198007818B14AA0FEF707F962
:1041300020E12646214680A0326801F06FFDFFF79E
:10414000C1FB0020FFF7C9FB14E1002001903449B6
:104150001022486801A900F00FFF0446019800787A
:1041600018B13CA0FEF7EBF804E126463288214660
:1041700071A001F053FDFFF7A5FB0020FFF7ADFB99
:10418000F8E00020019026491022486801A900F0BB
:10419000F3FE04460198007818B12EA0FEF7CFF880
:1041A000E8E026463278214663A001F037FDFFF7AC
:1041B00089FB0020FFF791FBDCE0FFF779FBFFF7BD
:1041C00081FB0020FFF789FBD4E0FFF772FBFFF7CC
:1041D00079FB0020FFF781FBCCE0FFF76BFBFFF7DB
:1041E00071FB0020FFF779FBC4E0FFF764FBFFF7EA
:1041F00069FB0020FFF771FBBCE00748006801285D
:1042000009D0064801F00AFD4FF0FF30FFF765FBCB
:10421000FFF758FBAEE09DE0B0060020382700080D
:10422000E40600205B4552524F525D627269676836
:10423000746E6573732076616C75652073686F7535
:104240006C6420626520307E3235352E0D0A000008
:10425000900600205B4552524F525D616464726566
:1042600073732063616E206F6E6C792062652061CC
:104270002033322062697420484558206E756D21C4
:10428000000000005B4552524F525D646174612032
:1042900063616E206F6E6C7920626520612033321D
:1042A0002062697420484558206E756D2100000019
:1042B0005B4552524F525D61646472657373206353
:1042C000616E206F6E6C792062652061203136202E
:1042D00062697420484558206E756D210000000009
:1042E0005B4552524F525D646174612063616E2080
:1042F0006F6E6C79206265206120313620626974AE
:1043000020484558206E756D210000005B455252D3
:104310004F525D646174612063616E206F6E6C79D1
:104320002062652061203820626974204845582049
:104330006E756D2100000000616464726573733AEC
:10434000307825782C20646174613A307825780DB6
:104350000A000000FFF7B0FA0020FFF7BEFAFFF7EF
:10436000B1FA07E006E012A001F058FC0120FFF7C7
:10437000B4FA00BF00BFBDE8FC81FEF7D9FB16E030
:104380001348006898B11348006848B112A001F0C2
:1043900045FC6420FEF70CF800200E49086003E09D
:1043A000FFF7A6FAFFF745FC002009490860E7E798
:1043B000224552524F52223A2022556E6B6E6F7731
:1043C0006E436F6D6D616E64222C0D0A000000005B
:1043D000A8000020AC0000207B224552524F522200
:1043E0003A2022436F6D6D616E64546F6F4C6F6E37
:1043F00067227D00704700BFFEE700BFFEE700BFF9
:10440000FEE700BFFEE7704770477047704710B582
:1044100040F225510648FDF731FF38B10448FDF759
:10442000ADFEC4B221460248FDF7A4FE10BD000057
:104430000038014008B54FF4A060FBF785FF252048
:104440008DF8000001208DF801008DF802008DF834
:1044500003006846FBF77DFF08BD00B585B001216C
:104460000420FCF7D9FD01218803FCF7D5FD4FF4AA
:104470000070ADF8100018208DF8130003208DF89F
:10448000120004A95248FCF70BFB4FF48060ADF812
:10449000100004208DF8130004A94D48FCF700FB20
:1044A0004FF4E13000900020ADF80400ADF80600B4
:1044B000ADF80800ADF80C000C20ADF80A00694614
:1044C0004448FDF75EFDFFF7B5FF012240F225519C
:1044D0004048FDF7EEFD01213E48FDF7DEFD05B049
:1044E00000BD70B504460D4629462046FDF742FE44
:1044F00000BF80212046FDF7ABFE0028F9D070BD3B
:104500002DE9F04107460D461646002405E0295DD9
:104510003846FFF7E6FF601CC4B2B442F7DB00BFC9
:1045200040213846FDF794FE0028F9D0BDE8F0811F
:1045300070B506460C46002500BF615D3046FFF7AA
:10454000D0FF6D1C605D0028F7D100BF40213046D0
:10455000FDF77EFE0028F9D070BD2DE9F04105463B
:104560000C46260AE7B231462846FDF703FE00BF97
:1045700080212846FDF76CFE0028F9D039462846F0
:10458000FDF7F8FD00BF80212846FDF761FE0028F9
:10459000F9D0BDE8F08170B504460D46E1B20D4892
:1045A000FDF7E8FD00BF80210A48FDF751FE002815
:1045B000F9D0204670BD10B5044600BF2021054843
:1045C000FDF746FE0028F9D00248FDF7D7FD10BDE3
:1045D000000801400038014008B501210820FCF71F
:1045E0001BFD4FF46040ADF8000018208DF803006B
:1045F00003208DF802006946A148FCF751FA012119
:10460000C802FCF709FD01210420FCF705FD4FF469
:104610000060ADF8000018208DF8030003208DF82D
:10462000020069469748FCF73BFA0121C802FCF7F3
:10463000F3FC01210820FCF7EFFC8020ADF800001E
:1046400010208DF8030001208DF8020069468C4887
:10465000FCF726FA80218A48FCF7CFFA01210820CE
:10466000FCF7DAFC4020ADF8000010208DF80300C4
:1046700001208DF8020069468148FCF711FA4021BB
:104680007F48FCF7BAFA01210420FCF7C5FC802022
:10469000ADF8000010208DF8030001208DF8020015
:1046A00069467848FCF7FCF980217648FCF7A5FAC2
:1046B00001210420FCF7B0FC4020ADF800001020E0
:1046C0008DF8030001208DF8020069466D48FCF763
:1046D000E7F940216B48FCF790FA08BD70B588B047
:1046E00005466948006844F2A241B0FBF1F0461E5D
:1046F000701E6843C0F30F340020ADF81400ADF80D
:104700001600B0B2ADF818000020ADF81A008DF810
:104710001C0005A95D48FCF7B7FD7020ADF804004A
:104720000120ADF806000420ADF80800ADF80A40FD
:104730000220ADF80C000020ADF80E004FF48070A0
:10474000ADF810000020ADF8120001A94F48FCF7A9
:10475000D8FD7020ADF804000020ADF8060004205C
:10476000ADF80800ADF80A400020ADF80C000820B4
:10477000ADF80E004001ADF810000020ADF81200B9
:1047800001A94248FCF7FFFD08214048FDF708FA5F
:1047900008213E48FDF70DFA01213C48FDF7D0F80D
:1047A00001213A48FDF7D8F808B070BD70B588B05F
:1047B00005463548006844F2A241B0FBF1F0461EC0
:1047C0000020ADF81400ADF81600B0B2ADF8180036
:1047D0000020ADF81A008DF81C0005A92B48FCF745
:1047E00053FD7020ADF804000120ADF80600042050
:1047F000ADF808000220ADF80C000020ADF80E0066
:104800004FF48070ADF810000020ADF81200701E5B
:104810006843C0F30F34ADF80A4001A91B48FCF708
:10482000FFFD7020ADF804000120ADF80600002067
:10483000ADF808000220ADF80C000020ADF80E0025
:104840004FF48070ADF810000020ADF81200ADF804
:104850000A4001A90D48FCF72EFE08210B48FDF780
:10486000B5F908210948FDF7BAF901210748FDF714
:1048700067F801210548FDF76FF808B070BD00002A
:10488000000C01400008014000000020002C014005
:1048900070B5054600F079F9284600F0F8F900F007
:1048A000D6F908B1012400E0002400F0BBF900F0C3
:1048B00088F9204670BD10B5002407E0601C84B262
:1048C00042F21070844201DB012010BD5820FFF736
:1048D000DFFF0028F2D100BFF7E72DE9F0410446E1
:1048E0000D461746002629E036B1E11704EB517159
:1048F000C910A4EBC101A9B900F063F9FFF7DBFF10
:1049000000B126E000F041F9582000F0C0F900F0B5
:104910009EF900B11DE0204600F0B9F900F097F9CA
:1049200000B116E0287800F0B2F900F090F900B17B
:104930000FE06D1C601CC4B2701C86B2BE42D3DB9B
:1049400000F03FF9FFF7B7FF00B102E00120BDE83A
:10495000F08100F036F90020F9E72DE9F041074633
:104960000C461546FFF7A7FF00B130E000F00DF947
:10497000582000F08CF900F06AF900B127E03846C1
:1049800000F085F900F063F900B120E000F0FDF8D7
:10499000592000F07CF900F05AF900B117E0002628
:1049A0000DE000F0A4F92070681EB04202D100F0C2
:1049B00039F901E000F01AF9641C701C86B2AE42AD
:1049C000EFDB00BF00F0FDF80120BDE8F08100F052
:1049D00029F900F0F6F80020F7E770B5054600F079
:1049E000A9F9284600F028FA00F006FA08B10124D7
:1049F00000E0002400F0EBF900F0B8F9204670BDAB
:104A000010B5002407E0601C84B242F210708442AA
:104A100001DB012010BD5820FFF7DFFF0028F2D195
:104A200000BFF7E72DE9F04104460D461746002682
:104A300029E036B1E11704EB5171C910A4EBC101B3
:104A4000A9B900F093F9FFF7DBFF00B126E000F011
:104A500071F9582000F0F0F900F0CEF900B11DE036
:104A6000204600F0E9F900F0C7F900B116E0287817
:104A700000F0E2F900F0C0F900B10FE06D1C601C1D
:104A8000C4B2701C86B2BE42D3DB00F06FF9FFF7F0
:104A9000B7FF00B102E00120BDE8F08100F066F947
:104AA0000020F9E72DE9F04107460C461546FFF7CF
:104AB000A7FF00B130E000F03DF9582000F0BCF94C
:104AC00000F09AF900B127E0384600F0B5F900F09F
:104AD00093F900B120E000F02DF9592000F0ACF975
:104AE00000F08AF900B117E000260DE000F0D4F9DB
:104AF0002070681EB04202D100F069F901E000F0B8
:104B00004AF9641C701C86B2AE42EFDB00BF00F0B5
:104B10002DF90120BDE8F08100F059F900F026F9E7
:104B20000020F7E708B501210820FCF775FA4FF4DB
:104B30008070ADF8000014208DF8030003208DF87C
:104B400002006946E648FBF7ABFF4FF40070ADF892
:104B500000006946E248FBF7A3FF4FF40060ADF8A0
:104B600000006946DE48FBF79BFF4FF48060ADF81C
:104B700000006946DA48FBF793FF08BD002001E01A
:104B8000411CC8B21428FBDB704710B54FF400710C
:104B9000D348FCF732F84FF48071D148FCF72DF878
:104BA000FFF7ECFF4FF40071CD48FCF728F8FFF752
:104BB000E5FF4FF48071CA48FCF721F8FFF7DEFFEC
:104BC00010BD10B54FF40071C548FCF718F84FF44C
:104BD0008071C348FCF711F8FFF7D0FF4FF4007164
:104BE000BF48FCF70AF8FFF7C9FF10BD10B54FF436
:104BF0000071BB48FCF703F84FF48071B848FBF72D
:104C0000FCFFFFF7BBFF4FF48071B548FBF7F7FFE0
:104C1000FFF7B4FF4FF40071B148FBF7EEFFFFF769
:104C2000ADFF10BD10B54FF40071AD48FBF7E5FFC7
:104C30004FF48071AA48FBF7E0FFFFF79FFF4FF4A6
:104C40008071A748FBF7DBFFFFF798FF10BD10B599
:104C50004FF40071A248FBF7D0FF4FF48071A048D9
:104C6000FBF7CBFFFFF78AFF4FF400719C48FBF77F
:104C7000AAFF012801D1012400E000244FF4807133
:104C80009748FBF7BCFFFFF779FF204610BD70B5D2
:104C90000446002528E004F0800028B14FF400719C
:104CA0008F48FBF7AAFF04E04FF400718C48FBF734
:104CB000A6FFFFF763FF4FF480718948FBF79DFF64
:104CC000FFF75CFF4FF480718548FBF798FFFFF713
:104CD00055FF072D04D14FF400718148FBF78DFF7C
:104CE0006006040E681CC5B2082DD4DB70BD70B51B
:104CF000002400251AE06006040E4FF48071784805
:104D0000FBF77BFFFFF73AFF4FF400717448FBF7A6
:104D10005AFF012801D1601CC4B24FF48071704861
:104D2000FBF76DFFFFF72AFF681CC5B2082DE2DB19
:104D3000204670BD10B54FF400616948FBF75DFF78
:104D40004FF480616648FBF758FFFFF717FF4FF4F9
:104D500000616348FBF753FFFFF710FF4FF48061DA
:104D60005F48FBF74CFFFFF709FF10BD10B54FF48C
:104D700000615B48FBF743FF4FF480615848FBF745
:104D80003CFFFFF7FBFE4FF400615548FBF735FF92
:104D9000FFF7F4FE10BD10B54FF400615048FBF76B
:104DA0002EFF4FF480614E48FBF727FFFFF7E6FE2A
:104DB0004FF480614A48FBF722FFFFF7DFFE4FF414
:104DC00000614748FBF719FFFFF7D8FE10BD10B58B
:104DD0004FF400614248FBF710FF4FF480614048F8
:104DE000FBF70BFFFFF7CAFE4FF480613C48FBF76F
:104DF00006FFFFF7C3FE10BD10B54FF40061384841
:104E0000FBF7FBFE4FF480613548FBF7F6FEFFF73A
:104E1000B5FE4FF400613248FBF7D5FE012801D101
:104E2000012400E000244FF480612D48FBF7E7FEE9
:104E3000FFF7A4FE204610BD70B50446002528E00B
:104E400004F0800028B14FF400612548FBF7D5FE3F
:104E500004E04FF400612248FBF7D1FEFFF78EFE1D
:104E60004FF480611E48FBF7C8FEFFF787FE4FF442
:104E700080611B48FBF7C3FEFFF780FE072D04D1BE
:104E80004FF400611648FBF7B8FE6006040E681C7C
:104E9000C5B2082DD4DB70BD70B5002400251AE022
:104EA0006006040E4FF480610D48FBF7A6FEFFF785
:104EB00065FE4FF400610A48FBF785FE012801D129
:104EC000601CC4B24FF480610548FBF798FEFFF701
:104ED00055FE681CC5B2082DE2DB204670BD0000FF
:104EE000000C0140D2B201E000F8012B491EFBD2B8
:104EF00070470022F6E710B513460A4604461946E5
:104F0000FFF7F0FF204610BD421C10F8011B0029DE
:104F1000FBD1801A704730B505460020034600E0FB
:104F20005B1C934205D2EC5CC85C201A01D1002CBA
:104F3000F6D130BD70B50F4D00B92868002412E0DD
:104F40000A4602E09E4203D0521C1378002BF9D18E
:104F5000DAB2224305D02BB124B1002100F8011BA5
:104F600004E00446401C0678002EE9D12860204663
:104F700070BD0000D80600202DE9F04791460F468D
:104F800080460446002614F8015B2DB100F0F8F9C4
:104F90000068405DC007F6D12B2D02D02D2D18D012
:104FA000641E4A463946204600F0F7F927B13968B1
:104FB000A14201D1C7F8008071054FF002040BD562
:104FC0004042002803DD00F039FE0460A007BDE880
:104FD000F08746F48066E4E70028F8DA00F02EFE59
:104FE00004606FF00040F2E770B5064600F026FE60
:104FF000046805460A2200213046FFF7BDFF2C60F9
:1050000070BD2DE9FE4F81EA030404F0004421F055
:10501000004100944FF0000B23F0004350EA0104DC
:105020005ED052EA03045BD0C3F30A54C1F30A55BD
:105030002C44A4F2F3340194A0FB0254C1F31301F5
:1050400041F48011C3F3130343F4801301FB0244C2
:1050500000FB034E840A970A44EA815447EA8357C7
:10506000A4FB076802958D0A05FB07854FEA932C80
:1050700004FB0C542705029D4FEA065847EA1637F1
:10508000B5EB08056EEB070C870E920E47EA811709
:1050900042EA8312A7FB0201B6EB0B0164EB0004AA
:1050A0002B0D43EA0C335E1844EB1C50DA46514694
:1050B000E7FB0201C5F313044FEA0B3343EA145331
:1050C0004FEA0432019C43EA0603A4F10C04029463
:1050D000009CCDE900B400F00CFA03B0BDE8F08FFD
:1050E00000200146F9E72DE9F04D81EA030404F0C0
:1050F000004B21F0004514464FF0000A23F0004118
:1051000050EA050220D054EA01021DD0C5F30A5727
:105110000246C5F31303C1F31300C1F30A5640F46A
:10512000801543F48013A7EB0608101BD64608F23F
:10513000FD3873EB050002D308F1010801E0921875
:105140005B41B8F1000F03DA00200146BDE8F08DA5
:1051500000204FF48011064684460EE0171B73EBC7
:10516000050705D3121B63EB050306434CEA010C4C
:1051700049084FEA300092185B4150EA0107EDD12F
:1051800052EA030012D082EA040083EA05010843D0
:1051900005D0101BAB4106D20122002306E00022FD
:1051A0004FF0004302E06FF0010253101AEB0600CB
:1051B0004CEB085110EB0A0041EB0B01BDE8F04D40
:1051C00000F088B90EB5C10F80EAE0700844CA0744
:1051D000002140F233438DE80E000A460B4600F0F2
:1051E00088F903B000BD0EB540F2334102910021B1
:1051F000CDE900110A460B4600F07BF903B000BD73
:1052000070B5C1F30A5201F000450024C1F3130147
:1052100040F2FF3341F480119A4201DA002070BD60
:1052200040F233439A42A2F2334203DC524200F08E
:1052300096F800E090402C43F1D0404270BDC1F39D
:105240000A5210B5C1F3130140F2FF3341F480114B
:105250009A4201DA002010BD40F233439A42A2F292
:10526000334203DC524200F07AF810BD904010BD8A
:1052700030B5041E71F1000404DB4FF000444042DD
:1052800064EB0101141E73F1000405DB1C464FF0B2
:105290000043524263EB04038B4208BF824230BD9D
:1052A00030B5041E71F1000404DB4FF000444042AD
:1052B00064EB0101141E73F1000405DB1C464FF082
:1052C0000043524263EB0403994208BF904230BD51
:1052D00030B50B46014600202022012409E021FAC6
:1052E00002F59D4205D303FA02F5491B04FA02F5C3
:1052F0002844151EA2F10102F1DC30BD2DE9F05F5A
:105300000546002092469B46884606468146402434
:105310001BE0284641464746224600F020F8534607
:105320005A46C01A914110D311461846224600F041
:10533000FFF92D1A67EB01084F4622460120002194
:1053400000F0F6F917EB00094E41201EA4F101040C
:10535000DFDC484631462A464346BDE8F09F202A16
:1053600004DB203A21FA02F00021704721FA02F30F
:10537000D040C2F120029140084319467047000016
:1053800000487047A465000810B50446FFF7F8FF11
:105390000068005D00F0010010BD2DE9F05F82465D
:1053A0000078002715468B460AF10104B9463028DB
:1053B00001D09DB113E014F8010B0127782803D028
:1053C000582801D045B10AE00DB1102D07D10027B2
:1053D000102514F8010B02E0082500E00A2500263C
:1053E000B0460EE005FB080005FB06F1012701EBC6
:1053F00010461FFA80F8B6F5803F00D3B94614F87E
:10540000010B294600F0B5F90028EBDABBF1000FDB
:1054100005D00FB1641E00E05446CBF80040B9F14E
:10542000000F06D000F00AFC02210160C81EBDE892
:10543000F09F48EA0640FAE70FB4002300B589B0B0
:105440000CA900910B996FF00042CB601E4B0693A4
:105450001E4B07930423CDE901321D4A08920246F0
:105460006B46002000F014FA09B05DF814FB70B52B
:1054700086B006464FF0FF300091CDE901010020D3
:1054800015460C4604903246694604A8FFF7D4FF3F
:1054900003460498211825B108B10A4600E02246C7
:1054A0002A6000280DD0002B02DD0098884208D029
:1054B000081B0094CDE901043246694604A8FFF7B1
:1054C000BBFF06B070BD0000C95A0008E75A0008CB
:1054D0008953000810B5141E73F1000408DA401C4B
:1054E00041F1000192185B411A4301D120F0010003
:1054F00010BD2DE9F04D92469B4611B1B1FA81F2F3
:1055000002E0B0FA80F22032904600F011F9044631
:105510000F4640EA0A0041EA0B0153465A46084347
:1055200013D0114653EA010019D0C8F14002504689
:10553000FFF715FF05460E4650465946424600F015
:10554000F7F8084305D0012004E020463946BDE8BD
:10555000F08D0020054346EAE0762C4337430A9855
:105560006305E40AA0EB08000022FD0A44EA475460
:105570000A3002D500200146E9E70105101969410A
:10558000DDE9084500196941BDE8F04DA2E72DE9C4
:10559000FE4F804681EA0300C00F0C46009021F0C8
:1055A000004123F00045B8EB0200A94105D2404676
:1055B000214690461C460B46024623F0004010430D
:1055C00047D0270DC7F30A00C3F30A510290401ACF
:1055D000019040286BDAC3F3130040F4801B00985D
:1055E000924620B10023D2EB030A63EB0B0B019828
:1055F0005946C0F14002504600F09AF806460D4662
:1056000050465946019A00F0A2F810EB080061419B
:10561000002487EA115284EAE7731A4340D0009AC3
:1056200062B3019A012A4FEA075215DC001B61EBB5
:1056300002014FF0004202EA0752CDE90042001C8D
:1056400041F5801132462B46FFF753FF03B0BDE80A
:10565000F08F40462146F9E7001B61EB0201001C78
:1056600041F5801300185B412018A2F5001747EBA5
:10567000030140EAD570B6196D4111E06D084FEA9B
:10568000360645EAC0754FEA0752001B61EB02017E
:10569000001C41F5801149084FEA300000195141C2
:1056A00032462B4603B0BDE8F04FFFF713BF00981A
:1056B000012240000023D0EB020263EBE07300986C
:1056C00021464FEAE074B8EB000061EB0401E9E722
:1056D00083F000435BE781F0004158E7C1F30A52D1
:1056E000C1F3130140F2FF3341F480119A4202DA10
:1056F00000200146704740F233439A42A2F23342FF
:1057000002DC5242FFF72BBE00F012B8064C074DE8
:1057100006E0E06840F0010394E807009847103481
:10572000AC42F6D3FAF708FD1066000830660008B0
:10573000202A04DB203A00FA02F100207047914051
:10574000C2F1200320FA03F3194390407047202A46
:1057500006DBCB17203A41FA02F043EAE07306E099
:1057600041FA02F3D040C2F12002914008431946A9
:1057700070473A2800D2303820F02002412A01D365
:10578000A2F13700884201D34FF0FF30704700008C
:105790002DE9FF4F087881B09946FF2805D0491CB4
:1057A0002D2804D00024002308E000230BE001246E
:1057B000F9E703EB830300EB4303491C0878FF2858
:1057C000F7D104B15B4200200090147801462D2CE3
:1057D00001D02B2C04D1521C2D2C12D0002400946B
:1057E00000251678FF2E0ED00A24A0FB04C801FB6A
:1057F0000481002700FB0711521C16EB0C006941C5
:10580000EFE70124EBE7994450EA01020ED00024AF
:10581000AA4D2646DFF8A88200F076F982468B462C
:10582000B9F1000009DAC9F100071BE00198002175
:10583000C0E9001105B0BDE8F08F074612E0F80797
:1058400007D022462B4630464146FFF7DAFB064694
:10585000884622462B4610461946FFF7D2FB0446DF
:105860000D467F10002FEAD1B9F1000F32464346B2
:105870005046594602DAFFF736FC01E0FFF7C1FB5C
:10588000009A0AB181F00041019AC2E90001D1E712
:105890002DE9FF4F1F468DB0D7E901464FF0FF3885
:1058A0002E2045464FF000090B90B9696D1C0E98EB
:1058B0008847396A824688470028F6D1BAF1FF3F07
:1058C0000AD024F4D064002E11DDBAF12B0F08D0D9
:1058D000BAF12D0F0BD102E0404611B0ABE744F412
:1058E0008064B9696D1C0E9888478246761E6946A9
:1058F000600501D52D2000E02B208DF8000001F17E
:10590000010B0DF1200809E0B9696D1C0E9888475C
:1059100082460F9844F40074761E0560002E02DD66
:10592000BAF1300FF0D00B998A453ED144F0800493
:1059300006E00F99681CA9F1010944F4007408609D
:10594000B9696D1C761E0E98884782463028F0D0C3
:105950002BE00B998A4505D1200603D444F080043E
:10596000761E18E0504600F02FFA08B30DF113012F
:10597000761E44F400748B4508D2AAF130000BF86F
:10598000010B200607D5A9F1010003E0200602D48F
:1059900009F101008146A00502D50F99681C086035
:1059A000B9696D1C0E9888478246002ED1DC53E001
:1059B000002E51DDBAF1650F02D0BAF1450F4BD17F
:1059C000A00549D5B9696D1C24F44074761E0E9863
:1059D00088478246002E0CDD2B2804D0BAF12D0F0B
:1059E00007D144F48074B9696D1C0E9888478246CB
:1059F000761EE00501D52D2100E02B2108F8011BC2
:105A0000CDF82C8021E00DF12901761E44F40074BC
:105A100088450CD2AAF1300010F0FF0088F8000091
:105A200002D10B99884509D908F1010806E0E00583
:105A300001D5244801E042F20F708146B9696D1C1E
:105A40000E98884782460F980560002E04DD504668
:105A500000F0BAF90028D6D1F9690E988847FF20DE
:105A60008BF8000088F800000020069007904B4655
:105A70006A4608A906A8FFF78BFEA00502D46FF0BE
:105A800001002AE714F0240F0AD0E00714D1DDE961
:105A900006123868031D3B600068C0E900120BE085
:105AA000DDE9060100F03CF80146E00704D1386862
:105AB000021D3A600068016028460EE7000024409D
:105AC0000000F03FF1D8FFFF426842B1016811F8D1
:105AD000013B23B1521EC0E9001218467047012154
