:020000040800F2
:10000000080A002045010008393C00083B3C000874
:100010003F3C0008433C0008473C0008000000004B
:100020000000000000000000000000004B3C000841
:100030004D3C0008000000004F3C0008513C000807
:100040005F0100085F0100085F0100085F01000810
:100050005F0100085F0100085F0100085F01000800
:100060005F0100085F0100085F0100085F010008F0
:100070005F0100085F0100085F0100085F010008E0
:100080005F0100085F0100085F0100085F010008D0
:100090005F0100085F0100085F0100085F010008C0
:1000A0005F0100085F0100085F0100085F010008B0
:1000B0005F0100085F0100085F0100085F010008A0
:1000C0005F0100085F0100085F0100085F01000890
:1000D0005F010008512300085F0100085F0100086C
:1000E0005F0100085F0100085F0100085F01000870
:1000F0005F0100085F0100085F0100085F01000860
:100100005F0100085F0100085F0100085F0100084F
:100110005F0100085F0100085F0100085F0100083F
:100120005F0100085F0100085F0100085F0100082F
:10013000DFF80CD004F004FD00480047713B0008D4
:10014000080A00200648804706480047FEE7FEE709
:10015000FEE7FEE7FEE7FEE7FEE7FEE7FEE7FEE777
:1001600047020008310100080CB500200190009002
:100170006C48006840F480306A49086000BF6948F4
:10018000006800F4003000900198401C0190009835
:1001900018B90198B0F5A06FF1D16248006800F479
:1001A000003010B10120009001E000200090009884
:1001B000012843D15C48006840F010005A490860AB
:1001C0000846006820F0030008600846006840F018
:1001D0000200086053484068524948600846406839
:1001E00048600846406840F48060486008464068BF
:1001F00020F47C1048600846406840F4E8104860ED
:100200000846006840F08070086000BF45480068FC
:1002100000F000700028F9D04248406820F0030048
:10022000404948600846406840F00200486000BF0E
:100230003C48406800F00C000828F9D10CBD10B50E
:10024000FFF792FF10BD10B53648006840F001007E
:1002500034490860084640683449084031494860DC
:1002600008460068324908402E4908600846006880
:1002700020F4802008600846406820F4FE004860B2
:100280004FF41F008860FFF7DAFF4FF00060294944
:10029000086010BD10B5002100200022214B5B68D2
:1002A00003F00C0121B1042906D0082928D107E068
:1002B000214B224C236027E01F4B204C236023E07E
:1002C000184B5B6803F47010164B5B6803F48032C4
:1002D000022303EB904022B9194B4343174C236090
:1002E0000DE0104B5B6803F4003323B1144B434320
:1002F000124C236003E0104B4343104C236003E097
:100300000D4B0E4C236000BF00BF064B5B68C3F370
:1003100003130C4CE15C094B1B68CB40074C23607A
:1003200010BD000000100240002002400000FFF855
:10033000FFFFF6FE08ED00E000127A00000000204A
:1003400000093D000400002031490143314A116099
:10035000704770B5002100230F22C47804B32D4CE0
:10036000246804F4E064C4F5E064210AC1F10403E4
:10037000CA40447804FA03F1847814402143090107
:10038000254C0678A155047804F01F050124AC40E3
:1003900005786D11AD0005F1E025C5F8004109E0D3
:1003A000047804F01F050124AC401C4D067876113A
:1003B00045F8264070BD1A4A0A400243154B1B1FE0
:1003C0001A60704739B1134A121D12680243114B6B
:1003D0001B1D1A6006E00F4A121D126882430D4B66
:1003E0001B1D1A607047042808D14FF0E0210969ED
:1003F00041F004014FF0E022116107E04FF0E021ED
:10040000096921F004014FF0E022116170470000FA
:100410000000FA050CED00E000E400E080E100E0FF
:1004200080FFFF1F01460020FE4A106800F03800E0
:10043000084310607047FB49096821F00801F94A38
:10044000116011460968014311607047F549096858
:1004500021F01001F34A116011460968014311604F
:100460007047F148EF494860F04848607047EE48EF
:10047000EC494860ED4848607047EA48006940F040
:100480008000E84908617047E648006940F0800054
:10049000E449086170470420E249C96801F001019C
:1004A00009B101200EE0DF49C96801F0040109B17A
:1004B000022007E0DB49C96801F0100109B10320FF
:1004C00000E00420704700B502460423FFF7E3FF75
:1004D000034603E0FFF7DFFF0346521E012B01D165
:1004E000002AF7D102B90523184600BD30B50446ED
:1004F00004254FF43020FFF7E6FF0546042D17D101
:10050000C848006940F00200C649086108464461D5
:10051000006940F0400008614FF43020FFF7D3FF3E
:100520000546C048006941F6FD710840BD490861B3
:10053000284630BD10B504244FF43020FFF7C3FF28
:100540000446042C16D1B748006940F00400B549B0
:1005500008610846006940F0400008614FF430200F
:10056000FFF7B1FF0446AF48006941F6FB71084050
:10057000AC490861204610BD00B502460423FFF7D0
:100580008AFF034603E0FFF786FF0346521E012B56
:1005900001D1002AF7D102B90523184600BD10B5D4
:1005A00004244FF43020FFF7E7FF0446042C16D153
:1005B0009C48006940F004009A49086108460069B7
:1005C00040F0400008614FF43020FFF7D5FF0446AB
:1005D0009448006941F6FB71084092490861204641
:1005E00010BD00208F49C96901F0020109B1012045
:1005F00000E00020704730B5A5250424FFF7F1FF87
:1006000000B100254FF43020FFF75DFF0446042CB5
:100610003AD18548834988608448886008460069E3
:1006200040F0200008610846006940F04000086181
:100630004FF43020FFF747FF0446042C1BD17948C4
:10064000006941F6DF710840764908610846006993
:1006500040F01000086176480580E002FFF733FFA4
:100660000446052C10D06F48006941F6EF71084030
:100670006C49086108E0052C06D06A48006941F61B
:10068000EF71084067490861204630BD78B50646DD
:100690000C46042500200090E802FFF714FF0546F1
:1006A000042D24D15F48006940F001005D490861D4
:1006B0003480E802FFF707FF0546042D10D1B01C77
:1006C0000090200C00990880E802FFF7FCFE054628
:1006D0005448006941F6FE7108405249086106E03D
:1006E0005048006941F6FE7108404E4908612846AD
:1006F00078BD70B504460D460426F002FFF7E3FE10
:100700000646042E11D14748006940F001004549D2
:1007100008612580F002FFF7D6FE064641480069D1
:1007200041F6FE7108403F490861304670BD70B522
:1007300005460E460424E002FFF7C5FE0446042CDD
:1007400017D13948374988603848886008460069B9
:1007500040F0100008612E80E002FFF7B4FE04466E
:10076000052C06D02F48006941F6EF7108402D494D
:100770000861204670BD2DE9F04304464FF6FF7630
:100780003746B046B1460425E443E6B2C4F3072732
:10079000C4F307484FEA1469E802FFF794FE0546E0
:1007A000042D49D120481F498860204888600846A8
:1007B000006940F010000861FF2E06D01C48083088
:1007C0000680E802FFF77FFE0546042D08D1FF2FC3
:1007D00006D017480A300780E802FFF774FE054686
:1007E000042D0AD1B8F1FF0F07D011480C30A0F842
:1007F0000080E802FFF767FE0546042D0AD1B9F133
:10080000FF0F07D00A480E30A0F80090E802FFF76B
:100810005AFE0546052D0FD00248006941F6EF71DA
:10082000084007E00020024023016745AB89EFCD77
:1008300000F8FF1F664908612846BDE8F08330B51F
:10084000054604244FF43020FFF73DFE0446042CF7
:1008500041D160485E4988605F4888600846006909
:1008600040F0200008610846006940F0400008613F
:100870004FF43020FFF727FE0446042C22D15448C1
:10088000006941F6DF710840514908610846006976
:1008900040F0100008611DB100205049088002E0BE
:1008A000A5204E4908804FF43020FFF70CFE044687
:1008B000052C10D04648006941F6EF7108404449C4
:1008C000086108E0052C06D04148006941F6DF7157
:1008D00008403F490861204630BDF0B505460E4648
:1008E000174604243B483A4988603B488860E00248
:1008F000FFF7E9FD0446042C19D13548006940F0A2
:1009000010003349086147F0F80030432843334969
:10091000891C0880E002FFF7D6FD0446052C06D0AE
:100920002B48006941F6EF710840294908612046CB
:10093000F0BD2748C069800870472548006A7047A5
:1009400000202349096801F0200109B1012000E0DD
:100950000020704729B11E4A126902431C4B1A61DC
:1009600004E01B4A12698243194B1A617047014621
:100970000020012908D1164AD26902F001020AB109
:10098000012008E0002006E0114AD2680A400AB1BE
:10099000012000E0002070470D49C8607047042026
:1009A0000B49C96801F0010109B101200EE00849B5
:1009B000C96801F0040109B1022007E00449C968CF
:1009C00001F0100109B1032000E00420704700008D
:1009D0000020024023016745AB89EFCD00F8FF1FDF
:1009E00010B50446CC48844208D10121042000F00F
:1009F0002DFB0021042000F029FB46E0C74884427B
:100A000008D10121082000F021FB0021082000F07E
:100A10001DFB3AE0C248844208D10121102000F0B9
:100A200015FB0021102000F011FB2EE0BD48844290
:100A300008D10121202000F009FB0021202000F036
:100A400005FB22E0B848844208D10121402000F093
:100A5000FDFA0021402000F0F9FA16E0B348844284
:100A600008D10121802000F0F1FA0021802000F05F
:100A7000EDFA0AE0AE48844207D10121801500F06A
:100A8000E5FA0021A01500F0E1FA10BD10B5012132
:100A9000084600F0DBFA0021012000F0D7FA10BD73
:100AA0002DE9F04102460025002600200023002405
:100AB000002791F803C00CF00F0591F803C00CF06B
:100AC000100CBCF1000F03D091F802C04CEA0505F0
:100AD00091F800C0BCF1000F31D0146800202BE069
:100AE0004FF0010C0CFA00F3B1F800C00CEA030659
:100AF0009E4220D183004FF00F0C0CFA03F7BC4349
:100B000005FA03FC4CEA040491F803C0BCF1280F79
:100B100006D14FF0010C0CFA00FCC2F814C00AE038
:100B200091F803C0BCF1480F05D14FF0010C0CFA4D
:100B300000FCC2F810C0401C0828D1D31460B1F8E2
:100B400000C0BCF1FF0F34DD546800202EE000F13E
:100B5000080C4FF0010808FA0CF3B1F800C00CEAD9
:100B600003069E4221D183004FF00F0C0CFA03F7CD
:100B7000BC4305FA03FC4CEA040491F803C0BCF141
:100B8000280F05D100F1080C08FA0CF8C2F81480FF
:100B900091F803C0BCF1480F07D100F1080C4FF0E9
:100BA000010808FA0CF8C2F81080401C0828CED3BF
:100BB0005460BDE8F0814FF6FF7101800221817021
:100BC0000421C17070470246002093680B400BB1AE
:100BD000012000E0002070470146886880B270471D
:100BE00002460020D3680B400BB1012000E000203A
:100BF00070470146C86880B2704701617047416123
:100C000070470AB1016100E041617047C1607047FF
:100C10004FF480320A438261816182618269826914
:100C2000704702460020434B18684FF68073184007
:100C300040EA021008433F4B186070473E49C861C4
:100C40007047F0B50A46002300240021002500F07B
:100C50000046B6F1004F02D1364EF16901E0354E43
:100C60007168C0F3034583B200F44016B6F5401F27
:100C700008D121F070612F4E766826F070662D4FF6
:100C80007E6012E000F48016B6F5801F06D10326C0
:100C900006FA05F4A14341F0706106E0460D360105
:100CA00003FA06F6B14341F0706122B1460D3601F8
:100CB00003FA06F6314300F00046B6F1004F02D1C8
:100CC0001C4EF16101E01B4E7160F0BD30B5002299
:100CD0008B071C0F0F2303FA04F2164B08338C10FA
:100CE00053F824309343134C08348D1044F82530C6
:100CF00023468C1053F824308C07240F00FA04F498
:100D000023430C4C08348D1044F8253030BD0A497B
:100D1000DC3108607047000000080140000C014011
:100D2000001001400014014000180140001C014067
:100D3000002001400000014000002042DF48006820
:100D400040F00100DD49086008464068DC49084081
:100D5000DA49486008460068DA490840D74908601F
:100D60000846006820F4802008600846406820F4A7
:100D7000FE0048604FF41F0088607047CF49096843
:100D800021F48031CD4A11601146096821F4802197
:100D90001160B0F5803F03D0B0F5802F0ED106E092
:100DA000C649096841F48031C44A116007E0C3496B
:100DB000096841F4A021C14A116000E000BF00BFF2
:100DC000704710B501460022002300204A11012A75
:100DD00002D1BA4C236806E0022A02D1B74C236A3A
:100DE00001E0B64C636A01F01F02012494401C40EC
:100DF0000CB1012000E0002010BD38B500200090AB
:100E00000024002500BF3120FFF7DBFF05460098D6
:100E1000401C00900098B0F5A06F01D0002DF2D0DA
:100E20003120FFF7CEFF08B1012400E00024204666
:100E300038BD01460020A14A106820F0F80040EAC1
:100E4000C10010607047A04908607047024600204A
:100E50009A4B586820F47C1042EA01031843974BE0
:100E60005860704798490866704701460020934AC9
:100E7000506820F003000843506070478F48406876
:100E800000F00C007047014600208C4A506820F0AA
:100E9000F00008435060704701460020874A5068C0
:100EA00020F4E06008435060704701460020834A08
:100EB000506820F4605040EAC1005060704729B18A
:100EC0007E4A527A02437D4B5A7204E07B4A527A40
:100ED00082437A4B5A7270477B49D8310860704719
:100EE00001460020754A506820F440400843506095
:100EF00070470021714A20321170704A82F8201028
:100F0000012802D004280AD104E001216B4A2032D2
:100F1000117005E00521694A2032117000E000BF20
:100F200000BF70476949086070476449096A014316
:100F3000624A11627047654944390860704730B5AC
:100F400000210022002400235C4D6D6805F00C0197
:100F500021B1042905D0082923D105E05C4D0560A5
:100F600022E05B4D05601FE0544D6D6805F4701282
:100F7000524D6D6805F48034022505EB92421CB990
:100F8000544D554305600BE04C4D6D6805F400353C
:100F90001DB1504D5543056002E04D4D5543056070
:100FA00002E04B4D056000BF00BF444D6D6805F089
:100FB000F0010909484D6B5C0568DD4045603F4D17
:100FC0006D6805F4E061090A434D6B5C4568DD40DE
:100FD00085603A4D6D6805F46051C90A3E4D6B5C01
:100FE0004568DD40C560354D6D6805F44041890BAD
:100FF0003A4D6B5CC568B5FBF3F5056130BD29B1B1
:101000002E4A526902432D4B5A6104E02B4A526921
:1010100082432A4B5A61704729B1284A9269024398
:10102000264B9A6104E0254A92698243234B9A61D8
:10103000704729B1214AD2690243204BDA6104E0AA
:101040001E4AD26982431D4BDA61704729B11B4A9F
:10105000D2680243194BDA6004E0184AD26882432E
:10106000164BDA60704729B1144A12690243134BD8
:101070001A6104E0114A12698243104B1A617047E9
:1010800012494039086070470F49C86470470B49DE
:10109000C87170470948406A40F08070074948624B
:1010A000704701460020054A92680A400AB10120B3
:1010B00000E000207047014988727047001002402C
:1010C0000000FFF8FFFFF6FE0000424280044242AB
:1010D00000127A0000093D001400002024000020C6
:1010E00010B50446FE48844208D10121C014FFF720
:1010F000ADFF0021E014FFF7A9FFC4E0B4F1804F79
:1011000008D101210846FFF7AEFF00210120FFF7BB
:10111000AAFFB8E0F348844208D101210220FFF77A
:10112000A2FF00210220FFF79EFFACE0EE488442C0
:1011300008D101210420FFF796FF00210420FFF7CA
:1011400092FFA0E0E948844208D101210820FFF77E
:101150008AFF00210820FFF786FF94E0E4488442DC
:1011600008D101211020FFF77EFF00211020FFF79A
:101170007AFF88E0DF48844208D101212020FFF770
:1011800072FF00212020FFF76EFF7CE0DA488442E6
:1011900008D101214014FFF759FF00216014FFF727
:1011A00055FF70E0D548844209D10121C804FFF7FA
:1011B0004DFF00214FF40020FFF748FF63E0D048C7
:1011C000844209D101210805FFF740FF00214FF4B7
:1011D0008010FFF73BFF56E0CA48844209D1012145
:1011E0004805FFF733FF00214FF40010FFF72EFFF3
:1011F00049E0C548844208D101214020FFF733FF70
:1012000000214020FFF72FFF3DE0C048844208D175
:1012100001218020FFF727FF00218020FFF723FF17
:1012200031E0BB48844208D101218015FFF71BFF44
:101230000021A015FFF717FF25E0B648844209D129
:1012400001210804FFF702FF00214FF48030FFF76F
:10125000FDFE18E0B048844209D101214804FFF79F
:10126000F5FE00214FF40030FFF7F0FE0BE0AB4835
:10127000844208D101218804FFF7E8FE00214FF4E1
:101280008020FFF7E3FE10BD00220288944B9842B5
:101290000ED0994B98420BD0B0F1804F08D0914BB3
:1012A000984205D0904B984202D0904B984204D17E
:1012B0004FF68F731A404B881A438D4B984207D0D4
:1012C0008C4B984204D04FF6FF431A40CB881A4308
:1012D00002808B8883850B880385814B98420BD0D5
:1012E000854B984208D08B4B984205D08A4B984248
:1012F00002D08A4B984201D10B7A03860123838264
:10130000704770B5002400220023058C4FF6FE764E
:1013100035400584028C8388048B4FF68F752C40F2
:10132000B51E2C400D882C43751E2A400D892A437A
:101330004D882A436A4DA8420BD06F4DA84208D071
:10134000744DA84205D0744DA84202D0734DA842F6
:1013500013D14FF6F7752A404D892A434FF6FB7596
:101360002A408D882A434FF6FF652B404FF6FF55E4
:101370002B408D892B43CD892B4383800483CD88DB
:101380008586028470BD70B5002400220023058C80
:101390004FF6EF7635400584028C8388048B48F63F
:1013A000FF752C404FF6FF452C400D884FF6FF7619
:1013B00006EA05252C434FF6DF752A400D8906EA1B
:1013C00005152A434D8806EA05152A43444DA842CF
:1013D00002D0494DA8421DD14FF67F752A404D8954
:1013E0004FF6FF7606EA05152A434FF6BF752A40E9
:1013F0008D8806EA05152A434FF6FF352B404FF23C
:10140000FF752B408D8906EA85052B43CD8906EAB9
:1014100085052B4383800483CD880587028470BDB6
:1014200070B5002400220023058C4FF6FF6635407E
:101430000584028C8388848B4FF68F752C404FF681
:10144000FC752C400D882C434FF6FF552A400D8922
:101450004FF6FF7606EA05252A434D8806EA05255C
:101460002A431F4DA84202D0234DA8421DD14FF25E
:10147000FF752A404D894FF6FF7606EA05252A4377
:101480004FF6FF352A408D8806EA05252A434EF699
:10149000FF752B404DF6FF752B408D8906EA05152B
:1014A0002B43CD8906EA05152B4383808483CD88A1
:1014B0008587028470BD70B5002200230024058C4E
:1014C0004EF6FF7635400584038C8488828B48F67F
:1014D000FF752A404FF6FF452A400D8820E00000A6
:1014E000002C01400004004000080040000C0040B7
:1014F000001000400014004000340140004C014046
:10150000005001400054014000180040001C004001
:1015100000200040004001400044014000480140DC
:101520004FF6FF7606EA05252A434DF6FF752B4058
:101530000D8906EA05352B434D8806EA05352B4310
:10154000FA4DA84202D0FA4DA84208D14BF6FF75D9
:101550002C408D894FF6FF7606EA85152C43848052
:101560008283CD88A0F84050038470BD828B4FF2F7
:10157000FF331A408283828B4FF6FF7303EA012305
:101580001A4382837047F0B50C46154600220021AD
:101590000026078C4EF6FF7C07EA0C070784828B37
:1015A000018C4FF6FF7707EA043640F6FF473A40D2
:1015B0004FF6FF7707EA05273A434FF6FF7707EA2A
:1015C00003373A43D94FB8420ED0D94FB8420BD067
:1015D000B0F1804F08D0D74FB84205D0D64FB842AF
:1015E00002D0D64FB84206D14DF6FF77394046F4C7
:1015F0008057394305E047F6FF57394044F4805798
:10160000394382830184F0BD828B4FF6F3731A4015
:101610008283828B0A4382837047F0B50C4615465D
:10162000002200210026078C4FF6FF6C07EA0C070A
:101630000784828B018C4FF6FF7707EA04264FF66A
:101640000C773A404FF6FF7707EA03172F433A43E8
:10165000B64FB8420ED0B64FB8420BD0B0F1804F63
:1016600008D0B44FB84205D0B34FB84202D0B34F00
:10167000B84206D14FF6FF57394046F480773943D8
:1016800005E04FF2FF57394044F4807739438283B5
:101690000184F0BD028B4FF2FF331A400283028BAC
:1016A0004FF6FF7303EA01231A4302837047F0B534
:1016B0000C461546002200210026078C4FF6EF7CD1
:1016C00007EA0C070784028B018C4FF6FF7707EAC5
:1016D000041640F6FF473A404FF6FF7707EA033714
:1016E0003A434FF6FF7707EA05273A438F4FB84250
:1016F0000ED08F4FB8420BD0B0F1804F08D08D4F35
:10170000B84205D08C4FB84202D08C4FB84206D1B7
:101710004FF6DF77394046F01007394305E04FF6C2
:101720005F77394044F01007394302830184F0BDEC
:10173000028B4FF6F3731A400283028B0A43028333
:101740007047F0B50C46154600220021068C4FF676
:10175000FE773E400684028B018C4FF60C763240B9
:101760007E1C06EA03162E433243704EB0420ED062
:101770006F4EB0420BD0B0F1804F08D06D4EB042EA
:1017800005D06D4EB04202D06C4EB04206D14FF63D
:10179000FD76314044F00106314305E04FF6F57621
:1017A000314044F00106314302830184F0BD70B53D
:1017B00005460C465D4885420ED05D4885420BD0FB
:1017C000B5F1804F08D05B48854205D05A48854224
:1017D00002D05A48854200D100E000BF208850B9AD
:1017E0002389A28861882846FFF7ABFFE188284655
:1017F000FFF79EFF25E0208804280AD12389A288CC
:1018000061882846FFF753FFE1882846FFF742FF2B
:1018100017E0208808280AD12389A28861882846F1
:10182000FFF7FBFEE1882846FFF7EEFE09E023897B
:10183000A28861882846FFF7A6FEE1882846FFF7C0
:1018400095FE70BD2DE9F04105460C4600260127A6
:10185000608808B9022600E00026A088012801D18E
:10186000022700E001272088A0B92389A288618887
:101870002846FFF766FFE1882846FFF759FF2389CE
:101880003A4631462846FFF712FFE1882846FFF71F
:1018900001FF13E02389A28861882846FFF707FF2C
:1018A000E1882846FFF7F6FE23893A463146284666
:1018B000FFF747FFE1882846FFF73AFFBDE8F081D0
:1018C0000A884B881A438B881A43CB881A430B89A2
:1018D0001A434B891A438B891A43A0F84420704756
:1018E0004FF6FF71818000210180C180418001722B
:1018F00070470021018041808180C1800181418148
:101900008181C18170470021018041800121818056
:101910000021C180018170470021018041808180C8
:10192000C18001814181818170470000002C01400C
:10193000003401400004004000080040000C00405A
:1019400021B1028842F00102028004E002884FF6D1
:10195000FE731A400280704731B1B0F8442042F45F
:101960000042A0F8442005E0B0F84420C2F30E0283
:10197000A0F8442070471AB183890B43838102E0A9
:1019800083898B43838170478182704741EA0203D8
:10199000A0F8483070471AB183890B43838102E075
:1019A00083898B438381704701894FF6F872114018
:1019B000018170470A46002101894FF68F73194053
:1019C00011430181704730B504460D462946204633
:1019D000FFF7F0FF208940F00700208130BD2DE99E
:1019E000F04104460D4616461F46602D06D13B4683
:1019F000012231462046FFF75AFE05E03B46012210
:101A000031462046FFF79DFE29462046FFF7D2FFCC
:101A1000208940F007002081BDE8F08130B50C46F8
:101A200000210189C9B24FF6FF7505EA0325154368
:101A300025432943018130BD2DE9F04105460E467D
:101A400017469846002443463A4631462846FFF753
:101A5000E5FF2C894FF6F870044044F007044FF678
:101A60008F70044044F070042C81BDE8F081F0B523
:101A700004460D4616461F463B463246294620463A
:101A8000FFF7CCFF208940F480402081F0BD018524
:101A9000828270470A46002101884FF68F731940F1
:101AA000114301807047F0B50C4615461E460021D3
:101AB000002200230189028B038C4FF6F87739400E
:101AC00021434FF6FC473A4040F201173A434FF6A4
:101AD000DD773B404FF6FF7707EA06172F433B437E
:101AE000018102830384F0BD0A460021018B4FF679
:101AF0008F7319401143018370470A460021018BFF
:101B000048F6FF7319404FF6FF7303EA02231943A7
:101B1000018370470A460021818B4FF68F7319406D
:101B20001143818370470A460021818B48F6FF7379
:101B300019404FF6FF7303EA02231943818370476C
:101B400021B1028842F08002028004E002884FF650
:101B50007F731A400280704721B1828842F00402EC
:101B6000828004E082884FF6FB731A4082807047BF
:101B700021B1828842F00802828004E082884FF618
:101B8000F7731A408280704721B1828842F00102C7
:101B9000828004E082884FF6FE731A40828070478C
:101BA0000A460021018B4FF6F77319401143018358
:101BB00070470A460021018B4FF2FF7319404FF620
:101BC000FF7303EA02231943018370470A46002189
:101BD000818B4FF6F77319401143818370470A4692
:101BE0000021818B4FF2FF7319404FF6FF7303EA18
:101BF00002231943818370470A460021018B4FF667
:101C0000FB7319401143018370470A460021018B81
:101C10004FF6FF3319404FF6FF7303EA02231943CF
:101C2000018370470A460021818B4FF6FB731940F0
:101C30001143818370470A460021818B4FF6FF33A1
:101C400019404FF6FF7303EA02231943818370475B
:101C50000A460021018B4FF67F731940114301831F
:101C600070470A460021018BC1F30E014FF6FF7346
:101C700003EA02231943018370470A460021818B3E
:101C80004FF67F7319401143818370470A46002144
:101C9000818BC1F30E014FF6FF7303EA0223194350
:101CA000818370470A460021018C4FF6FD7319406D
:101CB0001143018470470A460021018C4FF6F773E7
:101CC00019401143018470470A460021018C4FF6E8
:101CD000DF7319404FF6FF7303EA021319430184BF
:101CE00070470A460021018C4FF67F7319404FF66A
:101CF000FF7303EA02131943018470470A46002167
:101D0000018C4FF6FF5319404FF6FF7303EA02238D
:101D10001943018470470A460021018C4FF2FF737A
:101D200019404FF6FF7303EA0223194301847047F9
:101D30000A460021018C4DF6FF7319404FF6FF73E0
:101D400003EA023319430184704730B500230124AC
:101D50008C40A3B2048C9C430484048C02FA01F5E9
:101D6000ADB22C43048430BD30B5002304248C4034
:101D7000A3B2048C9C430484048C02FA01F5ADB236
:101D80002C43048430BD70B503460020002418465F
:101D9000183001258D40ACB21D8CA5431D8409B1BE
:101DA000082909D100EB6100056825F07005056080
:101DB0000568154305600EE00D1FC5F34E05284468
:101DC000056825F4E045056005684FF6FF7606EAEC
:101DD00002263543056070BD21B1028842F002023F
:101DE000028004E002884FF6FD731A4002807047BB
:101DF00021B1028842F00402028004E002884FF61A
:101E0000FB731A400280704721B1828842F0800241
:101E1000828004E082884FF67F731A408280704788
:101E200002884FF6F7731A40028002880A43028044
:101E3000704782884FF68F731A40828082880A43E7
:101E40008280704702894FF6F8731A400281028936
:101E50000A430281704702894FF67F731A4002815C
:101E600002890A43028170478184704781857047E7
:101E7000818670470187704781877047A0F84010BE
:101E8000704702884FF6FF431A40028002880A43D7
:101E9000028070470146888E70470146088F704760
:101EA0000146888F70470146B1F8400070470146EF
:101EB000888C70470146088D704702460020138ABF
:101EC0000B400BB1012000E000207047CA430282A2
:101ED000704730B50246002000230024158A05EA29
:101EE0000103958905EA010413B10CB1012000E05A
:101EF000002030BDCA4302827047000010B504467E
:101F0000FB48844209D101218803FFF79FF8002193
:101F10004FF48040FFF79AF832E0F648844209D146
:101F200001214804FFF79FF800214FF40030FFF72C
:101F30009AF825E0F048844209D101218804FFF78E
:101F400092F800214FF48020FFF78DF818E0EB485D
:101F5000844209D10121C804FFF785F800214FF41C
:101F60000020FFF780F80BE0E548844208D101210A
:101F70000805FFF778F800214FF48010FFF773F899
:101F800010BD2DE9F04786B005460E460024A24656
:101F900000BFA1460027B08900B100BF2F462C8AA0
:101FA0004CF6FF700440F08804432C82AC894EF656
:101FB000F3100440B0883189084371890843044311
:101FC000AC81AC8A4FF6FF400440B0890443AC8238
:101FD00001A8FEF7B4FFC648874202D1DDF810A081
:101FE00001E0DDF80CA0A88900F4004040B10AEB44
:101FF000CA0000EB0A1031684900B0FBF1F807E0B5
:102000000AEBCA0000EB0A1031688900B0FBF1F856
:102010006420B8FBF0F004012009642101FB108961
:10202000A88900F4004040B1322000EBC900B0FBA9
:10203000F1F000F00700044308E0322000EB091043
:102040006421B0FBF1F000F00F0004432C8106B0D6
:10205000BDE8F0874FF41651016000218180C180F6
:1020600001810C21418100218181704710B5024618
:102070000020108A4FF2FF0318400B884C8823433E
:102080008C882343CC8823431843108210BD002141
:10209000018041808180C180704721B1828942F4F2
:1020A0000052828104E082894DF6FF731A408281DA
:1020B0007047F0B50346002400260025002040F6B6
:1020C0006A17B94200D100BF1846C1F3421401F0AB
:1020D0001F06012707FA06F5012C01D10C3004E098
:1020E000022C01D1103000E014301AB107682F43E0
:1020F000076002E00768AF430760F0BD1AB1838A4A
:102100000B43838202E0838A8B4383827047028A77
:102110004FF6F0731A400282028A0A430282704725
:1021200082894FF2FF731A40828182890A43828139
:10213000704721B1828942F00202828104E08289E3
:102140004FF6FD731A4082817047028A4FF6DF73A3
:102150001A400282028A0A430282704721B1028A2F
:1021600042F48042028204E0028A4BF6FF731A4076
:1021700002827047C1F30802828070470146888856
:10218000C0F308007047818941F0010181817047E7
:10219000028BD2B20283028B42EA01220283704791
:1021A000028B02F47F420283028B0A430283704750
:1021B00021B1828A42F02002828204E0828A4FF6B4
:1021C000DF731A408282704721B1828A42F0100286
:1021D000828204E0828A4FF6EF731A40828270474F
:1021E00021B1828A42F00802828204E0828A4FF69C
:1021F000F7731A408282704721B1828942F400420B
:10220000828103E08289C2F30E028281704721B18C
:10221000828A42F40062828204E0828A4FF2FF7373
:102220001A4082827047828A4FF6FB731A4082827C
:10223000828A0A438282704721B1828A42F0020276
:10224000828204E0828A4FF6FD731A4082827047D0
:1022500002460020B1F5007F00D100BF13880B407B
:102260000BB1012000E00020704701F40072B2F5CC
:10227000007F00D100BFCA430280704770B502469C
:10228000002400230025002040F66A16B14200D148
:1022900000BFC1F3421501F01F03012606FA03F344
:1022A000012D02D19689334006E0022D02D1168A13
:1022B000334001E0968A33400C12012606FA04F4FA
:1022C0001688344013B10CB1012000E0002070BD2D
:1022D00010B50022002340F66A14A14200D100BFCD
:1022E0000A1201249440A3B2DC43048010BD000014
:1022F000003801400044004000480040004C0040CD
:102300000050004000BFFE49098801F0400100294B
:10231000F9D0FB49091D0880704710B5024600231B
:1023200004E019465B1C505CFFF7ECFFD05C002812
:10233000F7D110BD00B5F3A0FFF7EFFF00BD10B55A
:1023400004462046FFF7E9FFEEA0FFF7E6FF10BDC9
:1023500010B540F22551EA48FFF790FF002828D039
:10236000E748FFF70BFFC4B20D2C0BD10020E64964
:10237000E64A128888540120E54908600020E349B4
:10238000088016E00A2C14D0E0480088802808D184
:10239000FFF7D0FFDFA0FFF7D2FF0020DB49088066
:1023A00010BDDA4801880088401CD84A1080D64801
:1023B000445400BFF4E7002108E0002201E0531C70
:1023C0009AB2B2F5006FFADB4B1C99B28142F4DB92
:1023D000704770B50024CC49D4A002F039FE142116
:1023E000D54801F0A6FFD5A1C74801F0BDFF0546BD
:1023F0000AE0D14840F82450641CD1480460CFA1C1
:10240000002001F0B1FF0546002DF2D1CA49042297
:102410000868CCA101F098FF18B90120CB490860E9
:10242000F4E0C54904220868C9A101F08DFF18B97C
:102430000220C6490860E9E0BF4904220868C6A135
:1024400001F082FF18B90320C0490860DEE0BA49F4
:1024500007220868C2A101F077FF18B90420BB4920
:102460000860D3E0B44908220868BFA101F06CFFFE
:1024700018B90520B5490860C8E0AF490F220868BF
:10248000BCA101F061FF18B90620B0490860BDE0A9
:10249000A9490B220868BBA101F056FF18B9072013
:1024A000AA490860B2E0A44908220868B8A101F06E
:1024B0004BFF18B90820A5490860A7E09E490D22E6
:1024C0000868B6A101F040FF18B90D209F490860C7
:1024D0009CE0994908220868B4A101F035FF18B9B9
:1024E0000C209A49086091E093490D220868B2A136
:1024F00001F02AFF18B909209449086086E08E4946
:102500000E220868B0A101F01FFF18B90A208F49F8
:1025100008607BE088490E220868AFA101F014FF33
:1025200018B90B208949086070E0834906220868C1
:10253000ADA101F009FF18B90E208449086065E0DB
:102540007D4906220868AAA101F0FEFE18B91020F4
:102550007E4908605AE0784905220868A6A101F082
:10256000F3FE18B91220794908604FE0724906223B
:102570000868A3A101F0E8FE18B90F2073490860AC
:1025800044E06D49062208689FA101F0DDFE18B9FC
:1025900011206E49086039E06749052208689CA14E
:1025A00001F0D2FE18B91320684908602EE0624994
:1025B0000822086898A101F0C7FE18B914206349E1
:1025C000086023E05C490B22086896A101F0BCFE7C
:1025D00018B915205D49086018E057490A220868B3
:1025E00093A101F0B1FE18B91620584908600DE01A
:1025F00051490A22086891A101F0A6FE18B91720D6
:102600005249086002E0FF205049086070BD7CB567
:102610000024002541E08C4810F81400FF2807D161
:10262000894800EB44004078FF2835D1012533E08C
:10263000854810F814008DF80400834800EB44002E
:1026400040788DF805009DF8040001220DF1050188
:1026500001F0EDFC4FF47A70FFF7ADFE9DF8040039
:102660000122694601F023FD9DF805009DF8001048
:10267000884207D19DF804109DF8002073A002F055
:10268000E7FC09E09DF804109DF800206FA002F01F
:10269000DFFC4FF0FF307CBD641C002DBBD0002060
:1026A000F9E77CB5002400250020009072A002F01C
:1026B000CFFC76A002F0CCFCFAE0634810F81400DE
:1026C000FF2807D1604800EB44004078FF2800D184
:1026D0000125ECE05C4810F814008DF804005A481D
:1026E00000EB440040788DF805009DF804000122BD
:1026F000694601F0DCFC9DF804109DF80020D3E051
:10270000003801400D0A000088050020AC000020C0
:10271000A80000205B4552524F525D636F6D6D61A2
:102720006E6420746F6F206C6F6E6700434D443A87
:1027300025730D0A00000000F404002020000000B2
:10274000D004002048454C5000000000CC0400207C
:10275000494E464F0000000044554D500000000017
:102760004932435245414400493243575249544546
:1027700000000000424C5345544252494748544ED1
:1027800045535300424C534554524154494F530012
:10279000424C5357495443480000000053455432BB
:1027A000444354524C4D4F4445000000424C534565
:1027B0005450574D00000000424C53455454494E6C
:1027C0004753474554000000424C5345543244435C
:1027D000555252454E540000424C534554334443E5
:1027E000555252454E540000504F4B453332000075
:1027F000504F4B4531360000504F4B4538000000DC
:102800005045454B333200005045454B31360000B2
:102810005045454B380000004750494F5245414410
:10282000000000004750494F5245414450494E0076
:102830004750494F53455450494E00004750494F67
:10284000434C5250494E0000D4040020616464722D
:102850006573733A307825782C2076616C75653A0B
:10286000307825782C736574207375636365737392
:1028700066756C6C790D0A0044756D7020383535BD
:1028800036207265673A0D0A0000000061646472C8
:102890006573732020202020202020202076616C6A
:1028A00075650D0A00000000F6A002F0D1FB641C63
:1028B000002D3FF402AF7CBDF649F74A086890420C
:1028C00001D1002070470120FCE72DE9F041FDF720
:1028D000C8FDF048FDF70AFEEE4CEF4F39462046A2
:1028E000FDF7D4FE241DED4D002606E020462968A4
:1028F000FDF7CCFE241D2D1D761C202EF6DBFDF7EA
:10290000BCFDBDE8F0812DE9F04F87B00446002002
:102910000590E348006802281AD1E149886801F06F
:102920007CFE07460022DF4B01F0F7FD05460E4610
:10293000204601F072FE2A463346CDE9000101F03F
:102940007AFDCDE9020101F094FEC0B2059019E0D4
:10295000D349C86801F061FE0022D24BCDE90001E5
:1029600001F0DBFD05460E46204601F056FE2A46E4
:102970003346CDE9020101F05EFD074601F079FE24
:10298000C0B205904FF00009C5480068022819D16F
:10299000C349086901F041FE0022C24BCDE90001A4
:1029A00001F0BBFD05460E46204601F036FE074607
:1029B0002A46334601F03FFDCDE9020101F03AFE1F
:1029C000814618E0B649486901F027FE0022B54B60
:1029D000CDE9000101F0A1FD05460E46204601F0BB
:1029E0001CFE07462A46334601F025FDCDE90201CB
:1029F00001F020FE8146484601F0FEFD0022AA4B70
:102A0000CDE9020101F089FD05460022A74B01F046
:102A100012FD074601F00EFE8246002004909DF84C
:102A20001410A3A002F014FB9D488069E0B90122B4
:102A300005A9002001F0FBFA012204A9002001F001
:102A400036FB9DF81000844203D19EA0FFF777FC6F
:102A500002E0A2A0FFF773FC4FF4006001F00FFA50
:102A6000504601F059FA19E09DF8140001F0D5FD27
:102A700000228D4BCDE9020101F04FFD07460022F7
:102A80009A4B01F0D8FC054601F0D4FD8346584628
:102A900001F0F5F9504601F03FFA00BF07B0BDE87C
:102AA000F08F7C499249002005E051F820207C4BB2
:102AB00043F82020401C0628F7DB704770B5FFF76D
:102AC000FBFEC0B1FFF701FFFDF7CBFC8848FDF727
:102AD0000DFD874C724D002606E020462968FDF763
:102AE000D5FD241D2D1D761C072EF6DB6C490879BB
:102AF000FFF709FF05E0FFF7D4FF69490879FFF701
:102B000002FF70BD10B5002401F0C9F801F04DFAC4
:102B100078A002F09DFA7AA17F4801F02AF901F02D
:102B200007FB4FF4FA60FFF746FC582001F05AFA11
:102B300018B97AA002F08CFA02E07FA002F088FABD
:102B40004FF4FA60FFF737FCFFF761FD044614B15C
:102B500081A002F07DFAFFF7B1FF10BD7CB585487A
:102B60000068022805D084A0FFF7E9FB4FF0FF3092
:102B70007CBD00200190009087491022486801A97F
:102B800001F014FC0446FF2C04DC002C02DB01984D
:102B9000007828B181A0FFF7D2FB4FF0FF30E7E7C4
:102BA000E5B201226946284601F081FAAFF22430ED
:102BB00002F04EFA9DF80020294632A002F048FAB1
:102BC0000020D5E7FEB56B480068032805D06AA051
:102BD000FFF7B5FB4FF0FF30FEBD002002906E49BD
:102BE0001022486802A901F0E1FB0446FF2C04DC36
:102BF000002C02DB0298007828B173A0FFF79FFB3E
:102C00004FF0FF30E8E764491022886802A901F01C
:102C1000CDFB0546FF2D04DC002D02DB0298007879
:102C200028B174A0FFF78BFB4FF0FF30D4E70020F2
:102C30000190E6B2E8B2009001226946304601F008
:102C4000F6F9012201A9304601F031FA9DF80000A1
:102C50009DF8041088420DD171A002F0F9F9AFF28D
:102C6000D43002F0F5F99DF80420314605A002F0B9
:102C7000EFF905E072A002F0EBF94FF0FF30ABE79F
:102C80000020A9E73078252D3135783078252D358D
:102C9000780D0A0000CC00085C5B5A002800002078
:102CA000B00400200000594000E06F400000904058
:102CB0000D0A6272696768746E6573733A25640DF4
:102CC0000A000000326420736574207375636365C5
:102CD000737366756C6C7921000000003264207398
:102CE0006574206661696C65642100000000B04075
:102CF00000C80008696E69742E2E2E0D0A000000AF
:102D000070776D206973206F6E2C20663D313735EA
:102D10003730687A0D0A0000003801403835353602
:102D200020686173206265656E20646574656374F4
:102D300065642E0D0A000000383535362068617351
:102D4000206E6F74206265656E20646574656374BF
:102D500065640D0A000000005B4552524F525D3819
:102D600035353620696E6974206661696C2E0D0AEE
:102D700000000000D00400205B4552524F525D77A6
:102D8000726F6E6720666F6D6172742C736565205B
:102D900048454C5000000000F40400205B455252AE
:102DA0004F525D616464726573732063616E206F5E
:102DB0006E6C792062652061203820626974204839
:102DC0004558206E756D21005B4552524F525D6132
:102DD0006464726573732063616E206F6E6C79201A
:102DE000626520612075696E743820484558206EF0
:102DF000756D21005B4552524F525D76616C756571
:102E00002063616E206F6E6C792062652061207591
:102E1000696E743820484558206E756D2100000099
:102E20007772697465207375636365737366756C17
:102E30006C792C726573756C743A0D0A0000000091
:102E400054686520726573756C74206973206E6FA9
:102E50007420636F72726563742100002DE9F04184
:102E6000FDF7FFFAFB48FDF741FBFA4DFA4E00244F
:102E700000BF06E028463168FDF708FC2D1D361D11
:102E8000641C062CF6DBF34F002408E0F24850F8EF
:102E9000240057F82410884200D002E0641C062C5D
:102EA000F4DB00BF062C02D1ECA002F0D1F8FDF754
:102EB000E4FABDE8F08110B5F0480068022804D0BB
:102EC000AFF24C10FFF73BFA10BDED49486801F036
:102ED000A5FA0446022C05D0032C03D0E9A0FFF785
:102EE0002EFAF1E7DC480460FFF7B8FFDA49087909
:102EF000FFF709FD00BFE7E72DE9FC47DF48006861
:102F0000042805D0AFF29010FFF719FABDE8FC874E
:102F1000DB49486801F082FA824600200090D849D7
:102F2000886801A902F009FD06460F46D449C86821
:102F3000694602F002FD04460D46BAF1020F02D0C6
:102F4000BAF1030F05D10198007810B90098007804
:102F500018B1D3A0FFF7F3F9D8E70022D64B3046DB
:102F6000394601F0B7FB14D30022134630463946E8
:102F700001F098FB0DD30022D04B2046294601F0EA
:102F8000A9FB06D3002213462046294601F08AFBFE
:102F900003D2CBA0FFF7D3F9B8E7BAF1020F16D1ED
:102FA0000022D44B3046394601F045FA804601F004
:102FB00041FBA94988600022CE4B2046294601F0FA
:102FC0003AFA804601F036FBA349C86015E00022BA
:102FD000C84B3046394601F02EFA804601F02AFBF4
:102FE0009D4908610022C34B2046294601F023FA7F
:102FF000804601F01FFB98494861FFF72FFF964973
:103000000879FFF780FC00BF80E730B5A1B0BA4D6A
:103010002C46802101A801F08CF9002004E02178E1
:1030200001AA1154641C401C8028F8DB01A9B3A03C
:1030300002F00EF821B030BD2DE9F04F8DB08F4871
:103040000068012806D0AFF2D020FFF778F90DB064
:10305000BDE8F08FFFF725FD7F4840680B907E4864
:1030600000680A907C49886801F0D7FA0022A14BD9
:10307000CDE9040101F051FACDE908017649C868AB
:1030800001F0CBFA00229B4BCDE9040101F045FA97
:1030900082468B467049086901F0BFFA0022954BC1
:1030A000CDE9040101F039FACDE906016A49486920
:1030B00001F0B3FA00228F4BCDE9040101F02DFAA3
:1030C00004460D460A98022815D10B9801F094FA8F
:1030D000CDE90001DDE9082301F01FFA00228C4B45
:1030E000CDE9020101F019FA00228A4BCDE9040171
:1030F00001F0A1F914E00B9801F07EFACDE900018E
:10310000DDE9062301F009FA0022814BCDE9020135
:1031100001F003FA00227F4BCDE9040101F08BF9A5
:1031200006460F460A98022815D10B9801F064FA5A
:1031300052465B46CDE9000101F0EFF90022744BE5
:10314000CDE9020101F0E9F90022734BCDE9040158
:1031500001F071F914E00B9801F04EFA22462B466B
:10316000CDE9000101F0D9F90022694BCDE9020156
:1031700001F0D3F90022684BCDE9040101F05BF9BD
:103180008046894665A001F063FF3348806920B915
:103190006DA00B9901F05CFF03E075A00B9901F0A5
:1031A00057FF7DA001F054FF8AA001F051FF0A985B
:1031B00002280ED178A001F04BFFCDE900AB02A9A7
:1031C000A1E8C003022192A0DDE9082301F040FF3D
:1031D0000AE071A001F03CFF8DE8F00303218CA010
:1031E000DDE9062301F034FF94A001F031FF00BFB8
:1031F0002DE72DE9F04F85B020480068022806D061
:10320000AFF28C40FFF79BF805B0BDE8F08F0020CF
:1032100004901B49486804A902F08FFB04460D4640
:103220000498007818B195A0FFF789F8ECE7002220
:10323000384B2046294601F04DFA06D300221346AA
:103240002046294601F02EFA03D290A0FFF777F826
:10325000DAE72DE100C80008B00400200D0A57721B
:10326000697465204461746120746F20666C6173B9
:103270006820737563636573732E0000D0040020AB
:10328000F40400205B4552524F525D6D6F6465201F
:103290006D7573742062652032206F7220332100B7
:1032A0006D6F6465206F7220726174696F20696C44
:1032B0006C6567616C0000000000F03F0000084092
:1032C000726174696F206572726F722C72617469B9
:1032D0006F5F32643A302E30307E312E3030202C09
:1032E000726174696F5F33643A302E30307E332EF2
:1032F000303000000000594004CC0008424F4152D9
:103300004420494E464F3A0D0A25730D0A0000002D
:1033100000E06F400000394000002C4044697370A9
:103320006C61792063757272656E74207379737441
:10333000656D20636F6E66696775726174696F6E23
:10334000733A0D0A000000006272696768746E6566
:1033500073733A2025640D0A326420636F6E7472B1
:103360006F6C206D6F64653A206932630D0A00004E
:103370006272696768746E6573733A2025640D0A1A
:10338000326420636F6E74726F6C206D6F64653A87
:103390002070776D0D0A00002B2D2D2D2D2D2D2B3E
:1033A0002D2D2D2D2D2D2D2D2D2D2B2D2D2D2D2D4F
:1033B0002D2D2D2D2D2B2D2D2D2D2D2D2D2D2D2D3F
:1033C0002D2D2B2D2D2D2D2D2D2D2D2D2D2D2D2B31
:1033D0000D0A00007C206D6F6465207C2032445F04
:1033E000726174696F207C2033445F726174696F0D
:1033F000207C2032445F63757272656E74207C207D
:1034000033445F63757272656E74207C0D0A000030
:103410007C252D36647C252D31302E32667C252D81
:1034200031302E32667C252D31322E32667C252DB0
:1034300031322E32667C0D0A000000002B2D2D2D1E
:103440002D2D2D2B2D2D2D2D2D2D2D2D2D2D2B2DB0
:103450002D2D2D2D2D2D2D2D2D2B2D2D2D2D2D2D9E
:103460002D2D2D2D2D2D2B2D2D2D2D2D2D2D2D2D8E
:103470002D2D2D2B0D0A0D0A0000000063757272B0
:10348000656E7420696C6C6567616C00637572723F
:10349000656E74206572726F722C63757272656EE0
:1034A000743A302E30307E32352E3030000000003D
:1034B0000022FA4B2046294601F02FF880460022D0
:1034C000F74B00F0B8FF064601F0B4F88246002042
:1034D0000390F4488069D8B90AF0FF0002900122F5
:1034E00002A9002000F0A3FD012203A9002000F0A2
:1034F000DEFD9DF80C00824505D19DF80C10EA48D0
:1035000001F0A6FD03E0AFF62C00FEF718FF24E063
:103510000022E64B2046294600F0FFFF80460022AD
:10352000DF4B00F088FF064601F084F883465846DA
:1035300001F062F80022DA4BCDE9000100F0EDFF66
:1035400006460022DA4B00F076FF804601F072F862
:103550000290029800F093FC00BF00BF54E62DE9F2
:10356000FE4FD4480068022805D0AFF2F470FEF791
:10357000E6FEBDE8FE8F00200290CF49486802A910
:1035800002F0DBF904460D460298007818B1AFF25C
:103590001410FEF7D4FE0022C44B2046294601F049
:1035A00099F806D3002213462046294601F07AF8FE
:1035B00003D2AFF22810FEF7C2FE0022BB4B20461A
:1035C000294600F0AAFF07460022B54B00F033FF62
:1035D000824601F02FF80646304601F00DF8074606
:1035E0000022AF4B00F099FF82460022B34B00F05F
:1035F00022FFCDE9000101F01DF88146484600F0A8
:103600008BFC00BFB5E77CB5AA480068022804D04F
:10361000AFF69C00FEF793FE7CBDA749486800F01A
:10362000FDFE04462CB1012C03D0A5A001F010FD35
:10363000F2E700200190012500909A488461FFF78D
:103640000DFCACB90520009001226946284600F027
:10365000EEFC012201A9284600F029FD9DF800009A
:103660009DF80410884218D19FA001F0F1FC14E0ED
:103670000120009001226946284600F0D8FC012272
:1036800001A9284600F013FD9DF800009DF80410E4
:10369000884202D19BA001F0DBFC00BFBCE72DE912
:1036A000F04184480068022805D0AFF63410FEF7D8
:1036B00046FEBDE8F0818049486800F0AFFE044650
:1036C0007D49886800F0AAFE0546022C05D0032C2F
:1036D00003D093A0FEF733FEEBE7284600F08CFF03
:1036E00006460022134600F0DDFF02D3B5F5805FE9
:1036F00003DD8FA0FEF723FEDBE7022C03D1284673
:1037000000F0BDFB02E0284600F006FC00BFD0E759
:10371000704770477047704710B500208D490860AA
:103720006449086080218C4800F003FE10BD7CB520
:103730008848006818287DD2DFE800F0AF0C181325
:103740001D27364D3152575C61666BAE91ADACAB07
:10375000AAA9A8A7814982A001F07AFCFFF7DCFFA3
:1037600004E2FEF79EFFFFF7D7FFFFE1FFF74DFCF6
:10377000FFF7D2FFFAE1FFF7F1F9044614B17FA099
:1037800001F066FCFFF7C8FFF0E1FFF71BFA044603
:1037900014B180A001F05CFCFFF7BEFFE6E1FFF78B
:1037A0008AFBFFF7B9FFE1E14349486800F036FEC4
:1037B0000446FF2C01DC002C03DA7DA001F048FC5C
:1037C000D4E1E0B2FFF79FF836484460FFF746FBCC
:1037D000FFF7A2FFCAE1FFF78FFBFFF79DFFC5E1EF
:1037E000FFF72AFCFFF798FFC0E1FFF702FDFFF7A4
:1037F00093FFBBE1FFF7B3FEFFF78EFFB6E1FFF7E4
:103800004EFFFFF789FFB1E1FFF7FDFEFFF784FFF1
:10381000ACE100200190009027491022486801A9DE
:1038200000F0C4FD0546244910228868694600F06E
:10383000BDFD00E099E106460198007818B167A047
:10384000FEF77DFD92E10098007818B16FA0FEF7B9
:1038500076FD8BE12C462660FFF75EFF86E10020B7
:103860000190009014491022486801A900F09EFDC3
:103870000546114910228868694600F097FD044604
:103880000198007800B1D7E0DAE06AE166E162E130
:103890005EE143E1E5E027E10CE165E1000039404C
:1038A00000E06F40B0040020DC59000800002C400C
:1038B0000000B040D0040020F4040020000090403C
:1038C0005B4552524F525D6D6F64652073686F7532
:1038D0006C6420626520302869326329206F722071
:1038E000312870776D292E00757365206932632049
:1038F000746F20636F6E74726F6C20383535362E9E
:103900000D0A00007573652070776D20746F206359
:103910006F6E74726F6C20383535362E0D0A0000CC
:103920006D6F646520696C6C6567616C00000000F8
:1039300064757479206572726F722C647574792065
:1039400063616E206F6E6C7920626520307E31304D
:1039500032340000CC04002088050020AE00002096
:103960000D0A53686F7720416C6C20436F6D6D6159
:103970006E64733A0D0A25730D0A0000436F6D6D76
:10398000616E642049324352454144206661696C4E
:103990002E0D0A00436F6D6D616E642049324357EE
:1039A00052495445206661696C2E0D0A00000000E2
:1039B0005B4552524F525D6272696768746E6573FF
:1039C000732076616C75652073686F756C64206216
:1039D0006520307E3235352E000000005B455252A6
:1039E0004F525D616464726573732063616E206F12
:1039F0006E6C792062652061203332206269742008
:103A0000484558206E756D21000000005B455252FC
:103A10004F525D646174612063616E206F6E6C79DA
:103A20002062652061203332206269742048455845
:103A3000206E756D2100000054A0FEF780FC95E01B
:103A40000098007820B9002C02DBB4F5803F03DB3E
:103A50005AA0FEF774FC89E02E463480FFF75CFE26
:103A600084E00020019000905F491022486801A97D
:103A700000F09CFC05465C4910228868694600F00D
:103A800095FC04460198007820B1AFF6F040FEF7AF
:103A900056FC6BE00098007818B9002C01DBFF2C75
:103AA00003DD52A0FEF74BFC60E02E463470FFF7BA
:103AB00033FE5BE0002001904B491022486801A9C9
:103AC00000F074FC04460198007820B1AFF2F400D5
:103AD000FEF735FC4AE0254621464FA02A6801F052
:103AE000B7FAFFF719FE41E0002001903E4910228D
:103AF000486801A900F05AFC04460198007820B1FA
:103B0000AFF22810FEF71BFC30E025462A8821463C
:103B100041A001F09DFAFFF7FFFD27E00020019092
:103B200031491022486801A900F040FC0446019880
:103B3000007820B1AFF25C10FEF701FC16E02546DC
:103B40002A78214634A001F083FAFFF7E5FD0DE065
:103B5000FFF7E2FD0AE0FFF7DFFD07E0FFF7DCFD1E
:103B600004E0FFF7D9FD01E000E000BF00BF7CBD2D
:103B7000FEF7C8FF09E02F48006830B1FEF729FCC6
:103B8000FFF7D5FD00202B490860F4E75B45525252
:103B90004F525D616464726573732063616E206F60
:103BA0006E6C792062652061203136206269742054
:103BB000484558206E756D21000000005B4552524B
:103BC0004F525D646174612063616E206F6E6C7929
:103BD0002062652061203136206269742048455892
:103BE000206E756D21000000F40400205B455252E8
:103BF0004F525D646174612063616E206F6E6C79F9
:103C00002062652061203820626974204845582070
:103C10006E756D2100000000616464726573733A13
:103C2000307825782C20646174613A307825780DDD
:103C30000A000000A8000020704700BFFEE700BF98
:103C4000FEE700BFFEE700BFFEE770477047704722
:103C5000704710B540F225510648FEF70FFB38B10A
:103C60000448FEF78BFAC4B221460248FEF782FAF6
:103C700010BD00000038014008B54FF4A060FCF70B
:103C800063FB25208DF8000001208DF801008DF8E0
:103C900002008DF803006846FCF75BFB08BD00B529
:103CA00085B001210420FDF7B7F901218803FDF754
:103CB000B3F94FF40070ADF8100018208DF8130020
:103CC00003208DF8120004A95248FCF7E9FE4FF4D6
:103CD0008060ADF8100004208DF8130004A94D4851
:103CE000FCF7DEFE4C4800900020ADF80400ADF873
:103CF0000600ADF80800ADF80C000C20ADF80A0085
:103D000069464648FEF73DF9FFF7B6FF012240F24B
:103D100025514248FEF7CDF901214048FEF7BDF993
:103D200005B000BD70B504460D4629462046FEF795
:103D300021FA00BF80212046FEF78AFA0028F9D038
:103D400070BD2DE9F04107460D461646002405E0FA
:103D5000295D3846FFF7E6FF601CC4B2B442F7DBCA
:103D600000BF40213846FEF773FA0028F9D0BDE8BD
:103D7000F08170B506460C46002500BF615D3046F7
:103D8000FFF7D0FF6D1C605D0028F7D100BF402118
:103D90003046FEF75DFA0028F9D070BD2DE9F041FC
:103DA00005460C46260AE7B231462846FEF7E2F9F8
:103DB00000BF80212846FEF74BFA0028F9D039468B
:103DC0002846FEF7D7F900BF80212846FEF740FAC3
:103DD0000028F9D0BDE8F08170B504460D46E1B287
:103DE0000E48FEF7C7F900BF80210C48FEF730FAF5
:103DF0000028F9D0204670BD10B5044600BF202130
:103E00000648FEF725FA0028F9D00448FEF7B6F96F
:103E100010BD00000008014074B7010000380140E7
:103E200008B501210820FDF7F7F84FF42040ADF860
:103E3000000018208DF8030003208DF80200694669
:103E40006048FCF72DFE0121C802FDF7E5F80121CD
:103E50000820FDF7E1F84FF48040ADF80000102095
:103E60008DF8030001208DF8020069465548FCF7E3
:103E700017FE4FF480415348FCF7BFFE08BD70B5F4
:103E800088B005465048006844F2A241B0FBF1F00A
:103E9000461E701E6843C0F30F3421464BA001F04C
:103EA000D7F80020ADF81400ADF81600B0B2ADF8A8
:103EB00018000020ADF81A008DF81C0005A948482C
:103EC000FDF7E2F97020ADF804000120ADF806001E
:103ED0000420ADF80800ADF80A400220ADF80C004F
:103EE0000020ADF80E004FF48070ADF810000020F7
:103EF000ADF8120001A93A48FDF703FA0821384845
:103F0000FDF74EFE01213648FDF71AFD0121344828
:103F1000FDF722FD08B070BD70B588B004462A4890
:103F2000006844F2A241B0FBF1F0451E0020ADF85C
:103F30001400ADF81600A8B2ADF818000020ADF8D6
:103F40001A008DF81C0005A92548FDF79DF9702081
:103F5000ADF804000120ADF806000420ADF808001B
:103F60000220ADF80C000020ADF80E004FF4807078
:103F7000ADF810000020ADF81200681E6043C0F3D9
:103F80000F36ADF80A6001A91548FDF749FA082176
:103F90001348FDF71BFE01211148FDF7D1FC01215B
:103FA0000F48FDF7D9FC08B070BD10B5FFF738FF1A
:103FB0004FF40060FFF763FF4FF40060FFF7ACFFC2
:103FC00010BD0000000C0140000000204368616E3D
:103FD0006E656C3150756C73653A25640A0000009B
:103FE000002C014070B5054600F0C5F8284600F0E9
:103FF00044F900F022F908B1012400E0002400F0A7
:1040000007F900F0D4F8204670BD10B5002407E091
:10401000601C84B242F21070844201DB012010BDAA
:104020005820FFF7DFFF0028F2D100BFF7E72DE9A6
:10403000F04104460D461746002629E036B1E11747
:1040400004EB5171C910A4EBC101A9B900F0AFF89C
:10405000FFF7DBFF00B126E000F08DF8582000F0FC
:104060000CF900F0EAF800B11DE0204600F005F977
:1040700000F0E3F800B116E0287800F0FEF800F058
:10408000DCF800B10FE06D1C601CC4B2701C86B27D
:10409000BE42D3DB00F08BF8FFF7B7FF00B102E0C0
:1040A0000120BDE8F08100F082F80020F9E72DE959
:1040B000F04107460C461546FFF7A7FF00B130E078
:1040C00000F059F8582000F0D8F800F0B6F800B128
:1040D00027E0384600F0D1F800F0AFF800B120E05A
:1040E00000F049F8592000F0C8F800F0A6F800B137
:1040F00017E000260DE000F0F0F82070681EB042D6
:1041000002D100F085F801E000F066F8641C701C34
:1041100086B2AE42EFDB00BF00F049F80120BDE8F7
:10412000F08100F075F800F042F80020F7E7000099
:1041300008B501210820FCF76FFF4FF48070ADF83F
:10414000000014208DF8030003208DF8020069465A
:104150007348FCF7A5FC4FF40070ADF80000694609
:104160006F48FCF79DFC08BD002001E0411CC8B26F
:104170001428FBDB704710B54FF400716848FCF75A
:104180003CFD4FF480716648FCF737FDFFF7ECFF0C
:104190004FF400716248FCF732FDFFF7E5FF4FF482
:1041A00080715F48FCF72BFDFFF7DEFF10BD10B5F7
:1041B0004FF400715A48FCF722FD4FF480715848C3
:1041C000FCF71BFDFFF7D0FF4FF400715448FCF7DC
:1041D00014FDFFF7C9FF10BD10B54FF40071504832
:1041E000FCF70DFD4FF480714D48FCF706FDFFF71D
:1041F000BBFF4FF480714A48FCF701FDFFF7B4FFA5
:104200004FF400714648FCF7F8FCFFF7ADFF10BD16
:1042100010B54FF400714248FCF7EFFC4FF4807189
:104220003F48FCF7EAFCFFF79FFF4FF480713C48E2
:10423000FCF7E5FCFFF798FF10BD10B54FF40071D7
:104240003748FCF7DAFC4FF480713548FCF7D5FCB1
:10425000FFF78AFF4FF400713148FCF7B4FC0128E6
:1042600001D1012400E000244FF480712C48FCF7B8
:10427000C6FCFFF779FF204610BD70B50446002547
:1042800028E004F0800028B14FF400712448FCF7C6
:10429000B4FC04E04FF400712148FCF7B0FCFFF7D8
:1042A00063FF4FF480711E48FCF7A7FCFFF75CFF2B
:1042B0004FF480711A48FCF7A2FCFFF755FF072D59
:1042C00004D14FF400711648FCF797FC6006040E09
:1042D000681CC5B2082DD4DB70BD70B50024002564
:1042E0001AE06006040E4FF480710D48FCF785FC5F
:1042F000FFF73AFF4FF400710948FCF764FC01280E
:1043000001D1601CC4B24FF480710548FCF777FC02
:10431000FFF72AFF681CC5B2082DE2DB204670BDFE
:10432000000C0140D2B201E000F8012B491EFBD283
:1043300070470022F6E710B513460A4604461946B0
:10434000FFF7F0FF204610BD30B5054600200346BC
:1043500000E05B1C934205D2EC5CC85C201A01D1E2
:10436000002CF6D130BD000070B50F4D00B92868A3
:10437000002412E00A4602E09E4203D0521C137849
:10438000002BF9D1DAB2224305D02BB124B10021A0
:1043900000F8011B04E00446401C0678002EE9D119
:1043A0002860204670BD0000E80400202DE9F04799
:1043B00091460F4680460446002614F8015B2DB155
:1043C00000F0F8F90068405DC007F6D12B2D02D04F
:1043D0002D2D18D0641E4A463946204600F0F7F9C4
:1043E00027B13968A14201D1C7F8008071054FF0AB
:1043F00002040BD54042002803DD00F039FE0460C2
:10440000A007BDE8F08746F48066E4E70028F8DA04
:1044100000F02EFE04606FF00040F2E770B5064633
:1044200000F026FE046805460A2200213046FFF708
:10443000BDFF2C6070BD2DE9FE4F81EA030404F03E
:10444000004421F0004100944FF0000B23F00043A2
:1044500050EA01045ED052EA03045BD0C3F30A546D
:10446000C1F30A552C44A4F2F3340194A0FB025486
:10447000C1F3130141F48011C3F3130343F4801318
:1044800001FB024400FB034E840A970A44EA81546C
:1044900047EA8357A4FB076802958D0A05FB078549
:1044A0004FEA932C04FB0C542705029D4FEA065853
:1044B00047EA1637B5EB08056EEB070C870E920E30
:1044C00047EA811742EA8312A7FB0201B6EB0B0110
:1044D00064EB00042B0D43EA0C335E1844EB1C50D4
:1044E000DA465146E7FB0201C5F313044FEA0B33EA
:1044F00043EA14534FEA0432019C43EA0603A4F151
:104500000C040294009CCDE900B400F00CFA03B056
:10451000BDE8F08F00200146F9E72DE9F04D81EA72
:10452000030404F0004B21F0004514464FF0000A4C
:1045300023F0004150EA050220D054EA01021DD0C8
:10454000C5F30A570246C5F31303C1F31300C1F3C1
:104550000A5640F4801543F48013A7EB0608101B9D
:10456000D64608F2FD3873EB050002D308F10108C6
:1045700001E092185B41B8F1000F03DA0020014618
:10458000BDE8F08D00204FF48011064684460EE011
:10459000171B73EB050705D3121B63EB05030643DB
:1045A0004CEA010C49084FEA300092185B4150EA8E
:1045B0000107EDD152EA030012D082EA040083EA37
:1045C0000501084305D0101BAB4106D20122002390
:1045D00006E000224FF0004302E06FF001025310AA
:1045E0001AEB06004CEB085110EB0A0041EB0B01F3
:1045F000BDE8F04D00F088B90EB5C10F80EAE0705B
:104600000844CA07002140F233438DE80E000A46F1
:104610000B4600F088F903B000BD0EB540F23341FF
:1046200002910021CDE900110A460B4600F07BF90A
:1046300003B000BD70B5C1F30A5201F0004500247B
:10464000C1F3130140F2FF3341F480119A4201DAC1
:10465000002070BD40F233439A42A2F2334203DCA1
:10466000524200F096F800E090402C43F1D04042D6
:1046700070BDC1F30A5210B5C1F3130140F2FF330C
:1046800041F480119A4201DA002010BD40F2334318
:104690009A42A2F2334203DC524200F07AF810BD93
:1046A000904010BD30B5041E71F1000404DB4FF0E2
:1046B0000044404264EB0101141E73F1000405DB69
:1046C0001C464FF00043524263EB04038B4208BF89
:1046D000824230BD30B5041E71F1000404DB4FF09E
:1046E0000044404264EB0101141E73F1000405DB39
:1046F0001C464FF00043524263EB0403994208BF4B
:10470000904230BD30B50B460146002020220124E6
:1047100009E021FA02F59D4205D303FA02F5491B8F
:1047200004FA02F52844151EA2F10102F1DC30BDA5
:104730002DE9F05F0546002092469B4688460646D6
:10474000814640241BE0284641464746224600F069
:1047500020F853465A46C01A914110D311461846C4
:10476000224600F0FFF92D1A67EB01084F4622465A
:104770000120002100F0F6F917EB00094E41201E40
:10478000A4F10104DFDC484631462A464346BDE831
:10479000F09F202A04DB203A21FA02F00021704722
:1047A00021FA02F3D040C2F1200291400843194699
:1047B0007047000000487047D859000810B50446FB
:1047C000FFF7F8FF0068005D00F0010010BD2DE963
:1047D000F05F82460078002715468B460AF10104F7
:1047E000B946302801D09DB113E014F8010B012720
:1047F000782803D0582801D045B10AE00DB1102D1A
:1048000007D10027102514F8010B02E0082500E06D
:104810000A250026B0460EE005FB080005FB06F160
:10482000012701EB10461FFA80F8B6F5803F00D350
:10483000B94614F8010B294600F0B5F90028EBDA67
:10484000BBF1000F05D00FB1641E00E05446CBF859
:104850000040B9F1000F06D000F00AFC022101600F
:10486000C81EBDE8F09F48EA0640FAE70FB40023EF
:1048700000B589B00CA900910B996FF00042CB6094
:104880001E4B06931E4B07930423CDE901321D4AAC
:10489000089202466B46002000F014FA09B05DF859
:1048A00014FB70B586B006464FF0FF300091CDE99D
:1048B0000101002015460C4604903246694604A8C2
:1048C000FFF7D4FF03460498211825B108B10A4622
:1048D00000E022462A6000280DD0002B02DD00985F
:1048E000884208D0081B0094CDE90104324669468D
:1048F00004A8FFF7BBFF06B070BD0000FD4E000826
:104900001B4F0008BD47000810B5141E73F10004CA
:1049100008DA401C41F1000192185B411A4301D1B1
:1049200020F0010010BD2DE9F04D92469B4611B1DB
:10493000B1FA81F202E0B0FA80F22032904600F043
:1049400011F904460F4640EA0A0041EA0B015346BA
:104950005A46084313D0114653EA010019D0C8F152
:1049600040025046FFF715FF05460E465046594691
:10497000424600F0F7F8084305D0012004E0204645
:104980003946BDE8F08D0020054346EAE0762C4329
:1049900037430A986305E40AA0EB08000022FD0AE9
:1049A00044EA47540A3002D500200146E9E70105F0
:1049B00010196941DDE9084500196941BDE8F04D6C
:1049C000A2E72DE9FE4F804681EA0300C00F0C46A6
:1049D000009021F0004123F00045B8EB0200A9410E
:1049E00005D24046214690461C460B46024623F01F
:1049F0000040104347D0270DC7F30A00C3F30A5104
:104A00000290401A019040286BDAC3F3130040F47F
:104A1000801B0098924620B10023D2EB030A63EB7F
:104A20000B0B01985946C0F14002504600F09AF82D
:104A300006460D4650465946019A00F0A2F810EB82
:104A400008006141002487EA115284EAE7731A439F
:104A500040D0009A62B3019A012A4FEA075215DC4E
:104A6000001B61EB02014FF0004202EA0752CDE960
:104A70000042001C41F5801132462B46FFF753FFE0
:104A800003B0BDE8F08F40462146F9E7001B61EB1B
:104A90000201001C41F5801300185B412018A2F5AB
:104AA000001747EB030140EAD570B6196D4111E0DC
:104AB0006D084FEA360645EAC0754FEA0752001BFB
:104AC00061EB0201001C41F5801149084FEA3000FA
:104AD0000019514132462B4603B0BDE8F04FFFF7B5
:104AE00013BF0098012240000023D0EB020263EBC9
:104AF000E073009821464FEAE074B8EB000061EBE8
:104B00000401E9E783F000435BE781F0004158E7E7
:104B1000C1F30A52C1F3130140F2FF3341F4801193
:104B20009A4202DA00200146704740F233439A422B
:104B3000A2F2334202DC5242FFF72BBE00F012B861
:104B4000064C074D06E0E06840F0010394E80700DA
:104B500098471034AC42F6D3FBF7EEFA285A000817
:104B6000485A0008202A04DB203A00FA02F100200B
:104B700070479140C2F1200320FA03F3194390409B
:104B80007047202A06DBCB17203A41FA02F043EAAD
:104B9000E07306E041FA02F3D040C2F120029140F6
:104BA0000843194670473A2800D2303820F02002D6
:104BB000412A01D3A2F13700884201D34FF0FF30E0
:104BC000704700002DE9FF4F087881B09946FF2813
:104BD00005D0491C2D2804D00024002308E0002320
:104BE0000BE00124F9E703EB830300EB4303491CCB
:104BF0000878FF28F7D104B15B42002000901478B8
:104C000001462D2C01D02B2C04D1521C2D2C12D05E
:104C10000024009400251678FF2E0ED00A24A0FB55
:104C200004C801FB0481002700FB0711521C16EB8E
:104C30000C006941EFE70124EBE7994450EA0102D7
:104C40000ED00024AA4D2646DFF8A88200F076F99F
:104C500082468B46B9F1000009DAC9F100071BE072
:104C600001980021C0E9001105B0BDE8F08F0746AA
:104C700012E0F80707D022462B4630464146FFF7A0
:104C8000DAFB0646884622462B4610461946FFF7B1
:104C9000D2FB04460D467F10002FEAD1B9F1000F78
:104CA000324643465046594602DAFFF736FC01E0E9
:104CB000FFF7C1FB009A0AB181F00041019AC2E9F5
:104CC0000001D1E72DE9FF4F1F468DB0D7E901461E
:104CD0004FF0FF382E2045464FF000090B90B96980
:104CE0006D1C0E988847396A824688470028F6D19D
:104CF000BAF1FF3F0AD024F4D064002E11DDBAF1DE
:104D00002B0F08D0BAF12D0F0BD102E0404611B0A5
:104D1000ABE744F48064B9696D1C0E9888478246FD
:104D2000761E6946600501D52D2000E02B208DF808
:104D3000000001F1010B0DF1200809E0B9696D1CBB
:104D40000E98884782460F9844F40074761E0560DA
:104D5000002E02DDBAF1300FF0D00B998A453ED11A
:104D600044F0800406E00F99681CA9F1010944F49D
:104D700000740860B9696D1C761E0E9888478246DB
:104D80003028F0D02BE00B998A4505D1200603D4BA
:104D900044F08004761E18E0504600F02FFA08B365
:104DA0000DF11301761E44F400748B4508D2AAF16C
:104DB00030000BF8010B200607D5A9F1010003E034
:104DC000200602D409F101008146A00502D50F9901
:104DD000681C0860B9696D1C0E9888478246002ED1
:104DE000D1DC53E0002E51DDBAF1650F02D0BAF1EB
:104DF000450F4BD1A00549D5B9696D1C24F4407409
:104E0000761E0E9888478246002E0CDD2B2804D093
:104E1000BAF12D0F07D144F48074B9696D1C0E9856
:104E200088478246761EE00501D52D2100E02B2122
:104E300008F8011BCDF82C8021E00DF12901761E28
:104E400044F4007488450CD2AAF1300010F0FF0041
:104E500088F8000002D10B99884509D908F10108AA
:104E600006E0E00501D5244801E042F20F708146DA
:104E7000B9696D1C0E98884782460F980560002E10
:104E800004DD504600F0BAF90028D6D1F9690E9831
:104E90008847FF208BF8000088F80000002006906B
:104EA00007904B466A4608A906A8FFF78BFEA005A7
:104EB00002D46FF001002AE714F0240F0AD0E007B3
:104EC00014D1DDE906123868031D3B600068C0E9B3
:104ED00000120BE0DDE9060100F03CF80146E007B6
:104EE00004D13868021D3A600068016028460EE768
:104EF000000024400000F03FF1D8FFFF426842B1BB
:104F0000016811F8013B23B1521EC0E90012184696
:104F100070470121C160881E704742685AB1C3685A
:104F2000016843B983688B4205D0491E521CC0E911
:104F30000012002070474FF0FF3070470EB540F26E
:104F4000334202920022CDE900221346FFF7EBFC28
:104F500003B000BD01F0004330B421F0004150EA3D
:104F6000010206D00A0DA2F56072C1F31301002AF6
:104F700002DC30BC00207047440F44EAC104C10089
:104F8000E01830BC00EBC250AFF300800029A8BF8E
:104F90007047401C490008BF20F00100704710B462
:104FA000B0FA80FC00FA0CF050EA010404BF10BC17
:104FB000704749B1CCF1200421FA04F411FA0CF144
:104FC00018BF012121430843A3EB0C01CB1D4FEA7D
:104FD00000614FEA102042BF002010BC704700EB78
:104FE000C35010440029A4BF10BC7047401C4900A6
:104FF00008BF20F0010010BC704770B58C1810F885
:10500000015B15F0070301D110F8013B2A1106D10D
:1050100010F8012B03E010F8016B01F8016B5B1E27
:10502000F9D12B0705D40023521E0DD401F8013B02
:10503000FAE710F8013BCB1A921C03E013F8015B6E
:1050400001F8015B521EF9D5A142D8D3002070BDF2
:105050000FB4054B10B503A9044A029800F0D6F826
:1050600010BC5DF814FB0000D93D0008EC040020E2
:1050700000487047F004002002E008C8121F08C171
:10508000002AFAD170477047002001E001C1121FC9
:10509000002AFBD1704700002DE9FF5FDDE9022007
:1050A000010DDDF838B0024318D044F61050A1F2DB
:1050B000FF3141430D140F98012820D0A5EB0B00C0
:1050C000401C5FEA000A4FF00004474EDFF81C91D5
:1050D000A046504616D5CAF1000728E00F980124D3
:1050E00043A2012808D0002100980F9BC0E90021AD
:1050F000C0E90243BDE8FF9F6FEA0B01F4E7CBF183
:105100000000DEE7074612E0F80707D022463346E4
:1051100040464946FFF78FF9804689462246334686
:1051200010461946FFF787F904460E467F10002FF8
:10513000EAD1DDE90201BAF1000F42464B4602DA3C
:10514000FFF779F901E0FFF7E8F904460E4600227F
:10515000284BFFF7BFFA03D84FF0FF30014607E0B6
:105160000022254B20463146FFF72BFCFFF7D0FCF1
:10517000102409E0002C0ADB0A220023FFF7D8FAEA
:10518000019B30321A55641E50EA0102F2D1641CB0
:10519000019AC4F1110314440F9A012A03D0012289
:1051A00008430DD10AE0084304D000204FF0110B52
:1051B0000F9080E7A3EB0B056D1E0DE05B4504DD52
:1051C0004FF0000205F1010504E003DA4FF00002A0
:1051D000A5F10105002AECD000980F99C0E9023131
:1051E000C0E9004586E70000000024400000F03FD1
:1051F000300000000000F0430000E03F30380A2893
:1052000001D2012070470020704700002DE9FF4FB8
:1052100095B09B468946064600250FE2252877D1A2
:1052200000242746F84A0121059400E0044316F8BB
:10523000013F203B01FA03F01042F7D130782A28D1
:1052400011D06FF02F033078A0F13002092A16D860
:10525000059A44F0020402EB820203EB420210447E
:10526000761C0590EFE759F8042B0592002A03DA23
:10527000504244F40054059044F00204761C307807
:105280002E2816D116F8010F44F004042A280DD058
:105290006FF02F023078A0F13003092B09D807EB0B
:1052A000870302EB4303C718761CF3E759F8047B26
:1052B000761C30786C280FD006DC4C2817D0682874
:1052C0000DD06A2814D104E0742810D07A280FD1A8
:1052D0000DE044F400140AE044F4801401E044F4C6
:1052E00040147278824202D104F58014761C761C38
:1052F000307866280BD013DC582877D009DC0028DA
:1053000075D04528F6D04628F4D047281AD19DE11B
:1053100018E0632835D0642879D0652812D195E14A
:10532000702873D008DC6728F1D069286FD06E2808
:105330000DD06F2806D1B5E073282CD0752875D014
:10534000782874D05A46179990476D1C75E1C4F3BC
:105350000250022809D003280DD0D9F800100428E3
:105360000DD00D6009F1040967E1D9F80010EA17C2
:10537000C1E90052F6E7D9F800100D80F2E70D7090
:10538000F0E719F8041B8DF8001000208DF80100DB
:10539000EA46012003E059F804AB4FF0FF30610703
:1053A0004FF0000102D40DE008F101018846B94236
:1053B0000FDA8045F8DB1AF808100029F4D108E06C
:1053C00008F1010188468142FADB1AF80810002929
:1053D000F6D105985B46A0EB080721463846179A98
:1053E00000F094FA284400EB080507E04DE029E1BD
:1053F0000DE01AF8010B5A4617999047B8F10108C9
:10540000F7D25B4621463846179A13E142E00A225A
:105410000092C4F302524FF0000A022A08D059F851
:1054200004CB032A4FEAEC710AD00DE029E02AE010
:1054300009F1070121F00702F2E802C1914609E0F3
:105440000FFA8CFC4FEAEC71042A03D14FFA8CFC62
:105450004FEAEC71002907DA0A460021DCF1000C62
:1054600061EB02012D2202E0220504D52B228DF8EA
:105470000420012203E0E20701D02022F7E7904652
:1054800059E00A2102E010220DE010214FF0000A3D
:1054900000910BE010224FF0000A44F004040827AA
:1054A000009203E008224FF0000A0092C4F3025277
:1054B000022A05D059F804CB0021032A08D009E0BC
:1054C00009F1070121F00702F2E802C1914605E067
:1054D0001FFA8CFC042A01D10CF0FF0C4FF00008DD
:1054E000220728D5702806D0009B83F0100353EACA
:1054F0000A0305D00EE040228DF80420012208E0C6
:105500005CEA010206D030228DF804208DF80500F7
:1055100002229046009B83F0080353EA0A030AD153
:105520005CEA010201D1620705D530228DF8042022
:105530004FF001087F1E582804D034A003900EA815
:1055400002900DE036A0F9E753466046009AFFF757
:10555000EFF884460398825C0298401E0290027025
:105560005CEA0100F0D1029806A9081A00F1200AAD
:10557000600702D524F4803400E00127574502DD9E
:10558000A7EB0A0000E0002000EB0A01009005985C
:105590004144401A0590E00306D45B462146179A21
:1055A000059800F0B3F90544002706E001A85A4623
:1055B000C05D179990476D1C7F1C4745F6DBE003E3
:1055C0000CD55B462146179A059800F09FF90544D3
:1055D00004E030205A46179990476D1C0099481EE8
:1055E00000900029F5DC08E0029802995A460078FC
:1055F000491C0291179990476D1CBAF10001AAF15C
:10560000010AF1DC65E10000092801003031323384
:1056100034353637383961626364656600000000EE
:1056200030313233343536373839414243444546D8
:105630000000000000F058F90544761C307800287E
:105640007FF4ECAD19B02846BDE8F08F620700D4B6
:10565000062709F1070222F0070CFCE80223E146C5
:1056600003F000485FEA080C02D00FF2702C0DE046
:105670005FEA045C02D50FF2682C07E05FEAC47CA5
:1056800002D00FF2602C01E0AFF2700C4FF0FF3847
:1056900023F00043CDF850C065280CD006DC452827
:1056A00009D046281DD047283DD13DE0662818D0B6
:1056B00067287ED138E00021112F01DB112000E0A6
:1056C000781CCDE9000106A90EA8FFF7E5FCDDE98D
:1056D0000F010E9A03910021009207F1010A049133
:1056E0004DE04FF000400097CDE9011006A90EA84B
:1056F000FFF7D2FCDDE90F0203920E9B1199002205
:10570000DDF80CA00093049211B9791C00EB010A9A
:10571000B7EB0A0004D4C0F1FF3007F1010A04908E
:10572000AAEB0700019044E0012F00DA01270021D5
:10573000112F01DD112000E03846CDE9000106A956
:105740000EA8FFF7A9FCDDE90F010E9A03910021D5
:1057500004910092BA4621070CD40399514500DA0E
:105760008A46BAF1010F05DD009AAAF10101515CE8
:10577000302908D0B84202DA10F1040F06DA01210C
:10578000CDE9011015E0AAF10101E9E7002805DCE7
:10579000049901440491AAEB000102E0411C514527
:1057A00000DD8A460499401A401C01904FF00040E9
:1057B0000290200704D40198504501DBCDF8048005
:1057C00000208DF84F0002980DF14F07B0F1004F07
:1057D00025D02B200E9002984FF0020800280CDAFA
:1057E000404202902D200E9007E00A210298FEF719
:1057F00089FF3031029007F8011DB8F10001A8F1CE
:105800000108F2DC02980028EFD1791E0E9808708A
:10581000307800F0200040F0450007F8020D12A893
:10582000C01B00F107081498007800B1012000EBBC
:105830000A01019801EBE07105984144401A401EAD
:105840000590E00306D45B462146179A059800F0C0
:105850005DF805441498007818B15A461799904796
:105860006D1CE00324D55B462146179A059800F08D
:105870004DF805441CE00498002807DBDDE903012E
:10588000884203DD0098405C179901E017993020A9
:105890005A469047049805F10105401C0490019870
:1058A000401E019004D12E205A46179990476D1C36
:1058B000BAF10001AAF1010ADDDC05E017F8010BDD
:1058C0005A46179990476D1CB8F10001A8F10108DC
:1058D000F4DC5B462146179A0598ABE62D000000E4
:1058E0002B000000200000002DE9F04104460025B7
:1058F0001E461746880404D405E039462020B047E8
:105900006D1C641EF9D52846BDE8F0812DE9F041F3
:10591000044600251E469046C80301D5302700E006
:105920002027880404D505E041463846B0476D1C61
:10593000641EF9D52846BDE8F08100B583B00A465B
:105940000021CDE9001101466846FEF7AAFFDDE916
:10595000000103B000BD0040404040404040404096
:105960004141414141404040404040404040404032
:105970004040404040404005020202020202020252
:1059800002020202020202202020202020202020E9
:105990002002020202020202909090909090101059
:1059A00010101010101010101010101010101010F7
:1059B000101002020202020288888888888808087B
:1059C0000808080808080808080808080808080857
:1059D000080802020202400057590008326420738E
:1059E0006574207375636365737366756C6C792178
:1059F00020546869732073657474696E67206973D5
:105A00002074656D706F726172792E204E6F7720F1
:105A100074656D70206272696768746E6573732057
:105A200069732025640D0A00485A00080000002010
:105A3000F4040000FA4F0008985C0008F404002009
:105A400014050000885000081184A24A0468090166
:105A5000020304060708090C69101812020406085C
:105A600076657273696F6E3A20312E302001380FDF
:105A7000646174653A20323031382D392D32132863
:105A80000D436F7079726967687428632919000B78
:105A9000494169656767792C496E63A82348454C7D
:105AA00050202D2D20446973706C617920616C6CDD
:105AB00020636F6D6D616E64730D0A494E464F1E13
:105AC000180F426F61726420496E666F726D617467
:105AD000BE4E0D0A44554D411812756D7020383573
